{
	"contracts/CrowdFund.sol": {
		"CrowdFund": {
			"abi": [
				{
					"inputs": [
						{
							"internalType": "uint256",
							"name": "_goalWei",
							"type": "uint256"
						},
						{
							"internalType": "uint256",
							"name": "_durationSec",
							"type": "uint256"
						}
					],
					"stateMutability": "nonpayable",
					"type": "constructor"
				},
				{
					"anonymous": false,
					"inputs": [
						{
							"indexed": true,
							"internalType": "address",
							"name": "contributor",
							"type": "address"
						},
						{
							"indexed": false,
							"internalType": "uint256",
							"name": "amount",
							"type": "uint256"
						}
					],
					"name": "FundReceived",
					"type": "event"
				},
				{
					"anonymous": false,
					"inputs": [
						{
							"indexed": false,
							"internalType": "uint256",
							"name": "totalRaised",
							"type": "uint256"
						}
					],
					"name": "GoalReached",
					"type": "event"
				},
				{
					"anonymous": false,
					"inputs": [
						{
							"indexed": true,
							"internalType": "address",
							"name": "contributor",
							"type": "address"
						},
						{
							"indexed": false,
							"internalType": "uint256",
							"name": "amount",
							"type": "uint256"
						}
					],
					"name": "Refunded",
					"type": "event"
				},
				{
					"stateMutability": "payable",
					"type": "fallback"
				},
				{
					"inputs": [],
					"name": "amountRaised",
					"outputs": [
						{
							"internalType": "uint256",
							"name": "",
							"type": "uint256"
						}
					],
					"stateMutability": "view",
					"type": "function"
				},
				{
					"inputs": [],
					"name": "checkBalance",
					"outputs": [
						{
							"internalType": "uint256",
							"name": "currentBalance",
							"type": "uint256"
						}
					],
					"stateMutability": "view",
					"type": "function"
				},
				{
					"inputs": [],
					"name": "contribute",
					"outputs": [],
					"stateMutability": "payable",
					"type": "function"
				},
				{
					"inputs": [
						{
							"internalType": "address",
							"name": "",
							"type": "address"
						}
					],
					"name": "contributions",
					"outputs": [
						{
							"internalType": "uint256",
							"name": "",
							"type": "uint256"
						}
					],
					"stateMutability": "view",
					"type": "function"
				},
				{
					"inputs": [],
					"name": "contributorCount",
					"outputs": [
						{
							"internalType": "uint256",
							"name": "",
							"type": "uint256"
						}
					],
					"stateMutability": "view",
					"type": "function"
				},
				{
					"inputs": [],
					"name": "deadline",
					"outputs": [
						{
							"internalType": "uint256",
							"name": "",
							"type": "uint256"
						}
					],
					"stateMutability": "view",
					"type": "function"
				},
				{
					"inputs": [],
					"name": "getDetails",
					"outputs": [
						{
							"internalType": "uint256",
							"name": "goalWei",
							"type": "uint256"
						},
						{
							"internalType": "uint256",
							"name": "deadlineTs",
							"type": "uint256"
						},
						{
							"internalType": "uint256",
							"name": "raisedWei",
							"type": "uint256"
						},
						{
							"internalType": "uint256",
							"name": "numContributors",
							"type": "uint256"
						}
					],
					"stateMutability": "view",
					"type": "function"
				},
				{
					"inputs": [],
					"name": "goal",
					"outputs": [
						{
							"internalType": "uint256",
							"name": "",
							"type": "uint256"
						}
					],
					"stateMutability": "view",
					"type": "function"
				},
				{
					"inputs": [],
					"name": "owner",
					"outputs": [
						{
							"internalType": "address",
							"name": "",
							"type": "address"
						}
					],
					"stateMutability": "view",
					"type": "function"
				},
				{
					"inputs": [],
					"name": "refund",
					"outputs": [],
					"stateMutability": "nonpayable",
					"type": "function"
				},
				{
					"inputs": [],
					"name": "withdraw",
					"outputs": [],
					"stateMutability": "nonpayable",
					"type": "function"
				},
				{
					"stateMutability": "payable",
					"type": "receive"
				}
			],
			"devdoc": {
				"kind": "dev",
				"methods": {},
				"version": 1
			},
			"evm": {
				"assembly": "    /* \"contracts/CrowdFund.sol\":58:4189  contract CrowdFund {... */\n  mstore(0x40, 0xe0)\n    /* \"contracts/CrowdFund.sol\":1660:1976  constructor(uint256 _goalWei, uint256 _durationSec) {... */\n  callvalue\n  dup1\n  iszero\n  tag_1\n  jumpi\n  0x00\n  dup1\n  revert\ntag_1:\n  pop\n  mload(0x40)\n  sub(codesize, bytecodeSize)\n  dup1\n  bytecodeSize\n  dup4\n  codecopy\n  dup2\n  dup2\n  add\n  0x40\n  mstore\n  dup2\n  add\n  swap1\n  tag_2\n  swap2\n  swap1\n  tag_3\n  jump\t// in\ntag_2:\n    /* \"contracts/CrowdFund.sol\":1741:1742  0 */\n  0x00\n    /* \"contracts/CrowdFund.sol\":1730:1738  _goalWei */\n  dup3\n    /* \"contracts/CrowdFund.sol\":1730:1742  _goalWei > 0 */\n  gt\n    /* \"contracts/CrowdFund.sol\":1722:1783  require(_goalWei > 0,          \"CrowdFund: goal must be > 0\") */\n  tag_6\n  jumpi\n  mload(0x40)\n  0x08c379a000000000000000000000000000000000000000000000000000000000\n  dup2\n  mstore\n  0x04\n  add\n  tag_7\n  swap1\n  tag_8\n  jump\t// in\ntag_7:\n  mload(0x40)\n  dup1\n  swap2\n  sub\n  swap1\n  revert\ntag_6:\n    /* \"contracts/CrowdFund.sol\":1816:1817  0 */\n  0x00\n    /* \"contracts/CrowdFund.sol\":1801:1813  _durationSec */\n  dup2\n    /* \"contracts/CrowdFund.sol\":1801:1817  _durationSec > 0 */\n  gt\n    /* \"contracts/CrowdFund.sol\":1793:1858  require(_durationSec > 0,      \"CrowdFund: duration must be > 0\") */\n  tag_9\n  jumpi\n  mload(0x40)\n  0x08c379a000000000000000000000000000000000000000000000000000000000\n  dup2\n  mstore\n  0x04\n  add\n  tag_10\n  swap1\n  tag_11\n  jump\t// in\ntag_10:\n  mload(0x40)\n  dup1\n  swap2\n  sub\n  swap1\n  revert\ntag_9:\n    /* \"contracts/CrowdFund.sol\":1879:1889  msg.sender */\n  caller\n    /* \"contracts/CrowdFund.sol\":1868:1889  owner    = msg.sender */\n  0xffffffffffffffffffffffffffffffffffffffff\n  and\n  0x80\n  dup2\n  0xffffffffffffffffffffffffffffffffffffffff\n  and\n  dup2\n  mstore\n  pop\n  pop\n    /* \"contracts/CrowdFund.sol\":1910:1918  _goalWei */\n  dup2\n    /* \"contracts/CrowdFund.sol\":1899:1918  goal     = _goalWei */\n  0xa0\n  dup2\n  dup2\n  mstore\n  pop\n  pop\n    /* \"contracts/CrowdFund.sol\":1957:1969  _durationSec */\n  dup1\n    /* \"contracts/CrowdFund.sol\":1939:1954  block.timestamp */\n  timestamp\n    /* \"contracts/CrowdFund.sol\":1939:1969  block.timestamp + _durationSec */\n  tag_12\n  swap2\n  swap1\n  tag_13\n  jump\t// in\ntag_12:\n    /* \"contracts/CrowdFund.sol\":1928:1969  deadline = block.timestamp + _durationSec */\n  0xc0\n  dup2\n  dup2\n  mstore\n  pop\n  pop\n    /* \"contracts/CrowdFund.sol\":1660:1976  constructor(uint256 _goalWei, uint256 _durationSec) {... */\n  pop\n  pop\n    /* \"contracts/CrowdFund.sol\":58:4189  contract CrowdFund {... */\n  jump(tag_14)\n    /* \"#utility.yul\":88:205   */\ntag_16:\n    /* \"#utility.yul\":197:198   */\n  0x00\n    /* \"#utility.yul\":194:195   */\n  dup1\n    /* \"#utility.yul\":187:199   */\n  revert\n    /* \"#utility.yul\":334:411   */\ntag_18:\n    /* \"#utility.yul\":371:378   */\n  0x00\n    /* \"#utility.yul\":400:405   */\n  dup2\n    /* \"#utility.yul\":389:405   */\n  swap1\n  pop\n    /* \"#utility.yul\":334:411   */\n  swap2\n  swap1\n  pop\n  jump\t// out\n    /* \"#utility.yul\":417:539   */\ntag_19:\n    /* \"#utility.yul\":490:514   */\n  tag_33\n    /* \"#utility.yul\":508:513   */\n  dup2\n    /* \"#utility.yul\":490:514   */\n  tag_18\n  jump\t// in\ntag_33:\n    /* \"#utility.yul\":483:488   */\n  dup2\n    /* \"#utility.yul\":480:515   */\n  eq\n    /* \"#utility.yul\":470:533   */\n  tag_34\n  jumpi\n    /* \"#utility.yul\":529:530   */\n  0x00\n    /* \"#utility.yul\":526:527   */\n  dup1\n    /* \"#utility.yul\":519:531   */\n  revert\n    /* \"#utility.yul\":470:533   */\ntag_34:\n    /* \"#utility.yul\":417:539   */\n  pop\n  jump\t// out\n    /* \"#utility.yul\":545:688   */\ntag_20:\n    /* \"#utility.yul\":602:607   */\n  0x00\n    /* \"#utility.yul\":633:639   */\n  dup2\n    /* \"#utility.yul\":627:640   */\n  mload\n    /* \"#utility.yul\":618:640   */\n  swap1\n  pop\n    /* \"#utility.yul\":649:682   */\n  tag_36\n    /* \"#utility.yul\":676:681   */\n  dup2\n    /* \"#utility.yul\":649:682   */\n  tag_19\n  jump\t// in\ntag_36:\n    /* \"#utility.yul\":545:688   */\n  swap3\n  swap2\n  pop\n  pop\n  jump\t// out\n    /* \"#utility.yul\":694:1201   */\ntag_3:\n    /* \"#utility.yul\":773:779   */\n  0x00\n    /* \"#utility.yul\":781:787   */\n  dup1\n    /* \"#utility.yul\":830:832   */\n  0x40\n    /* \"#utility.yul\":818:827   */\n  dup4\n    /* \"#utility.yul\":809:816   */\n  dup6\n    /* \"#utility.yul\":805:828   */\n  sub\n    /* \"#utility.yul\":801:833   */\n  slt\n    /* \"#utility.yul\":798:917   */\n  iszero\n  tag_38\n  jumpi\n    /* \"#utility.yul\":836:915   */\n  tag_39\n  tag_16\n  jump\t// in\ntag_39:\n    /* \"#utility.yul\":798:917   */\ntag_38:\n    /* \"#utility.yul\":956:957   */\n  0x00\n    /* \"#utility.yul\":981:1045   */\n  tag_40\n    /* \"#utility.yul\":1037:1044   */\n  dup6\n    /* \"#utility.yul\":1028:1034   */\n  dup3\n    /* \"#utility.yul\":1017:1026   */\n  dup7\n    /* \"#utility.yul\":1013:1035   */\n  add\n    /* \"#utility.yul\":981:1045   */\n  tag_20\n  jump\t// in\ntag_40:\n    /* \"#utility.yul\":971:1045   */\n  swap3\n  pop\n    /* \"#utility.yul\":927:1055   */\n  pop\n    /* \"#utility.yul\":1094:1096   */\n  0x20\n    /* \"#utility.yul\":1120:1184   */\n  tag_41\n    /* \"#utility.yul\":1176:1183   */\n  dup6\n    /* \"#utility.yul\":1167:1173   */\n  dup3\n    /* \"#utility.yul\":1156:1165   */\n  dup7\n    /* \"#utility.yul\":1152:1174   */\n  add\n    /* \"#utility.yul\":1120:1184   */\n  tag_20\n  jump\t// in\ntag_41:\n    /* \"#utility.yul\":1110:1184   */\n  swap2\n  pop\n    /* \"#utility.yul\":1065:1194   */\n  pop\n    /* \"#utility.yul\":694:1201   */\n  swap3\n  pop\n  swap3\n  swap1\n  pop\n  jump\t// out\n    /* \"#utility.yul\":1207:1376   */\ntag_21:\n    /* \"#utility.yul\":1291:1302   */\n  0x00\n    /* \"#utility.yul\":1325:1331   */\n  dup3\n    /* \"#utility.yul\":1320:1323   */\n  dup3\n    /* \"#utility.yul\":1313:1332   */\n  mstore\n    /* \"#utility.yul\":1365:1369   */\n  0x20\n    /* \"#utility.yul\":1360:1363   */\n  dup3\n    /* \"#utility.yul\":1356:1370   */\n  add\n    /* \"#utility.yul\":1341:1370   */\n  swap1\n  pop\n    /* \"#utility.yul\":1207:1376   */\n  swap3\n  swap2\n  pop\n  pop\n  jump\t// out\n    /* \"#utility.yul\":1382:1559   */\ntag_22:\n    /* \"#utility.yul\":1522:1551   */\n  0x43726f776446756e643a20676f616c206d757374206265203e20300000000000\n    /* \"#utility.yul\":1518:1519   */\n  0x00\n    /* \"#utility.yul\":1510:1516   */\n  dup3\n    /* \"#utility.yul\":1506:1520   */\n  add\n    /* \"#utility.yul\":1499:1552   */\n  mstore\n    /* \"#utility.yul\":1382:1559   */\n  pop\n  jump\t// out\n    /* \"#utility.yul\":1565:1931   */\ntag_23:\n    /* \"#utility.yul\":1707:1710   */\n  0x00\n    /* \"#utility.yul\":1728:1795   */\n  tag_45\n    /* \"#utility.yul\":1792:1794   */\n  0x1b\n    /* \"#utility.yul\":1787:1790   */\n  dup4\n    /* \"#utility.yul\":1728:1795   */\n  tag_21\n  jump\t// in\ntag_45:\n    /* \"#utility.yul\":1721:1795   */\n  swap2\n  pop\n    /* \"#utility.yul\":1804:1897   */\n  tag_46\n    /* \"#utility.yul\":1893:1896   */\n  dup3\n    /* \"#utility.yul\":1804:1897   */\n  tag_22\n  jump\t// in\ntag_46:\n    /* \"#utility.yul\":1922:1924   */\n  0x20\n    /* \"#utility.yul\":1917:1920   */\n  dup3\n    /* \"#utility.yul\":1913:1925   */\n  add\n    /* \"#utility.yul\":1906:1925   */\n  swap1\n  pop\n    /* \"#utility.yul\":1565:1931   */\n  swap2\n  swap1\n  pop\n  jump\t// out\n    /* \"#utility.yul\":1937:2356   */\ntag_8:\n    /* \"#utility.yul\":2103:2107   */\n  0x00\n    /* \"#utility.yul\":2141:2143   */\n  0x20\n    /* \"#utility.yul\":2130:2139   */\n  dup3\n    /* \"#utility.yul\":2126:2144   */\n  add\n    /* \"#utility.yul\":2118:2144   */\n  swap1\n  pop\n    /* \"#utility.yul\":2190:2199   */\n  dup2\n    /* \"#utility.yul\":2184:2188   */\n  dup2\n    /* \"#utility.yul\":2180:2200   */\n  sub\n    /* \"#utility.yul\":2176:2177   */\n  0x00\n    /* \"#utility.yul\":2165:2174   */\n  dup4\n    /* \"#utility.yul\":2161:2178   */\n  add\n    /* \"#utility.yul\":2154:2201   */\n  mstore\n    /* \"#utility.yul\":2218:2349   */\n  tag_48\n    /* \"#utility.yul\":2344:2348   */\n  dup2\n    /* \"#utility.yul\":2218:2349   */\n  tag_23\n  jump\t// in\ntag_48:\n    /* \"#utility.yul\":2210:2349   */\n  swap1\n  pop\n    /* \"#utility.yul\":1937:2356   */\n  swap2\n  swap1\n  pop\n  jump\t// out\n    /* \"#utility.yul\":2362:2543   */\ntag_24:\n    /* \"#utility.yul\":2502:2535   */\n  0x43726f776446756e643a206475726174696f6e206d757374206265203e203000\n    /* \"#utility.yul\":2498:2499   */\n  0x00\n    /* \"#utility.yul\":2490:2496   */\n  dup3\n    /* \"#utility.yul\":2486:2500   */\n  add\n    /* \"#utility.yul\":2479:2536   */\n  mstore\n    /* \"#utility.yul\":2362:2543   */\n  pop\n  jump\t// out\n    /* \"#utility.yul\":2549:2915   */\ntag_25:\n    /* \"#utility.yul\":2691:2694   */\n  0x00\n    /* \"#utility.yul\":2712:2779   */\n  tag_51\n    /* \"#utility.yul\":2776:2778   */\n  0x1f\n    /* \"#utility.yul\":2771:2774   */\n  dup4\n    /* \"#utility.yul\":2712:2779   */\n  tag_21\n  jump\t// in\ntag_51:\n    /* \"#utility.yul\":2705:2779   */\n  swap2\n  pop\n    /* \"#utility.yul\":2788:2881   */\n  tag_52\n    /* \"#utility.yul\":2877:2880   */\n  dup3\n    /* \"#utility.yul\":2788:2881   */\n  tag_24\n  jump\t// in\ntag_52:\n    /* \"#utility.yul\":2906:2908   */\n  0x20\n    /* \"#utility.yul\":2901:2904   */\n  dup3\n    /* \"#utility.yul\":2897:2909   */\n  add\n    /* \"#utility.yul\":2890:2909   */\n  swap1\n  pop\n    /* \"#utility.yul\":2549:2915   */\n  swap2\n  swap1\n  pop\n  jump\t// out\n    /* \"#utility.yul\":2921:3340   */\ntag_11:\n    /* \"#utility.yul\":3087:3091   */\n  0x00\n    /* \"#utility.yul\":3125:3127   */\n  0x20\n    /* \"#utility.yul\":3114:3123   */\n  dup3\n    /* \"#utility.yul\":3110:3128   */\n  add\n    /* \"#utility.yul\":3102:3128   */\n  swap1\n  pop\n    /* \"#utility.yul\":3174:3183   */\n  dup2\n    /* \"#utility.yul\":3168:3172   */\n  dup2\n    /* \"#utility.yul\":3164:3184   */\n  sub\n    /* \"#utility.yul\":3160:3161   */\n  0x00\n    /* \"#utility.yul\":3149:3158   */\n  dup4\n    /* \"#utility.yul\":3145:3162   */\n  add\n    /* \"#utility.yul\":3138:3185   */\n  mstore\n    /* \"#utility.yul\":3202:3333   */\n  tag_54\n    /* \"#utility.yul\":3328:3332   */\n  dup2\n    /* \"#utility.yul\":3202:3333   */\n  tag_25\n  jump\t// in\ntag_54:\n    /* \"#utility.yul\":3194:3333   */\n  swap1\n  pop\n    /* \"#utility.yul\":2921:3340   */\n  swap2\n  swap1\n  pop\n  jump\t// out\n    /* \"#utility.yul\":3346:3526   */\ntag_26:\n    /* \"#utility.yul\":3394:3471   */\n  0x4e487b7100000000000000000000000000000000000000000000000000000000\n    /* \"#utility.yul\":3391:3392   */\n  0x00\n    /* \"#utility.yul\":3384:3472   */\n  mstore\n    /* \"#utility.yul\":3491:3495   */\n  0x11\n    /* \"#utility.yul\":3488:3489   */\n  0x04\n    /* \"#utility.yul\":3481:3496   */\n  mstore\n    /* \"#utility.yul\":3515:3519   */\n  0x24\n    /* \"#utility.yul\":3512:3513   */\n  0x00\n    /* \"#utility.yul\":3505:3520   */\n  revert\n    /* \"#utility.yul\":3532:3723   */\ntag_13:\n    /* \"#utility.yul\":3572:3575   */\n  0x00\n    /* \"#utility.yul\":3591:3611   */\n  tag_57\n    /* \"#utility.yul\":3609:3610   */\n  dup3\n    /* \"#utility.yul\":3591:3611   */\n  tag_18\n  jump\t// in\ntag_57:\n    /* \"#utility.yul\":3586:3611   */\n  swap2\n  pop\n    /* \"#utility.yul\":3625:3645   */\n  tag_58\n    /* \"#utility.yul\":3643:3644   */\n  dup4\n    /* \"#utility.yul\":3625:3645   */\n  tag_18\n  jump\t// in\ntag_58:\n    /* \"#utility.yul\":3620:3645   */\n  swap3\n  pop\n    /* \"#utility.yul\":3668:3669   */\n  dup3\n    /* \"#utility.yul\":3665:3666   */\n  dup3\n    /* \"#utility.yul\":3661:3670   */\n  add\n    /* \"#utility.yul\":3654:3670   */\n  swap1\n  pop\n    /* \"#utility.yul\":3689:3692   */\n  dup1\n    /* \"#utility.yul\":3686:3687   */\n  dup3\n    /* \"#utility.yul\":3683:3693   */\n  gt\n    /* \"#utility.yul\":3680:3716   */\n  iszero\n  tag_59\n  jumpi\n    /* \"#utility.yul\":3696:3714   */\n  tag_60\n  tag_26\n  jump\t// in\ntag_60:\n    /* \"#utility.yul\":3680:3716   */\ntag_59:\n    /* \"#utility.yul\":3532:3723   */\n  swap3\n  swap2\n  pop\n  pop\n  jump\t// out\n    /* \"contracts/CrowdFund.sol\":58:4189  contract CrowdFund {... */\ntag_14:\n  mload(0x80)\n  mload(0xa0)\n  mload(0xc0)\n  codecopy(0x00, dataOffset(sub_0), dataSize(sub_0))\n  0x00\n  assignImmutable(\"0x52f1a9b320cab38e5da8a8f97989383aab0a49165fc91c737310e4f7e9821021\")\n  0x00\n  assignImmutable(\"0xceebf77a833b30520287ddd9478ff51abbdffa30aa90a8d655dba0e8a79ce0c1\")\n  0x00\n  assignImmutable(\"0x2a80e1ef1d7842f27f2e6be0972bb708b9a135c38860dbe73c27c3486c34f4de\")\n  return(0x00, dataSize(sub_0))\nstop\n\nsub_0: assembly {\n        /* \"contracts/CrowdFund.sol\":58:4189  contract CrowdFund {... */\n      mstore(0x40, 0x80)\n      jumpi(tag_1, lt(calldatasize, 0x04))\n      shr(0xe0, calldataload(0x00))\n      dup1\n      0x7b3e5e7b\n      gt\n      tag_14\n      jumpi\n      dup1\n      0x7b3e5e7b\n      eq\n      tag_8\n      jumpi\n      dup1\n      0x8da5cb5b\n      eq\n      tag_9\n      jumpi\n      dup1\n      0xc71daccb\n      eq\n      tag_10\n      jumpi\n      dup1\n      0xd7bb99ba\n      eq\n      tag_11\n      jumpi\n      dup1\n      0xecfd8928\n      eq\n      tag_12\n      jumpi\n      dup1\n      0xfbbf93a0\n      eq\n      tag_13\n      jumpi\n      jump(tag_2)\n    tag_14:\n      dup1\n      0x29dcb0cf\n      eq\n      tag_3\n      jumpi\n      dup1\n      0x3ccfd60b\n      eq\n      tag_4\n      jumpi\n      dup1\n      0x40193883\n      eq\n      tag_5\n      jumpi\n      dup1\n      0x42e94c90\n      eq\n      tag_6\n      jumpi\n      dup1\n      0x590e1ae3\n      eq\n      tag_7\n      jumpi\n      jump(tag_2)\n    tag_1:\n      jumpi(tag_2, calldatasize)\n        /* \"contracts/CrowdFund.sol\":4103:4116  _contribute() */\n      tag_17\n        /* \"contracts/CrowdFund.sol\":4103:4114  _contribute */\n      tag_18\n        /* \"contracts/CrowdFund.sol\":4103:4116  _contribute() */\n      jump\t// in\n    tag_17:\n        /* \"contracts/CrowdFund.sol\":58:4189  contract CrowdFund {... */\n      stop\n    tag_2:\n        /* \"contracts/CrowdFund.sol\":4167:4180  _contribute() */\n      tag_21\n        /* \"contracts/CrowdFund.sol\":4167:4178  _contribute */\n      tag_18\n        /* \"contracts/CrowdFund.sol\":4167:4180  _contribute() */\n      jump\t// in\n    tag_21:\n        /* \"contracts/CrowdFund.sol\":58:4189  contract CrowdFund {... */\n      stop\n        /* \"contracts/CrowdFund.sol\":354:387  uint256 public immutable deadline */\n    tag_3:\n      callvalue\n      dup1\n      iszero\n      tag_22\n      jumpi\n      0x00\n      dup1\n      revert\n    tag_22:\n      pop\n      tag_23\n      tag_24\n      jump\t// in\n    tag_23:\n      mload(0x40)\n      tag_25\n      swap2\n      swap1\n      tag_26\n      jump\t// in\n    tag_25:\n      mload(0x40)\n      dup1\n      swap2\n      sub\n      swap1\n      return\n        /* \"contracts/CrowdFund.sol\":3166:3475  function withdraw() external onlyOwner {... */\n    tag_4:\n      callvalue\n      dup1\n      iszero\n      tag_27\n      jumpi\n      0x00\n      dup1\n      revert\n    tag_27:\n      pop\n      tag_28\n      tag_29\n      jump\t// in\n    tag_28:\n      stop\n        /* \"contracts/CrowdFund.sol\":290:319  uint256 public immutable goal */\n    tag_5:\n      callvalue\n      dup1\n      iszero\n      tag_30\n      jumpi\n      0x00\n      dup1\n      revert\n    tag_30:\n      pop\n      tag_31\n      tag_32\n      jump\t// in\n    tag_31:\n      mload(0x40)\n      tag_33\n      swap2\n      swap1\n      tag_26\n      jump\t// in\n    tag_33:\n      mload(0x40)\n      dup1\n      swap2\n      sub\n      swap1\n      return\n        /* \"contracts/CrowdFund.sol\":557:605  mapping(address => uint256) public contributions */\n    tag_6:\n      callvalue\n      dup1\n      iszero\n      tag_34\n      jumpi\n      0x00\n      dup1\n      revert\n    tag_34:\n      pop\n      tag_35\n      0x04\n      dup1\n      calldatasize\n      sub\n      dup2\n      add\n      swap1\n      tag_36\n      swap2\n      swap1\n      tag_37\n      jump\t// in\n    tag_36:\n      tag_38\n      jump\t// in\n    tag_35:\n      mload(0x40)\n      tag_39\n      swap2\n      swap1\n      tag_26\n      jump\t// in\n    tag_39:\n      mload(0x40)\n      dup1\n      swap2\n      sub\n      swap1\n      return\n        /* \"contracts/CrowdFund.sol\":3481:3910  function refund() external afterDeadline {... */\n    tag_7:\n      callvalue\n      dup1\n      iszero\n      tag_40\n      jumpi\n      0x00\n      dup1\n      revert\n    tag_40:\n      pop\n      tag_41\n      tag_42\n      jump\t// in\n    tag_41:\n      stop\n        /* \"contracts/CrowdFund.sol\":611:638  uint256 public amountRaised */\n    tag_8:\n      callvalue\n      dup1\n      iszero\n      tag_43\n      jumpi\n      0x00\n      dup1\n      revert\n    tag_43:\n      pop\n      tag_44\n      tag_45\n      jump\t// in\n    tag_44:\n      mload(0x40)\n      tag_46\n      swap2\n      swap1\n      tag_26\n      jump\t// in\n    tag_46:\n      mload(0x40)\n      dup1\n      swap2\n      sub\n      swap1\n      return\n        /* \"contracts/CrowdFund.sol\":229:259  address public immutable owner */\n    tag_9:\n      callvalue\n      dup1\n      iszero\n      tag_47\n      jumpi\n      0x00\n      dup1\n      revert\n    tag_47:\n      pop\n      tag_48\n      tag_49\n      jump\t// in\n    tag_48:\n      mload(0x40)\n      tag_50\n      swap2\n      swap1\n      tag_51\n      jump\t// in\n    tag_50:\n      mload(0x40)\n      dup1\n      swap2\n      sub\n      swap1\n      return\n        /* \"contracts/CrowdFund.sol\":2763:2870  function checkBalance() external view returns (uint256 currentBalance) {... */\n    tag_10:\n      callvalue\n      dup1\n      iszero\n      tag_52\n      jumpi\n      0x00\n      dup1\n      revert\n    tag_52:\n      pop\n      tag_53\n      tag_54\n      jump\t// in\n    tag_53:\n      mload(0x40)\n      tag_55\n      swap2\n      swap1\n      tag_26\n      jump\t// in\n    tag_55:\n      mload(0x40)\n      dup1\n      swap2\n      sub\n      swap1\n      return\n        /* \"contracts/CrowdFund.sol\":2688:2757  function contribute() external payable {... */\n    tag_11:\n      tag_56\n      tag_57\n      jump\t// in\n    tag_56:\n      stop\n        /* \"contracts/CrowdFund.sol\":644:675  uint256 public contributorCount */\n    tag_12:\n      callvalue\n      dup1\n      iszero\n      tag_58\n      jumpi\n      0x00\n      dup1\n      revert\n    tag_58:\n      pop\n      tag_59\n      tag_60\n      jump\t// in\n    tag_59:\n      mload(0x40)\n      tag_61\n      swap2\n      swap1\n      tag_26\n      jump\t// in\n    tag_61:\n      mload(0x40)\n      dup1\n      swap2\n      sub\n      swap1\n      return\n        /* \"contracts/CrowdFund.sol\":2876:3160  function getDetails()... */\n    tag_13:\n      callvalue\n      dup1\n      iszero\n      tag_62\n      jumpi\n      0x00\n      dup1\n      revert\n    tag_62:\n      pop\n      tag_63\n      tag_64\n      jump\t// in\n    tag_63:\n      mload(0x40)\n      tag_65\n      swap5\n      swap4\n      swap3\n      swap2\n      swap1\n      tag_66\n      jump\t// in\n    tag_65:\n      mload(0x40)\n      dup1\n      swap2\n      sub\n      swap1\n      return\n        /* \"contracts/CrowdFund.sol\":2128:2528  function _contribute() internal beforeDeadline {... */\n    tag_18:\n        /* \"contracts/CrowdFund.sol\":1320:1328  deadline */\n      immutable(\"0x52f1a9b320cab38e5da8a8f97989383aab0a49165fc91c737310e4f7e9821021\")\n        /* \"contracts/CrowdFund.sol\":1302:1317  block.timestamp */\n      timestamp\n        /* \"contracts/CrowdFund.sol\":1302:1328  block.timestamp < deadline */\n      lt\n        /* \"contracts/CrowdFund.sol\":1294:1363  require(block.timestamp < deadline, \"CrowdFund: funding period over\") */\n      tag_68\n      jumpi\n      mload(0x40)\n      0x08c379a000000000000000000000000000000000000000000000000000000000\n      dup2\n      mstore\n      0x04\n      add\n      tag_69\n      swap1\n      tag_70\n      jump\t// in\n    tag_69:\n      mload(0x40)\n      dup1\n      swap2\n      sub\n      swap1\n      revert\n    tag_68:\n        /* \"contracts/CrowdFund.sol\":2206:2216  0.01 ether */\n      0x2386f26fc10000\n        /* \"contracts/CrowdFund.sol\":2193:2202  msg.value */\n      callvalue\n        /* \"contracts/CrowdFund.sol\":2193:2216  msg.value >= 0.01 ether */\n      lt\n      iszero\n        /* \"contracts/CrowdFund.sol\":2185:2244  require(msg.value >= 0.01 ether, \"CrowdFund: min 0.01 ETH\") */\n      tag_72\n      jumpi\n      mload(0x40)\n      0x08c379a000000000000000000000000000000000000000000000000000000000\n      dup2\n      mstore\n      0x04\n      add\n      tag_73\n      swap1\n      tag_74\n      jump\t// in\n    tag_73:\n      mload(0x40)\n      dup1\n      swap2\n      sub\n      swap1\n      revert\n    tag_72:\n        /* \"contracts/CrowdFund.sol\":2287:2288  0 */\n      0x00\n        /* \"contracts/CrowdFund.sol\":2258:2271  contributions */\n      dup1\n        /* \"contracts/CrowdFund.sol\":2258:2283  contributions[msg.sender] */\n      0x00\n        /* \"contracts/CrowdFund.sol\":2272:2282  msg.sender */\n      caller\n        /* \"contracts/CrowdFund.sol\":2258:2283  contributions[msg.sender] */\n      0xffffffffffffffffffffffffffffffffffffffff\n      and\n      0xffffffffffffffffffffffffffffffffffffffff\n      and\n      dup2\n      mstore\n      0x20\n      add\n      swap1\n      dup2\n      mstore\n      0x20\n      add\n      0x00\n      keccak256\n      sload\n        /* \"contracts/CrowdFund.sol\":2258:2288  contributions[msg.sender] == 0 */\n      sub\n        /* \"contracts/CrowdFund.sol\":2254:2308  if (contributions[msg.sender] == 0) ++contributorCount */\n      tag_75\n      jumpi\n        /* \"contracts/CrowdFund.sol\":2292:2308  contributorCount */\n      0x02\n      0x00\n        /* \"contracts/CrowdFund.sol\":2290:2308  ++contributorCount */\n      dup2\n      sload\n      tag_76\n      swap1\n      tag_77\n      jump\t// in\n    tag_76:\n      swap2\n      swap1\n      pop\n      dup2\n      swap1\n      sstore\n      pop\n        /* \"contracts/CrowdFund.sol\":2254:2308  if (contributions[msg.sender] == 0) ++contributorCount */\n    tag_75:\n        /* \"contracts/CrowdFund.sol\":2347:2356  msg.value */\n      callvalue\n        /* \"contracts/CrowdFund.sol\":2318:2331  contributions */\n      0x00\n        /* \"contracts/CrowdFund.sol\":2318:2343  contributions[msg.sender] */\n      dup1\n        /* \"contracts/CrowdFund.sol\":2332:2342  msg.sender */\n      caller\n        /* \"contracts/CrowdFund.sol\":2318:2343  contributions[msg.sender] */\n      0xffffffffffffffffffffffffffffffffffffffff\n      and\n      0xffffffffffffffffffffffffffffffffffffffff\n      and\n      dup2\n      mstore\n      0x20\n      add\n      swap1\n      dup2\n      mstore\n      0x20\n      add\n      0x00\n      keccak256\n      0x00\n        /* \"contracts/CrowdFund.sol\":2318:2356  contributions[msg.sender] += msg.value */\n      dup3\n      dup3\n      sload\n      tag_78\n      swap2\n      swap1\n      tag_79\n      jump\t// in\n    tag_78:\n      swap3\n      pop\n      pop\n      dup2\n      swap1\n      sstore\n      pop\n        /* \"contracts/CrowdFund.sol\":2395:2404  msg.value */\n      callvalue\n        /* \"contracts/CrowdFund.sol\":2366:2378  amountRaised */\n      0x01\n      0x00\n        /* \"contracts/CrowdFund.sol\":2366:2404  amountRaised              += msg.value */\n      dup3\n      dup3\n      sload\n      tag_80\n      swap2\n      swap1\n      tag_79\n      jump\t// in\n    tag_80:\n      swap3\n      pop\n      pop\n      dup2\n      swap1\n      sstore\n      pop\n        /* \"contracts/CrowdFund.sol\":2433:2443  msg.sender */\n      caller\n        /* \"contracts/CrowdFund.sol\":2420:2455  FundReceived(msg.sender, msg.value) */\n      0xffffffffffffffffffffffffffffffffffffffff\n      and\n      0x54a5b8782470a0d2c022b3b9e5e729503ac5dbdfe053afeb4559f9297f7565a6\n        /* \"contracts/CrowdFund.sol\":2445:2454  msg.value */\n      callvalue\n        /* \"contracts/CrowdFund.sol\":2420:2455  FundReceived(msg.sender, msg.value) */\n      mload(0x40)\n      tag_81\n      swap2\n      swap1\n      tag_26\n      jump\t// in\n    tag_81:\n      mload(0x40)\n      dup1\n      swap2\n      sub\n      swap1\n      log2\n        /* \"contracts/CrowdFund.sol\":2485:2489  goal */\n      immutable(\"0xceebf77a833b30520287ddd9478ff51abbdffa30aa90a8d655dba0e8a79ce0c1\")\n        /* \"contracts/CrowdFund.sol\":2469:2481  amountRaised */\n      sload(0x01)\n        /* \"contracts/CrowdFund.sol\":2469:2489  amountRaised >= goal */\n      lt\n        /* \"contracts/CrowdFund.sol\":2465:2521  if (amountRaised >= goal) emit GoalReached(amountRaised) */\n      tag_82\n      jumpi\n        /* \"contracts/CrowdFund.sol\":2496:2521  GoalReached(amountRaised) */\n      0xfbfd8ab7c24300fa9888cd721c8565a7da56759384781283684dcf7c7c4a846b\n        /* \"contracts/CrowdFund.sol\":2508:2520  amountRaised */\n      sload(0x01)\n        /* \"contracts/CrowdFund.sol\":2496:2521  GoalReached(amountRaised) */\n      mload(0x40)\n      tag_83\n      swap2\n      swap1\n      tag_26\n      jump\t// in\n    tag_83:\n      mload(0x40)\n      dup1\n      swap2\n      sub\n      swap1\n      log1\n        /* \"contracts/CrowdFund.sol\":2465:2521  if (amountRaised >= goal) emit GoalReached(amountRaised) */\n    tag_82:\n        /* \"contracts/CrowdFund.sol\":2128:2528  function _contribute() internal beforeDeadline {... */\n      jump\t// out\n        /* \"contracts/CrowdFund.sol\":354:387  uint256 public immutable deadline */\n    tag_24:\n      immutable(\"0x52f1a9b320cab38e5da8a8f97989383aab0a49165fc91c737310e4f7e9821021\")\n      dup2\n      jump\t// out\n        /* \"contracts/CrowdFund.sol\":3166:3475  function withdraw() external onlyOwner {... */\n    tag_29:\n        /* \"contracts/CrowdFund.sol\":1195:1200  owner */\n      immutable(\"0x2a80e1ef1d7842f27f2e6be0972bb708b9a135c38860dbe73c27c3486c34f4de\")\n        /* \"contracts/CrowdFund.sol\":1181:1200  msg.sender == owner */\n      0xffffffffffffffffffffffffffffffffffffffff\n      and\n        /* \"contracts/CrowdFund.sol\":1181:1191  msg.sender */\n      caller\n        /* \"contracts/CrowdFund.sol\":1181:1200  msg.sender == owner */\n      0xffffffffffffffffffffffffffffffffffffffff\n      and\n      eq\n        /* \"contracts/CrowdFund.sol\":1173:1235  require(msg.sender == owner, \"CrowdFund: caller is not owner\") */\n      tag_85\n      jumpi\n      mload(0x40)\n      0x08c379a000000000000000000000000000000000000000000000000000000000\n      dup2\n      mstore\n      0x04\n      add\n      tag_86\n      swap1\n      tag_87\n      jump\t// in\n    tag_86:\n      mload(0x40)\n      dup1\n      swap2\n      sub\n      swap1\n      revert\n    tag_85:\n        /* \"contracts/CrowdFund.sol\":3239:3243  goal */\n      immutable(\"0xceebf77a833b30520287ddd9478ff51abbdffa30aa90a8d655dba0e8a79ce0c1\")\n        /* \"contracts/CrowdFund.sol\":3223:3235  amountRaised */\n      sload(0x01)\n        /* \"contracts/CrowdFund.sol\":3223:3243  amountRaised >= goal */\n      lt\n      iszero\n        /* \"contracts/CrowdFund.sol\":3215:3275  require(amountRaised >= goal, \"CrowdFund: goal not reached\") */\n      tag_89\n      jumpi\n      mload(0x40)\n      0x08c379a000000000000000000000000000000000000000000000000000000000\n      dup2\n      mstore\n      0x04\n      add\n      tag_90\n      swap1\n      tag_91\n      jump\t// in\n    tag_90:\n      mload(0x40)\n      dup1\n      swap2\n      sub\n      swap1\n      revert\n    tag_89:\n        /* \"contracts/CrowdFund.sol\":3285:3300  uint256 balance */\n      0x00\n        /* \"contracts/CrowdFund.sol\":3303:3315  amountRaised */\n      sload(0x01)\n        /* \"contracts/CrowdFund.sol\":3285:3315  uint256 balance = amountRaised */\n      swap1\n      pop\n        /* \"contracts/CrowdFund.sol\":3340:3341  0 */\n      0x00\n        /* \"contracts/CrowdFund.sol\":3325:3337  amountRaised */\n      0x01\n        /* \"contracts/CrowdFund.sol\":3325:3341  amountRaised = 0 */\n      dup2\n      swap1\n      sstore\n      pop\n        /* \"contracts/CrowdFund.sol\":3374:3381  bool ok */\n      0x00\n        /* \"contracts/CrowdFund.sol\":3387:3392  owner */\n      immutable(\"0x2a80e1ef1d7842f27f2e6be0972bb708b9a135c38860dbe73c27c3486c34f4de\")\n        /* \"contracts/CrowdFund.sol\":3387:3397  owner.call */\n      0xffffffffffffffffffffffffffffffffffffffff\n      and\n        /* \"contracts/CrowdFund.sol\":3405:3412  balance */\n      dup3\n        /* \"contracts/CrowdFund.sol\":3387:3417  owner.call{value: balance}(\"\") */\n      mload(0x40)\n      tag_92\n      swap1\n      tag_93\n      jump\t// in\n    tag_92:\n      0x00\n      mload(0x40)\n      dup1\n      dup4\n      sub\n      dup2\n      dup6\n      dup8\n      gas\n      call\n      swap3\n      pop\n      pop\n      pop\n      returndatasize\n      dup1\n      0x00\n      dup2\n      eq\n      tag_96\n      jumpi\n      mload(0x40)\n      swap2\n      pop\n      and(add(returndatasize, 0x3f), not(0x1f))\n      dup3\n      add\n      0x40\n      mstore\n      returndatasize\n      dup3\n      mstore\n      returndatasize\n      0x00\n      0x20\n      dup5\n      add\n      returndatacopy\n      jump(tag_95)\n    tag_96:\n      0x60\n      swap2\n      pop\n    tag_95:\n      pop\n        /* \"contracts/CrowdFund.sol\":3373:3417  (bool ok, ) = owner.call{value: balance}(\"\") */\n      pop\n      swap1\n      pop\n        /* \"contracts/CrowdFund.sol\":3435:3437  ok */\n      dup1\n        /* \"contracts/CrowdFund.sol\":3427:3468  require(ok, \"CrowdFund: withdraw failed\") */\n      tag_97\n      jumpi\n      mload(0x40)\n      0x08c379a000000000000000000000000000000000000000000000000000000000\n      dup2\n      mstore\n      0x04\n      add\n      tag_98\n      swap1\n      tag_99\n      jump\t// in\n    tag_98:\n      mload(0x40)\n      dup1\n      swap2\n      sub\n      swap1\n      revert\n    tag_97:\n        /* \"contracts/CrowdFund.sol\":3205:3475  {... */\n      pop\n      pop\n        /* \"contracts/CrowdFund.sol\":3166:3475  function withdraw() external onlyOwner {... */\n      jump\t// out\n        /* \"contracts/CrowdFund.sol\":290:319  uint256 public immutable goal */\n    tag_32:\n      immutable(\"0xceebf77a833b30520287ddd9478ff51abbdffa30aa90a8d655dba0e8a79ce0c1\")\n      dup2\n      jump\t// out\n        /* \"contracts/CrowdFund.sol\":557:605  mapping(address => uint256) public contributions */\n    tag_38:\n      mstore(0x20, 0x00)\n      dup1\n      0x00\n      mstore\n      keccak256(0x00, 0x40)\n      0x00\n      swap2\n      pop\n      swap1\n      pop\n      sload\n      dup2\n      jump\t// out\n        /* \"contracts/CrowdFund.sol\":3481:3910  function refund() external afterDeadline {... */\n    tag_42:\n        /* \"contracts/CrowdFund.sol\":1448:1456  deadline */\n      immutable(\"0x52f1a9b320cab38e5da8a8f97989383aab0a49165fc91c737310e4f7e9821021\")\n        /* \"contracts/CrowdFund.sol\":1429:1444  block.timestamp */\n      timestamp\n        /* \"contracts/CrowdFund.sol\":1429:1456  block.timestamp >= deadline */\n      lt\n      iszero\n        /* \"contracts/CrowdFund.sol\":1421:1492  require(block.timestamp >= deadline, \"CrowdFund: funding still active\") */\n      tag_101\n      jumpi\n      mload(0x40)\n      0x08c379a000000000000000000000000000000000000000000000000000000000\n      dup2\n      mstore\n      0x04\n      add\n      tag_102\n      swap1\n      tag_103\n      jump\t// in\n    tag_102:\n      mload(0x40)\n      dup1\n      swap2\n      sub\n      swap1\n      revert\n    tag_101:\n        /* \"contracts/CrowdFund.sol\":3555:3559  goal */\n      immutable(\"0xceebf77a833b30520287ddd9478ff51abbdffa30aa90a8d655dba0e8a79ce0c1\")\n        /* \"contracts/CrowdFund.sol\":3540:3552  amountRaised */\n      sload(0x01)\n        /* \"contracts/CrowdFund.sol\":3540:3559  amountRaised < goal */\n      lt\n        /* \"contracts/CrowdFund.sol\":3532:3595  require(amountRaised < goal, \"CrowdFund: goal met; no refunds\") */\n      tag_105\n      jumpi\n      mload(0x40)\n      0x08c379a000000000000000000000000000000000000000000000000000000000\n      dup2\n      mstore\n      0x04\n      add\n      tag_106\n      swap1\n      tag_107\n      jump\t// in\n    tag_106:\n      mload(0x40)\n      dup1\n      swap2\n      sub\n      swap1\n      revert\n    tag_105:\n        /* \"contracts/CrowdFund.sol\":3605:3620  uint256 donated */\n      0x00\n        /* \"contracts/CrowdFund.sol\":3623:3636  contributions */\n      dup1\n        /* \"contracts/CrowdFund.sol\":3623:3648  contributions[msg.sender] */\n      0x00\n        /* \"contracts/CrowdFund.sol\":3637:3647  msg.sender */\n      caller\n        /* \"contracts/CrowdFund.sol\":3623:3648  contributions[msg.sender] */\n      0xffffffffffffffffffffffffffffffffffffffff\n      and\n      0xffffffffffffffffffffffffffffffffffffffff\n      and\n      dup2\n      mstore\n      0x20\n      add\n      swap1\n      dup2\n      mstore\n      0x20\n      add\n      0x00\n      keccak256\n      sload\n        /* \"contracts/CrowdFund.sol\":3605:3648  uint256 donated = contributions[msg.sender] */\n      swap1\n      pop\n        /* \"contracts/CrowdFund.sol\":3676:3677  0 */\n      0x00\n        /* \"contracts/CrowdFund.sol\":3666:3673  donated */\n      dup2\n        /* \"contracts/CrowdFund.sol\":3666:3677  donated > 0 */\n      gt\n        /* \"contracts/CrowdFund.sol\":3658:3710  require(donated > 0, \"CrowdFund: nothing to refund\") */\n      tag_108\n      jumpi\n      mload(0x40)\n      0x08c379a000000000000000000000000000000000000000000000000000000000\n      dup2\n      mstore\n      0x04\n      add\n      tag_109\n      swap1\n      tag_110\n      jump\t// in\n    tag_109:\n      mload(0x40)\n      dup1\n      swap2\n      sub\n      swap1\n      revert\n    tag_108:\n        /* \"contracts/CrowdFund.sol\":3749:3750  0 */\n      0x00\n        /* \"contracts/CrowdFund.sol\":3721:3734  contributions */\n      dup1\n        /* \"contracts/CrowdFund.sol\":3721:3746  contributions[msg.sender] */\n      0x00\n        /* \"contracts/CrowdFund.sol\":3735:3745  msg.sender */\n      caller\n        /* \"contracts/CrowdFund.sol\":3721:3746  contributions[msg.sender] */\n      0xffffffffffffffffffffffffffffffffffffffff\n      and\n      0xffffffffffffffffffffffffffffffffffffffff\n      and\n      dup2\n      mstore\n      0x20\n      add\n      swap1\n      dup2\n      mstore\n      0x20\n      add\n      0x00\n      keccak256\n        /* \"contracts/CrowdFund.sol\":3721:3750  contributions[msg.sender] = 0 */\n      dup2\n      swap1\n      sstore\n      pop\n        /* \"contracts/CrowdFund.sol\":3761:3768  bool ok */\n      0x00\n        /* \"contracts/CrowdFund.sol\":3774:3784  msg.sender */\n      caller\n        /* \"contracts/CrowdFund.sol\":3774:3789  msg.sender.call */\n      0xffffffffffffffffffffffffffffffffffffffff\n      and\n        /* \"contracts/CrowdFund.sol\":3797:3804  donated */\n      dup3\n        /* \"contracts/CrowdFund.sol\":3774:3809  msg.sender.call{value: donated}(\"\") */\n      mload(0x40)\n      tag_111\n      swap1\n      tag_93\n      jump\t// in\n    tag_111:\n      0x00\n      mload(0x40)\n      dup1\n      dup4\n      sub\n      dup2\n      dup6\n      dup8\n      gas\n      call\n      swap3\n      pop\n      pop\n      pop\n      returndatasize\n      dup1\n      0x00\n      dup2\n      eq\n      tag_114\n      jumpi\n      mload(0x40)\n      swap2\n      pop\n      and(add(returndatasize, 0x3f), not(0x1f))\n      dup3\n      add\n      0x40\n      mstore\n      returndatasize\n      dup3\n      mstore\n      returndatasize\n      0x00\n      0x20\n      dup5\n      add\n      returndatacopy\n      jump(tag_113)\n    tag_114:\n      0x60\n      swap2\n      pop\n    tag_113:\n      pop\n        /* \"contracts/CrowdFund.sol\":3760:3809  (bool ok, ) = msg.sender.call{value: donated}(\"\") */\n      pop\n      swap1\n      pop\n        /* \"contracts/CrowdFund.sol\":3827:3829  ok */\n      dup1\n        /* \"contracts/CrowdFund.sol\":3819:3858  require(ok, \"CrowdFund: refund failed\") */\n      tag_115\n      jumpi\n      mload(0x40)\n      0x08c379a000000000000000000000000000000000000000000000000000000000\n      dup2\n      mstore\n      0x04\n      add\n      tag_116\n      swap1\n      tag_117\n      jump\t// in\n    tag_116:\n      mload(0x40)\n      dup1\n      swap2\n      sub\n      swap1\n      revert\n    tag_115:\n        /* \"contracts/CrowdFund.sol\":3883:3893  msg.sender */\n      caller\n        /* \"contracts/CrowdFund.sol\":3874:3903  Refunded(msg.sender, donated) */\n      0xffffffffffffffffffffffffffffffffffffffff\n      and\n      0xd7dee2702d63ad89917b6a4da9981c90c4d24f8c2bdfd64c604ecae57d8d0651\n        /* \"contracts/CrowdFund.sol\":3895:3902  donated */\n      dup4\n        /* \"contracts/CrowdFund.sol\":3874:3903  Refunded(msg.sender, donated) */\n      mload(0x40)\n      tag_118\n      swap2\n      swap1\n      tag_26\n      jump\t// in\n    tag_118:\n      mload(0x40)\n      dup1\n      swap2\n      sub\n      swap1\n      log2\n        /* \"contracts/CrowdFund.sol\":3522:3910  {... */\n      pop\n      pop\n        /* \"contracts/CrowdFund.sol\":3481:3910  function refund() external afterDeadline {... */\n      jump\t// out\n        /* \"contracts/CrowdFund.sol\":611:638  uint256 public amountRaised */\n    tag_45:\n      sload(0x01)\n      dup2\n      jump\t// out\n        /* \"contracts/CrowdFund.sol\":229:259  address public immutable owner */\n    tag_49:\n      immutable(\"0x2a80e1ef1d7842f27f2e6be0972bb708b9a135c38860dbe73c27c3486c34f4de\")\n      dup2\n      jump\t// out\n        /* \"contracts/CrowdFund.sol\":2763:2870  function checkBalance() external view returns (uint256 currentBalance) {... */\n    tag_54:\n        /* \"contracts/CrowdFund.sol\":2810:2832  uint256 currentBalance */\n      0x00\n        /* \"contracts/CrowdFund.sol\":2851:2863  amountRaised */\n      sload(0x01)\n        /* \"contracts/CrowdFund.sol\":2844:2863  return amountRaised */\n      swap1\n      pop\n        /* \"contracts/CrowdFund.sol\":2763:2870  function checkBalance() external view returns (uint256 currentBalance) {... */\n      swap1\n      jump\t// out\n        /* \"contracts/CrowdFund.sol\":2688:2757  function contribute() external payable {... */\n    tag_57:\n        /* \"contracts/CrowdFund.sol\":2737:2750  _contribute() */\n      tag_121\n        /* \"contracts/CrowdFund.sol\":2737:2748  _contribute */\n      tag_18\n        /* \"contracts/CrowdFund.sol\":2737:2750  _contribute() */\n      jump\t// in\n    tag_121:\n        /* \"contracts/CrowdFund.sol\":2688:2757  function contribute() external payable {... */\n      jump\t// out\n        /* \"contracts/CrowdFund.sol\":644:675  uint256 public contributorCount */\n    tag_60:\n      sload(0x02)\n      dup2\n      jump\t// out\n        /* \"contracts/CrowdFund.sol\":2876:3160  function getDetails()... */\n    tag_64:\n        /* \"contracts/CrowdFund.sol\":2958:2973  uint256 goalWei */\n      0x00\n        /* \"contracts/CrowdFund.sol\":2987:3005  uint256 deadlineTs */\n      dup1\n        /* \"contracts/CrowdFund.sol\":3019:3036  uint256 raisedWei */\n      0x00\n        /* \"contracts/CrowdFund.sol\":3050:3073  uint256 numContributors */\n      dup1\n        /* \"contracts/CrowdFund.sol\":3106:3110  goal */\n      immutable(\"0xceebf77a833b30520287ddd9478ff51abbdffa30aa90a8d655dba0e8a79ce0c1\")\n        /* \"contracts/CrowdFund.sol\":3112:3120  deadline */\n      immutable(\"0x52f1a9b320cab38e5da8a8f97989383aab0a49165fc91c737310e4f7e9821021\")\n        /* \"contracts/CrowdFund.sol\":3122:3134  amountRaised */\n      sload(0x01)\n        /* \"contracts/CrowdFund.sol\":3136:3152  contributorCount */\n      sload(0x02)\n        /* \"contracts/CrowdFund.sol\":3098:3153  return (goal, deadline, amountRaised, contributorCount) */\n      swap4\n      pop\n      swap4\n      pop\n      swap4\n      pop\n      swap4\n      pop\n        /* \"contracts/CrowdFund.sol\":2876:3160  function getDetails()... */\n      swap1\n      swap2\n      swap3\n      swap4\n      jump\t// out\n        /* \"#utility.yul\":7:84   */\n    tag_123:\n        /* \"#utility.yul\":44:51   */\n      0x00\n        /* \"#utility.yul\":73:78   */\n      dup2\n        /* \"#utility.yul\":62:78   */\n      swap1\n      pop\n        /* \"#utility.yul\":7:84   */\n      swap2\n      swap1\n      pop\n      jump\t// out\n        /* \"#utility.yul\":90:208   */\n    tag_124:\n        /* \"#utility.yul\":177:201   */\n      tag_159\n        /* \"#utility.yul\":195:200   */\n      dup2\n        /* \"#utility.yul\":177:201   */\n      tag_123\n      jump\t// in\n    tag_159:\n        /* \"#utility.yul\":172:175   */\n      dup3\n        /* \"#utility.yul\":165:202   */\n      mstore\n        /* \"#utility.yul\":90:208   */\n      pop\n      pop\n      jump\t// out\n        /* \"#utility.yul\":214:436   */\n    tag_26:\n        /* \"#utility.yul\":307:311   */\n      0x00\n        /* \"#utility.yul\":345:347   */\n      0x20\n        /* \"#utility.yul\":334:343   */\n      dup3\n        /* \"#utility.yul\":330:348   */\n      add\n        /* \"#utility.yul\":322:348   */\n      swap1\n      pop\n        /* \"#utility.yul\":358:429   */\n      tag_161\n        /* \"#utility.yul\":426:427   */\n      0x00\n        /* \"#utility.yul\":415:424   */\n      dup4\n        /* \"#utility.yul\":411:428   */\n      add\n        /* \"#utility.yul\":402:408   */\n      dup5\n        /* \"#utility.yul\":358:429   */\n      tag_124\n      jump\t// in\n    tag_161:\n        /* \"#utility.yul\":214:436   */\n      swap3\n      swap2\n      pop\n      pop\n      jump\t// out\n        /* \"#utility.yul\":523:640   */\n    tag_126:\n        /* \"#utility.yul\":632:633   */\n      0x00\n        /* \"#utility.yul\":629:630   */\n      dup1\n        /* \"#utility.yul\":622:634   */\n      revert\n        /* \"#utility.yul\":769:895   */\n    tag_128:\n        /* \"#utility.yul\":806:813   */\n      0x00\n        /* \"#utility.yul\":846:888   */\n      0xffffffffffffffffffffffffffffffffffffffff\n        /* \"#utility.yul\":839:844   */\n      dup3\n        /* \"#utility.yul\":835:889   */\n      and\n        /* \"#utility.yul\":824:889   */\n      swap1\n      pop\n        /* \"#utility.yul\":769:895   */\n      swap2\n      swap1\n      pop\n      jump\t// out\n        /* \"#utility.yul\":901:997   */\n    tag_129:\n        /* \"#utility.yul\":938:945   */\n      0x00\n        /* \"#utility.yul\":967:991   */\n      tag_167\n        /* \"#utility.yul\":985:990   */\n      dup3\n        /* \"#utility.yul\":967:991   */\n      tag_128\n      jump\t// in\n    tag_167:\n        /* \"#utility.yul\":956:991   */\n      swap1\n      pop\n        /* \"#utility.yul\":901:997   */\n      swap2\n      swap1\n      pop\n      jump\t// out\n        /* \"#utility.yul\":1003:1125   */\n    tag_130:\n        /* \"#utility.yul\":1076:1100   */\n      tag_169\n        /* \"#utility.yul\":1094:1099   */\n      dup2\n        /* \"#utility.yul\":1076:1100   */\n      tag_129\n      jump\t// in\n    tag_169:\n        /* \"#utility.yul\":1069:1074   */\n      dup2\n        /* \"#utility.yul\":1066:1101   */\n      eq\n        /* \"#utility.yul\":1056:1119   */\n      tag_170\n      jumpi\n        /* \"#utility.yul\":1115:1116   */\n      0x00\n        /* \"#utility.yul\":1112:1113   */\n      dup1\n        /* \"#utility.yul\":1105:1117   */\n      revert\n        /* \"#utility.yul\":1056:1119   */\n    tag_170:\n        /* \"#utility.yul\":1003:1125   */\n      pop\n      jump\t// out\n        /* \"#utility.yul\":1131:1270   */\n    tag_131:\n        /* \"#utility.yul\":1177:1182   */\n      0x00\n        /* \"#utility.yul\":1215:1221   */\n      dup2\n        /* \"#utility.yul\":1202:1222   */\n      calldataload\n        /* \"#utility.yul\":1193:1222   */\n      swap1\n      pop\n        /* \"#utility.yul\":1231:1264   */\n      tag_172\n        /* \"#utility.yul\":1258:1263   */\n      dup2\n        /* \"#utility.yul\":1231:1264   */\n      tag_130\n      jump\t// in\n    tag_172:\n        /* \"#utility.yul\":1131:1270   */\n      swap3\n      swap2\n      pop\n      pop\n      jump\t// out\n        /* \"#utility.yul\":1276:1605   */\n    tag_37:\n        /* \"#utility.yul\":1335:1341   */\n      0x00\n        /* \"#utility.yul\":1384:1386   */\n      0x20\n        /* \"#utility.yul\":1372:1381   */\n      dup3\n        /* \"#utility.yul\":1363:1370   */\n      dup5\n        /* \"#utility.yul\":1359:1382   */\n      sub\n        /* \"#utility.yul\":1355:1387   */\n      slt\n        /* \"#utility.yul\":1352:1471   */\n      iszero\n      tag_174\n      jumpi\n        /* \"#utility.yul\":1390:1469   */\n      tag_175\n      tag_126\n      jump\t// in\n    tag_175:\n        /* \"#utility.yul\":1352:1471   */\n    tag_174:\n        /* \"#utility.yul\":1510:1511   */\n      0x00\n        /* \"#utility.yul\":1535:1588   */\n      tag_176\n        /* \"#utility.yul\":1580:1587   */\n      dup5\n        /* \"#utility.yul\":1571:1577   */\n      dup3\n        /* \"#utility.yul\":1560:1569   */\n      dup6\n        /* \"#utility.yul\":1556:1578   */\n      add\n        /* \"#utility.yul\":1535:1588   */\n      tag_131\n      jump\t// in\n    tag_176:\n        /* \"#utility.yul\":1525:1588   */\n      swap2\n      pop\n        /* \"#utility.yul\":1481:1598   */\n      pop\n        /* \"#utility.yul\":1276:1605   */\n      swap3\n      swap2\n      pop\n      pop\n      jump\t// out\n        /* \"#utility.yul\":1611:1729   */\n    tag_132:\n        /* \"#utility.yul\":1698:1722   */\n      tag_178\n        /* \"#utility.yul\":1716:1721   */\n      dup2\n        /* \"#utility.yul\":1698:1722   */\n      tag_129\n      jump\t// in\n    tag_178:\n        /* \"#utility.yul\":1693:1696   */\n      dup3\n        /* \"#utility.yul\":1686:1723   */\n      mstore\n        /* \"#utility.yul\":1611:1729   */\n      pop\n      pop\n      jump\t// out\n        /* \"#utility.yul\":1735:1957   */\n    tag_51:\n        /* \"#utility.yul\":1828:1832   */\n      0x00\n        /* \"#utility.yul\":1866:1868   */\n      0x20\n        /* \"#utility.yul\":1855:1864   */\n      dup3\n        /* \"#utility.yul\":1851:1869   */\n      add\n        /* \"#utility.yul\":1843:1869   */\n      swap1\n      pop\n        /* \"#utility.yul\":1879:1950   */\n      tag_180\n        /* \"#utility.yul\":1947:1948   */\n      0x00\n        /* \"#utility.yul\":1936:1945   */\n      dup4\n        /* \"#utility.yul\":1932:1949   */\n      add\n        /* \"#utility.yul\":1923:1929   */\n      dup5\n        /* \"#utility.yul\":1879:1950   */\n      tag_132\n      jump\t// in\n    tag_180:\n        /* \"#utility.yul\":1735:1957   */\n      swap3\n      swap2\n      pop\n      pop\n      jump\t// out\n        /* \"#utility.yul\":1963:2516   */\n    tag_66:\n        /* \"#utility.yul\":2140:2144   */\n      0x00\n        /* \"#utility.yul\":2178:2181   */\n      0x80\n        /* \"#utility.yul\":2167:2176   */\n      dup3\n        /* \"#utility.yul\":2163:2182   */\n      add\n        /* \"#utility.yul\":2155:2182   */\n      swap1\n      pop\n        /* \"#utility.yul\":2192:2263   */\n      tag_182\n        /* \"#utility.yul\":2260:2261   */\n      0x00\n        /* \"#utility.yul\":2249:2258   */\n      dup4\n        /* \"#utility.yul\":2245:2262   */\n      add\n        /* \"#utility.yul\":2236:2242   */\n      dup8\n        /* \"#utility.yul\":2192:2263   */\n      tag_124\n      jump\t// in\n    tag_182:\n        /* \"#utility.yul\":2273:2345   */\n      tag_183\n        /* \"#utility.yul\":2341:2343   */\n      0x20\n        /* \"#utility.yul\":2330:2339   */\n      dup4\n        /* \"#utility.yul\":2326:2344   */\n      add\n        /* \"#utility.yul\":2317:2323   */\n      dup7\n        /* \"#utility.yul\":2273:2345   */\n      tag_124\n      jump\t// in\n    tag_183:\n        /* \"#utility.yul\":2355:2427   */\n      tag_184\n        /* \"#utility.yul\":2423:2425   */\n      0x40\n        /* \"#utility.yul\":2412:2421   */\n      dup4\n        /* \"#utility.yul\":2408:2426   */\n      add\n        /* \"#utility.yul\":2399:2405   */\n      dup6\n        /* \"#utility.yul\":2355:2427   */\n      tag_124\n      jump\t// in\n    tag_184:\n        /* \"#utility.yul\":2437:2509   */\n      tag_185\n        /* \"#utility.yul\":2505:2507   */\n      0x60\n        /* \"#utility.yul\":2494:2503   */\n      dup4\n        /* \"#utility.yul\":2490:2508   */\n      add\n        /* \"#utility.yul\":2481:2487   */\n      dup5\n        /* \"#utility.yul\":2437:2509   */\n      tag_124\n      jump\t// in\n    tag_185:\n        /* \"#utility.yul\":1963:2516   */\n      swap6\n      swap5\n      pop\n      pop\n      pop\n      pop\n      pop\n      jump\t// out\n        /* \"#utility.yul\":2522:2691   */\n    tag_133:\n        /* \"#utility.yul\":2606:2617   */\n      0x00\n        /* \"#utility.yul\":2640:2646   */\n      dup3\n        /* \"#utility.yul\":2635:2638   */\n      dup3\n        /* \"#utility.yul\":2628:2647   */\n      mstore\n        /* \"#utility.yul\":2680:2684   */\n      0x20\n        /* \"#utility.yul\":2675:2678   */\n      dup3\n        /* \"#utility.yul\":2671:2685   */\n      add\n        /* \"#utility.yul\":2656:2685   */\n      swap1\n      pop\n        /* \"#utility.yul\":2522:2691   */\n      swap3\n      swap2\n      pop\n      pop\n      jump\t// out\n        /* \"#utility.yul\":2697:2877   */\n    tag_134:\n        /* \"#utility.yul\":2837:2869   */\n      0x43726f776446756e643a2066756e64696e6720706572696f64206f7665720000\n        /* \"#utility.yul\":2833:2834   */\n      0x00\n        /* \"#utility.yul\":2825:2831   */\n      dup3\n        /* \"#utility.yul\":2821:2835   */\n      add\n        /* \"#utility.yul\":2814:2870   */\n      mstore\n        /* \"#utility.yul\":2697:2877   */\n      pop\n      jump\t// out\n        /* \"#utility.yul\":2883:3249   */\n    tag_135:\n        /* \"#utility.yul\":3025:3028   */\n      0x00\n        /* \"#utility.yul\":3046:3113   */\n      tag_189\n        /* \"#utility.yul\":3110:3112   */\n      0x1e\n        /* \"#utility.yul\":3105:3108   */\n      dup4\n        /* \"#utility.yul\":3046:3113   */\n      tag_133\n      jump\t// in\n    tag_189:\n        /* \"#utility.yul\":3039:3113   */\n      swap2\n      pop\n        /* \"#utility.yul\":3122:3215   */\n      tag_190\n        /* \"#utility.yul\":3211:3214   */\n      dup3\n        /* \"#utility.yul\":3122:3215   */\n      tag_134\n      jump\t// in\n    tag_190:\n        /* \"#utility.yul\":3240:3242   */\n      0x20\n        /* \"#utility.yul\":3235:3238   */\n      dup3\n        /* \"#utility.yul\":3231:3243   */\n      add\n        /* \"#utility.yul\":3224:3243   */\n      swap1\n      pop\n        /* \"#utility.yul\":2883:3249   */\n      swap2\n      swap1\n      pop\n      jump\t// out\n        /* \"#utility.yul\":3255:3674   */\n    tag_70:\n        /* \"#utility.yul\":3421:3425   */\n      0x00\n        /* \"#utility.yul\":3459:3461   */\n      0x20\n        /* \"#utility.yul\":3448:3457   */\n      dup3\n        /* \"#utility.yul\":3444:3462   */\n      add\n        /* \"#utility.yul\":3436:3462   */\n      swap1\n      pop\n        /* \"#utility.yul\":3508:3517   */\n      dup2\n        /* \"#utility.yul\":3502:3506   */\n      dup2\n        /* \"#utility.yul\":3498:3518   */\n      sub\n        /* \"#utility.yul\":3494:3495   */\n      0x00\n        /* \"#utility.yul\":3483:3492   */\n      dup4\n        /* \"#utility.yul\":3479:3496   */\n      add\n        /* \"#utility.yul\":3472:3519   */\n      mstore\n        /* \"#utility.yul\":3536:3667   */\n      tag_192\n        /* \"#utility.yul\":3662:3666   */\n      dup2\n        /* \"#utility.yul\":3536:3667   */\n      tag_135\n      jump\t// in\n    tag_192:\n        /* \"#utility.yul\":3528:3667   */\n      swap1\n      pop\n        /* \"#utility.yul\":3255:3674   */\n      swap2\n      swap1\n      pop\n      jump\t// out\n        /* \"#utility.yul\":3680:3853   */\n    tag_136:\n        /* \"#utility.yul\":3820:3845   */\n      0x43726f776446756e643a206d696e20302e303120455448000000000000000000\n        /* \"#utility.yul\":3816:3817   */\n      0x00\n        /* \"#utility.yul\":3808:3814   */\n      dup3\n        /* \"#utility.yul\":3804:3818   */\n      add\n        /* \"#utility.yul\":3797:3846   */\n      mstore\n        /* \"#utility.yul\":3680:3853   */\n      pop\n      jump\t// out\n        /* \"#utility.yul\":3859:4225   */\n    tag_137:\n        /* \"#utility.yul\":4001:4004   */\n      0x00\n        /* \"#utility.yul\":4022:4089   */\n      tag_195\n        /* \"#utility.yul\":4086:4088   */\n      0x17\n        /* \"#utility.yul\":4081:4084   */\n      dup4\n        /* \"#utility.yul\":4022:4089   */\n      tag_133\n      jump\t// in\n    tag_195:\n        /* \"#utility.yul\":4015:4089   */\n      swap2\n      pop\n        /* \"#utility.yul\":4098:4191   */\n      tag_196\n        /* \"#utility.yul\":4187:4190   */\n      dup3\n        /* \"#utility.yul\":4098:4191   */\n      tag_136\n      jump\t// in\n    tag_196:\n        /* \"#utility.yul\":4216:4218   */\n      0x20\n        /* \"#utility.yul\":4211:4214   */\n      dup3\n        /* \"#utility.yul\":4207:4219   */\n      add\n        /* \"#utility.yul\":4200:4219   */\n      swap1\n      pop\n        /* \"#utility.yul\":3859:4225   */\n      swap2\n      swap1\n      pop\n      jump\t// out\n        /* \"#utility.yul\":4231:4650   */\n    tag_74:\n        /* \"#utility.yul\":4397:4401   */\n      0x00\n        /* \"#utility.yul\":4435:4437   */\n      0x20\n        /* \"#utility.yul\":4424:4433   */\n      dup3\n        /* \"#utility.yul\":4420:4438   */\n      add\n        /* \"#utility.yul\":4412:4438   */\n      swap1\n      pop\n        /* \"#utility.yul\":4484:4493   */\n      dup2\n        /* \"#utility.yul\":4478:4482   */\n      dup2\n        /* \"#utility.yul\":4474:4494   */\n      sub\n        /* \"#utility.yul\":4470:4471   */\n      0x00\n        /* \"#utility.yul\":4459:4468   */\n      dup4\n        /* \"#utility.yul\":4455:4472   */\n      add\n        /* \"#utility.yul\":4448:4495   */\n      mstore\n        /* \"#utility.yul\":4512:4643   */\n      tag_198\n        /* \"#utility.yul\":4638:4642   */\n      dup2\n        /* \"#utility.yul\":4512:4643   */\n      tag_137\n      jump\t// in\n    tag_198:\n        /* \"#utility.yul\":4504:4643   */\n      swap1\n      pop\n        /* \"#utility.yul\":4231:4650   */\n      swap2\n      swap1\n      pop\n      jump\t// out\n        /* \"#utility.yul\":4656:4836   */\n    tag_138:\n        /* \"#utility.yul\":4704:4781   */\n      0x4e487b7100000000000000000000000000000000000000000000000000000000\n        /* \"#utility.yul\":4701:4702   */\n      0x00\n        /* \"#utility.yul\":4694:4782   */\n      mstore\n        /* \"#utility.yul\":4801:4805   */\n      0x11\n        /* \"#utility.yul\":4798:4799   */\n      0x04\n        /* \"#utility.yul\":4791:4806   */\n      mstore\n        /* \"#utility.yul\":4825:4829   */\n      0x24\n        /* \"#utility.yul\":4822:4823   */\n      0x00\n        /* \"#utility.yul\":4815:4830   */\n      revert\n        /* \"#utility.yul\":4842:5075   */\n    tag_77:\n        /* \"#utility.yul\":4881:4884   */\n      0x00\n        /* \"#utility.yul\":4904:4928   */\n      tag_201\n        /* \"#utility.yul\":4922:4927   */\n      dup3\n        /* \"#utility.yul\":4904:4928   */\n      tag_123\n      jump\t// in\n    tag_201:\n        /* \"#utility.yul\":4895:4928   */\n      swap2\n      pop\n        /* \"#utility.yul\":4950:5016   */\n      0xffffffffffffffffffffffffffffffffffffffffffffffffffffffffffffffff\n        /* \"#utility.yul\":4943:4948   */\n      dup3\n        /* \"#utility.yul\":4940:5017   */\n      sub\n        /* \"#utility.yul\":4937:5040   */\n      tag_202\n      jumpi\n        /* \"#utility.yul\":5020:5038   */\n      tag_203\n      tag_138\n      jump\t// in\n    tag_203:\n        /* \"#utility.yul\":4937:5040   */\n    tag_202:\n        /* \"#utility.yul\":5067:5068   */\n      0x01\n        /* \"#utility.yul\":5060:5065   */\n      dup3\n        /* \"#utility.yul\":5056:5069   */\n      add\n        /* \"#utility.yul\":5049:5069   */\n      swap1\n      pop\n        /* \"#utility.yul\":4842:5075   */\n      swap2\n      swap1\n      pop\n      jump\t// out\n        /* \"#utility.yul\":5081:5272   */\n    tag_79:\n        /* \"#utility.yul\":5121:5124   */\n      0x00\n        /* \"#utility.yul\":5140:5160   */\n      tag_205\n        /* \"#utility.yul\":5158:5159   */\n      dup3\n        /* \"#utility.yul\":5140:5160   */\n      tag_123\n      jump\t// in\n    tag_205:\n        /* \"#utility.yul\":5135:5160   */\n      swap2\n      pop\n        /* \"#utility.yul\":5174:5194   */\n      tag_206\n        /* \"#utility.yul\":5192:5193   */\n      dup4\n        /* \"#utility.yul\":5174:5194   */\n      tag_123\n      jump\t// in\n    tag_206:\n        /* \"#utility.yul\":5169:5194   */\n      swap3\n      pop\n        /* \"#utility.yul\":5217:5218   */\n      dup3\n        /* \"#utility.yul\":5214:5215   */\n      dup3\n        /* \"#utility.yul\":5210:5219   */\n      add\n        /* \"#utility.yul\":5203:5219   */\n      swap1\n      pop\n        /* \"#utility.yul\":5238:5241   */\n      dup1\n        /* \"#utility.yul\":5235:5236   */\n      dup3\n        /* \"#utility.yul\":5232:5242   */\n      gt\n        /* \"#utility.yul\":5229:5265   */\n      iszero\n      tag_207\n      jumpi\n        /* \"#utility.yul\":5245:5263   */\n      tag_208\n      tag_138\n      jump\t// in\n    tag_208:\n        /* \"#utility.yul\":5229:5265   */\n    tag_207:\n        /* \"#utility.yul\":5081:5272   */\n      swap3\n      swap2\n      pop\n      pop\n      jump\t// out\n        /* \"#utility.yul\":5278:5458   */\n    tag_139:\n        /* \"#utility.yul\":5418:5450   */\n      0x43726f776446756e643a2063616c6c6572206973206e6f74206f776e65720000\n        /* \"#utility.yul\":5414:5415   */\n      0x00\n        /* \"#utility.yul\":5406:5412   */\n      dup3\n        /* \"#utility.yul\":5402:5416   */\n      add\n        /* \"#utility.yul\":5395:5451   */\n      mstore\n        /* \"#utility.yul\":5278:5458   */\n      pop\n      jump\t// out\n        /* \"#utility.yul\":5464:5830   */\n    tag_140:\n        /* \"#utility.yul\":5606:5609   */\n      0x00\n        /* \"#utility.yul\":5627:5694   */\n      tag_211\n        /* \"#utility.yul\":5691:5693   */\n      0x1e\n        /* \"#utility.yul\":5686:5689   */\n      dup4\n        /* \"#utility.yul\":5627:5694   */\n      tag_133\n      jump\t// in\n    tag_211:\n        /* \"#utility.yul\":5620:5694   */\n      swap2\n      pop\n        /* \"#utility.yul\":5703:5796   */\n      tag_212\n        /* \"#utility.yul\":5792:5795   */\n      dup3\n        /* \"#utility.yul\":5703:5796   */\n      tag_139\n      jump\t// in\n    tag_212:\n        /* \"#utility.yul\":5821:5823   */\n      0x20\n        /* \"#utility.yul\":5816:5819   */\n      dup3\n        /* \"#utility.yul\":5812:5824   */\n      add\n        /* \"#utility.yul\":5805:5824   */\n      swap1\n      pop\n        /* \"#utility.yul\":5464:5830   */\n      swap2\n      swap1\n      pop\n      jump\t// out\n        /* \"#utility.yul\":5836:6255   */\n    tag_87:\n        /* \"#utility.yul\":6002:6006   */\n      0x00\n        /* \"#utility.yul\":6040:6042   */\n      0x20\n        /* \"#utility.yul\":6029:6038   */\n      dup3\n        /* \"#utility.yul\":6025:6043   */\n      add\n        /* \"#utility.yul\":6017:6043   */\n      swap1\n      pop\n        /* \"#utility.yul\":6089:6098   */\n      dup2\n        /* \"#utility.yul\":6083:6087   */\n      dup2\n        /* \"#utility.yul\":6079:6099   */\n      sub\n        /* \"#utility.yul\":6075:6076   */\n      0x00\n        /* \"#utility.yul\":6064:6073   */\n      dup4\n        /* \"#utility.yul\":6060:6077   */\n      add\n        /* \"#utility.yul\":6053:6100   */\n      mstore\n        /* \"#utility.yul\":6117:6248   */\n      tag_214\n        /* \"#utility.yul\":6243:6247   */\n      dup2\n        /* \"#utility.yul\":6117:6248   */\n      tag_140\n      jump\t// in\n    tag_214:\n        /* \"#utility.yul\":6109:6248   */\n      swap1\n      pop\n        /* \"#utility.yul\":5836:6255   */\n      swap2\n      swap1\n      pop\n      jump\t// out\n        /* \"#utility.yul\":6261:6438   */\n    tag_141:\n        /* \"#utility.yul\":6401:6430   */\n      0x43726f776446756e643a20676f616c206e6f7420726561636865640000000000\n        /* \"#utility.yul\":6397:6398   */\n      0x00\n        /* \"#utility.yul\":6389:6395   */\n      dup3\n        /* \"#utility.yul\":6385:6399   */\n      add\n        /* \"#utility.yul\":6378:6431   */\n      mstore\n        /* \"#utility.yul\":6261:6438   */\n      pop\n      jump\t// out\n        /* \"#utility.yul\":6444:6810   */\n    tag_142:\n        /* \"#utility.yul\":6586:6589   */\n      0x00\n        /* \"#utility.yul\":6607:6674   */\n      tag_217\n        /* \"#utility.yul\":6671:6673   */\n      0x1b\n        /* \"#utility.yul\":6666:6669   */\n      dup4\n        /* \"#utility.yul\":6607:6674   */\n      tag_133\n      jump\t// in\n    tag_217:\n        /* \"#utility.yul\":6600:6674   */\n      swap2\n      pop\n        /* \"#utility.yul\":6683:6776   */\n      tag_218\n        /* \"#utility.yul\":6772:6775   */\n      dup3\n        /* \"#utility.yul\":6683:6776   */\n      tag_141\n      jump\t// in\n    tag_218:\n        /* \"#utility.yul\":6801:6803   */\n      0x20\n        /* \"#utility.yul\":6796:6799   */\n      dup3\n        /* \"#utility.yul\":6792:6804   */\n      add\n        /* \"#utility.yul\":6785:6804   */\n      swap1\n      pop\n        /* \"#utility.yul\":6444:6810   */\n      swap2\n      swap1\n      pop\n      jump\t// out\n        /* \"#utility.yul\":6816:7235   */\n    tag_91:\n        /* \"#utility.yul\":6982:6986   */\n      0x00\n        /* \"#utility.yul\":7020:7022   */\n      0x20\n        /* \"#utility.yul\":7009:7018   */\n      dup3\n        /* \"#utility.yul\":7005:7023   */\n      add\n        /* \"#utility.yul\":6997:7023   */\n      swap1\n      pop\n        /* \"#utility.yul\":7069:7078   */\n      dup2\n        /* \"#utility.yul\":7063:7067   */\n      dup2\n        /* \"#utility.yul\":7059:7079   */\n      sub\n        /* \"#utility.yul\":7055:7056   */\n      0x00\n        /* \"#utility.yul\":7044:7053   */\n      dup4\n        /* \"#utility.yul\":7040:7057   */\n      add\n        /* \"#utility.yul\":7033:7080   */\n      mstore\n        /* \"#utility.yul\":7097:7228   */\n      tag_220\n        /* \"#utility.yul\":7223:7227   */\n      dup2\n        /* \"#utility.yul\":7097:7228   */\n      tag_142\n      jump\t// in\n    tag_220:\n        /* \"#utility.yul\":7089:7228   */\n      swap1\n      pop\n        /* \"#utility.yul\":6816:7235   */\n      swap2\n      swap1\n      pop\n      jump\t// out\n        /* \"#utility.yul\":7241:7388   */\n    tag_143:\n        /* \"#utility.yul\":7342:7353   */\n      0x00\n        /* \"#utility.yul\":7379:7382   */\n      dup2\n        /* \"#utility.yul\":7364:7382   */\n      swap1\n      pop\n        /* \"#utility.yul\":7241:7388   */\n      swap3\n      swap2\n      pop\n      pop\n      jump\t// out\n        /* \"#utility.yul\":7394:7508   */\n    tag_144:\n      pop\n      jump\t// out\n        /* \"#utility.yul\":7514:7912   */\n    tag_145:\n        /* \"#utility.yul\":7673:7676   */\n      0x00\n        /* \"#utility.yul\":7694:7777   */\n      tag_224\n        /* \"#utility.yul\":7775:7776   */\n      0x00\n        /* \"#utility.yul\":7770:7773   */\n      dup4\n        /* \"#utility.yul\":7694:7777   */\n      tag_143\n      jump\t// in\n    tag_224:\n        /* \"#utility.yul\":7687:7777   */\n      swap2\n      pop\n        /* \"#utility.yul\":7786:7879   */\n      tag_225\n        /* \"#utility.yul\":7875:7878   */\n      dup3\n        /* \"#utility.yul\":7786:7879   */\n      tag_144\n      jump\t// in\n    tag_225:\n        /* \"#utility.yul\":7904:7905   */\n      0x00\n        /* \"#utility.yul\":7899:7902   */\n      dup3\n        /* \"#utility.yul\":7895:7906   */\n      add\n        /* \"#utility.yul\":7888:7906   */\n      swap1\n      pop\n        /* \"#utility.yul\":7514:7912   */\n      swap2\n      swap1\n      pop\n      jump\t// out\n        /* \"#utility.yul\":7918:8297   */\n    tag_93:\n        /* \"#utility.yul\":8102:8105   */\n      0x00\n        /* \"#utility.yul\":8124:8271   */\n      tag_227\n        /* \"#utility.yul\":8267:8270   */\n      dup3\n        /* \"#utility.yul\":8124:8271   */\n      tag_145\n      jump\t// in\n    tag_227:\n        /* \"#utility.yul\":8117:8271   */\n      swap2\n      pop\n        /* \"#utility.yul\":8288:8291   */\n      dup2\n        /* \"#utility.yul\":8281:8291   */\n      swap1\n      pop\n        /* \"#utility.yul\":7918:8297   */\n      swap2\n      swap1\n      pop\n      jump\t// out\n        /* \"#utility.yul\":8303:8479   */\n    tag_146:\n        /* \"#utility.yul\":8443:8471   */\n      0x43726f776446756e643a207769746864726177206661696c6564000000000000\n        /* \"#utility.yul\":8439:8440   */\n      0x00\n        /* \"#utility.yul\":8431:8437   */\n      dup3\n        /* \"#utility.yul\":8427:8441   */\n      add\n        /* \"#utility.yul\":8420:8472   */\n      mstore\n        /* \"#utility.yul\":8303:8479   */\n      pop\n      jump\t// out\n        /* \"#utility.yul\":8485:8851   */\n    tag_147:\n        /* \"#utility.yul\":8627:8630   */\n      0x00\n        /* \"#utility.yul\":8648:8715   */\n      tag_230\n        /* \"#utility.yul\":8712:8714   */\n      0x1a\n        /* \"#utility.yul\":8707:8710   */\n      dup4\n        /* \"#utility.yul\":8648:8715   */\n      tag_133\n      jump\t// in\n    tag_230:\n        /* \"#utility.yul\":8641:8715   */\n      swap2\n      pop\n        /* \"#utility.yul\":8724:8817   */\n      tag_231\n        /* \"#utility.yul\":8813:8816   */\n      dup3\n        /* \"#utility.yul\":8724:8817   */\n      tag_146\n      jump\t// in\n    tag_231:\n        /* \"#utility.yul\":8842:8844   */\n      0x20\n        /* \"#utility.yul\":8837:8840   */\n      dup3\n        /* \"#utility.yul\":8833:8845   */\n      add\n        /* \"#utility.yul\":8826:8845   */\n      swap1\n      pop\n        /* \"#utility.yul\":8485:8851   */\n      swap2\n      swap1\n      pop\n      jump\t// out\n        /* \"#utility.yul\":8857:9276   */\n    tag_99:\n        /* \"#utility.yul\":9023:9027   */\n      0x00\n        /* \"#utility.yul\":9061:9063   */\n      0x20\n        /* \"#utility.yul\":9050:9059   */\n      dup3\n        /* \"#utility.yul\":9046:9064   */\n      add\n        /* \"#utility.yul\":9038:9064   */\n      swap1\n      pop\n        /* \"#utility.yul\":9110:9119   */\n      dup2\n        /* \"#utility.yul\":9104:9108   */\n      dup2\n        /* \"#utility.yul\":9100:9120   */\n      sub\n        /* \"#utility.yul\":9096:9097   */\n      0x00\n        /* \"#utility.yul\":9085:9094   */\n      dup4\n        /* \"#utility.yul\":9081:9098   */\n      add\n        /* \"#utility.yul\":9074:9121   */\n      mstore\n        /* \"#utility.yul\":9138:9269   */\n      tag_233\n        /* \"#utility.yul\":9264:9268   */\n      dup2\n        /* \"#utility.yul\":9138:9269   */\n      tag_147\n      jump\t// in\n    tag_233:\n        /* \"#utility.yul\":9130:9269   */\n      swap1\n      pop\n        /* \"#utility.yul\":8857:9276   */\n      swap2\n      swap1\n      pop\n      jump\t// out\n        /* \"#utility.yul\":9282:9463   */\n    tag_148:\n        /* \"#utility.yul\":9422:9455   */\n      0x43726f776446756e643a2066756e64696e67207374696c6c2061637469766500\n        /* \"#utility.yul\":9418:9419   */\n      0x00\n        /* \"#utility.yul\":9410:9416   */\n      dup3\n        /* \"#utility.yul\":9406:9420   */\n      add\n        /* \"#utility.yul\":9399:9456   */\n      mstore\n        /* \"#utility.yul\":9282:9463   */\n      pop\n      jump\t// out\n        /* \"#utility.yul\":9469:9835   */\n    tag_149:\n        /* \"#utility.yul\":9611:9614   */\n      0x00\n        /* \"#utility.yul\":9632:9699   */\n      tag_236\n        /* \"#utility.yul\":9696:9698   */\n      0x1f\n        /* \"#utility.yul\":9691:9694   */\n      dup4\n        /* \"#utility.yul\":9632:9699   */\n      tag_133\n      jump\t// in\n    tag_236:\n        /* \"#utility.yul\":9625:9699   */\n      swap2\n      pop\n        /* \"#utility.yul\":9708:9801   */\n      tag_237\n        /* \"#utility.yul\":9797:9800   */\n      dup3\n        /* \"#utility.yul\":9708:9801   */\n      tag_148\n      jump\t// in\n    tag_237:\n        /* \"#utility.yul\":9826:9828   */\n      0x20\n        /* \"#utility.yul\":9821:9824   */\n      dup3\n        /* \"#utility.yul\":9817:9829   */\n      add\n        /* \"#utility.yul\":9810:9829   */\n      swap1\n      pop\n        /* \"#utility.yul\":9469:9835   */\n      swap2\n      swap1\n      pop\n      jump\t// out\n        /* \"#utility.yul\":9841:10260   */\n    tag_103:\n        /* \"#utility.yul\":10007:10011   */\n      0x00\n        /* \"#utility.yul\":10045:10047   */\n      0x20\n        /* \"#utility.yul\":10034:10043   */\n      dup3\n        /* \"#utility.yul\":10030:10048   */\n      add\n        /* \"#utility.yul\":10022:10048   */\n      swap1\n      pop\n        /* \"#utility.yul\":10094:10103   */\n      dup2\n        /* \"#utility.yul\":10088:10092   */\n      dup2\n        /* \"#utility.yul\":10084:10104   */\n      sub\n        /* \"#utility.yul\":10080:10081   */\n      0x00\n        /* \"#utility.yul\":10069:10078   */\n      dup4\n        /* \"#utility.yul\":10065:10082   */\n      add\n        /* \"#utility.yul\":10058:10105   */\n      mstore\n        /* \"#utility.yul\":10122:10253   */\n      tag_239\n        /* \"#utility.yul\":10248:10252   */\n      dup2\n        /* \"#utility.yul\":10122:10253   */\n      tag_149\n      jump\t// in\n    tag_239:\n        /* \"#utility.yul\":10114:10253   */\n      swap1\n      pop\n        /* \"#utility.yul\":9841:10260   */\n      swap2\n      swap1\n      pop\n      jump\t// out\n        /* \"#utility.yul\":10266:10447   */\n    tag_150:\n        /* \"#utility.yul\":10406:10439   */\n      0x43726f776446756e643a20676f616c206d65743b206e6f20726566756e647300\n        /* \"#utility.yul\":10402:10403   */\n      0x00\n        /* \"#utility.yul\":10394:10400   */\n      dup3\n        /* \"#utility.yul\":10390:10404   */\n      add\n        /* \"#utility.yul\":10383:10440   */\n      mstore\n        /* \"#utility.yul\":10266:10447   */\n      pop\n      jump\t// out\n        /* \"#utility.yul\":10453:10819   */\n    tag_151:\n        /* \"#utility.yul\":10595:10598   */\n      0x00\n        /* \"#utility.yul\":10616:10683   */\n      tag_242\n        /* \"#utility.yul\":10680:10682   */\n      0x1f\n        /* \"#utility.yul\":10675:10678   */\n      dup4\n        /* \"#utility.yul\":10616:10683   */\n      tag_133\n      jump\t// in\n    tag_242:\n        /* \"#utility.yul\":10609:10683   */\n      swap2\n      pop\n        /* \"#utility.yul\":10692:10785   */\n      tag_243\n        /* \"#utility.yul\":10781:10784   */\n      dup3\n        /* \"#utility.yul\":10692:10785   */\n      tag_150\n      jump\t// in\n    tag_243:\n        /* \"#utility.yul\":10810:10812   */\n      0x20\n        /* \"#utility.yul\":10805:10808   */\n      dup3\n        /* \"#utility.yul\":10801:10813   */\n      add\n        /* \"#utility.yul\":10794:10813   */\n      swap1\n      pop\n        /* \"#utility.yul\":10453:10819   */\n      swap2\n      swap1\n      pop\n      jump\t// out\n        /* \"#utility.yul\":10825:11244   */\n    tag_107:\n        /* \"#utility.yul\":10991:10995   */\n      0x00\n        /* \"#utility.yul\":11029:11031   */\n      0x20\n        /* \"#utility.yul\":11018:11027   */\n      dup3\n        /* \"#utility.yul\":11014:11032   */\n      add\n        /* \"#utility.yul\":11006:11032   */\n      swap1\n      pop\n        /* \"#utility.yul\":11078:11087   */\n      dup2\n        /* \"#utility.yul\":11072:11076   */\n      dup2\n        /* \"#utility.yul\":11068:11088   */\n      sub\n        /* \"#utility.yul\":11064:11065   */\n      0x00\n        /* \"#utility.yul\":11053:11062   */\n      dup4\n        /* \"#utility.yul\":11049:11066   */\n      add\n        /* \"#utility.yul\":11042:11089   */\n      mstore\n        /* \"#utility.yul\":11106:11237   */\n      tag_245\n        /* \"#utility.yul\":11232:11236   */\n      dup2\n        /* \"#utility.yul\":11106:11237   */\n      tag_151\n      jump\t// in\n    tag_245:\n        /* \"#utility.yul\":11098:11237   */\n      swap1\n      pop\n        /* \"#utility.yul\":10825:11244   */\n      swap2\n      swap1\n      pop\n      jump\t// out\n        /* \"#utility.yul\":11250:11428   */\n    tag_152:\n        /* \"#utility.yul\":11390:11420   */\n      0x43726f776446756e643a206e6f7468696e6720746f20726566756e6400000000\n        /* \"#utility.yul\":11386:11387   */\n      0x00\n        /* \"#utility.yul\":11378:11384   */\n      dup3\n        /* \"#utility.yul\":11374:11388   */\n      add\n        /* \"#utility.yul\":11367:11421   */\n      mstore\n        /* \"#utility.yul\":11250:11428   */\n      pop\n      jump\t// out\n        /* \"#utility.yul\":11434:11800   */\n    tag_153:\n        /* \"#utility.yul\":11576:11579   */\n      0x00\n        /* \"#utility.yul\":11597:11664   */\n      tag_248\n        /* \"#utility.yul\":11661:11663   */\n      0x1c\n        /* \"#utility.yul\":11656:11659   */\n      dup4\n        /* \"#utility.yul\":11597:11664   */\n      tag_133\n      jump\t// in\n    tag_248:\n        /* \"#utility.yul\":11590:11664   */\n      swap2\n      pop\n        /* \"#utility.yul\":11673:11766   */\n      tag_249\n        /* \"#utility.yul\":11762:11765   */\n      dup3\n        /* \"#utility.yul\":11673:11766   */\n      tag_152\n      jump\t// in\n    tag_249:\n        /* \"#utility.yul\":11791:11793   */\n      0x20\n        /* \"#utility.yul\":11786:11789   */\n      dup3\n        /* \"#utility.yul\":11782:11794   */\n      add\n        /* \"#utility.yul\":11775:11794   */\n      swap1\n      pop\n        /* \"#utility.yul\":11434:11800   */\n      swap2\n      swap1\n      pop\n      jump\t// out\n        /* \"#utility.yul\":11806:12225   */\n    tag_110:\n        /* \"#utility.yul\":11972:11976   */\n      0x00\n        /* \"#utility.yul\":12010:12012   */\n      0x20\n        /* \"#utility.yul\":11999:12008   */\n      dup3\n        /* \"#utility.yul\":11995:12013   */\n      add\n        /* \"#utility.yul\":11987:12013   */\n      swap1\n      pop\n        /* \"#utility.yul\":12059:12068   */\n      dup2\n        /* \"#utility.yul\":12053:12057   */\n      dup2\n        /* \"#utility.yul\":12049:12069   */\n      sub\n        /* \"#utility.yul\":12045:12046   */\n      0x00\n        /* \"#utility.yul\":12034:12043   */\n      dup4\n        /* \"#utility.yul\":12030:12047   */\n      add\n        /* \"#utility.yul\":12023:12070   */\n      mstore\n        /* \"#utility.yul\":12087:12218   */\n      tag_251\n        /* \"#utility.yul\":12213:12217   */\n      dup2\n        /* \"#utility.yul\":12087:12218   */\n      tag_153\n      jump\t// in\n    tag_251:\n        /* \"#utility.yul\":12079:12218   */\n      swap1\n      pop\n        /* \"#utility.yul\":11806:12225   */\n      swap2\n      swap1\n      pop\n      jump\t// out\n        /* \"#utility.yul\":12231:12405   */\n    tag_154:\n        /* \"#utility.yul\":12371:12397   */\n      0x43726f776446756e643a20726566756e64206661696c65640000000000000000\n        /* \"#utility.yul\":12367:12368   */\n      0x00\n        /* \"#utility.yul\":12359:12365   */\n      dup3\n        /* \"#utility.yul\":12355:12369   */\n      add\n        /* \"#utility.yul\":12348:12398   */\n      mstore\n        /* \"#utility.yul\":12231:12405   */\n      pop\n      jump\t// out\n        /* \"#utility.yul\":12411:12777   */\n    tag_155:\n        /* \"#utility.yul\":12553:12556   */\n      0x00\n        /* \"#utility.yul\":12574:12641   */\n      tag_254\n        /* \"#utility.yul\":12638:12640   */\n      0x18\n        /* \"#utility.yul\":12633:12636   */\n      dup4\n        /* \"#utility.yul\":12574:12641   */\n      tag_133\n      jump\t// in\n    tag_254:\n        /* \"#utility.yul\":12567:12641   */\n      swap2\n      pop\n        /* \"#utility.yul\":12650:12743   */\n      tag_255\n        /* \"#utility.yul\":12739:12742   */\n      dup3\n        /* \"#utility.yul\":12650:12743   */\n      tag_154\n      jump\t// in\n    tag_255:\n        /* \"#utility.yul\":12768:12770   */\n      0x20\n        /* \"#utility.yul\":12763:12766   */\n      dup3\n        /* \"#utility.yul\":12759:12771   */\n      add\n        /* \"#utility.yul\":12752:12771   */\n      swap1\n      pop\n        /* \"#utility.yul\":12411:12777   */\n      swap2\n      swap1\n      pop\n      jump\t// out\n        /* \"#utility.yul\":12783:13202   */\n    tag_117:\n        /* \"#utility.yul\":12949:12953   */\n      0x00\n        /* \"#utility.yul\":12987:12989   */\n      0x20\n        /* \"#utility.yul\":12976:12985   */\n      dup3\n        /* \"#utility.yul\":12972:12990   */\n      add\n        /* \"#utility.yul\":12964:12990   */\n      swap1\n      pop\n        /* \"#utility.yul\":13036:13045   */\n      dup2\n        /* \"#utility.yul\":13030:13034   */\n      dup2\n        /* \"#utility.yul\":13026:13046   */\n      sub\n        /* \"#utility.yul\":13022:13023   */\n      0x00\n        /* \"#utility.yul\":13011:13020   */\n      dup4\n        /* \"#utility.yul\":13007:13024   */\n      add\n        /* \"#utility.yul\":13000:13047   */\n      mstore\n        /* \"#utility.yul\":13064:13195   */\n      tag_257\n        /* \"#utility.yul\":13190:13194   */\n      dup2\n        /* \"#utility.yul\":13064:13195   */\n      tag_155\n      jump\t// in\n    tag_257:\n        /* \"#utility.yul\":13056:13195   */\n      swap1\n      pop\n        /* \"#utility.yul\":12783:13202   */\n      swap2\n      swap1\n      pop\n      jump\t// out\n\n    auxdata: 0xa26469706673582212202a9be61a131f7f9055453ce8b2946903b354388c3d23eabdb5b109c2fd48bfae64736f6c634300081e0033\n}\n",
				"bytecode": {
					"linkReferences": {},
					"object": "60e060405234801561001057600080fd5b5060405161136338038061136383398181016040528101906100329190610149565b60008211610075576040517f08c379a000000000000000000000000000000000000000000000000000000000815260040161006c906101e6565b60405180910390fd5b600081116100b8576040517f08c379a00000000000000000000000000000000000000000000000000000000081526004016100af90610252565b60405180910390fd5b3373ffffffffffffffffffffffffffffffffffffffff1660808173ffffffffffffffffffffffffffffffffffffffff16815250508160a08181525050804261010091906102a1565b60c0818152505050506102d5565b600080fd5b6000819050919050565b61012681610113565b811461013157600080fd5b50565b6000815190506101438161011d565b92915050565b600080604083850312156101605761015f61010e565b5b600061016e85828601610134565b925050602061017f85828601610134565b9150509250929050565b600082825260208201905092915050565b7f43726f776446756e643a20676f616c206d757374206265203e20300000000000600082015250565b60006101d0601b83610189565b91506101db8261019a565b602082019050919050565b600060208201905081810360008301526101ff816101c3565b9050919050565b7f43726f776446756e643a206475726174696f6e206d757374206265203e203000600082015250565b600061023c601f83610189565b915061024782610206565b602082019050919050565b6000602082019050818103600083015261026b8161022f565b9050919050565b7f4e487b7100000000000000000000000000000000000000000000000000000000600052601160045260246000fd5b60006102ac82610113565b91506102b783610113565b92508282019050808211156102cf576102ce610272565b5b92915050565b60805160a05160c051611020610343600039600081816102600152818161048a015281816106bc01526109b60152600081816104250152818161053c015281816106800152818161071f01526109950152600081816104ae015281816105b2015261095101526110206000f3fe6080604052600436106100a05760003560e01c80637b3e5e7b116100645780637b3e5e7b1461017a5780638da5cb5b146101a5578063c71daccb146101d0578063d7bb99ba146101fb578063ecfd892814610205578063fbbf93a014610230576100af565b806329dcb0cf146100b95780633ccfd60b146100e457806340193883146100fb57806342e94c9014610126578063590e1ae314610163576100af565b366100af576100ad61025e565b005b6100b761025e565b005b3480156100c557600080fd5b506100ce610488565b6040516100db9190610a02565b60405180910390f35b3480156100f057600080fd5b506100f96104ac565b005b34801561010757600080fd5b5061011061067e565b60405161011d9190610a02565b60405180910390f35b34801561013257600080fd5b5061014d60048036038101906101489190610a80565b6106a2565b60405161015a9190610a02565b60405180910390f35b34801561016f57600080fd5b506101786106ba565b005b34801561018657600080fd5b5061018f610949565b60405161019c9190610a02565b60405180910390f35b3480156101b157600080fd5b506101ba61094f565b6040516101c79190610abc565b60405180910390f35b3480156101dc57600080fd5b506101e5610973565b6040516101f29190610a02565b60405180910390f35b61020361097d565b005b34801561021157600080fd5b5061021a610987565b6040516102279190610a02565b60405180910390f35b34801561023c57600080fd5b5061024561098d565b6040516102559493929190610ad7565b60405180910390f35b7f000000000000000000000000000000000000000000000000000000000000000042106102c0576040517f08c379a00000000000000000000000000000000000000000000000000000000081526004016102b790610b79565b60405180910390fd5b662386f26fc1000034101561030a576040517f08c379a000000000000000000000000000000000000000000000000000000000815260040161030190610be5565b60405180910390fd5b60008060003373ffffffffffffffffffffffffffffffffffffffff1673ffffffffffffffffffffffffffffffffffffffff16815260200190815260200160002054036103675760026000815461035f90610c34565b919050819055505b346000803373ffffffffffffffffffffffffffffffffffffffff1673ffffffffffffffffffffffffffffffffffffffff16815260200190815260200160002060008282546103b59190610c7c565b9250508190555034600160008282546103ce9190610c7c565b925050819055503373ffffffffffffffffffffffffffffffffffffffff167f54a5b8782470a0d2c022b3b9e5e729503ac5dbdfe053afeb4559f9297f7565a63460405161041b9190610a02565b60405180910390a27f000000000000000000000000000000000000000000000000000000000000000060015410610486577ffbfd8ab7c24300fa9888cd721c8565a7da56759384781283684dcf7c7c4a846b60015460405161047d9190610a02565b60405180910390a15b565b7f000000000000000000000000000000000000000000000000000000000000000081565b7f000000000000000000000000000000000000000000000000000000000000000073ffffffffffffffffffffffffffffffffffffffff163373ffffffffffffffffffffffffffffffffffffffff161461053a576040517f08c379a000000000000000000000000000000000000000000000000000000000815260040161053190610cfc565b60405180910390fd5b7f0000000000000000000000000000000000000000000000000000000000000000600154101561059f576040517f08c379a000000000000000000000000000000000000000000000000000000000815260040161059690610d68565b60405180910390fd5b60006001549050600060018190555060007f000000000000000000000000000000000000000000000000000000000000000073ffffffffffffffffffffffffffffffffffffffff16826040516105f490610db9565b60006040518083038185875af1925050503d8060008114610631576040519150601f19603f3d011682016040523d82523d6000602084013e610636565b606091505b505090508061067a576040517f08c379a000000000000000000000000000000000000000000000000000000000815260040161067190610e1a565b60405180910390fd5b5050565b7f000000000000000000000000000000000000000000000000000000000000000081565b60006020528060005260406000206000915090505481565b7f000000000000000000000000000000000000000000000000000000000000000042101561071d576040517f08c379a000000000000000000000000000000000000000000000000000000000815260040161071490610e86565b60405180910390fd5b7f000000000000000000000000000000000000000000000000000000000000000060015410610781576040517f08c379a000000000000000000000000000000000000000000000000000000000815260040161077890610ef2565b60405180910390fd5b60008060003373ffffffffffffffffffffffffffffffffffffffff1673ffffffffffffffffffffffffffffffffffffffff16815260200190815260200160002054905060008111610807576040517f08c379a00000000000000000000000000000000000000000000000000000000081526004016107fe90610f5e565b60405180910390fd5b60008060003373ffffffffffffffffffffffffffffffffffffffff1673ffffffffffffffffffffffffffffffffffffffff1681526020019081526020016000208190555060003373ffffffffffffffffffffffffffffffffffffffff168260405161087190610db9565b60006040518083038185875af1925050503d80600081146108ae576040519150601f19603f3d011682016040523d82523d6000602084013e6108b3565b606091505b50509050806108f7576040517f08c379a00000000000000000000000000000000000000000000000000000000081526004016108ee90610fca565b60405180910390fd5b3373ffffffffffffffffffffffffffffffffffffffff167fd7dee2702d63ad89917b6a4da9981c90c4d24f8c2bdfd64c604ecae57d8d06518360405161093d9190610a02565b60405180910390a25050565b60015481565b7f000000000000000000000000000000000000000000000000000000000000000081565b6000600154905090565b61098561025e565b565b60025481565b6000806000807f00000000000000000000000000000000000000000000000000000000000000007f0000000000000000000000000000000000000000000000000000000000000000600154600254935093509350935090919293565b6000819050919050565b6109fc816109e9565b82525050565b6000602082019050610a1760008301846109f3565b92915050565b600080fd5b600073ffffffffffffffffffffffffffffffffffffffff82169050919050565b6000610a4d82610a22565b9050919050565b610a5d81610a42565b8114610a6857600080fd5b50565b600081359050610a7a81610a54565b92915050565b600060208284031215610a9657610a95610a1d565b5b6000610aa484828501610a6b565b91505092915050565b610ab681610a42565b82525050565b6000602082019050610ad16000830184610aad565b92915050565b6000608082019050610aec60008301876109f3565b610af960208301866109f3565b610b0660408301856109f3565b610b1360608301846109f3565b95945050505050565b600082825260208201905092915050565b7f43726f776446756e643a2066756e64696e6720706572696f64206f7665720000600082015250565b6000610b63601e83610b1c565b9150610b6e82610b2d565b602082019050919050565b60006020820190508181036000830152610b9281610b56565b9050919050565b7f43726f776446756e643a206d696e20302e303120455448000000000000000000600082015250565b6000610bcf601783610b1c565b9150610bda82610b99565b602082019050919050565b60006020820190508181036000830152610bfe81610bc2565b9050919050565b7f4e487b7100000000000000000000000000000000000000000000000000000000600052601160045260246000fd5b6000610c3f826109e9565b91507fffffffffffffffffffffffffffffffffffffffffffffffffffffffffffffffff8203610c7157610c70610c05565b5b600182019050919050565b6000610c87826109e9565b9150610c92836109e9565b9250828201905080821115610caa57610ca9610c05565b5b92915050565b7f43726f776446756e643a2063616c6c6572206973206e6f74206f776e65720000600082015250565b6000610ce6601e83610b1c565b9150610cf182610cb0565b602082019050919050565b60006020820190508181036000830152610d1581610cd9565b9050919050565b7f43726f776446756e643a20676f616c206e6f7420726561636865640000000000600082015250565b6000610d52601b83610b1c565b9150610d5d82610d1c565b602082019050919050565b60006020820190508181036000830152610d8181610d45565b9050919050565b600081905092915050565b50565b6000610da3600083610d88565b9150610dae82610d93565b600082019050919050565b6000610dc482610d96565b9150819050919050565b7f43726f776446756e643a207769746864726177206661696c6564000000000000600082015250565b6000610e04601a83610b1c565b9150610e0f82610dce565b602082019050919050565b60006020820190508181036000830152610e3381610df7565b9050919050565b7f43726f776446756e643a2066756e64696e67207374696c6c2061637469766500600082015250565b6000610e70601f83610b1c565b9150610e7b82610e3a565b602082019050919050565b60006020820190508181036000830152610e9f81610e63565b9050919050565b7f43726f776446756e643a20676f616c206d65743b206e6f20726566756e647300600082015250565b6000610edc601f83610b1c565b9150610ee782610ea6565b602082019050919050565b60006020820190508181036000830152610f0b81610ecf565b9050919050565b7f43726f776446756e643a206e6f7468696e6720746f20726566756e6400000000600082015250565b6000610f48601c83610b1c565b9150610f5382610f12565b602082019050919050565b60006020820190508181036000830152610f7781610f3b565b9050919050565b7f43726f776446756e643a20726566756e64206661696c65640000000000000000600082015250565b6000610fb4601883610b1c565b9150610fbf82610f7e565b602082019050919050565b60006020820190508181036000830152610fe381610fa7565b905091905056fea26469706673582212202a9be61a131f7f9055453ce8b2946903b354388c3d23eabdb5b109c2fd48bfae64736f6c634300081e0033",
					"opcodes": "PUSH1 0xE0 PUSH1 0x40 MSTORE CALLVALUE DUP1 ISZERO PUSH2 0x10 JUMPI PUSH1 0x0 DUP1 REVERT JUMPDEST POP PUSH1 0x40 MLOAD PUSH2 0x1363 CODESIZE SUB DUP1 PUSH2 0x1363 DUP4 CODECOPY DUP2 DUP2 ADD PUSH1 0x40 MSTORE DUP2 ADD SWAP1 PUSH2 0x32 SWAP2 SWAP1 PUSH2 0x149 JUMP JUMPDEST PUSH1 0x0 DUP3 GT PUSH2 0x75 JUMPI PUSH1 0x40 MLOAD PUSH32 0x8C379A000000000000000000000000000000000000000000000000000000000 DUP2 MSTORE PUSH1 0x4 ADD PUSH2 0x6C SWAP1 PUSH2 0x1E6 JUMP JUMPDEST PUSH1 0x40 MLOAD DUP1 SWAP2 SUB SWAP1 REVERT JUMPDEST PUSH1 0x0 DUP2 GT PUSH2 0xB8 JUMPI PUSH1 0x40 MLOAD PUSH32 0x8C379A000000000000000000000000000000000000000000000000000000000 DUP2 MSTORE PUSH1 0x4 ADD PUSH2 0xAF SWAP1 PUSH2 0x252 JUMP JUMPDEST PUSH1 0x40 MLOAD DUP1 SWAP2 SUB SWAP1 REVERT JUMPDEST CALLER PUSH20 0xFFFFFFFFFFFFFFFFFFFFFFFFFFFFFFFFFFFFFFFF AND PUSH1 0x80 DUP2 PUSH20 0xFFFFFFFFFFFFFFFFFFFFFFFFFFFFFFFFFFFFFFFF AND DUP2 MSTORE POP POP DUP2 PUSH1 0xA0 DUP2 DUP2 MSTORE POP POP DUP1 TIMESTAMP PUSH2 0x100 SWAP2 SWAP1 PUSH2 0x2A1 JUMP JUMPDEST PUSH1 0xC0 DUP2 DUP2 MSTORE POP POP POP POP PUSH2 0x2D5 JUMP JUMPDEST PUSH1 0x0 DUP1 REVERT JUMPDEST PUSH1 0x0 DUP2 SWAP1 POP SWAP2 SWAP1 POP JUMP JUMPDEST PUSH2 0x126 DUP2 PUSH2 0x113 JUMP JUMPDEST DUP2 EQ PUSH2 0x131 JUMPI PUSH1 0x0 DUP1 REVERT JUMPDEST POP JUMP JUMPDEST PUSH1 0x0 DUP2 MLOAD SWAP1 POP PUSH2 0x143 DUP2 PUSH2 0x11D JUMP JUMPDEST SWAP3 SWAP2 POP POP JUMP JUMPDEST PUSH1 0x0 DUP1 PUSH1 0x40 DUP4 DUP6 SUB SLT ISZERO PUSH2 0x160 JUMPI PUSH2 0x15F PUSH2 0x10E JUMP JUMPDEST JUMPDEST PUSH1 0x0 PUSH2 0x16E DUP6 DUP3 DUP7 ADD PUSH2 0x134 JUMP JUMPDEST SWAP3 POP POP PUSH1 0x20 PUSH2 0x17F DUP6 DUP3 DUP7 ADD PUSH2 0x134 JUMP JUMPDEST SWAP2 POP POP SWAP3 POP SWAP3 SWAP1 POP JUMP JUMPDEST PUSH1 0x0 DUP3 DUP3 MSTORE PUSH1 0x20 DUP3 ADD SWAP1 POP SWAP3 SWAP2 POP POP JUMP JUMPDEST PUSH32 0x43726F776446756E643A20676F616C206D757374206265203E20300000000000 PUSH1 0x0 DUP3 ADD MSTORE POP JUMP JUMPDEST PUSH1 0x0 PUSH2 0x1D0 PUSH1 0x1B DUP4 PUSH2 0x189 JUMP JUMPDEST SWAP2 POP PUSH2 0x1DB DUP3 PUSH2 0x19A JUMP JUMPDEST PUSH1 0x20 DUP3 ADD SWAP1 POP SWAP2 SWAP1 POP JUMP JUMPDEST PUSH1 0x0 PUSH1 0x20 DUP3 ADD SWAP1 POP DUP2 DUP2 SUB PUSH1 0x0 DUP4 ADD MSTORE PUSH2 0x1FF DUP2 PUSH2 0x1C3 JUMP JUMPDEST SWAP1 POP SWAP2 SWAP1 POP JUMP JUMPDEST PUSH32 0x43726F776446756E643A206475726174696F6E206D757374206265203E203000 PUSH1 0x0 DUP3 ADD MSTORE POP JUMP JUMPDEST PUSH1 0x0 PUSH2 0x23C PUSH1 0x1F DUP4 PUSH2 0x189 JUMP JUMPDEST SWAP2 POP PUSH2 0x247 DUP3 PUSH2 0x206 JUMP JUMPDEST PUSH1 0x20 DUP3 ADD SWAP1 POP SWAP2 SWAP1 POP JUMP JUMPDEST PUSH1 0x0 PUSH1 0x20 DUP3 ADD SWAP1 POP DUP2 DUP2 SUB PUSH1 0x0 DUP4 ADD MSTORE PUSH2 0x26B DUP2 PUSH2 0x22F JUMP JUMPDEST SWAP1 POP SWAP2 SWAP1 POP JUMP JUMPDEST PUSH32 0x4E487B7100000000000000000000000000000000000000000000000000000000 PUSH1 0x0 MSTORE PUSH1 0x11 PUSH1 0x4 MSTORE PUSH1 0x24 PUSH1 0x0 REVERT JUMPDEST PUSH1 0x0 PUSH2 0x2AC DUP3 PUSH2 0x113 JUMP JUMPDEST SWAP2 POP PUSH2 0x2B7 DUP4 PUSH2 0x113 JUMP JUMPDEST SWAP3 POP DUP3 DUP3 ADD SWAP1 POP DUP1 DUP3 GT ISZERO PUSH2 0x2CF JUMPI PUSH2 0x2CE PUSH2 0x272 JUMP JUMPDEST JUMPDEST SWAP3 SWAP2 POP POP JUMP JUMPDEST PUSH1 0x80 MLOAD PUSH1 0xA0 MLOAD PUSH1 0xC0 MLOAD PUSH2 0x1020 PUSH2 0x343 PUSH1 0x0 CODECOPY PUSH1 0x0 DUP2 DUP2 PUSH2 0x260 ADD MSTORE DUP2 DUP2 PUSH2 0x48A ADD MSTORE DUP2 DUP2 PUSH2 0x6BC ADD MSTORE PUSH2 0x9B6 ADD MSTORE PUSH1 0x0 DUP2 DUP2 PUSH2 0x425 ADD MSTORE DUP2 DUP2 PUSH2 0x53C ADD MSTORE DUP2 DUP2 PUSH2 0x680 ADD MSTORE DUP2 DUP2 PUSH2 0x71F ADD MSTORE PUSH2 0x995 ADD MSTORE PUSH1 0x0 DUP2 DUP2 PUSH2 0x4AE ADD MSTORE DUP2 DUP2 PUSH2 0x5B2 ADD MSTORE PUSH2 0x951 ADD MSTORE PUSH2 0x1020 PUSH1 0x0 RETURN INVALID PUSH1 0x80 PUSH1 0x40 MSTORE PUSH1 0x4 CALLDATASIZE LT PUSH2 0xA0 JUMPI PUSH1 0x0 CALLDATALOAD PUSH1 0xE0 SHR DUP1 PUSH4 0x7B3E5E7B GT PUSH2 0x64 JUMPI DUP1 PUSH4 0x7B3E5E7B EQ PUSH2 0x17A JUMPI DUP1 PUSH4 0x8DA5CB5B EQ PUSH2 0x1A5 JUMPI DUP1 PUSH4 0xC71DACCB EQ PUSH2 0x1D0 JUMPI DUP1 PUSH4 0xD7BB99BA EQ PUSH2 0x1FB JUMPI DUP1 PUSH4 0xECFD8928 EQ PUSH2 0x205 JUMPI DUP1 PUSH4 0xFBBF93A0 EQ PUSH2 0x230 JUMPI PUSH2 0xAF JUMP JUMPDEST DUP1 PUSH4 0x29DCB0CF EQ PUSH2 0xB9 JUMPI DUP1 PUSH4 0x3CCFD60B EQ PUSH2 0xE4 JUMPI DUP1 PUSH4 0x40193883 EQ PUSH2 0xFB JUMPI DUP1 PUSH4 0x42E94C90 EQ PUSH2 0x126 JUMPI DUP1 PUSH4 0x590E1AE3 EQ PUSH2 0x163 JUMPI PUSH2 0xAF JUMP JUMPDEST CALLDATASIZE PUSH2 0xAF JUMPI PUSH2 0xAD PUSH2 0x25E JUMP JUMPDEST STOP JUMPDEST PUSH2 0xB7 PUSH2 0x25E JUMP JUMPDEST STOP JUMPDEST CALLVALUE DUP1 ISZERO PUSH2 0xC5 JUMPI PUSH1 0x0 DUP1 REVERT JUMPDEST POP PUSH2 0xCE PUSH2 0x488 JUMP JUMPDEST PUSH1 0x40 MLOAD PUSH2 0xDB SWAP2 SWAP1 PUSH2 0xA02 JUMP JUMPDEST PUSH1 0x40 MLOAD DUP1 SWAP2 SUB SWAP1 RETURN JUMPDEST CALLVALUE DUP1 ISZERO PUSH2 0xF0 JUMPI PUSH1 0x0 DUP1 REVERT JUMPDEST POP PUSH2 0xF9 PUSH2 0x4AC JUMP JUMPDEST STOP JUMPDEST CALLVALUE DUP1 ISZERO PUSH2 0x107 JUMPI PUSH1 0x0 DUP1 REVERT JUMPDEST POP PUSH2 0x110 PUSH2 0x67E JUMP JUMPDEST PUSH1 0x40 MLOAD PUSH2 0x11D SWAP2 SWAP1 PUSH2 0xA02 JUMP JUMPDEST PUSH1 0x40 MLOAD DUP1 SWAP2 SUB SWAP1 RETURN JUMPDEST CALLVALUE DUP1 ISZERO PUSH2 0x132 JUMPI PUSH1 0x0 DUP1 REVERT JUMPDEST POP PUSH2 0x14D PUSH1 0x4 DUP1 CALLDATASIZE SUB DUP2 ADD SWAP1 PUSH2 0x148 SWAP2 SWAP1 PUSH2 0xA80 JUMP JUMPDEST PUSH2 0x6A2 JUMP JUMPDEST PUSH1 0x40 MLOAD PUSH2 0x15A SWAP2 SWAP1 PUSH2 0xA02 JUMP JUMPDEST PUSH1 0x40 MLOAD DUP1 SWAP2 SUB SWAP1 RETURN JUMPDEST CALLVALUE DUP1 ISZERO PUSH2 0x16F JUMPI PUSH1 0x0 DUP1 REVERT JUMPDEST POP PUSH2 0x178 PUSH2 0x6BA JUMP JUMPDEST STOP JUMPDEST CALLVALUE DUP1 ISZERO PUSH2 0x186 JUMPI PUSH1 0x0 DUP1 REVERT JUMPDEST POP PUSH2 0x18F PUSH2 0x949 JUMP JUMPDEST PUSH1 0x40 MLOAD PUSH2 0x19C SWAP2 SWAP1 PUSH2 0xA02 JUMP JUMPDEST PUSH1 0x40 MLOAD DUP1 SWAP2 SUB SWAP1 RETURN JUMPDEST CALLVALUE DUP1 ISZERO PUSH2 0x1B1 JUMPI PUSH1 0x0 DUP1 REVERT JUMPDEST POP PUSH2 0x1BA PUSH2 0x94F JUMP JUMPDEST PUSH1 0x40 MLOAD PUSH2 0x1C7 SWAP2 SWAP1 PUSH2 0xABC JUMP JUMPDEST PUSH1 0x40 MLOAD DUP1 SWAP2 SUB SWAP1 RETURN JUMPDEST CALLVALUE DUP1 ISZERO PUSH2 0x1DC JUMPI PUSH1 0x0 DUP1 REVERT JUMPDEST POP PUSH2 0x1E5 PUSH2 0x973 JUMP JUMPDEST PUSH1 0x40 MLOAD PUSH2 0x1F2 SWAP2 SWAP1 PUSH2 0xA02 JUMP JUMPDEST PUSH1 0x40 MLOAD DUP1 SWAP2 SUB SWAP1 RETURN JUMPDEST PUSH2 0x203 PUSH2 0x97D JUMP JUMPDEST STOP JUMPDEST CALLVALUE DUP1 ISZERO PUSH2 0x211 JUMPI PUSH1 0x0 DUP1 REVERT JUMPDEST POP PUSH2 0x21A PUSH2 0x987 JUMP JUMPDEST PUSH1 0x40 MLOAD PUSH2 0x227 SWAP2 SWAP1 PUSH2 0xA02 JUMP JUMPDEST PUSH1 0x40 MLOAD DUP1 SWAP2 SUB SWAP1 RETURN JUMPDEST CALLVALUE DUP1 ISZERO PUSH2 0x23C JUMPI PUSH1 0x0 DUP1 REVERT JUMPDEST POP PUSH2 0x245 PUSH2 0x98D JUMP JUMPDEST PUSH1 0x40 MLOAD PUSH2 0x255 SWAP5 SWAP4 SWAP3 SWAP2 SWAP1 PUSH2 0xAD7 JUMP JUMPDEST PUSH1 0x40 MLOAD DUP1 SWAP2 SUB SWAP1 RETURN JUMPDEST PUSH32 0x0 TIMESTAMP LT PUSH2 0x2C0 JUMPI PUSH1 0x40 MLOAD PUSH32 0x8C379A000000000000000000000000000000000000000000000000000000000 DUP2 MSTORE PUSH1 0x4 ADD PUSH2 0x2B7 SWAP1 PUSH2 0xB79 JUMP JUMPDEST PUSH1 0x40 MLOAD DUP1 SWAP2 SUB SWAP1 REVERT JUMPDEST PUSH7 0x2386F26FC10000 CALLVALUE LT ISZERO PUSH2 0x30A JUMPI PUSH1 0x40 MLOAD PUSH32 0x8C379A000000000000000000000000000000000000000000000000000000000 DUP2 MSTORE PUSH1 0x4 ADD PUSH2 0x301 SWAP1 PUSH2 0xBE5 JUMP JUMPDEST PUSH1 0x40 MLOAD DUP1 SWAP2 SUB SWAP1 REVERT JUMPDEST PUSH1 0x0 DUP1 PUSH1 0x0 CALLER PUSH20 0xFFFFFFFFFFFFFFFFFFFFFFFFFFFFFFFFFFFFFFFF AND PUSH20 0xFFFFFFFFFFFFFFFFFFFFFFFFFFFFFFFFFFFFFFFF AND DUP2 MSTORE PUSH1 0x20 ADD SWAP1 DUP2 MSTORE PUSH1 0x20 ADD PUSH1 0x0 KECCAK256 SLOAD SUB PUSH2 0x367 JUMPI PUSH1 0x2 PUSH1 0x0 DUP2 SLOAD PUSH2 0x35F SWAP1 PUSH2 0xC34 JUMP JUMPDEST SWAP2 SWAP1 POP DUP2 SWAP1 SSTORE POP JUMPDEST CALLVALUE PUSH1 0x0 DUP1 CALLER PUSH20 0xFFFFFFFFFFFFFFFFFFFFFFFFFFFFFFFFFFFFFFFF AND PUSH20 0xFFFFFFFFFFFFFFFFFFFFFFFFFFFFFFFFFFFFFFFF AND DUP2 MSTORE PUSH1 0x20 ADD SWAP1 DUP2 MSTORE PUSH1 0x20 ADD PUSH1 0x0 KECCAK256 PUSH1 0x0 DUP3 DUP3 SLOAD PUSH2 0x3B5 SWAP2 SWAP1 PUSH2 0xC7C JUMP JUMPDEST SWAP3 POP POP DUP2 SWAP1 SSTORE POP CALLVALUE PUSH1 0x1 PUSH1 0x0 DUP3 DUP3 SLOAD PUSH2 0x3CE SWAP2 SWAP1 PUSH2 0xC7C JUMP JUMPDEST SWAP3 POP POP DUP2 SWAP1 SSTORE POP CALLER PUSH20 0xFFFFFFFFFFFFFFFFFFFFFFFFFFFFFFFFFFFFFFFF AND PUSH32 0x54A5B8782470A0D2C022B3B9E5E729503AC5DBDFE053AFEB4559F9297F7565A6 CALLVALUE PUSH1 0x40 MLOAD PUSH2 0x41B SWAP2 SWAP1 PUSH2 0xA02 JUMP JUMPDEST PUSH1 0x40 MLOAD DUP1 SWAP2 SUB SWAP1 LOG2 PUSH32 0x0 PUSH1 0x1 SLOAD LT PUSH2 0x486 JUMPI PUSH32 0xFBFD8AB7C24300FA9888CD721C8565A7DA56759384781283684DCF7C7C4A846B PUSH1 0x1 SLOAD PUSH1 0x40 MLOAD PUSH2 0x47D SWAP2 SWAP1 PUSH2 0xA02 JUMP JUMPDEST PUSH1 0x40 MLOAD DUP1 SWAP2 SUB SWAP1 LOG1 JUMPDEST JUMP JUMPDEST PUSH32 0x0 DUP2 JUMP JUMPDEST PUSH32 0x0 PUSH20 0xFFFFFFFFFFFFFFFFFFFFFFFFFFFFFFFFFFFFFFFF AND CALLER PUSH20 0xFFFFFFFFFFFFFFFFFFFFFFFFFFFFFFFFFFFFFFFF AND EQ PUSH2 0x53A JUMPI PUSH1 0x40 MLOAD PUSH32 0x8C379A000000000000000000000000000000000000000000000000000000000 DUP2 MSTORE PUSH1 0x4 ADD PUSH2 0x531 SWAP1 PUSH2 0xCFC JUMP JUMPDEST PUSH1 0x40 MLOAD DUP1 SWAP2 SUB SWAP1 REVERT JUMPDEST PUSH32 0x0 PUSH1 0x1 SLOAD LT ISZERO PUSH2 0x59F JUMPI PUSH1 0x40 MLOAD PUSH32 0x8C379A000000000000000000000000000000000000000000000000000000000 DUP2 MSTORE PUSH1 0x4 ADD PUSH2 0x596 SWAP1 PUSH2 0xD68 JUMP JUMPDEST PUSH1 0x40 MLOAD DUP1 SWAP2 SUB SWAP1 REVERT JUMPDEST PUSH1 0x0 PUSH1 0x1 SLOAD SWAP1 POP PUSH1 0x0 PUSH1 0x1 DUP2 SWAP1 SSTORE POP PUSH1 0x0 PUSH32 0x0 PUSH20 0xFFFFFFFFFFFFFFFFFFFFFFFFFFFFFFFFFFFFFFFF AND DUP3 PUSH1 0x40 MLOAD PUSH2 0x5F4 SWAP1 PUSH2 0xDB9 JUMP JUMPDEST PUSH1 0x0 PUSH1 0x40 MLOAD DUP1 DUP4 SUB DUP2 DUP6 DUP8 GAS CALL SWAP3 POP POP POP RETURNDATASIZE DUP1 PUSH1 0x0 DUP2 EQ PUSH2 0x631 JUMPI PUSH1 0x40 MLOAD SWAP2 POP PUSH1 0x1F NOT PUSH1 0x3F RETURNDATASIZE ADD AND DUP3 ADD PUSH1 0x40 MSTORE RETURNDATASIZE DUP3 MSTORE RETURNDATASIZE PUSH1 0x0 PUSH1 0x20 DUP5 ADD RETURNDATACOPY PUSH2 0x636 JUMP JUMPDEST PUSH1 0x60 SWAP2 POP JUMPDEST POP POP SWAP1 POP DUP1 PUSH2 0x67A JUMPI PUSH1 0x40 MLOAD PUSH32 0x8C379A000000000000000000000000000000000000000000000000000000000 DUP2 MSTORE PUSH1 0x4 ADD PUSH2 0x671 SWAP1 PUSH2 0xE1A JUMP JUMPDEST PUSH1 0x40 MLOAD DUP1 SWAP2 SUB SWAP1 REVERT JUMPDEST POP POP JUMP JUMPDEST PUSH32 0x0 DUP2 JUMP JUMPDEST PUSH1 0x0 PUSH1 0x20 MSTORE DUP1 PUSH1 0x0 MSTORE PUSH1 0x40 PUSH1 0x0 KECCAK256 PUSH1 0x0 SWAP2 POP SWAP1 POP SLOAD DUP2 JUMP JUMPDEST PUSH32 0x0 TIMESTAMP LT ISZERO PUSH2 0x71D JUMPI PUSH1 0x40 MLOAD PUSH32 0x8C379A000000000000000000000000000000000000000000000000000000000 DUP2 MSTORE PUSH1 0x4 ADD PUSH2 0x714 SWAP1 PUSH2 0xE86 JUMP JUMPDEST PUSH1 0x40 MLOAD DUP1 SWAP2 SUB SWAP1 REVERT JUMPDEST PUSH32 0x0 PUSH1 0x1 SLOAD LT PUSH2 0x781 JUMPI PUSH1 0x40 MLOAD PUSH32 0x8C379A000000000000000000000000000000000000000000000000000000000 DUP2 MSTORE PUSH1 0x4 ADD PUSH2 0x778 SWAP1 PUSH2 0xEF2 JUMP JUMPDEST PUSH1 0x40 MLOAD DUP1 SWAP2 SUB SWAP1 REVERT JUMPDEST PUSH1 0x0 DUP1 PUSH1 0x0 CALLER PUSH20 0xFFFFFFFFFFFFFFFFFFFFFFFFFFFFFFFFFFFFFFFF AND PUSH20 0xFFFFFFFFFFFFFFFFFFFFFFFFFFFFFFFFFFFFFFFF AND DUP2 MSTORE PUSH1 0x20 ADD SWAP1 DUP2 MSTORE PUSH1 0x20 ADD PUSH1 0x0 KECCAK256 SLOAD SWAP1 POP PUSH1 0x0 DUP2 GT PUSH2 0x807 JUMPI PUSH1 0x40 MLOAD PUSH32 0x8C379A000000000000000000000000000000000000000000000000000000000 DUP2 MSTORE PUSH1 0x4 ADD PUSH2 0x7FE SWAP1 PUSH2 0xF5E JUMP JUMPDEST PUSH1 0x40 MLOAD DUP1 SWAP2 SUB SWAP1 REVERT JUMPDEST PUSH1 0x0 DUP1 PUSH1 0x0 CALLER PUSH20 0xFFFFFFFFFFFFFFFFFFFFFFFFFFFFFFFFFFFFFFFF AND PUSH20 0xFFFFFFFFFFFFFFFFFFFFFFFFFFFFFFFFFFFFFFFF AND DUP2 MSTORE PUSH1 0x20 ADD SWAP1 DUP2 MSTORE PUSH1 0x20 ADD PUSH1 0x0 KECCAK256 DUP2 SWAP1 SSTORE POP PUSH1 0x0 CALLER PUSH20 0xFFFFFFFFFFFFFFFFFFFFFFFFFFFFFFFFFFFFFFFF AND DUP3 PUSH1 0x40 MLOAD PUSH2 0x871 SWAP1 PUSH2 0xDB9 JUMP JUMPDEST PUSH1 0x0 PUSH1 0x40 MLOAD DUP1 DUP4 SUB DUP2 DUP6 DUP8 GAS CALL SWAP3 POP POP POP RETURNDATASIZE DUP1 PUSH1 0x0 DUP2 EQ PUSH2 0x8AE JUMPI PUSH1 0x40 MLOAD SWAP2 POP PUSH1 0x1F NOT PUSH1 0x3F RETURNDATASIZE ADD AND DUP3 ADD PUSH1 0x40 MSTORE RETURNDATASIZE DUP3 MSTORE RETURNDATASIZE PUSH1 0x0 PUSH1 0x20 DUP5 ADD RETURNDATACOPY PUSH2 0x8B3 JUMP JUMPDEST PUSH1 0x60 SWAP2 POP JUMPDEST POP POP SWAP1 POP DUP1 PUSH2 0x8F7 JUMPI PUSH1 0x40 MLOAD PUSH32 0x8C379A000000000000000000000000000000000000000000000000000000000 DUP2 MSTORE PUSH1 0x4 ADD PUSH2 0x8EE SWAP1 PUSH2 0xFCA JUMP JUMPDEST PUSH1 0x40 MLOAD DUP1 SWAP2 SUB SWAP1 REVERT JUMPDEST CALLER PUSH20 0xFFFFFFFFFFFFFFFFFFFFFFFFFFFFFFFFFFFFFFFF AND PUSH32 0xD7DEE2702D63AD89917B6A4DA9981C90C4D24F8C2BDFD64C604ECAE57D8D0651 DUP4 PUSH1 0x40 MLOAD PUSH2 0x93D SWAP2 SWAP1 PUSH2 0xA02 JUMP JUMPDEST PUSH1 0x40 MLOAD DUP1 SWAP2 SUB SWAP1 LOG2 POP POP JUMP JUMPDEST PUSH1 0x1 SLOAD DUP2 JUMP JUMPDEST PUSH32 0x0 DUP2 JUMP JUMPDEST PUSH1 0x0 PUSH1 0x1 SLOAD SWAP1 POP SWAP1 JUMP JUMPDEST PUSH2 0x985 PUSH2 0x25E JUMP JUMPDEST JUMP JUMPDEST PUSH1 0x2 SLOAD DUP2 JUMP JUMPDEST PUSH1 0x0 DUP1 PUSH1 0x0 DUP1 PUSH32 0x0 PUSH32 0x0 PUSH1 0x1 SLOAD PUSH1 0x2 SLOAD SWAP4 POP SWAP4 POP SWAP4 POP SWAP4 POP SWAP1 SWAP2 SWAP3 SWAP4 JUMP JUMPDEST PUSH1 0x0 DUP2 SWAP1 POP SWAP2 SWAP1 POP JUMP JUMPDEST PUSH2 0x9FC DUP2 PUSH2 0x9E9 JUMP JUMPDEST DUP3 MSTORE POP POP JUMP JUMPDEST PUSH1 0x0 PUSH1 0x20 DUP3 ADD SWAP1 POP PUSH2 0xA17 PUSH1 0x0 DUP4 ADD DUP5 PUSH2 0x9F3 JUMP JUMPDEST SWAP3 SWAP2 POP POP JUMP JUMPDEST PUSH1 0x0 DUP1 REVERT JUMPDEST PUSH1 0x0 PUSH20 0xFFFFFFFFFFFFFFFFFFFFFFFFFFFFFFFFFFFFFFFF DUP3 AND SWAP1 POP SWAP2 SWAP1 POP JUMP JUMPDEST PUSH1 0x0 PUSH2 0xA4D DUP3 PUSH2 0xA22 JUMP JUMPDEST SWAP1 POP SWAP2 SWAP1 POP JUMP JUMPDEST PUSH2 0xA5D DUP2 PUSH2 0xA42 JUMP JUMPDEST DUP2 EQ PUSH2 0xA68 JUMPI PUSH1 0x0 DUP1 REVERT JUMPDEST POP JUMP JUMPDEST PUSH1 0x0 DUP2 CALLDATALOAD SWAP1 POP PUSH2 0xA7A DUP2 PUSH2 0xA54 JUMP JUMPDEST SWAP3 SWAP2 POP POP JUMP JUMPDEST PUSH1 0x0 PUSH1 0x20 DUP3 DUP5 SUB SLT ISZERO PUSH2 0xA96 JUMPI PUSH2 0xA95 PUSH2 0xA1D JUMP JUMPDEST JUMPDEST PUSH1 0x0 PUSH2 0xAA4 DUP5 DUP3 DUP6 ADD PUSH2 0xA6B JUMP JUMPDEST SWAP2 POP POP SWAP3 SWAP2 POP POP JUMP JUMPDEST PUSH2 0xAB6 DUP2 PUSH2 0xA42 JUMP JUMPDEST DUP3 MSTORE POP POP JUMP JUMPDEST PUSH1 0x0 PUSH1 0x20 DUP3 ADD SWAP1 POP PUSH2 0xAD1 PUSH1 0x0 DUP4 ADD DUP5 PUSH2 0xAAD JUMP JUMPDEST SWAP3 SWAP2 POP POP JUMP JUMPDEST PUSH1 0x0 PUSH1 0x80 DUP3 ADD SWAP1 POP PUSH2 0xAEC PUSH1 0x0 DUP4 ADD DUP8 PUSH2 0x9F3 JUMP JUMPDEST PUSH2 0xAF9 PUSH1 0x20 DUP4 ADD DUP7 PUSH2 0x9F3 JUMP JUMPDEST PUSH2 0xB06 PUSH1 0x40 DUP4 ADD DUP6 PUSH2 0x9F3 JUMP JUMPDEST PUSH2 0xB13 PUSH1 0x60 DUP4 ADD DUP5 PUSH2 0x9F3 JUMP JUMPDEST SWAP6 SWAP5 POP POP POP POP POP JUMP JUMPDEST PUSH1 0x0 DUP3 DUP3 MSTORE PUSH1 0x20 DUP3 ADD SWAP1 POP SWAP3 SWAP2 POP POP JUMP JUMPDEST PUSH32 0x43726F776446756E643A2066756E64696E6720706572696F64206F7665720000 PUSH1 0x0 DUP3 ADD MSTORE POP JUMP JUMPDEST PUSH1 0x0 PUSH2 0xB63 PUSH1 0x1E DUP4 PUSH2 0xB1C JUMP JUMPDEST SWAP2 POP PUSH2 0xB6E DUP3 PUSH2 0xB2D JUMP JUMPDEST PUSH1 0x20 DUP3 ADD SWAP1 POP SWAP2 SWAP1 POP JUMP JUMPDEST PUSH1 0x0 PUSH1 0x20 DUP3 ADD SWAP1 POP DUP2 DUP2 SUB PUSH1 0x0 DUP4 ADD MSTORE PUSH2 0xB92 DUP2 PUSH2 0xB56 JUMP JUMPDEST SWAP1 POP SWAP2 SWAP1 POP JUMP JUMPDEST PUSH32 0x43726F776446756E643A206D696E20302E303120455448000000000000000000 PUSH1 0x0 DUP3 ADD MSTORE POP JUMP JUMPDEST PUSH1 0x0 PUSH2 0xBCF PUSH1 0x17 DUP4 PUSH2 0xB1C JUMP JUMPDEST SWAP2 POP PUSH2 0xBDA DUP3 PUSH2 0xB99 JUMP JUMPDEST PUSH1 0x20 DUP3 ADD SWAP1 POP SWAP2 SWAP1 POP JUMP JUMPDEST PUSH1 0x0 PUSH1 0x20 DUP3 ADD SWAP1 POP DUP2 DUP2 SUB PUSH1 0x0 DUP4 ADD MSTORE PUSH2 0xBFE DUP2 PUSH2 0xBC2 JUMP JUMPDEST SWAP1 POP SWAP2 SWAP1 POP JUMP JUMPDEST PUSH32 0x4E487B7100000000000000000000000000000000000000000000000000000000 PUSH1 0x0 MSTORE PUSH1 0x11 PUSH1 0x4 MSTORE PUSH1 0x24 PUSH1 0x0 REVERT JUMPDEST PUSH1 0x0 PUSH2 0xC3F DUP3 PUSH2 0x9E9 JUMP JUMPDEST SWAP2 POP PUSH32 0xFFFFFFFFFFFFFFFFFFFFFFFFFFFFFFFFFFFFFFFFFFFFFFFFFFFFFFFFFFFFFFFF DUP3 SUB PUSH2 0xC71 JUMPI PUSH2 0xC70 PUSH2 0xC05 JUMP JUMPDEST JUMPDEST PUSH1 0x1 DUP3 ADD SWAP1 POP SWAP2 SWAP1 POP JUMP JUMPDEST PUSH1 0x0 PUSH2 0xC87 DUP3 PUSH2 0x9E9 JUMP JUMPDEST SWAP2 POP PUSH2 0xC92 DUP4 PUSH2 0x9E9 JUMP JUMPDEST SWAP3 POP DUP3 DUP3 ADD SWAP1 POP DUP1 DUP3 GT ISZERO PUSH2 0xCAA JUMPI PUSH2 0xCA9 PUSH2 0xC05 JUMP JUMPDEST JUMPDEST SWAP3 SWAP2 POP POP JUMP JUMPDEST PUSH32 0x43726F776446756E643A2063616C6C6572206973206E6F74206F776E65720000 PUSH1 0x0 DUP3 ADD MSTORE POP JUMP JUMPDEST PUSH1 0x0 PUSH2 0xCE6 PUSH1 0x1E DUP4 PUSH2 0xB1C JUMP JUMPDEST SWAP2 POP PUSH2 0xCF1 DUP3 PUSH2 0xCB0 JUMP JUMPDEST PUSH1 0x20 DUP3 ADD SWAP1 POP SWAP2 SWAP1 POP JUMP JUMPDEST PUSH1 0x0 PUSH1 0x20 DUP3 ADD SWAP1 POP DUP2 DUP2 SUB PUSH1 0x0 DUP4 ADD MSTORE PUSH2 0xD15 DUP2 PUSH2 0xCD9 JUMP JUMPDEST SWAP1 POP SWAP2 SWAP1 POP JUMP JUMPDEST PUSH32 0x43726F776446756E643A20676F616C206E6F7420726561636865640000000000 PUSH1 0x0 DUP3 ADD MSTORE POP JUMP JUMPDEST PUSH1 0x0 PUSH2 0xD52 PUSH1 0x1B DUP4 PUSH2 0xB1C JUMP JUMPDEST SWAP2 POP PUSH2 0xD5D DUP3 PUSH2 0xD1C JUMP JUMPDEST PUSH1 0x20 DUP3 ADD SWAP1 POP SWAP2 SWAP1 POP JUMP JUMPDEST PUSH1 0x0 PUSH1 0x20 DUP3 ADD SWAP1 POP DUP2 DUP2 SUB PUSH1 0x0 DUP4 ADD MSTORE PUSH2 0xD81 DUP2 PUSH2 0xD45 JUMP JUMPDEST SWAP1 POP SWAP2 SWAP1 POP JUMP JUMPDEST PUSH1 0x0 DUP2 SWAP1 POP SWAP3 SWAP2 POP POP JUMP JUMPDEST POP JUMP JUMPDEST PUSH1 0x0 PUSH2 0xDA3 PUSH1 0x0 DUP4 PUSH2 0xD88 JUMP JUMPDEST SWAP2 POP PUSH2 0xDAE DUP3 PUSH2 0xD93 JUMP JUMPDEST PUSH1 0x0 DUP3 ADD SWAP1 POP SWAP2 SWAP1 POP JUMP JUMPDEST PUSH1 0x0 PUSH2 0xDC4 DUP3 PUSH2 0xD96 JUMP JUMPDEST SWAP2 POP DUP2 SWAP1 POP SWAP2 SWAP1 POP JUMP JUMPDEST PUSH32 0x43726F776446756E643A207769746864726177206661696C6564000000000000 PUSH1 0x0 DUP3 ADD MSTORE POP JUMP JUMPDEST PUSH1 0x0 PUSH2 0xE04 PUSH1 0x1A DUP4 PUSH2 0xB1C JUMP JUMPDEST SWAP2 POP PUSH2 0xE0F DUP3 PUSH2 0xDCE JUMP JUMPDEST PUSH1 0x20 DUP3 ADD SWAP1 POP SWAP2 SWAP1 POP JUMP JUMPDEST PUSH1 0x0 PUSH1 0x20 DUP3 ADD SWAP1 POP DUP2 DUP2 SUB PUSH1 0x0 DUP4 ADD MSTORE PUSH2 0xE33 DUP2 PUSH2 0xDF7 JUMP JUMPDEST SWAP1 POP SWAP2 SWAP1 POP JUMP JUMPDEST PUSH32 0x43726F776446756E643A2066756E64696E67207374696C6C2061637469766500 PUSH1 0x0 DUP3 ADD MSTORE POP JUMP JUMPDEST PUSH1 0x0 PUSH2 0xE70 PUSH1 0x1F DUP4 PUSH2 0xB1C JUMP JUMPDEST SWAP2 POP PUSH2 0xE7B DUP3 PUSH2 0xE3A JUMP JUMPDEST PUSH1 0x20 DUP3 ADD SWAP1 POP SWAP2 SWAP1 POP JUMP JUMPDEST PUSH1 0x0 PUSH1 0x20 DUP3 ADD SWAP1 POP DUP2 DUP2 SUB PUSH1 0x0 DUP4 ADD MSTORE PUSH2 0xE9F DUP2 PUSH2 0xE63 JUMP JUMPDEST SWAP1 POP SWAP2 SWAP1 POP JUMP JUMPDEST PUSH32 0x43726F776446756E643A20676F616C206D65743B206E6F20726566756E647300 PUSH1 0x0 DUP3 ADD MSTORE POP JUMP JUMPDEST PUSH1 0x0 PUSH2 0xEDC PUSH1 0x1F DUP4 PUSH2 0xB1C JUMP JUMPDEST SWAP2 POP PUSH2 0xEE7 DUP3 PUSH2 0xEA6 JUMP JUMPDEST PUSH1 0x20 DUP3 ADD SWAP1 POP SWAP2 SWAP1 POP JUMP JUMPDEST PUSH1 0x0 PUSH1 0x20 DUP3 ADD SWAP1 POP DUP2 DUP2 SUB PUSH1 0x0 DUP4 ADD MSTORE PUSH2 0xF0B DUP2 PUSH2 0xECF JUMP JUMPDEST SWAP1 POP SWAP2 SWAP1 POP JUMP JUMPDEST PUSH32 0x43726F776446756E643A206E6F7468696E6720746F20726566756E6400000000 PUSH1 0x0 DUP3 ADD MSTORE POP JUMP JUMPDEST PUSH1 0x0 PUSH2 0xF48 PUSH1 0x1C DUP4 PUSH2 0xB1C JUMP JUMPDEST SWAP2 POP PUSH2 0xF53 DUP3 PUSH2 0xF12 JUMP JUMPDEST PUSH1 0x20 DUP3 ADD SWAP1 POP SWAP2 SWAP1 POP JUMP JUMPDEST PUSH1 0x0 PUSH1 0x20 DUP3 ADD SWAP1 POP DUP2 DUP2 SUB PUSH1 0x0 DUP4 ADD MSTORE PUSH2 0xF77 DUP2 PUSH2 0xF3B JUMP JUMPDEST SWAP1 POP SWAP2 SWAP1 POP JUMP JUMPDEST PUSH32 0x43726F776446756E643A20726566756E64206661696C65640000000000000000 PUSH1 0x0 DUP3 ADD MSTORE POP JUMP JUMPDEST PUSH1 0x0 PUSH2 0xFB4 PUSH1 0x18 DUP4 PUSH2 0xB1C JUMP JUMPDEST SWAP2 POP PUSH2 0xFBF DUP3 PUSH2 0xF7E JUMP JUMPDEST PUSH1 0x20 DUP3 ADD SWAP1 POP SWAP2 SWAP1 POP JUMP JUMPDEST PUSH1 0x0 PUSH1 0x20 DUP3 ADD SWAP1 POP DUP2 DUP2 SUB PUSH1 0x0 DUP4 ADD MSTORE PUSH2 0xFE3 DUP2 PUSH2 0xFA7 JUMP JUMPDEST SWAP1 POP SWAP2 SWAP1 POP JUMP INVALID LOG2 PUSH5 0x6970667358 0x22 SLT KECCAK256 0x2A SWAP12 DUPN 0x1A SGT 0x1F PUSH32 0x9055453CE8B2946903B354388C3D23EABDB5B109C2FD48BFAE64736F6C634300 ADDMOD 0x1E STOP CALLER "
				},
				"gasEstimates": {
					"creation": {
						"codeDepositCost": "825600",
						"executionCost": "infinite",
						"totalCost": "infinite"
					},
					"external": {
						"": "infinite",
						"amountRaised()": "1129",
						"checkBalance()": "1181",
						"contribute()": "infinite",
						"contributions(address)": "1581",
						"contributorCount()": "1217",
						"deadline()": "infinite",
						"getDetails()": "infinite",
						"goal()": "infinite",
						"owner()": "infinite",
						"refund()": "infinite",
						"withdraw()": "infinite"
					},
					"internal": {
						"_contribute()": "infinite"
					}
				},
				"methodIdentifiers": {
					"amountRaised()": "7b3e5e7b",
					"checkBalance()": "c71daccb",
					"contribute()": "d7bb99ba",
					"contributions(address)": "42e94c90",
					"contributorCount()": "ecfd8928",
					"deadline()": "29dcb0cf",
					"getDetails()": "fbbf93a0",
					"goal()": "40193883",
					"owner()": "8da5cb5b",
					"refund()": "590e1ae3",
					"withdraw()": "3ccfd60b"
				}
			},
			"storageLayout": {
				"storage": [
					{
						"astId": 11,
						"contract": "contracts/CrowdFund.sol:CrowdFund",
						"label": "contributions",
						"offset": 0,
						"slot": "0",
						"type": "t_mapping(t_address,t_uint256)"
					},
					{
						"astId": 13,
						"contract": "contracts/CrowdFund.sol:CrowdFund",
						"label": "amountRaised",
						"offset": 0,
						"slot": "1",
						"type": "t_uint256"
					},
					{
						"astId": 15,
						"contract": "contracts/CrowdFund.sol:CrowdFund",
						"label": "contributorCount",
						"offset": 0,
						"slot": "2",
						"type": "t_uint256"
					}
				],
				"types": {
					"t_address": {
						"encoding": "inplace",
						"label": "address",
						"numberOfBytes": "20"
					},
					"t_mapping(t_address,t_uint256)": {
						"encoding": "mapping",
						"key": "t_address",
						"label": "mapping(address => uint256)",
						"numberOfBytes": "32",
						"value": "t_uint256"
					},
					"t_uint256": {
						"encoding": "inplace",
						"label": "uint256",
						"numberOfBytes": "32"
					}
				}
			},
			"userdoc": {
				"kind": "user",
				"methods": {},
				"version": 1
			}
		}
	}
}