{
	"contracts/Simplecontract.sol": {
		"SimpleContract": {
			"abi": [
				{
					"inputs": [],
					"stateMutability": "nonpayable",
					"type": "constructor"
				},
				{
					"anonymous": false,
					"inputs": [
						{
							"indexed": true,
							"internalType": "address",
							"name": "owner",
							"type": "address"
						}
					],
					"name": "CountReset",
					"type": "event"
				},
				{
					"anonymous": false,
					"inputs": [
						{
							"indexed": true,
							"internalType": "address",
							"name": "user",
							"type": "address"
						},
						{
							"indexed": false,
							"internalType": "uint256",
							"name": "amount",
							"type": "uint256"
						}
					],
					"name": "Deposit",
					"type": "event"
				},
				{
					"anonymous": false,
					"inputs": [
						{
							"indexed": true,
							"internalType": "address",
							"name": "from",
							"type": "address"
						},
						{
							"indexed": true,
							"internalType": "address",
							"name": "to",
							"type": "address"
						},
						{
							"indexed": false,
							"internalType": "uint256",
							"name": "amount",
							"type": "uint256"
						}
					],
					"name": "TransferBetween",
					"type": "event"
				},
				{
					"anonymous": false,
					"inputs": [
						{
							"indexed": true,
							"internalType": "address",
							"name": "user",
							"type": "address"
						},
						{
							"indexed": false,
							"internalType": "uint256",
							"name": "amount",
							"type": "uint256"
						}
					],
					"name": "Withdraw",
					"type": "event"
				},
				{
					"inputs": [
						{
							"internalType": "address",
							"name": "",
							"type": "address"
						}
					],
					"name": "balances",
					"outputs": [
						{
							"internalType": "uint256",
							"name": "",
							"type": "uint256"
						}
					],
					"stateMutability": "view",
					"type": "function"
				},
				{
					"inputs": [
						{
							"internalType": "address",
							"name": "_user",
							"type": "address"
						}
					],
					"name": "checkBalance",
					"outputs": [
						{
							"internalType": "uint256",
							"name": "",
							"type": "uint256"
						}
					],
					"stateMutability": "view",
					"type": "function"
				},
				{
					"inputs": [],
					"name": "count",
					"outputs": [
						{
							"internalType": "uint256",
							"name": "",
							"type": "uint256"
						}
					],
					"stateMutability": "view",
					"type": "function"
				},
				{
					"inputs": [],
					"name": "deposit",
					"outputs": [],
					"stateMutability": "payable",
					"type": "function"
				},
				{
					"inputs": [],
					"name": "getCount",
					"outputs": [
						{
							"internalType": "uint256",
							"name": "",
							"type": "uint256"
						}
					],
					"stateMutability": "view",
					"type": "function"
				},
				{
					"inputs": [],
					"name": "owner",
					"outputs": [
						{
							"internalType": "address",
							"name": "",
							"type": "address"
						}
					],
					"stateMutability": "view",
					"type": "function"
				},
				{
					"inputs": [],
					"name": "resetCount",
					"outputs": [],
					"stateMutability": "nonpayable",
					"type": "function"
				},
				{
					"inputs": [
						{
							"internalType": "uint256",
							"name": "_count",
							"type": "uint256"
						}
					],
					"name": "setCount",
					"outputs": [],
					"stateMutability": "nonpayable",
					"type": "function"
				},
				{
					"inputs": [
						{
							"internalType": "address",
							"name": "to",
							"type": "address"
						},
						{
							"internalType": "uint256",
							"name": "amount",
							"type": "uint256"
						}
					],
					"name": "transferBetween",
					"outputs": [],
					"stateMutability": "nonpayable",
					"type": "function"
				},
				{
					"inputs": [
						{
							"internalType": "uint256",
							"name": "_amount",
							"type": "uint256"
						}
					],
					"name": "withdraw",
					"outputs": [],
					"stateMutability": "nonpayable",
					"type": "function"
				}
			],
			"devdoc": {
				"kind": "dev",
				"methods": {},
				"title": "SimpleContract – starter example for Lab 6 (owner‑only counter + deposits)",
				"version": 1
			},
			"evm": {
				"assembly": "    /* \"contracts/Simplecontract.sol\":153:2943  contract SimpleContract {... */\n  mstore(0x40, 0x80)\n    /* \"contracts/Simplecontract.sol\":590:678  constructor() {... */\n  callvalue\n  dup1\n  iszero\n  tag_1\n  jumpi\n  revert(0x00, 0x00)\ntag_1:\n  pop\n    /* \"contracts/Simplecontract.sol\":623:633  msg.sender */\n  caller\n    /* \"contracts/Simplecontract.sol\":615:620  owner */\n  0x00\n  0x00\n    /* \"contracts/Simplecontract.sol\":615:633  owner = msg.sender */\n  0x0100\n  exp\n  dup2\n  sload\n  dup2\n  0xffffffffffffffffffffffffffffffffffffffff\n  mul\n  not\n  and\n  swap1\n  dup4\n  0xffffffffffffffffffffffffffffffffffffffff\n  and\n  mul\n  or\n  swap1\n  sstore\n  pop\n    /* \"contracts/Simplecontract.sol\":153:2943  contract SimpleContract {... */\n  dataSize(sub_0)\n  dup1\n  dataOffset(sub_0)\n  0x00\n  codecopy\n  0x00\n  return\nstop\n\nsub_0: assembly {\n        /* \"contracts/Simplecontract.sol\":153:2943  contract SimpleContract {... */\n      mstore(0x40, 0x80)\n      jumpi(tag_1, lt(calldatasize, 0x04))\n      shr(0xe0, calldataload(0x00))\n      dup1\n      0xa87d942c\n      gt\n      tag_12\n      jumpi\n      dup1\n      0xa87d942c\n      eq\n      tag_7\n      jumpi\n      dup1\n      0xd0e30db0\n      eq\n      tag_8\n      jumpi\n      dup1\n      0xd14e62b8\n      eq\n      tag_9\n      jumpi\n      dup1\n      0xdc67176b\n      eq\n      tag_10\n      jumpi\n      dup1\n      0xfd895292\n      eq\n      tag_11\n      jumpi\n      jump(tag_1)\n    tag_12:\n      dup1\n      0x06661abd\n      eq\n      tag_2\n      jumpi\n      dup1\n      0x27e235e3\n      eq\n      tag_3\n      jumpi\n      dup1\n      0x2e1a7d4d\n      eq\n      tag_4\n      jumpi\n      dup1\n      0x5f515226\n      eq\n      tag_5\n      jumpi\n      dup1\n      0x8da5cb5b\n      eq\n      tag_6\n      jumpi\n    tag_1:\n      revert(0x00, 0x00)\n        /* \"contracts/Simplecontract.sol\":361:381  uint    public count */\n    tag_2:\n      callvalue\n      dup1\n      iszero\n      tag_13\n      jumpi\n      revert(0x00, 0x00)\n    tag_13:\n      pop\n      tag_14\n      tag_15\n      jump\t// in\n    tag_14:\n      mload(0x40)\n      tag_16\n      swap2\n      swap1\n      tag_17\n      jump\t// in\n    tag_16:\n      mload(0x40)\n      dup1\n      swap2\n      sub\n      swap1\n      return\n        /* \"contracts/Simplecontract.sol\":424:464  mapping(address => uint) public balances */\n    tag_3:\n      callvalue\n      dup1\n      iszero\n      tag_18\n      jumpi\n      revert(0x00, 0x00)\n    tag_18:\n      pop\n      tag_19\n      0x04\n      dup1\n      calldatasize\n      sub\n      dup2\n      add\n      swap1\n      tag_20\n      swap2\n      swap1\n      tag_21\n      jump\t// in\n    tag_20:\n      tag_22\n      jump\t// in\n    tag_19:\n      mload(0x40)\n      tag_23\n      swap2\n      swap1\n      tag_17\n      jump\t// in\n    tag_23:\n      mload(0x40)\n      dup1\n      swap2\n      sub\n      swap1\n      return\n        /* \"contracts/Simplecontract.sol\":2032:2289  function withdraw(uint _amount) public {... */\n    tag_4:\n      callvalue\n      dup1\n      iszero\n      tag_24\n      jumpi\n      revert(0x00, 0x00)\n    tag_24:\n      pop\n      tag_25\n      0x04\n      dup1\n      calldatasize\n      sub\n      dup2\n      add\n      swap1\n      tag_26\n      swap2\n      swap1\n      tag_27\n      jump\t// in\n    tag_26:\n      tag_28\n      jump\t// in\n    tag_25:\n      stop\n        /* \"contracts/Simplecontract.sol\":1859:1964  function checkBalance(address _user) public view returns (uint) {... */\n    tag_5:\n      callvalue\n      dup1\n      iszero\n      tag_29\n      jumpi\n      revert(0x00, 0x00)\n    tag_29:\n      pop\n      tag_30\n      0x04\n      dup1\n      calldatasize\n      sub\n      dup2\n      add\n      swap1\n      tag_31\n      swap2\n      swap1\n      tag_21\n      jump\t// in\n    tag_31:\n      tag_32\n      jump\t// in\n    tag_30:\n      mload(0x40)\n      tag_33\n      swap2\n      swap1\n      tag_17\n      jump\t// in\n    tag_33:\n      mload(0x40)\n      dup1\n      swap2\n      sub\n      swap1\n      return\n        /* \"contracts/Simplecontract.sol\":274:294  address public owner */\n    tag_6:\n      callvalue\n      dup1\n      iszero\n      tag_34\n      jumpi\n      revert(0x00, 0x00)\n    tag_34:\n      pop\n      tag_35\n      tag_36\n      jump\t// in\n    tag_35:\n      mload(0x40)\n      tag_37\n      swap2\n      swap1\n      tag_38\n      jump\t// in\n    tag_37:\n      mload(0x40)\n      dup1\n      swap2\n      sub\n      swap1\n      return\n        /* \"contracts/Simplecontract.sol\":1459:1537  function getCount() public view returns (uint) {... */\n    tag_7:\n      callvalue\n      dup1\n      iszero\n      tag_39\n      jumpi\n      revert(0x00, 0x00)\n    tag_39:\n      pop\n      tag_40\n      tag_41\n      jump\t// in\n    tag_40:\n      mload(0x40)\n      tag_42\n      swap2\n      swap1\n      tag_17\n      jump\t// in\n    tag_42:\n      mload(0x40)\n      dup1\n      swap2\n      sub\n      swap1\n      return\n        /* \"contracts/Simplecontract.sol\":1612:1796  function deposit() public payable {... */\n    tag_8:\n      tag_43\n      tag_44\n      jump\t// in\n    tag_43:\n      stop\n        /* \"contracts/Simplecontract.sol\":1325:1406  function setCount(uint _count) public onlyOwner {... */\n    tag_9:\n      callvalue\n      dup1\n      iszero\n      tag_45\n      jumpi\n      revert(0x00, 0x00)\n    tag_45:\n      pop\n      tag_46\n      0x04\n      dup1\n      calldatasize\n      sub\n      dup2\n      add\n      swap1\n      tag_47\n      swap2\n      swap1\n      tag_27\n      jump\t// in\n    tag_47:\n      tag_48\n      jump\t// in\n    tag_46:\n      stop\n        /* \"contracts/Simplecontract.sol\":2381:2784  function transferBetween(address to, uint amount) public {... */\n    tag_10:\n      callvalue\n      dup1\n      iszero\n      tag_49\n      jumpi\n      revert(0x00, 0x00)\n    tag_49:\n      pop\n      tag_50\n      0x04\n      dup1\n      calldatasize\n      sub\n      dup2\n      add\n      swap1\n      tag_51\n      swap2\n      swap1\n      tag_52\n      jump\t// in\n    tag_51:\n      tag_53\n      jump\t// in\n    tag_50:\n      stop\n        /* \"contracts/Simplecontract.sol\":2835:2940  function resetCount() public onlyOwner {... */\n    tag_11:\n      callvalue\n      dup1\n      iszero\n      tag_54\n      jumpi\n      revert(0x00, 0x00)\n    tag_54:\n      pop\n      tag_55\n      tag_56\n      jump\t// in\n    tag_55:\n      stop\n        /* \"contracts/Simplecontract.sol\":361:381  uint    public count */\n    tag_15:\n      sload(0x01)\n      dup2\n      jump\t// out\n        /* \"contracts/Simplecontract.sol\":424:464  mapping(address => uint) public balances */\n    tag_22:\n      mstore(0x20, 0x02)\n      dup1\n      0x00\n      mstore\n      keccak256(0x00, 0x40)\n      0x00\n      swap2\n      pop\n      swap1\n      pop\n      sload\n      dup2\n      jump\t// out\n        /* \"contracts/Simplecontract.sol\":2032:2289  function withdraw(uint _amount) public {... */\n    tag_28:\n        /* \"contracts/Simplecontract.sol\":2114:2121  _amount */\n      dup1\n        /* \"contracts/Simplecontract.sol\":2090:2098  balances */\n      0x02\n        /* \"contracts/Simplecontract.sol\":2090:2110  balances[msg.sender] */\n      0x00\n        /* \"contracts/Simplecontract.sol\":2099:2109  msg.sender */\n      caller\n        /* \"contracts/Simplecontract.sol\":2090:2110  balances[msg.sender] */\n      0xffffffffffffffffffffffffffffffffffffffff\n      and\n      0xffffffffffffffffffffffffffffffffffffffff\n      and\n      dup2\n      mstore\n      0x20\n      add\n      swap1\n      dup2\n      mstore\n      0x20\n      add\n      0x00\n      keccak256\n      sload\n        /* \"contracts/Simplecontract.sol\":2090:2121  balances[msg.sender] >= _amount */\n      lt\n      iszero\n        /* \"contracts/Simplecontract.sol\":2082:2146  require(balances[msg.sender] >= _amount, \"Insufficient balance\") */\n      tag_58\n      jumpi\n      mload(0x40)\n      0x08c379a000000000000000000000000000000000000000000000000000000000\n      dup2\n      mstore\n      0x04\n      add\n      tag_59\n      swap1\n      tag_60\n      jump\t// in\n    tag_59:\n      mload(0x40)\n      dup1\n      swap2\n      sub\n      swap1\n      revert\n    tag_58:\n        /* \"contracts/Simplecontract.sol\":2181:2188  _amount */\n      dup1\n        /* \"contracts/Simplecontract.sol\":2157:2165  balances */\n      0x02\n        /* \"contracts/Simplecontract.sol\":2157:2177  balances[msg.sender] */\n      0x00\n        /* \"contracts/Simplecontract.sol\":2166:2176  msg.sender */\n      caller\n        /* \"contracts/Simplecontract.sol\":2157:2177  balances[msg.sender] */\n      0xffffffffffffffffffffffffffffffffffffffff\n      and\n      0xffffffffffffffffffffffffffffffffffffffff\n      and\n      dup2\n      mstore\n      0x20\n      add\n      swap1\n      dup2\n      mstore\n      0x20\n      add\n      0x00\n      keccak256\n      0x00\n        /* \"contracts/Simplecontract.sol\":2157:2188  balances[msg.sender] -= _amount */\n      dup3\n      dup3\n      sload\n      tag_61\n      swap2\n      swap1\n      tag_62\n      jump\t// in\n    tag_61:\n      swap3\n      pop\n      pop\n      dup2\n      swap1\n      sstore\n      pop\n        /* \"contracts/Simplecontract.sol\":2207:2217  msg.sender */\n      caller\n        /* \"contracts/Simplecontract.sol\":2199:2227  payable(msg.sender).transfer */\n      0xffffffffffffffffffffffffffffffffffffffff\n      and\n        /* \"contracts/Simplecontract.sol\":2199:2236  payable(msg.sender).transfer(_amount) */\n      0x08fc\n        /* \"contracts/Simplecontract.sol\":2228:2235  _amount */\n      dup3\n        /* \"contracts/Simplecontract.sol\":2199:2236  payable(msg.sender).transfer(_amount) */\n      swap1\n      dup2\n      iszero\n      mul\n      swap1\n      mload(0x40)\n      0x00\n      mload(0x40)\n      dup1\n      dup4\n      sub\n      dup2\n      dup6\n      dup9\n      dup9\n      call\n      swap4\n      pop\n      pop\n      pop\n      pop\n      iszero\n      dup1\n      iszero\n      tag_64\n      jumpi\n      returndatacopy(0x00, 0x00, returndatasize)\n      revert(0x00, returndatasize)\n    tag_64:\n      pop\n        /* \"contracts/Simplecontract.sol\":2261:2271  msg.sender */\n      caller\n        /* \"contracts/Simplecontract.sol\":2252:2281  Withdraw(msg.sender, _amount) */\n      0xffffffffffffffffffffffffffffffffffffffff\n      and\n      0x884edad9ce6fa2440d8a54cc123490eb96d2768479d49ff9c7366125a9424364\n        /* \"contracts/Simplecontract.sol\":2273:2280  _amount */\n      dup3\n        /* \"contracts/Simplecontract.sol\":2252:2281  Withdraw(msg.sender, _amount) */\n      mload(0x40)\n      tag_65\n      swap2\n      swap1\n      tag_17\n      jump\t// in\n    tag_65:\n      mload(0x40)\n      dup1\n      swap2\n      sub\n      swap1\n      log2\n        /* \"contracts/Simplecontract.sol\":2032:2289  function withdraw(uint _amount) public {... */\n      pop\n      jump\t// out\n        /* \"contracts/Simplecontract.sol\":1859:1964  function checkBalance(address _user) public view returns (uint) {... */\n    tag_32:\n        /* \"contracts/Simplecontract.sol\":1917:1921  uint */\n      0x00\n        /* \"contracts/Simplecontract.sol\":1941:1949  balances */\n      0x02\n        /* \"contracts/Simplecontract.sol\":1941:1956  balances[_user] */\n      0x00\n        /* \"contracts/Simplecontract.sol\":1950:1955  _user */\n      dup4\n        /* \"contracts/Simplecontract.sol\":1941:1956  balances[_user] */\n      0xffffffffffffffffffffffffffffffffffffffff\n      and\n      0xffffffffffffffffffffffffffffffffffffffff\n      and\n      dup2\n      mstore\n      0x20\n      add\n      swap1\n      dup2\n      mstore\n      0x20\n      add\n      0x00\n      keccak256\n      sload\n        /* \"contracts/Simplecontract.sol\":1934:1956  return balances[_user] */\n      swap1\n      pop\n        /* \"contracts/Simplecontract.sol\":1859:1964  function checkBalance(address _user) public view returns (uint) {... */\n      swap2\n      swap1\n      pop\n      jump\t// out\n        /* \"contracts/Simplecontract.sol\":274:294  address public owner */\n    tag_36:\n      0x00\n      0x00\n      swap1\n      sload\n      swap1\n      0x0100\n      exp\n      swap1\n      div\n      0xffffffffffffffffffffffffffffffffffffffff\n      and\n      dup2\n      jump\t// out\n        /* \"contracts/Simplecontract.sol\":1459:1537  function getCount() public view returns (uint) {... */\n    tag_41:\n        /* \"contracts/Simplecontract.sol\":1500:1504  uint */\n      0x00\n        /* \"contracts/Simplecontract.sol\":1524:1529  count */\n      sload(0x01)\n        /* \"contracts/Simplecontract.sol\":1517:1529  return count */\n      swap1\n      pop\n        /* \"contracts/Simplecontract.sol\":1459:1537  function getCount() public view returns (uint) {... */\n      swap1\n      jump\t// out\n        /* \"contracts/Simplecontract.sol\":1612:1796  function deposit() public payable {... */\n    tag_44:\n        /* \"contracts/Simplecontract.sol\":1677:1678  0 */\n      0x00\n        /* \"contracts/Simplecontract.sol\":1665:1674  msg.value */\n      callvalue\n        /* \"contracts/Simplecontract.sol\":1665:1678  msg.value > 0 */\n      gt\n        /* \"contracts/Simplecontract.sol\":1657:1698  require(msg.value > 0, \"Must send Ether\") */\n      tag_69\n      jumpi\n      mload(0x40)\n      0x08c379a000000000000000000000000000000000000000000000000000000000\n      dup2\n      mstore\n      0x04\n      add\n      tag_70\n      swap1\n      tag_71\n      jump\t// in\n    tag_70:\n      mload(0x40)\n      dup1\n      swap2\n      sub\n      swap1\n      revert\n    tag_69:\n        /* \"contracts/Simplecontract.sol\":1733:1742  msg.value */\n      callvalue\n        /* \"contracts/Simplecontract.sol\":1709:1717  balances */\n      0x02\n        /* \"contracts/Simplecontract.sol\":1709:1729  balances[msg.sender] */\n      0x00\n        /* \"contracts/Simplecontract.sol\":1718:1728  msg.sender */\n      caller\n        /* \"contracts/Simplecontract.sol\":1709:1729  balances[msg.sender] */\n      0xffffffffffffffffffffffffffffffffffffffff\n      and\n      0xffffffffffffffffffffffffffffffffffffffff\n      and\n      dup2\n      mstore\n      0x20\n      add\n      swap1\n      dup2\n      mstore\n      0x20\n      add\n      0x00\n      keccak256\n      0x00\n        /* \"contracts/Simplecontract.sol\":1709:1742  balances[msg.sender] += msg.value */\n      dup3\n      dup3\n      sload\n      tag_72\n      swap2\n      swap1\n      tag_73\n      jump\t// in\n    tag_72:\n      swap3\n      pop\n      pop\n      dup2\n      swap1\n      sstore\n      pop\n        /* \"contracts/Simplecontract.sol\":1766:1776  msg.sender */\n      caller\n        /* \"contracts/Simplecontract.sol\":1758:1788  Deposit(msg.sender, msg.value) */\n      0xffffffffffffffffffffffffffffffffffffffff\n      and\n      0xe1fffcc4923d04b559f4d29a8bfc6cda04eb5b0d3c460751c2402c5c5cc9109c\n        /* \"contracts/Simplecontract.sol\":1778:1787  msg.value */\n      callvalue\n        /* \"contracts/Simplecontract.sol\":1758:1788  Deposit(msg.sender, msg.value) */\n      mload(0x40)\n      tag_74\n      swap2\n      swap1\n      tag_17\n      jump\t// in\n    tag_74:\n      mload(0x40)\n      dup1\n      swap2\n      sub\n      swap1\n      log2\n        /* \"contracts/Simplecontract.sol\":1612:1796  function deposit() public payable {... */\n      jump\t// out\n        /* \"contracts/Simplecontract.sol\":1325:1406  function setCount(uint _count) public onlyOwner {... */\n    tag_48:\n        /* \"contracts/Simplecontract.sol\":807:812  owner */\n      0x00\n      0x00\n      swap1\n      sload\n      swap1\n      0x0100\n      exp\n      swap1\n      div\n      0xffffffffffffffffffffffffffffffffffffffff\n      and\n        /* \"contracts/Simplecontract.sol\":793:812  msg.sender == owner */\n      0xffffffffffffffffffffffffffffffffffffffff\n      and\n        /* \"contracts/Simplecontract.sol\":793:803  msg.sender */\n      caller\n        /* \"contracts/Simplecontract.sol\":793:812  msg.sender == owner */\n      0xffffffffffffffffffffffffffffffffffffffff\n      and\n      eq\n        /* \"contracts/Simplecontract.sol\":785:831  require(msg.sender == owner, \"Not authorized\") */\n      tag_76\n      jumpi\n      mload(0x40)\n      0x08c379a000000000000000000000000000000000000000000000000000000000\n      dup2\n      mstore\n      0x04\n      add\n      tag_77\n      swap1\n      tag_78\n      jump\t// in\n    tag_77:\n      mload(0x40)\n      dup1\n      swap2\n      sub\n      swap1\n      revert\n    tag_76:\n        /* \"contracts/Simplecontract.sol\":1392:1398  _count */\n      dup1\n        /* \"contracts/Simplecontract.sol\":1384:1389  count */\n      0x01\n        /* \"contracts/Simplecontract.sol\":1384:1398  count = _count */\n      dup2\n      swap1\n      sstore\n      pop\n        /* \"contracts/Simplecontract.sol\":1325:1406  function setCount(uint _count) public onlyOwner {... */\n      pop\n      jump\t// out\n        /* \"contracts/Simplecontract.sol\":2381:2784  function transferBetween(address to, uint amount) public {... */\n    tag_53:\n        /* \"contracts/Simplecontract.sol\":2471:2472  0 */\n      0x00\n        /* \"contracts/Simplecontract.sol\":2457:2473  to != address(0) */\n      0xffffffffffffffffffffffffffffffffffffffff\n      and\n        /* \"contracts/Simplecontract.sol\":2457:2459  to */\n      dup3\n        /* \"contracts/Simplecontract.sol\":2457:2473  to != address(0) */\n      0xffffffffffffffffffffffffffffffffffffffff\n      and\n      sub\n        /* \"contracts/Simplecontract.sol\":2449:2503  require(to != address(0), \"Invalid recipient address\") */\n      tag_81\n      jumpi\n      mload(0x40)\n      0x08c379a000000000000000000000000000000000000000000000000000000000\n      dup2\n      mstore\n      0x04\n      add\n      tag_82\n      swap1\n      tag_83\n      jump\t// in\n    tag_82:\n      mload(0x40)\n      dup1\n      swap2\n      sub\n      swap1\n      revert\n    tag_81:\n        /* \"contracts/Simplecontract.sol\":2546:2552  amount */\n      dup1\n        /* \"contracts/Simplecontract.sol\":2522:2530  balances */\n      0x02\n        /* \"contracts/Simplecontract.sol\":2522:2542  balances[msg.sender] */\n      0x00\n        /* \"contracts/Simplecontract.sol\":2531:2541  msg.sender */\n      caller\n        /* \"contracts/Simplecontract.sol\":2522:2542  balances[msg.sender] */\n      0xffffffffffffffffffffffffffffffffffffffff\n      and\n      0xffffffffffffffffffffffffffffffffffffffff\n      and\n      dup2\n      mstore\n      0x20\n      add\n      swap1\n      dup2\n      mstore\n      0x20\n      add\n      0x00\n      keccak256\n      sload\n        /* \"contracts/Simplecontract.sol\":2522:2552  balances[msg.sender] >= amount */\n      lt\n      iszero\n        /* \"contracts/Simplecontract.sol\":2514:2577  require(balances[msg.sender] >= amount, \"Insufficient balance\") */\n      tag_84\n      jumpi\n      mload(0x40)\n      0x08c379a000000000000000000000000000000000000000000000000000000000\n      dup2\n      mstore\n      0x04\n      add\n      tag_85\n      swap1\n      tag_60\n      jump\t// in\n    tag_85:\n      mload(0x40)\n      dup1\n      swap2\n      sub\n      swap1\n      revert\n    tag_84:\n        /* \"contracts/Simplecontract.sol\":2605:2606  0 */\n      0x00\n        /* \"contracts/Simplecontract.sol\":2596:2602  amount */\n      dup2\n        /* \"contracts/Simplecontract.sol\":2596:2606  amount > 0 */\n      gt\n        /* \"contracts/Simplecontract.sol\":2588:2643  require(amount > 0, \"Amount must be greater than zero\") */\n      tag_86\n      jumpi\n      mload(0x40)\n      0x08c379a000000000000000000000000000000000000000000000000000000000\n      dup2\n      mstore\n      0x04\n      add\n      tag_87\n      swap1\n      tag_88\n      jump\t// in\n    tag_87:\n      mload(0x40)\n      dup1\n      swap2\n      sub\n      swap1\n      revert\n    tag_86:\n        /* \"contracts/Simplecontract.sol\":2680:2686  amount */\n      dup1\n        /* \"contracts/Simplecontract.sol\":2656:2664  balances */\n      0x02\n        /* \"contracts/Simplecontract.sol\":2656:2676  balances[msg.sender] */\n      0x00\n        /* \"contracts/Simplecontract.sol\":2665:2675  msg.sender */\n      caller\n        /* \"contracts/Simplecontract.sol\":2656:2676  balances[msg.sender] */\n      0xffffffffffffffffffffffffffffffffffffffff\n      and\n      0xffffffffffffffffffffffffffffffffffffffff\n      and\n      dup2\n      mstore\n      0x20\n      add\n      swap1\n      dup2\n      mstore\n      0x20\n      add\n      0x00\n      keccak256\n      0x00\n        /* \"contracts/Simplecontract.sol\":2656:2686  balances[msg.sender] -= amount */\n      dup3\n      dup3\n      sload\n      tag_89\n      swap2\n      swap1\n      tag_62\n      jump\t// in\n    tag_89:\n      swap3\n      pop\n      pop\n      dup2\n      swap1\n      sstore\n      pop\n        /* \"contracts/Simplecontract.sol\":2713:2719  amount */\n      dup1\n        /* \"contracts/Simplecontract.sol\":2697:2705  balances */\n      0x02\n        /* \"contracts/Simplecontract.sol\":2697:2709  balances[to] */\n      0x00\n        /* \"contracts/Simplecontract.sol\":2706:2708  to */\n      dup5\n        /* \"contracts/Simplecontract.sol\":2697:2709  balances[to] */\n      0xffffffffffffffffffffffffffffffffffffffff\n      and\n      0xffffffffffffffffffffffffffffffffffffffff\n      and\n      dup2\n      mstore\n      0x20\n      add\n      swap1\n      dup2\n      mstore\n      0x20\n      add\n      0x00\n      keccak256\n      0x00\n        /* \"contracts/Simplecontract.sol\":2697:2719  balances[to] += amount */\n      dup3\n      dup3\n      sload\n      tag_90\n      swap2\n      swap1\n      tag_73\n      jump\t// in\n    tag_90:\n      swap3\n      pop\n      pop\n      dup2\n      swap1\n      sstore\n      pop\n        /* \"contracts/Simplecontract.sol\":2765:2767  to */\n      dup2\n        /* \"contracts/Simplecontract.sol\":2737:2776  TransferBetween(msg.sender, to, amount) */\n      0xffffffffffffffffffffffffffffffffffffffff\n      and\n        /* \"contracts/Simplecontract.sol\":2753:2763  msg.sender */\n      caller\n        /* \"contracts/Simplecontract.sol\":2737:2776  TransferBetween(msg.sender, to, amount) */\n      0xffffffffffffffffffffffffffffffffffffffff\n      and\n      0xe9fc4b90cc18bf5ff80f0418c6f97fec6f231997b3c71731983d67092c22a7f8\n        /* \"contracts/Simplecontract.sol\":2769:2775  amount */\n      dup4\n        /* \"contracts/Simplecontract.sol\":2737:2776  TransferBetween(msg.sender, to, amount) */\n      mload(0x40)\n      tag_91\n      swap2\n      swap1\n      tag_17\n      jump\t// in\n    tag_91:\n      mload(0x40)\n      dup1\n      swap2\n      sub\n      swap1\n      log3\n        /* \"contracts/Simplecontract.sol\":2381:2784  function transferBetween(address to, uint amount) public {... */\n      pop\n      pop\n      jump\t// out\n        /* \"contracts/Simplecontract.sol\":2835:2940  function resetCount() public onlyOwner {... */\n    tag_56:\n        /* \"contracts/Simplecontract.sol\":807:812  owner */\n      0x00\n      0x00\n      swap1\n      sload\n      swap1\n      0x0100\n      exp\n      swap1\n      div\n      0xffffffffffffffffffffffffffffffffffffffff\n      and\n        /* \"contracts/Simplecontract.sol\":793:812  msg.sender == owner */\n      0xffffffffffffffffffffffffffffffffffffffff\n      and\n        /* \"contracts/Simplecontract.sol\":793:803  msg.sender */\n      caller\n        /* \"contracts/Simplecontract.sol\":793:812  msg.sender == owner */\n      0xffffffffffffffffffffffffffffffffffffffff\n      and\n      eq\n        /* \"contracts/Simplecontract.sol\":785:831  require(msg.sender == owner, \"Not authorized\") */\n      tag_93\n      jumpi\n      mload(0x40)\n      0x08c379a000000000000000000000000000000000000000000000000000000000\n      dup2\n      mstore\n      0x04\n      add\n      tag_94\n      swap1\n      tag_78\n      jump\t// in\n    tag_94:\n      mload(0x40)\n      dup1\n      swap2\n      sub\n      swap1\n      revert\n    tag_93:\n        /* \"contracts/Simplecontract.sol\":2893:2894  0 */\n      0x00\n        /* \"contracts/Simplecontract.sol\":2885:2890  count */\n      0x01\n        /* \"contracts/Simplecontract.sol\":2885:2894  count = 0 */\n      dup2\n      swap1\n      sstore\n      pop\n        /* \"contracts/Simplecontract.sol\":2921:2931  msg.sender */\n      caller\n        /* \"contracts/Simplecontract.sol\":2910:2932  CountReset(msg.sender) */\n      0xffffffffffffffffffffffffffffffffffffffff\n      and\n      0xa5ee6258204973c56c5a39c4ac31e61723f410d84f9e8117ba52b76b7cea990c\n      mload(0x40)\n      mload(0x40)\n      dup1\n      swap2\n      sub\n      swap1\n      log2\n        /* \"contracts/Simplecontract.sol\":2835:2940  function resetCount() public onlyOwner {... */\n      jump\t// out\n        /* \"#utility.yul\":7:84   */\n    tag_96:\n        /* \"#utility.yul\":44:51   */\n      0x00\n        /* \"#utility.yul\":73:78   */\n      dup2\n        /* \"#utility.yul\":62:78   */\n      swap1\n      pop\n        /* \"#utility.yul\":7:84   */\n      swap2\n      swap1\n      pop\n      jump\t// out\n        /* \"#utility.yul\":90:208   */\n    tag_97:\n        /* \"#utility.yul\":177:201   */\n      tag_123\n        /* \"#utility.yul\":195:200   */\n      dup2\n        /* \"#utility.yul\":177:201   */\n      tag_96\n      jump\t// in\n    tag_123:\n        /* \"#utility.yul\":172:175   */\n      dup3\n        /* \"#utility.yul\":165:202   */\n      mstore\n        /* \"#utility.yul\":90:208   */\n      pop\n      pop\n      jump\t// out\n        /* \"#utility.yul\":214:436   */\n    tag_17:\n        /* \"#utility.yul\":307:311   */\n      0x00\n        /* \"#utility.yul\":345:347   */\n      0x20\n        /* \"#utility.yul\":334:343   */\n      dup3\n        /* \"#utility.yul\":330:348   */\n      add\n        /* \"#utility.yul\":322:348   */\n      swap1\n      pop\n        /* \"#utility.yul\":358:429   */\n      tag_125\n        /* \"#utility.yul\":426:427   */\n      0x00\n        /* \"#utility.yul\":415:424   */\n      dup4\n        /* \"#utility.yul\":411:428   */\n      add\n        /* \"#utility.yul\":402:408   */\n      dup5\n        /* \"#utility.yul\":358:429   */\n      tag_97\n      jump\t// in\n    tag_125:\n        /* \"#utility.yul\":214:436   */\n      swap3\n      swap2\n      pop\n      pop\n      jump\t// out\n        /* \"#utility.yul\":523:640   */\n    tag_99:\n        /* \"#utility.yul\":632:633   */\n      0x00\n        /* \"#utility.yul\":629:630   */\n      0x00\n        /* \"#utility.yul\":622:634   */\n      revert\n        /* \"#utility.yul\":769:895   */\n    tag_101:\n        /* \"#utility.yul\":806:813   */\n      0x00\n        /* \"#utility.yul\":846:888   */\n      0xffffffffffffffffffffffffffffffffffffffff\n        /* \"#utility.yul\":839:844   */\n      dup3\n        /* \"#utility.yul\":835:889   */\n      and\n        /* \"#utility.yul\":824:889   */\n      swap1\n      pop\n        /* \"#utility.yul\":769:895   */\n      swap2\n      swap1\n      pop\n      jump\t// out\n        /* \"#utility.yul\":901:997   */\n    tag_102:\n        /* \"#utility.yul\":938:945   */\n      0x00\n        /* \"#utility.yul\":967:991   */\n      tag_131\n        /* \"#utility.yul\":985:990   */\n      dup3\n        /* \"#utility.yul\":967:991   */\n      tag_101\n      jump\t// in\n    tag_131:\n        /* \"#utility.yul\":956:991   */\n      swap1\n      pop\n        /* \"#utility.yul\":901:997   */\n      swap2\n      swap1\n      pop\n      jump\t// out\n        /* \"#utility.yul\":1003:1125   */\n    tag_103:\n        /* \"#utility.yul\":1076:1100   */\n      tag_133\n        /* \"#utility.yul\":1094:1099   */\n      dup2\n        /* \"#utility.yul\":1076:1100   */\n      tag_102\n      jump\t// in\n    tag_133:\n        /* \"#utility.yul\":1069:1074   */\n      dup2\n        /* \"#utility.yul\":1066:1101   */\n      eq\n        /* \"#utility.yul\":1056:1119   */\n      tag_134\n      jumpi\n        /* \"#utility.yul\":1115:1116   */\n      0x00\n        /* \"#utility.yul\":1112:1113   */\n      0x00\n        /* \"#utility.yul\":1105:1117   */\n      revert\n        /* \"#utility.yul\":1056:1119   */\n    tag_134:\n        /* \"#utility.yul\":1003:1125   */\n      pop\n      jump\t// out\n        /* \"#utility.yul\":1131:1270   */\n    tag_104:\n        /* \"#utility.yul\":1177:1182   */\n      0x00\n        /* \"#utility.yul\":1215:1221   */\n      dup2\n        /* \"#utility.yul\":1202:1222   */\n      calldataload\n        /* \"#utility.yul\":1193:1222   */\n      swap1\n      pop\n        /* \"#utility.yul\":1231:1264   */\n      tag_136\n        /* \"#utility.yul\":1258:1263   */\n      dup2\n        /* \"#utility.yul\":1231:1264   */\n      tag_103\n      jump\t// in\n    tag_136:\n        /* \"#utility.yul\":1131:1270   */\n      swap3\n      swap2\n      pop\n      pop\n      jump\t// out\n        /* \"#utility.yul\":1276:1605   */\n    tag_21:\n        /* \"#utility.yul\":1335:1341   */\n      0x00\n        /* \"#utility.yul\":1384:1386   */\n      0x20\n        /* \"#utility.yul\":1372:1381   */\n      dup3\n        /* \"#utility.yul\":1363:1370   */\n      dup5\n        /* \"#utility.yul\":1359:1382   */\n      sub\n        /* \"#utility.yul\":1355:1387   */\n      slt\n        /* \"#utility.yul\":1352:1471   */\n      iszero\n      tag_138\n      jumpi\n        /* \"#utility.yul\":1390:1469   */\n      tag_139\n      tag_99\n      jump\t// in\n    tag_139:\n        /* \"#utility.yul\":1352:1471   */\n    tag_138:\n        /* \"#utility.yul\":1510:1511   */\n      0x00\n        /* \"#utility.yul\":1535:1588   */\n      tag_140\n        /* \"#utility.yul\":1580:1587   */\n      dup5\n        /* \"#utility.yul\":1571:1577   */\n      dup3\n        /* \"#utility.yul\":1560:1569   */\n      dup6\n        /* \"#utility.yul\":1556:1578   */\n      add\n        /* \"#utility.yul\":1535:1588   */\n      tag_104\n      jump\t// in\n    tag_140:\n        /* \"#utility.yul\":1525:1588   */\n      swap2\n      pop\n        /* \"#utility.yul\":1481:1598   */\n      pop\n        /* \"#utility.yul\":1276:1605   */\n      swap3\n      swap2\n      pop\n      pop\n      jump\t// out\n        /* \"#utility.yul\":1611:1733   */\n    tag_105:\n        /* \"#utility.yul\":1684:1708   */\n      tag_142\n        /* \"#utility.yul\":1702:1707   */\n      dup2\n        /* \"#utility.yul\":1684:1708   */\n      tag_96\n      jump\t// in\n    tag_142:\n        /* \"#utility.yul\":1677:1682   */\n      dup2\n        /* \"#utility.yul\":1674:1709   */\n      eq\n        /* \"#utility.yul\":1664:1727   */\n      tag_143\n      jumpi\n        /* \"#utility.yul\":1723:1724   */\n      0x00\n        /* \"#utility.yul\":1720:1721   */\n      0x00\n        /* \"#utility.yul\":1713:1725   */\n      revert\n        /* \"#utility.yul\":1664:1727   */\n    tag_143:\n        /* \"#utility.yul\":1611:1733   */\n      pop\n      jump\t// out\n        /* \"#utility.yul\":1739:1878   */\n    tag_106:\n        /* \"#utility.yul\":1785:1790   */\n      0x00\n        /* \"#utility.yul\":1823:1829   */\n      dup2\n        /* \"#utility.yul\":1810:1830   */\n      calldataload\n        /* \"#utility.yul\":1801:1830   */\n      swap1\n      pop\n        /* \"#utility.yul\":1839:1872   */\n      tag_145\n        /* \"#utility.yul\":1866:1871   */\n      dup2\n        /* \"#utility.yul\":1839:1872   */\n      tag_105\n      jump\t// in\n    tag_145:\n        /* \"#utility.yul\":1739:1878   */\n      swap3\n      swap2\n      pop\n      pop\n      jump\t// out\n        /* \"#utility.yul\":1884:2213   */\n    tag_27:\n        /* \"#utility.yul\":1943:1949   */\n      0x00\n        /* \"#utility.yul\":1992:1994   */\n      0x20\n        /* \"#utility.yul\":1980:1989   */\n      dup3\n        /* \"#utility.yul\":1971:1978   */\n      dup5\n        /* \"#utility.yul\":1967:1990   */\n      sub\n        /* \"#utility.yul\":1963:1995   */\n      slt\n        /* \"#utility.yul\":1960:2079   */\n      iszero\n      tag_147\n      jumpi\n        /* \"#utility.yul\":1998:2077   */\n      tag_148\n      tag_99\n      jump\t// in\n    tag_148:\n        /* \"#utility.yul\":1960:2079   */\n    tag_147:\n        /* \"#utility.yul\":2118:2119   */\n      0x00\n        /* \"#utility.yul\":2143:2196   */\n      tag_149\n        /* \"#utility.yul\":2188:2195   */\n      dup5\n        /* \"#utility.yul\":2179:2185   */\n      dup3\n        /* \"#utility.yul\":2168:2177   */\n      dup6\n        /* \"#utility.yul\":2164:2186   */\n      add\n        /* \"#utility.yul\":2143:2196   */\n      tag_106\n      jump\t// in\n    tag_149:\n        /* \"#utility.yul\":2133:2196   */\n      swap2\n      pop\n        /* \"#utility.yul\":2089:2206   */\n      pop\n        /* \"#utility.yul\":1884:2213   */\n      swap3\n      swap2\n      pop\n      pop\n      jump\t// out\n        /* \"#utility.yul\":2219:2337   */\n    tag_107:\n        /* \"#utility.yul\":2306:2330   */\n      tag_151\n        /* \"#utility.yul\":2324:2329   */\n      dup2\n        /* \"#utility.yul\":2306:2330   */\n      tag_102\n      jump\t// in\n    tag_151:\n        /* \"#utility.yul\":2301:2304   */\n      dup3\n        /* \"#utility.yul\":2294:2331   */\n      mstore\n        /* \"#utility.yul\":2219:2337   */\n      pop\n      pop\n      jump\t// out\n        /* \"#utility.yul\":2343:2565   */\n    tag_38:\n        /* \"#utility.yul\":2436:2440   */\n      0x00\n        /* \"#utility.yul\":2474:2476   */\n      0x20\n        /* \"#utility.yul\":2463:2472   */\n      dup3\n        /* \"#utility.yul\":2459:2477   */\n      add\n        /* \"#utility.yul\":2451:2477   */\n      swap1\n      pop\n        /* \"#utility.yul\":2487:2558   */\n      tag_153\n        /* \"#utility.yul\":2555:2556   */\n      0x00\n        /* \"#utility.yul\":2544:2553   */\n      dup4\n        /* \"#utility.yul\":2540:2557   */\n      add\n        /* \"#utility.yul\":2531:2537   */\n      dup5\n        /* \"#utility.yul\":2487:2558   */\n      tag_107\n      jump\t// in\n    tag_153:\n        /* \"#utility.yul\":2343:2565   */\n      swap3\n      swap2\n      pop\n      pop\n      jump\t// out\n        /* \"#utility.yul\":2571:3045   */\n    tag_52:\n        /* \"#utility.yul\":2639:2645   */\n      0x00\n        /* \"#utility.yul\":2647:2653   */\n      0x00\n        /* \"#utility.yul\":2696:2698   */\n      0x40\n        /* \"#utility.yul\":2684:2693   */\n      dup4\n        /* \"#utility.yul\":2675:2682   */\n      dup6\n        /* \"#utility.yul\":2671:2694   */\n      sub\n        /* \"#utility.yul\":2667:2699   */\n      slt\n        /* \"#utility.yul\":2664:2783   */\n      iszero\n      tag_155\n      jumpi\n        /* \"#utility.yul\":2702:2781   */\n      tag_156\n      tag_99\n      jump\t// in\n    tag_156:\n        /* \"#utility.yul\":2664:2783   */\n    tag_155:\n        /* \"#utility.yul\":2822:2823   */\n      0x00\n        /* \"#utility.yul\":2847:2900   */\n      tag_157\n        /* \"#utility.yul\":2892:2899   */\n      dup6\n        /* \"#utility.yul\":2883:2889   */\n      dup3\n        /* \"#utility.yul\":2872:2881   */\n      dup7\n        /* \"#utility.yul\":2868:2890   */\n      add\n        /* \"#utility.yul\":2847:2900   */\n      tag_104\n      jump\t// in\n    tag_157:\n        /* \"#utility.yul\":2837:2900   */\n      swap3\n      pop\n        /* \"#utility.yul\":2793:2910   */\n      pop\n        /* \"#utility.yul\":2949:2951   */\n      0x20\n        /* \"#utility.yul\":2975:3028   */\n      tag_158\n        /* \"#utility.yul\":3020:3027   */\n      dup6\n        /* \"#utility.yul\":3011:3017   */\n      dup3\n        /* \"#utility.yul\":3000:3009   */\n      dup7\n        /* \"#utility.yul\":2996:3018   */\n      add\n        /* \"#utility.yul\":2975:3028   */\n      tag_106\n      jump\t// in\n    tag_158:\n        /* \"#utility.yul\":2965:3028   */\n      swap2\n      pop\n        /* \"#utility.yul\":2920:3038   */\n      pop\n        /* \"#utility.yul\":2571:3045   */\n      swap3\n      pop\n      swap3\n      swap1\n      pop\n      jump\t// out\n        /* \"#utility.yul\":3051:3220   */\n    tag_108:\n        /* \"#utility.yul\":3135:3146   */\n      0x00\n        /* \"#utility.yul\":3169:3175   */\n      dup3\n        /* \"#utility.yul\":3164:3167   */\n      dup3\n        /* \"#utility.yul\":3157:3176   */\n      mstore\n        /* \"#utility.yul\":3209:3213   */\n      0x20\n        /* \"#utility.yul\":3204:3207   */\n      dup3\n        /* \"#utility.yul\":3200:3214   */\n      add\n        /* \"#utility.yul\":3185:3214   */\n      swap1\n      pop\n        /* \"#utility.yul\":3051:3220   */\n      swap3\n      swap2\n      pop\n      pop\n      jump\t// out\n        /* \"#utility.yul\":3226:3396   */\n    tag_109:\n        /* \"#utility.yul\":3366:3388   */\n      0x496e73756666696369656e742062616c616e6365000000000000000000000000\n        /* \"#utility.yul\":3362:3363   */\n      0x00\n        /* \"#utility.yul\":3354:3360   */\n      dup3\n        /* \"#utility.yul\":3350:3364   */\n      add\n        /* \"#utility.yul\":3343:3389   */\n      mstore\n        /* \"#utility.yul\":3226:3396   */\n      pop\n      jump\t// out\n        /* \"#utility.yul\":3402:3768   */\n    tag_110:\n        /* \"#utility.yul\":3544:3547   */\n      0x00\n        /* \"#utility.yul\":3565:3632   */\n      tag_162\n        /* \"#utility.yul\":3629:3631   */\n      0x14\n        /* \"#utility.yul\":3624:3627   */\n      dup4\n        /* \"#utility.yul\":3565:3632   */\n      tag_108\n      jump\t// in\n    tag_162:\n        /* \"#utility.yul\":3558:3632   */\n      swap2\n      pop\n        /* \"#utility.yul\":3641:3734   */\n      tag_163\n        /* \"#utility.yul\":3730:3733   */\n      dup3\n        /* \"#utility.yul\":3641:3734   */\n      tag_109\n      jump\t// in\n    tag_163:\n        /* \"#utility.yul\":3759:3761   */\n      0x20\n        /* \"#utility.yul\":3754:3757   */\n      dup3\n        /* \"#utility.yul\":3750:3762   */\n      add\n        /* \"#utility.yul\":3743:3762   */\n      swap1\n      pop\n        /* \"#utility.yul\":3402:3768   */\n      swap2\n      swap1\n      pop\n      jump\t// out\n        /* \"#utility.yul\":3774:4193   */\n    tag_60:\n        /* \"#utility.yul\":3940:3944   */\n      0x00\n        /* \"#utility.yul\":3978:3980   */\n      0x20\n        /* \"#utility.yul\":3967:3976   */\n      dup3\n        /* \"#utility.yul\":3963:3981   */\n      add\n        /* \"#utility.yul\":3955:3981   */\n      swap1\n      pop\n        /* \"#utility.yul\":4027:4036   */\n      dup2\n        /* \"#utility.yul\":4021:4025   */\n      dup2\n        /* \"#utility.yul\":4017:4037   */\n      sub\n        /* \"#utility.yul\":4013:4014   */\n      0x00\n        /* \"#utility.yul\":4002:4011   */\n      dup4\n        /* \"#utility.yul\":3998:4015   */\n      add\n        /* \"#utility.yul\":3991:4038   */\n      mstore\n        /* \"#utility.yul\":4055:4186   */\n      tag_165\n        /* \"#utility.yul\":4181:4185   */\n      dup2\n        /* \"#utility.yul\":4055:4186   */\n      tag_110\n      jump\t// in\n    tag_165:\n        /* \"#utility.yul\":4047:4186   */\n      swap1\n      pop\n        /* \"#utility.yul\":3774:4193   */\n      swap2\n      swap1\n      pop\n      jump\t// out\n        /* \"#utility.yul\":4199:4379   */\n    tag_111:\n        /* \"#utility.yul\":4247:4324   */\n      0x4e487b7100000000000000000000000000000000000000000000000000000000\n        /* \"#utility.yul\":4244:4245   */\n      0x00\n        /* \"#utility.yul\":4237:4325   */\n      mstore\n        /* \"#utility.yul\":4344:4348   */\n      0x11\n        /* \"#utility.yul\":4341:4342   */\n      0x04\n        /* \"#utility.yul\":4334:4349   */\n      mstore\n        /* \"#utility.yul\":4368:4372   */\n      0x24\n        /* \"#utility.yul\":4365:4366   */\n      0x00\n        /* \"#utility.yul\":4358:4373   */\n      revert\n        /* \"#utility.yul\":4385:4579   */\n    tag_62:\n        /* \"#utility.yul\":4425:4429   */\n      0x00\n        /* \"#utility.yul\":4445:4465   */\n      tag_168\n        /* \"#utility.yul\":4463:4464   */\n      dup3\n        /* \"#utility.yul\":4445:4465   */\n      tag_96\n      jump\t// in\n    tag_168:\n        /* \"#utility.yul\":4440:4465   */\n      swap2\n      pop\n        /* \"#utility.yul\":4479:4499   */\n      tag_169\n        /* \"#utility.yul\":4497:4498   */\n      dup4\n        /* \"#utility.yul\":4479:4499   */\n      tag_96\n      jump\t// in\n    tag_169:\n        /* \"#utility.yul\":4474:4499   */\n      swap3\n      pop\n        /* \"#utility.yul\":4523:4524   */\n      dup3\n        /* \"#utility.yul\":4520:4521   */\n      dup3\n        /* \"#utility.yul\":4516:4525   */\n      sub\n        /* \"#utility.yul\":4508:4525   */\n      swap1\n      pop\n        /* \"#utility.yul\":4547:4548   */\n      dup2\n        /* \"#utility.yul\":4541:4545   */\n      dup2\n        /* \"#utility.yul\":4538:4549   */\n      gt\n        /* \"#utility.yul\":4535:4572   */\n      iszero\n      tag_170\n      jumpi\n        /* \"#utility.yul\":4552:4570   */\n      tag_171\n      tag_111\n      jump\t// in\n    tag_171:\n        /* \"#utility.yul\":4535:4572   */\n    tag_170:\n        /* \"#utility.yul\":4385:4579   */\n      swap3\n      swap2\n      pop\n      pop\n      jump\t// out\n        /* \"#utility.yul\":4585:4750   */\n    tag_112:\n        /* \"#utility.yul\":4725:4742   */\n      0x4d7573742073656e642045746865720000000000000000000000000000000000\n        /* \"#utility.yul\":4721:4722   */\n      0x00\n        /* \"#utility.yul\":4713:4719   */\n      dup3\n        /* \"#utility.yul\":4709:4723   */\n      add\n        /* \"#utility.yul\":4702:4743   */\n      mstore\n        /* \"#utility.yul\":4585:4750   */\n      pop\n      jump\t// out\n        /* \"#utility.yul\":4756:5122   */\n    tag_113:\n        /* \"#utility.yul\":4898:4901   */\n      0x00\n        /* \"#utility.yul\":4919:4986   */\n      tag_174\n        /* \"#utility.yul\":4983:4985   */\n      0x0f\n        /* \"#utility.yul\":4978:4981   */\n      dup4\n        /* \"#utility.yul\":4919:4986   */\n      tag_108\n      jump\t// in\n    tag_174:\n        /* \"#utility.yul\":4912:4986   */\n      swap2\n      pop\n        /* \"#utility.yul\":4995:5088   */\n      tag_175\n        /* \"#utility.yul\":5084:5087   */\n      dup3\n        /* \"#utility.yul\":4995:5088   */\n      tag_112\n      jump\t// in\n    tag_175:\n        /* \"#utility.yul\":5113:5115   */\n      0x20\n        /* \"#utility.yul\":5108:5111   */\n      dup3\n        /* \"#utility.yul\":5104:5116   */\n      add\n        /* \"#utility.yul\":5097:5116   */\n      swap1\n      pop\n        /* \"#utility.yul\":4756:5122   */\n      swap2\n      swap1\n      pop\n      jump\t// out\n        /* \"#utility.yul\":5128:5547   */\n    tag_71:\n        /* \"#utility.yul\":5294:5298   */\n      0x00\n        /* \"#utility.yul\":5332:5334   */\n      0x20\n        /* \"#utility.yul\":5321:5330   */\n      dup3\n        /* \"#utility.yul\":5317:5335   */\n      add\n        /* \"#utility.yul\":5309:5335   */\n      swap1\n      pop\n        /* \"#utility.yul\":5381:5390   */\n      dup2\n        /* \"#utility.yul\":5375:5379   */\n      dup2\n        /* \"#utility.yul\":5371:5391   */\n      sub\n        /* \"#utility.yul\":5367:5368   */\n      0x00\n        /* \"#utility.yul\":5356:5365   */\n      dup4\n        /* \"#utility.yul\":5352:5369   */\n      add\n        /* \"#utility.yul\":5345:5392   */\n      mstore\n        /* \"#utility.yul\":5409:5540   */\n      tag_177\n        /* \"#utility.yul\":5535:5539   */\n      dup2\n        /* \"#utility.yul\":5409:5540   */\n      tag_113\n      jump\t// in\n    tag_177:\n        /* \"#utility.yul\":5401:5540   */\n      swap1\n      pop\n        /* \"#utility.yul\":5128:5547   */\n      swap2\n      swap1\n      pop\n      jump\t// out\n        /* \"#utility.yul\":5553:5744   */\n    tag_73:\n        /* \"#utility.yul\":5593:5596   */\n      0x00\n        /* \"#utility.yul\":5612:5632   */\n      tag_179\n        /* \"#utility.yul\":5630:5631   */\n      dup3\n        /* \"#utility.yul\":5612:5632   */\n      tag_96\n      jump\t// in\n    tag_179:\n        /* \"#utility.yul\":5607:5632   */\n      swap2\n      pop\n        /* \"#utility.yul\":5646:5666   */\n      tag_180\n        /* \"#utility.yul\":5664:5665   */\n      dup4\n        /* \"#utility.yul\":5646:5666   */\n      tag_96\n      jump\t// in\n    tag_180:\n        /* \"#utility.yul\":5641:5666   */\n      swap3\n      pop\n        /* \"#utility.yul\":5689:5690   */\n      dup3\n        /* \"#utility.yul\":5686:5687   */\n      dup3\n        /* \"#utility.yul\":5682:5691   */\n      add\n        /* \"#utility.yul\":5675:5691   */\n      swap1\n      pop\n        /* \"#utility.yul\":5710:5713   */\n      dup1\n        /* \"#utility.yul\":5707:5708   */\n      dup3\n        /* \"#utility.yul\":5704:5714   */\n      gt\n        /* \"#utility.yul\":5701:5737   */\n      iszero\n      tag_181\n      jumpi\n        /* \"#utility.yul\":5717:5735   */\n      tag_182\n      tag_111\n      jump\t// in\n    tag_182:\n        /* \"#utility.yul\":5701:5737   */\n    tag_181:\n        /* \"#utility.yul\":5553:5744   */\n      swap3\n      swap2\n      pop\n      pop\n      jump\t// out\n        /* \"#utility.yul\":5750:5914   */\n    tag_114:\n        /* \"#utility.yul\":5890:5906   */\n      0x4e6f7420617574686f72697a6564000000000000000000000000000000000000\n        /* \"#utility.yul\":5886:5887   */\n      0x00\n        /* \"#utility.yul\":5878:5884   */\n      dup3\n        /* \"#utility.yul\":5874:5888   */\n      add\n        /* \"#utility.yul\":5867:5907   */\n      mstore\n        /* \"#utility.yul\":5750:5914   */\n      pop\n      jump\t// out\n        /* \"#utility.yul\":5920:6286   */\n    tag_115:\n        /* \"#utility.yul\":6062:6065   */\n      0x00\n        /* \"#utility.yul\":6083:6150   */\n      tag_185\n        /* \"#utility.yul\":6147:6149   */\n      0x0e\n        /* \"#utility.yul\":6142:6145   */\n      dup4\n        /* \"#utility.yul\":6083:6150   */\n      tag_108\n      jump\t// in\n    tag_185:\n        /* \"#utility.yul\":6076:6150   */\n      swap2\n      pop\n        /* \"#utility.yul\":6159:6252   */\n      tag_186\n        /* \"#utility.yul\":6248:6251   */\n      dup3\n        /* \"#utility.yul\":6159:6252   */\n      tag_114\n      jump\t// in\n    tag_186:\n        /* \"#utility.yul\":6277:6279   */\n      0x20\n        /* \"#utility.yul\":6272:6275   */\n      dup3\n        /* \"#utility.yul\":6268:6280   */\n      add\n        /* \"#utility.yul\":6261:6280   */\n      swap1\n      pop\n        /* \"#utility.yul\":5920:6286   */\n      swap2\n      swap1\n      pop\n      jump\t// out\n        /* \"#utility.yul\":6292:6711   */\n    tag_78:\n        /* \"#utility.yul\":6458:6462   */\n      0x00\n        /* \"#utility.yul\":6496:6498   */\n      0x20\n        /* \"#utility.yul\":6485:6494   */\n      dup3\n        /* \"#utility.yul\":6481:6499   */\n      add\n        /* \"#utility.yul\":6473:6499   */\n      swap1\n      pop\n        /* \"#utility.yul\":6545:6554   */\n      dup2\n        /* \"#utility.yul\":6539:6543   */\n      dup2\n        /* \"#utility.yul\":6535:6555   */\n      sub\n        /* \"#utility.yul\":6531:6532   */\n      0x00\n        /* \"#utility.yul\":6520:6529   */\n      dup4\n        /* \"#utility.yul\":6516:6533   */\n      add\n        /* \"#utility.yul\":6509:6556   */\n      mstore\n        /* \"#utility.yul\":6573:6704   */\n      tag_188\n        /* \"#utility.yul\":6699:6703   */\n      dup2\n        /* \"#utility.yul\":6573:6704   */\n      tag_115\n      jump\t// in\n    tag_188:\n        /* \"#utility.yul\":6565:6704   */\n      swap1\n      pop\n        /* \"#utility.yul\":6292:6711   */\n      swap2\n      swap1\n      pop\n      jump\t// out\n        /* \"#utility.yul\":6717:6892   */\n    tag_116:\n        /* \"#utility.yul\":6857:6884   */\n      0x496e76616c696420726563697069656e74206164647265737300000000000000\n        /* \"#utility.yul\":6853:6854   */\n      0x00\n        /* \"#utility.yul\":6845:6851   */\n      dup3\n        /* \"#utility.yul\":6841:6855   */\n      add\n        /* \"#utility.yul\":6834:6885   */\n      mstore\n        /* \"#utility.yul\":6717:6892   */\n      pop\n      jump\t// out\n        /* \"#utility.yul\":6898:7264   */\n    tag_117:\n        /* \"#utility.yul\":7040:7043   */\n      0x00\n        /* \"#utility.yul\":7061:7128   */\n      tag_191\n        /* \"#utility.yul\":7125:7127   */\n      0x19\n        /* \"#utility.yul\":7120:7123   */\n      dup4\n        /* \"#utility.yul\":7061:7128   */\n      tag_108\n      jump\t// in\n    tag_191:\n        /* \"#utility.yul\":7054:7128   */\n      swap2\n      pop\n        /* \"#utility.yul\":7137:7230   */\n      tag_192\n        /* \"#utility.yul\":7226:7229   */\n      dup3\n        /* \"#utility.yul\":7137:7230   */\n      tag_116\n      jump\t// in\n    tag_192:\n        /* \"#utility.yul\":7255:7257   */\n      0x20\n        /* \"#utility.yul\":7250:7253   */\n      dup3\n        /* \"#utility.yul\":7246:7258   */\n      add\n        /* \"#utility.yul\":7239:7258   */\n      swap1\n      pop\n        /* \"#utility.yul\":6898:7264   */\n      swap2\n      swap1\n      pop\n      jump\t// out\n        /* \"#utility.yul\":7270:7689   */\n    tag_83:\n        /* \"#utility.yul\":7436:7440   */\n      0x00\n        /* \"#utility.yul\":7474:7476   */\n      0x20\n        /* \"#utility.yul\":7463:7472   */\n      dup3\n        /* \"#utility.yul\":7459:7477   */\n      add\n        /* \"#utility.yul\":7451:7477   */\n      swap1\n      pop\n        /* \"#utility.yul\":7523:7532   */\n      dup2\n        /* \"#utility.yul\":7517:7521   */\n      dup2\n        /* \"#utility.yul\":7513:7533   */\n      sub\n        /* \"#utility.yul\":7509:7510   */\n      0x00\n        /* \"#utility.yul\":7498:7507   */\n      dup4\n        /* \"#utility.yul\":7494:7511   */\n      add\n        /* \"#utility.yul\":7487:7534   */\n      mstore\n        /* \"#utility.yul\":7551:7682   */\n      tag_194\n        /* \"#utility.yul\":7677:7681   */\n      dup2\n        /* \"#utility.yul\":7551:7682   */\n      tag_117\n      jump\t// in\n    tag_194:\n        /* \"#utility.yul\":7543:7682   */\n      swap1\n      pop\n        /* \"#utility.yul\":7270:7689   */\n      swap2\n      swap1\n      pop\n      jump\t// out\n        /* \"#utility.yul\":7695:7877   */\n    tag_118:\n        /* \"#utility.yul\":7835:7869   */\n      0x416d6f756e74206d7573742062652067726561746572207468616e207a65726f\n        /* \"#utility.yul\":7831:7832   */\n      0x00\n        /* \"#utility.yul\":7823:7829   */\n      dup3\n        /* \"#utility.yul\":7819:7833   */\n      add\n        /* \"#utility.yul\":7812:7870   */\n      mstore\n        /* \"#utility.yul\":7695:7877   */\n      pop\n      jump\t// out\n        /* \"#utility.yul\":7883:8249   */\n    tag_119:\n        /* \"#utility.yul\":8025:8028   */\n      0x00\n        /* \"#utility.yul\":8046:8113   */\n      tag_197\n        /* \"#utility.yul\":8110:8112   */\n      0x20\n        /* \"#utility.yul\":8105:8108   */\n      dup4\n        /* \"#utility.yul\":8046:8113   */\n      tag_108\n      jump\t// in\n    tag_197:\n        /* \"#utility.yul\":8039:8113   */\n      swap2\n      pop\n        /* \"#utility.yul\":8122:8215   */\n      tag_198\n        /* \"#utility.yul\":8211:8214   */\n      dup3\n        /* \"#utility.yul\":8122:8215   */\n      tag_118\n      jump\t// in\n    tag_198:\n        /* \"#utility.yul\":8240:8242   */\n      0x20\n        /* \"#utility.yul\":8235:8238   */\n      dup3\n        /* \"#utility.yul\":8231:8243   */\n      add\n        /* \"#utility.yul\":8224:8243   */\n      swap1\n      pop\n        /* \"#utility.yul\":7883:8249   */\n      swap2\n      swap1\n      pop\n      jump\t// out\n        /* \"#utility.yul\":8255:8674   */\n    tag_88:\n        /* \"#utility.yul\":8421:8425   */\n      0x00\n        /* \"#utility.yul\":8459:8461   */\n      0x20\n        /* \"#utility.yul\":8448:8457   */\n      dup3\n        /* \"#utility.yul\":8444:8462   */\n      add\n        /* \"#utility.yul\":8436:8462   */\n      swap1\n      pop\n        /* \"#utility.yul\":8508:8517   */\n      dup2\n        /* \"#utility.yul\":8502:8506   */\n      dup2\n        /* \"#utility.yul\":8498:8518   */\n      sub\n        /* \"#utility.yul\":8494:8495   */\n      0x00\n        /* \"#utility.yul\":8483:8492   */\n      dup4\n        /* \"#utility.yul\":8479:8496   */\n      add\n        /* \"#utility.yul\":8472:8519   */\n      mstore\n        /* \"#utility.yul\":8536:8667   */\n      tag_200\n        /* \"#utility.yul\":8662:8666   */\n      dup2\n        /* \"#utility.yul\":8536:8667   */\n      tag_119\n      jump\t// in\n    tag_200:\n        /* \"#utility.yul\":8528:8667   */\n      swap1\n      pop\n        /* \"#utility.yul\":8255:8674   */\n      swap2\n      swap1\n      pop\n      jump\t// out\n\n    auxdata: 0xa264697066735822122094efc8fa797e19c5f5624a27959d189646f3a8aad2a4a3cdf7ad789cfdd90d6a64736f6c634300081e0033\n}\n",
				"bytecode": {
					"linkReferences": {},
					"object": "6080604052348015600e575f5ffd5b50335f5f6101000a81548173ffffffffffffffffffffffffffffffffffffffff021916908373ffffffffffffffffffffffffffffffffffffffff160217905550610d048061005b5f395ff3fe608060405260043610610090575f3560e01c8063a87d942c11610058578063a87d942c14610188578063d0e30db0146101b2578063d14e62b8146101bc578063dc67176b146101e4578063fd8952921461020c57610090565b806306661abd1461009457806327e235e3146100be5780632e1a7d4d146100fa5780635f515226146101225780638da5cb5b1461015e575b5f5ffd5b34801561009f575f5ffd5b506100a8610222565b6040516100b591906108c6565b60405180910390f35b3480156100c9575f5ffd5b506100e460048036038101906100df919061093d565b610228565b6040516100f191906108c6565b60405180910390f35b348015610105575f5ffd5b50610120600480360381019061011b9190610992565b61023d565b005b34801561012d575f5ffd5b506101486004803603810190610143919061093d565b6103a5565b60405161015591906108c6565b60405180910390f35b348015610169575f5ffd5b506101726103eb565b60405161017f91906109cc565b60405180910390f35b348015610193575f5ffd5b5061019c61040f565b6040516101a991906108c6565b60405180910390f35b6101ba610418565b005b3480156101c7575f5ffd5b506101e260048036038101906101dd9190610992565b6104fd565b005b3480156101ef575f5ffd5b5061020a600480360381019061020591906109e5565b610595565b005b348015610217575f5ffd5b506102206107d4565b005b60015481565b6002602052805f5260405f205f915090505481565b8060025f3373ffffffffffffffffffffffffffffffffffffffff1673ffffffffffffffffffffffffffffffffffffffff1681526020019081526020015f205410156102bd576040517f08c379a00000000000000000000000000000000000000000000000000000000081526004016102b490610a7d565b60405180910390fd5b8060025f3373ffffffffffffffffffffffffffffffffffffffff1673ffffffffffffffffffffffffffffffffffffffff1681526020019081526020015f205f8282546103099190610ac8565b925050819055503373ffffffffffffffffffffffffffffffffffffffff166108fc8290811502906040515f60405180830381858888f19350505050158015610353573d5f5f3e3d5ffd5b503373ffffffffffffffffffffffffffffffffffffffff167f884edad9ce6fa2440d8a54cc123490eb96d2768479d49ff9c7366125a94243648260405161039a91906108c6565b60405180910390a250565b5f60025f8373ffffffffffffffffffffffffffffffffffffffff1673ffffffffffffffffffffffffffffffffffffffff1681526020019081526020015f20549050919050565b5f5f9054906101000a900473ffffffffffffffffffffffffffffffffffffffff1681565b5f600154905090565b5f341161045a576040517f08c379a000000000000000000000000000000000000000000000000000000000815260040161045190610b45565b60405180910390fd5b3460025f3373ffffffffffffffffffffffffffffffffffffffff1673ffffffffffffffffffffffffffffffffffffffff1681526020019081526020015f205f8282546104a69190610b63565b925050819055503373ffffffffffffffffffffffffffffffffffffffff167fe1fffcc4923d04b559f4d29a8bfc6cda04eb5b0d3c460751c2402c5c5cc9109c346040516104f391906108c6565b60405180910390a2565b5f5f9054906101000a900473ffffffffffffffffffffffffffffffffffffffff1673ffffffffffffffffffffffffffffffffffffffff163373ffffffffffffffffffffffffffffffffffffffff161461058b576040517f08c379a000000000000000000000000000000000000000000000000000000000815260040161058290610be0565b60405180910390fd5b8060018190555050565b5f73ffffffffffffffffffffffffffffffffffffffff168273ffffffffffffffffffffffffffffffffffffffff1603610603576040517f08c379a00000000000000000000000000000000000000000000000000000000081526004016105fa90610c48565b60405180910390fd5b8060025f3373ffffffffffffffffffffffffffffffffffffffff1673ffffffffffffffffffffffffffffffffffffffff1681526020019081526020015f20541015610683576040517f08c379a000000000000000000000000000000000000000000000000000000000815260040161067a90610a7d565b60405180910390fd5b5f81116106c5576040517f08c379a00000000000000000000000000000000000000000000000000000000081526004016106bc90610cb0565b60405180910390fd5b8060025f3373ffffffffffffffffffffffffffffffffffffffff1673ffffffffffffffffffffffffffffffffffffffff1681526020019081526020015f205f8282546107119190610ac8565b925050819055508060025f8473ffffffffffffffffffffffffffffffffffffffff1673ffffffffffffffffffffffffffffffffffffffff1681526020019081526020015f205f8282546107649190610b63565b925050819055508173ffffffffffffffffffffffffffffffffffffffff163373ffffffffffffffffffffffffffffffffffffffff167fe9fc4b90cc18bf5ff80f0418c6f97fec6f231997b3c71731983d67092c22a7f8836040516107c891906108c6565b60405180910390a35050565b5f5f9054906101000a900473ffffffffffffffffffffffffffffffffffffffff1673ffffffffffffffffffffffffffffffffffffffff163373ffffffffffffffffffffffffffffffffffffffff1614610862576040517f08c379a000000000000000000000000000000000000000000000000000000000815260040161085990610be0565b60405180910390fd5b5f6001819055503373ffffffffffffffffffffffffffffffffffffffff167fa5ee6258204973c56c5a39c4ac31e61723f410d84f9e8117ba52b76b7cea990c60405160405180910390a2565b5f819050919050565b6108c0816108ae565b82525050565b5f6020820190506108d95f8301846108b7565b92915050565b5f5ffd5b5f73ffffffffffffffffffffffffffffffffffffffff82169050919050565b5f61090c826108e3565b9050919050565b61091c81610902565b8114610926575f5ffd5b50565b5f8135905061093781610913565b92915050565b5f60208284031215610952576109516108df565b5b5f61095f84828501610929565b91505092915050565b610971816108ae565b811461097b575f5ffd5b50565b5f8135905061098c81610968565b92915050565b5f602082840312156109a7576109a66108df565b5b5f6109b48482850161097e565b91505092915050565b6109c681610902565b82525050565b5f6020820190506109df5f8301846109bd565b92915050565b5f5f604083850312156109fb576109fa6108df565b5b5f610a0885828601610929565b9250506020610a198582860161097e565b9150509250929050565b5f82825260208201905092915050565b7f496e73756666696369656e742062616c616e63650000000000000000000000005f82015250565b5f610a67601483610a23565b9150610a7282610a33565b602082019050919050565b5f6020820190508181035f830152610a9481610a5b565b9050919050565b7f4e487b71000000000000000000000000000000000000000000000000000000005f52601160045260245ffd5b5f610ad2826108ae565b9150610add836108ae565b9250828203905081811115610af557610af4610a9b565b5b92915050565b7f4d7573742073656e6420457468657200000000000000000000000000000000005f82015250565b5f610b2f600f83610a23565b9150610b3a82610afb565b602082019050919050565b5f6020820190508181035f830152610b5c81610b23565b9050919050565b5f610b6d826108ae565b9150610b78836108ae565b9250828201905080821115610b9057610b8f610a9b565b5b92915050565b7f4e6f7420617574686f72697a65640000000000000000000000000000000000005f82015250565b5f610bca600e83610a23565b9150610bd582610b96565b602082019050919050565b5f6020820190508181035f830152610bf781610bbe565b9050919050565b7f496e76616c696420726563697069656e742061646472657373000000000000005f82015250565b5f610c32601983610a23565b9150610c3d82610bfe565b602082019050919050565b5f6020820190508181035f830152610c5f81610c26565b9050919050565b7f416d6f756e74206d7573742062652067726561746572207468616e207a65726f5f82015250565b5f610c9a602083610a23565b9150610ca582610c66565b602082019050919050565b5f6020820190508181035f830152610cc781610c8e565b905091905056fea264697066735822122094efc8fa797e19c5f5624a27959d189646f3a8aad2a4a3cdf7ad789cfdd90d6a64736f6c634300081e0033",
					"opcodes": "PUSH1 0x80 PUSH1 0x40 MSTORE CALLVALUE DUP1 ISZERO PUSH1 0xE JUMPI PUSH0 PUSH0 REVERT JUMPDEST POP CALLER PUSH0 PUSH0 PUSH2 0x100 EXP DUP2 SLOAD DUP2 PUSH20 0xFFFFFFFFFFFFFFFFFFFFFFFFFFFFFFFFFFFFFFFF MUL NOT AND SWAP1 DUP4 PUSH20 0xFFFFFFFFFFFFFFFFFFFFFFFFFFFFFFFFFFFFFFFF AND MUL OR SWAP1 SSTORE POP PUSH2 0xD04 DUP1 PUSH2 0x5B PUSH0 CODECOPY PUSH0 RETURN INVALID PUSH1 0x80 PUSH1 0x40 MSTORE PUSH1 0x4 CALLDATASIZE LT PUSH2 0x90 JUMPI PUSH0 CALLDATALOAD PUSH1 0xE0 SHR DUP1 PUSH4 0xA87D942C GT PUSH2 0x58 JUMPI DUP1 PUSH4 0xA87D942C EQ PUSH2 0x188 JUMPI DUP1 PUSH4 0xD0E30DB0 EQ PUSH2 0x1B2 JUMPI DUP1 PUSH4 0xD14E62B8 EQ PUSH2 0x1BC JUMPI DUP1 PUSH4 0xDC67176B EQ PUSH2 0x1E4 JUMPI DUP1 PUSH4 0xFD895292 EQ PUSH2 0x20C JUMPI PUSH2 0x90 JUMP JUMPDEST DUP1 PUSH4 0x6661ABD EQ PUSH2 0x94 JUMPI DUP1 PUSH4 0x27E235E3 EQ PUSH2 0xBE JUMPI DUP1 PUSH4 0x2E1A7D4D EQ PUSH2 0xFA JUMPI DUP1 PUSH4 0x5F515226 EQ PUSH2 0x122 JUMPI DUP1 PUSH4 0x8DA5CB5B EQ PUSH2 0x15E JUMPI JUMPDEST PUSH0 PUSH0 REVERT JUMPDEST CALLVALUE DUP1 ISZERO PUSH2 0x9F JUMPI PUSH0 PUSH0 REVERT JUMPDEST POP PUSH2 0xA8 PUSH2 0x222 JUMP JUMPDEST PUSH1 0x40 MLOAD PUSH2 0xB5 SWAP2 SWAP1 PUSH2 0x8C6 JUMP JUMPDEST PUSH1 0x40 MLOAD DUP1 SWAP2 SUB SWAP1 RETURN JUMPDEST CALLVALUE DUP1 ISZERO PUSH2 0xC9 JUMPI PUSH0 PUSH0 REVERT JUMPDEST POP PUSH2 0xE4 PUSH1 0x4 DUP1 CALLDATASIZE SUB DUP2 ADD SWAP1 PUSH2 0xDF SWAP2 SWAP1 PUSH2 0x93D JUMP JUMPDEST PUSH2 0x228 JUMP JUMPDEST PUSH1 0x40 MLOAD PUSH2 0xF1 SWAP2 SWAP1 PUSH2 0x8C6 JUMP JUMPDEST PUSH1 0x40 MLOAD DUP1 SWAP2 SUB SWAP1 RETURN JUMPDEST CALLVALUE DUP1 ISZERO PUSH2 0x105 JUMPI PUSH0 PUSH0 REVERT JUMPDEST POP PUSH2 0x120 PUSH1 0x4 DUP1 CALLDATASIZE SUB DUP2 ADD SWAP1 PUSH2 0x11B SWAP2 SWAP1 PUSH2 0x992 JUMP JUMPDEST PUSH2 0x23D JUMP JUMPDEST STOP JUMPDEST CALLVALUE DUP1 ISZERO PUSH2 0x12D JUMPI PUSH0 PUSH0 REVERT JUMPDEST POP PUSH2 0x148 PUSH1 0x4 DUP1 CALLDATASIZE SUB DUP2 ADD SWAP1 PUSH2 0x143 SWAP2 SWAP1 PUSH2 0x93D JUMP JUMPDEST PUSH2 0x3A5 JUMP JUMPDEST PUSH1 0x40 MLOAD PUSH2 0x155 SWAP2 SWAP1 PUSH2 0x8C6 JUMP JUMPDEST PUSH1 0x40 MLOAD DUP1 SWAP2 SUB SWAP1 RETURN JUMPDEST CALLVALUE DUP1 ISZERO PUSH2 0x169 JUMPI PUSH0 PUSH0 REVERT JUMPDEST POP PUSH2 0x172 PUSH2 0x3EB JUMP JUMPDEST PUSH1 0x40 MLOAD PUSH2 0x17F SWAP2 SWAP1 PUSH2 0x9CC JUMP JUMPDEST PUSH1 0x40 MLOAD DUP1 SWAP2 SUB SWAP1 RETURN JUMPDEST CALLVALUE DUP1 ISZERO PUSH2 0x193 JUMPI PUSH0 PUSH0 REVERT JUMPDEST POP PUSH2 0x19C PUSH2 0x40F JUMP JUMPDEST PUSH1 0x40 MLOAD PUSH2 0x1A9 SWAP2 SWAP1 PUSH2 0x8C6 JUMP JUMPDEST PUSH1 0x40 MLOAD DUP1 SWAP2 SUB SWAP1 RETURN JUMPDEST PUSH2 0x1BA PUSH2 0x418 JUMP JUMPDEST STOP JUMPDEST CALLVALUE DUP1 ISZERO PUSH2 0x1C7 JUMPI PUSH0 PUSH0 REVERT JUMPDEST POP PUSH2 0x1E2 PUSH1 0x4 DUP1 CALLDATASIZE SUB DUP2 ADD SWAP1 PUSH2 0x1DD SWAP2 SWAP1 PUSH2 0x992 JUMP JUMPDEST PUSH2 0x4FD JUMP JUMPDEST STOP JUMPDEST CALLVALUE DUP1 ISZERO PUSH2 0x1EF JUMPI PUSH0 PUSH0 REVERT JUMPDEST POP PUSH2 0x20A PUSH1 0x4 DUP1 CALLDATASIZE SUB DUP2 ADD SWAP1 PUSH2 0x205 SWAP2 SWAP1 PUSH2 0x9E5 JUMP JUMPDEST PUSH2 0x595 JUMP JUMPDEST STOP JUMPDEST CALLVALUE DUP1 ISZERO PUSH2 0x217 JUMPI PUSH0 PUSH0 REVERT JUMPDEST POP PUSH2 0x220 PUSH2 0x7D4 JUMP JUMPDEST STOP JUMPDEST PUSH1 0x1 SLOAD DUP2 JUMP JUMPDEST PUSH1 0x2 PUSH1 0x20 MSTORE DUP1 PUSH0 MSTORE PUSH1 0x40 PUSH0 KECCAK256 PUSH0 SWAP2 POP SWAP1 POP SLOAD DUP2 JUMP JUMPDEST DUP1 PUSH1 0x2 PUSH0 CALLER PUSH20 0xFFFFFFFFFFFFFFFFFFFFFFFFFFFFFFFFFFFFFFFF AND PUSH20 0xFFFFFFFFFFFFFFFFFFFFFFFFFFFFFFFFFFFFFFFF AND DUP2 MSTORE PUSH1 0x20 ADD SWAP1 DUP2 MSTORE PUSH1 0x20 ADD PUSH0 KECCAK256 SLOAD LT ISZERO PUSH2 0x2BD JUMPI PUSH1 0x40 MLOAD PUSH32 0x8C379A000000000000000000000000000000000000000000000000000000000 DUP2 MSTORE PUSH1 0x4 ADD PUSH2 0x2B4 SWAP1 PUSH2 0xA7D JUMP JUMPDEST PUSH1 0x40 MLOAD DUP1 SWAP2 SUB SWAP1 REVERT JUMPDEST DUP1 PUSH1 0x2 PUSH0 CALLER PUSH20 0xFFFFFFFFFFFFFFFFFFFFFFFFFFFFFFFFFFFFFFFF AND PUSH20 0xFFFFFFFFFFFFFFFFFFFFFFFFFFFFFFFFFFFFFFFF AND DUP2 MSTORE PUSH1 0x20 ADD SWAP1 DUP2 MSTORE PUSH1 0x20 ADD PUSH0 KECCAK256 PUSH0 DUP3 DUP3 SLOAD PUSH2 0x309 SWAP2 SWAP1 PUSH2 0xAC8 JUMP JUMPDEST SWAP3 POP POP DUP2 SWAP1 SSTORE POP CALLER PUSH20 0xFFFFFFFFFFFFFFFFFFFFFFFFFFFFFFFFFFFFFFFF AND PUSH2 0x8FC DUP3 SWAP1 DUP2 ISZERO MUL SWAP1 PUSH1 0x40 MLOAD PUSH0 PUSH1 0x40 MLOAD DUP1 DUP4 SUB DUP2 DUP6 DUP9 DUP9 CALL SWAP4 POP POP POP POP ISZERO DUP1 ISZERO PUSH2 0x353 JUMPI RETURNDATASIZE PUSH0 PUSH0 RETURNDATACOPY RETURNDATASIZE PUSH0 REVERT JUMPDEST POP CALLER PUSH20 0xFFFFFFFFFFFFFFFFFFFFFFFFFFFFFFFFFFFFFFFF AND PUSH32 0x884EDAD9CE6FA2440D8A54CC123490EB96D2768479D49FF9C7366125A9424364 DUP3 PUSH1 0x40 MLOAD PUSH2 0x39A SWAP2 SWAP1 PUSH2 0x8C6 JUMP JUMPDEST PUSH1 0x40 MLOAD DUP1 SWAP2 SUB SWAP1 LOG2 POP JUMP JUMPDEST PUSH0 PUSH1 0x2 PUSH0 DUP4 PUSH20 0xFFFFFFFFFFFFFFFFFFFFFFFFFFFFFFFFFFFFFFFF AND PUSH20 0xFFFFFFFFFFFFFFFFFFFFFFFFFFFFFFFFFFFFFFFF AND DUP2 MSTORE PUSH1 0x20 ADD SWAP1 DUP2 MSTORE PUSH1 0x20 ADD PUSH0 KECCAK256 SLOAD SWAP1 POP SWAP2 SWAP1 POP JUMP JUMPDEST PUSH0 PUSH0 SWAP1 SLOAD SWAP1 PUSH2 0x100 EXP SWAP1 DIV PUSH20 0xFFFFFFFFFFFFFFFFFFFFFFFFFFFFFFFFFFFFFFFF AND DUP2 JUMP JUMPDEST PUSH0 PUSH1 0x1 SLOAD SWAP1 POP SWAP1 JUMP JUMPDEST PUSH0 CALLVALUE GT PUSH2 0x45A JUMPI PUSH1 0x40 MLOAD PUSH32 0x8C379A000000000000000000000000000000000000000000000000000000000 DUP2 MSTORE PUSH1 0x4 ADD PUSH2 0x451 SWAP1 PUSH2 0xB45 JUMP JUMPDEST PUSH1 0x40 MLOAD DUP1 SWAP2 SUB SWAP1 REVERT JUMPDEST CALLVALUE PUSH1 0x2 PUSH0 CALLER PUSH20 0xFFFFFFFFFFFFFFFFFFFFFFFFFFFFFFFFFFFFFFFF AND PUSH20 0xFFFFFFFFFFFFFFFFFFFFFFFFFFFFFFFFFFFFFFFF AND DUP2 MSTORE PUSH1 0x20 ADD SWAP1 DUP2 MSTORE PUSH1 0x20 ADD PUSH0 KECCAK256 PUSH0 DUP3 DUP3 SLOAD PUSH2 0x4A6 SWAP2 SWAP1 PUSH2 0xB63 JUMP JUMPDEST SWAP3 POP POP DUP2 SWAP1 SSTORE POP CALLER PUSH20 0xFFFFFFFFFFFFFFFFFFFFFFFFFFFFFFFFFFFFFFFF AND PUSH32 0xE1FFFCC4923D04B559F4D29A8BFC6CDA04EB5B0D3C460751C2402C5C5CC9109C CALLVALUE PUSH1 0x40 MLOAD PUSH2 0x4F3 SWAP2 SWAP1 PUSH2 0x8C6 JUMP JUMPDEST PUSH1 0x40 MLOAD DUP1 SWAP2 SUB SWAP1 LOG2 JUMP JUMPDEST PUSH0 PUSH0 SWAP1 SLOAD SWAP1 PUSH2 0x100 EXP SWAP1 DIV PUSH20 0xFFFFFFFFFFFFFFFFFFFFFFFFFFFFFFFFFFFFFFFF AND PUSH20 0xFFFFFFFFFFFFFFFFFFFFFFFFFFFFFFFFFFFFFFFF AND CALLER PUSH20 0xFFFFFFFFFFFFFFFFFFFFFFFFFFFFFFFFFFFFFFFF AND EQ PUSH2 0x58B JUMPI PUSH1 0x40 MLOAD PUSH32 0x8C379A000000000000000000000000000000000000000000000000000000000 DUP2 MSTORE PUSH1 0x4 ADD PUSH2 0x582 SWAP1 PUSH2 0xBE0 JUMP JUMPDEST PUSH1 0x40 MLOAD DUP1 SWAP2 SUB SWAP1 REVERT JUMPDEST DUP1 PUSH1 0x1 DUP2 SWAP1 SSTORE POP POP JUMP JUMPDEST PUSH0 PUSH20 0xFFFFFFFFFFFFFFFFFFFFFFFFFFFFFFFFFFFFFFFF AND DUP3 PUSH20 0xFFFFFFFFFFFFFFFFFFFFFFFFFFFFFFFFFFFFFFFF AND SUB PUSH2 0x603 JUMPI PUSH1 0x40 MLOAD PUSH32 0x8C379A000000000000000000000000000000000000000000000000000000000 DUP2 MSTORE PUSH1 0x4 ADD PUSH2 0x5FA SWAP1 PUSH2 0xC48 JUMP JUMPDEST PUSH1 0x40 MLOAD DUP1 SWAP2 SUB SWAP1 REVERT JUMPDEST DUP1 PUSH1 0x2 PUSH0 CALLER PUSH20 0xFFFFFFFFFFFFFFFFFFFFFFFFFFFFFFFFFFFFFFFF AND PUSH20 0xFFFFFFFFFFFFFFFFFFFFFFFFFFFFFFFFFFFFFFFF AND DUP2 MSTORE PUSH1 0x20 ADD SWAP1 DUP2 MSTORE PUSH1 0x20 ADD PUSH0 KECCAK256 SLOAD LT ISZERO PUSH2 0x683 JUMPI PUSH1 0x40 MLOAD PUSH32 0x8C379A000000000000000000000000000000000000000000000000000000000 DUP2 MSTORE PUSH1 0x4 ADD PUSH2 0x67A SWAP1 PUSH2 0xA7D JUMP JUMPDEST PUSH1 0x40 MLOAD DUP1 SWAP2 SUB SWAP1 REVERT JUMPDEST PUSH0 DUP2 GT PUSH2 0x6C5 JUMPI PUSH1 0x40 MLOAD PUSH32 0x8C379A000000000000000000000000000000000000000000000000000000000 DUP2 MSTORE PUSH1 0x4 ADD PUSH2 0x6BC SWAP1 PUSH2 0xCB0 JUMP JUMPDEST PUSH1 0x40 MLOAD DUP1 SWAP2 SUB SWAP1 REVERT JUMPDEST DUP1 PUSH1 0x2 PUSH0 CALLER PUSH20 0xFFFFFFFFFFFFFFFFFFFFFFFFFFFFFFFFFFFFFFFF AND PUSH20 0xFFFFFFFFFFFFFFFFFFFFFFFFFFFFFFFFFFFFFFFF AND DUP2 MSTORE PUSH1 0x20 ADD SWAP1 DUP2 MSTORE PUSH1 0x20 ADD PUSH0 KECCAK256 PUSH0 DUP3 DUP3 SLOAD PUSH2 0x711 SWAP2 SWAP1 PUSH2 0xAC8 JUMP JUMPDEST SWAP3 POP POP DUP2 SWAP1 SSTORE POP DUP1 PUSH1 0x2 PUSH0 DUP5 PUSH20 0xFFFFFFFFFFFFFFFFFFFFFFFFFFFFFFFFFFFFFFFF AND PUSH20 0xFFFFFFFFFFFFFFFFFFFFFFFFFFFFFFFFFFFFFFFF AND DUP2 MSTORE PUSH1 0x20 ADD SWAP1 DUP2 MSTORE PUSH1 0x20 ADD PUSH0 KECCAK256 PUSH0 DUP3 DUP3 SLOAD PUSH2 0x764 SWAP2 SWAP1 PUSH2 0xB63 JUMP JUMPDEST SWAP3 POP POP DUP2 SWAP1 SSTORE POP DUP2 PUSH20 0xFFFFFFFFFFFFFFFFFFFFFFFFFFFFFFFFFFFFFFFF AND CALLER PUSH20 0xFFFFFFFFFFFFFFFFFFFFFFFFFFFFFFFFFFFFFFFF AND PUSH32 0xE9FC4B90CC18BF5FF80F0418C6F97FEC6F231997B3C71731983D67092C22A7F8 DUP4 PUSH1 0x40 MLOAD PUSH2 0x7C8 SWAP2 SWAP1 PUSH2 0x8C6 JUMP JUMPDEST PUSH1 0x40 MLOAD DUP1 SWAP2 SUB SWAP1 LOG3 POP POP JUMP JUMPDEST PUSH0 PUSH0 SWAP1 SLOAD SWAP1 PUSH2 0x100 EXP SWAP1 DIV PUSH20 0xFFFFFFFFFFFFFFFFFFFFFFFFFFFFFFFFFFFFFFFF AND PUSH20 0xFFFFFFFFFFFFFFFFFFFFFFFFFFFFFFFFFFFFFFFF AND CALLER PUSH20 0xFFFFFFFFFFFFFFFFFFFFFFFFFFFFFFFFFFFFFFFF AND EQ PUSH2 0x862 JUMPI PUSH1 0x40 MLOAD PUSH32 0x8C379A000000000000000000000000000000000000000000000000000000000 DUP2 MSTORE PUSH1 0x4 ADD PUSH2 0x859 SWAP1 PUSH2 0xBE0 JUMP JUMPDEST PUSH1 0x40 MLOAD DUP1 SWAP2 SUB SWAP1 REVERT JUMPDEST PUSH0 PUSH1 0x1 DUP2 SWAP1 SSTORE POP CALLER PUSH20 0xFFFFFFFFFFFFFFFFFFFFFFFFFFFFFFFFFFFFFFFF AND PUSH32 0xA5EE6258204973C56C5A39C4AC31E61723F410D84F9E8117BA52B76B7CEA990C PUSH1 0x40 MLOAD PUSH1 0x40 MLOAD DUP1 SWAP2 SUB SWAP1 LOG2 JUMP JUMPDEST PUSH0 DUP2 SWAP1 POP SWAP2 SWAP1 POP JUMP JUMPDEST PUSH2 0x8C0 DUP2 PUSH2 0x8AE JUMP JUMPDEST DUP3 MSTORE POP POP JUMP JUMPDEST PUSH0 PUSH1 0x20 DUP3 ADD SWAP1 POP PUSH2 0x8D9 PUSH0 DUP4 ADD DUP5 PUSH2 0x8B7 JUMP JUMPDEST SWAP3 SWAP2 POP POP JUMP JUMPDEST PUSH0 PUSH0 REVERT JUMPDEST PUSH0 PUSH20 0xFFFFFFFFFFFFFFFFFFFFFFFFFFFFFFFFFFFFFFFF DUP3 AND SWAP1 POP SWAP2 SWAP1 POP JUMP JUMPDEST PUSH0 PUSH2 0x90C DUP3 PUSH2 0x8E3 JUMP JUMPDEST SWAP1 POP SWAP2 SWAP1 POP JUMP JUMPDEST PUSH2 0x91C DUP2 PUSH2 0x902 JUMP JUMPDEST DUP2 EQ PUSH2 0x926 JUMPI PUSH0 PUSH0 REVERT JUMPDEST POP JUMP JUMPDEST PUSH0 DUP2 CALLDATALOAD SWAP1 POP PUSH2 0x937 DUP2 PUSH2 0x913 JUMP JUMPDEST SWAP3 SWAP2 POP POP JUMP JUMPDEST PUSH0 PUSH1 0x20 DUP3 DUP5 SUB SLT ISZERO PUSH2 0x952 JUMPI PUSH2 0x951 PUSH2 0x8DF JUMP JUMPDEST JUMPDEST PUSH0 PUSH2 0x95F DUP5 DUP3 DUP6 ADD PUSH2 0x929 JUMP JUMPDEST SWAP2 POP POP SWAP3 SWAP2 POP POP JUMP JUMPDEST PUSH2 0x971 DUP2 PUSH2 0x8AE JUMP JUMPDEST DUP2 EQ PUSH2 0x97B JUMPI PUSH0 PUSH0 REVERT JUMPDEST POP JUMP JUMPDEST PUSH0 DUP2 CALLDATALOAD SWAP1 POP PUSH2 0x98C DUP2 PUSH2 0x968 JUMP JUMPDEST SWAP3 SWAP2 POP POP JUMP JUMPDEST PUSH0 PUSH1 0x20 DUP3 DUP5 SUB SLT ISZERO PUSH2 0x9A7 JUMPI PUSH2 0x9A6 PUSH2 0x8DF JUMP JUMPDEST JUMPDEST PUSH0 PUSH2 0x9B4 DUP5 DUP3 DUP6 ADD PUSH2 0x97E JUMP JUMPDEST SWAP2 POP POP SWAP3 SWAP2 POP POP JUMP JUMPDEST PUSH2 0x9C6 DUP2 PUSH2 0x902 JUMP JUMPDEST DUP3 MSTORE POP POP JUMP JUMPDEST PUSH0 PUSH1 0x20 DUP3 ADD SWAP1 POP PUSH2 0x9DF PUSH0 DUP4 ADD DUP5 PUSH2 0x9BD JUMP JUMPDEST SWAP3 SWAP2 POP POP JUMP JUMPDEST PUSH0 PUSH0 PUSH1 0x40 DUP4 DUP6 SUB SLT ISZERO PUSH2 0x9FB JUMPI PUSH2 0x9FA PUSH2 0x8DF JUMP JUMPDEST JUMPDEST PUSH0 PUSH2 0xA08 DUP6 DUP3 DUP7 ADD PUSH2 0x929 JUMP JUMPDEST SWAP3 POP POP PUSH1 0x20 PUSH2 0xA19 DUP6 DUP3 DUP7 ADD PUSH2 0x97E JUMP JUMPDEST SWAP2 POP POP SWAP3 POP SWAP3 SWAP1 POP JUMP JUMPDEST PUSH0 DUP3 DUP3 MSTORE PUSH1 0x20 DUP3 ADD SWAP1 POP SWAP3 SWAP2 POP POP JUMP JUMPDEST PUSH32 0x496E73756666696369656E742062616C616E6365000000000000000000000000 PUSH0 DUP3 ADD MSTORE POP JUMP JUMPDEST PUSH0 PUSH2 0xA67 PUSH1 0x14 DUP4 PUSH2 0xA23 JUMP JUMPDEST SWAP2 POP PUSH2 0xA72 DUP3 PUSH2 0xA33 JUMP JUMPDEST PUSH1 0x20 DUP3 ADD SWAP1 POP SWAP2 SWAP1 POP JUMP JUMPDEST PUSH0 PUSH1 0x20 DUP3 ADD SWAP1 POP DUP2 DUP2 SUB PUSH0 DUP4 ADD MSTORE PUSH2 0xA94 DUP2 PUSH2 0xA5B JUMP JUMPDEST SWAP1 POP SWAP2 SWAP1 POP JUMP JUMPDEST PUSH32 0x4E487B7100000000000000000000000000000000000000000000000000000000 PUSH0 MSTORE PUSH1 0x11 PUSH1 0x4 MSTORE PUSH1 0x24 PUSH0 REVERT JUMPDEST PUSH0 PUSH2 0xAD2 DUP3 PUSH2 0x8AE JUMP JUMPDEST SWAP2 POP PUSH2 0xADD DUP4 PUSH2 0x8AE JUMP JUMPDEST SWAP3 POP DUP3 DUP3 SUB SWAP1 POP DUP2 DUP2 GT ISZERO PUSH2 0xAF5 JUMPI PUSH2 0xAF4 PUSH2 0xA9B JUMP JUMPDEST JUMPDEST SWAP3 SWAP2 POP POP JUMP JUMPDEST PUSH32 0x4D7573742073656E642045746865720000000000000000000000000000000000 PUSH0 DUP3 ADD MSTORE POP JUMP JUMPDEST PUSH0 PUSH2 0xB2F PUSH1 0xF DUP4 PUSH2 0xA23 JUMP JUMPDEST SWAP2 POP PUSH2 0xB3A DUP3 PUSH2 0xAFB JUMP JUMPDEST PUSH1 0x20 DUP3 ADD SWAP1 POP SWAP2 SWAP1 POP JUMP JUMPDEST PUSH0 PUSH1 0x20 DUP3 ADD SWAP1 POP DUP2 DUP2 SUB PUSH0 DUP4 ADD MSTORE PUSH2 0xB5C DUP2 PUSH2 0xB23 JUMP JUMPDEST SWAP1 POP SWAP2 SWAP1 POP JUMP JUMPDEST PUSH0 PUSH2 0xB6D DUP3 PUSH2 0x8AE JUMP JUMPDEST SWAP2 POP PUSH2 0xB78 DUP4 PUSH2 0x8AE JUMP JUMPDEST SWAP3 POP DUP3 DUP3 ADD SWAP1 POP DUP1 DUP3 GT ISZERO PUSH2 0xB90 JUMPI PUSH2 0xB8F PUSH2 0xA9B JUMP JUMPDEST JUMPDEST SWAP3 SWAP2 POP POP JUMP JUMPDEST PUSH32 0x4E6F7420617574686F72697A6564000000000000000000000000000000000000 PUSH0 DUP3 ADD MSTORE POP JUMP JUMPDEST PUSH0 PUSH2 0xBCA PUSH1 0xE DUP4 PUSH2 0xA23 JUMP JUMPDEST SWAP2 POP PUSH2 0xBD5 DUP3 PUSH2 0xB96 JUMP JUMPDEST PUSH1 0x20 DUP3 ADD SWAP1 POP SWAP2 SWAP1 POP JUMP JUMPDEST PUSH0 PUSH1 0x20 DUP3 ADD SWAP1 POP DUP2 DUP2 SUB PUSH0 DUP4 ADD MSTORE PUSH2 0xBF7 DUP2 PUSH2 0xBBE JUMP JUMPDEST SWAP1 POP SWAP2 SWAP1 POP JUMP JUMPDEST PUSH32 0x496E76616C696420726563697069656E74206164647265737300000000000000 PUSH0 DUP3 ADD MSTORE POP JUMP JUMPDEST PUSH0 PUSH2 0xC32 PUSH1 0x19 DUP4 PUSH2 0xA23 JUMP JUMPDEST SWAP2 POP PUSH2 0xC3D DUP3 PUSH2 0xBFE JUMP JUMPDEST PUSH1 0x20 DUP3 ADD SWAP1 POP SWAP2 SWAP1 POP JUMP JUMPDEST PUSH0 PUSH1 0x20 DUP3 ADD SWAP1 POP DUP2 DUP2 SUB PUSH0 DUP4 ADD MSTORE PUSH2 0xC5F DUP2 PUSH2 0xC26 JUMP JUMPDEST SWAP1 POP SWAP2 SWAP1 POP JUMP JUMPDEST PUSH32 0x416D6F756E74206D7573742062652067726561746572207468616E207A65726F PUSH0 DUP3 ADD MSTORE POP JUMP JUMPDEST PUSH0 PUSH2 0xC9A PUSH1 0x20 DUP4 PUSH2 0xA23 JUMP JUMPDEST SWAP2 POP PUSH2 0xCA5 DUP3 PUSH2 0xC66 JUMP JUMPDEST PUSH1 0x20 DUP3 ADD SWAP1 POP SWAP2 SWAP1 POP JUMP JUMPDEST PUSH0 PUSH1 0x20 DUP3 ADD SWAP1 POP DUP2 DUP2 SUB PUSH0 DUP4 ADD MSTORE PUSH2 0xCC7 DUP2 PUSH2 0xC8E JUMP JUMPDEST SWAP1 POP SWAP2 SWAP1 POP JUMP INVALID LOG2 PUSH5 0x6970667358 0x22 SLT KECCAK256 SWAP5 0xEF 0xC8 STATICCALL PUSH26 0x7E19C5F5624A27959D189646F3A8AAD2A4A3CDF7AD789CFDD90D PUSH11 0x64736F6C634300081E0033 "
				},
				"gasEstimates": {
					"creation": {
						"codeDepositCost": "666400",
						"executionCost": "24964",
						"totalCost": "691364"
					},
					"external": {
						"balances(address)": "2825",
						"checkBalance(address)": "2896",
						"count()": "2426",
						"deposit()": "infinite",
						"getCount()": "2432",
						"owner()": "2596",
						"resetCount()": "8572",
						"setCount(uint256)": "24727",
						"transferBetween(address,uint256)": "infinite",
						"withdraw(uint256)": "infinite"
					}
				},
				"methodIdentifiers": {
					"balances(address)": "27e235e3",
					"checkBalance(address)": "5f515226",
					"count()": "06661abd",
					"deposit()": "d0e30db0",
					"getCount()": "a87d942c",
					"owner()": "8da5cb5b",
					"resetCount()": "fd895292",
					"setCount(uint256)": "d14e62b8",
					"transferBetween(address,uint256)": "dc67176b",
					"withdraw(uint256)": "2e1a7d4d"
				}
			},
			"storageLayout": {
				"storage": [
					{
						"astId": 4,
						"contract": "contracts/Simplecontract.sol:SimpleContract",
						"label": "owner",
						"offset": 0,
						"slot": "0",
						"type": "t_address"
					},
					{
						"astId": 6,
						"contract": "contracts/Simplecontract.sol:SimpleContract",
						"label": "count",
						"offset": 0,
						"slot": "1",
						"type": "t_uint256"
					},
					{
						"astId": 10,
						"contract": "contracts/Simplecontract.sol:SimpleContract",
						"label": "balances",
						"offset": 0,
						"slot": "2",
						"type": "t_mapping(t_address,t_uint256)"
					}
				],
				"types": {
					"t_address": {
						"encoding": "inplace",
						"label": "address",
						"numberOfBytes": "20"
					},
					"t_mapping(t_address,t_uint256)": {
						"encoding": "mapping",
						"key": "t_address",
						"label": "mapping(address => uint256)",
						"numberOfBytes": "32",
						"value": "t_uint256"
					},
					"t_uint256": {
						"encoding": "inplace",
						"label": "uint256",
						"numberOfBytes": "32"
					}
				}
			},
			"userdoc": {
				"kind": "user",
				"methods": {
					"checkBalance(address)": {
						"notice": "Read the deposited balance of a given address"
					},
					"deposit()": {
						"notice": "Anyone can deposit Ether; value is added to their balance"
					},
					"getCount()": {
						"notice": "Anyone can read the current counter"
					},
					"resetCount()": {
						"notice": "Owner can reset the count to zero"
					},
					"setCount(uint256)": {
						"notice": "Owner can set any value for `count`"
					},
					"transferBetween(address,uint256)": {
						"notice": "Transfer deposited balance from caller to another user without withdrawing"
					},
					"withdraw(uint256)": {
						"notice": "Withdraw up to the caller’s own deposited amount"
					}
				},
				"version": 1
			}
		}
	}
}