{
	"contracts/CrowdFund.sol": {
		"CrowdFund": {
			"abi": [
				{
					"inputs": [
						{
							"internalType": "uint256",
							"name": "_goal",
							"type": "uint256"
						},
						{
							"internalType": "uint256",
							"name": "_durationMinutes",
							"type": "uint256"
						}
					],
					"stateMutability": "nonpayable",
					"type": "constructor"
				},
				{
					"anonymous": false,
					"inputs": [
						{
							"indexed": true,
							"internalType": "address",
							"name": "contributor",
							"type": "address"
						},
						{
							"indexed": false,
							"internalType": "uint256",
							"name": "amount",
							"type": "uint256"
						}
					],
					"name": "FundReceived",
					"type": "event"
				},
				{
					"anonymous": false,
					"inputs": [
						{
							"indexed": false,
							"internalType": "uint256",
							"name": "totalAmount",
							"type": "uint256"
						}
					],
					"name": "GoalReached",
					"type": "event"
				},
				{
					"anonymous": false,
					"inputs": [
						{
							"indexed": true,
							"internalType": "address",
							"name": "contributor",
							"type": "address"
						},
						{
							"indexed": false,
							"internalType": "uint256",
							"name": "amount",
							"type": "uint256"
						}
					],
					"name": "Refunded",
					"type": "event"
				},
				{
					"anonymous": false,
					"inputs": [
						{
							"indexed": true,
							"internalType": "address",
							"name": "owner",
							"type": "address"
						},
						{
							"indexed": false,
							"internalType": "uint256",
							"name": "amount",
							"type": "uint256"
						}
					],
					"name": "Withdrawn",
					"type": "event"
				},
				{
					"inputs": [],
					"name": "amountRaised",
					"outputs": [
						{
							"internalType": "uint256",
							"name": "",
							"type": "uint256"
						}
					],
					"stateMutability": "view",
					"type": "function"
				},
				{
					"inputs": [],
					"name": "checkBalance",
					"outputs": [
						{
							"internalType": "uint256",
							"name": "",
							"type": "uint256"
						}
					],
					"stateMutability": "view",
					"type": "function"
				},
				{
					"inputs": [],
					"name": "contribute",
					"outputs": [],
					"stateMutability": "payable",
					"type": "function"
				},
				{
					"inputs": [
						{
							"internalType": "address",
							"name": "",
							"type": "address"
						}
					],
					"name": "contributions",
					"outputs": [
						{
							"internalType": "uint256",
							"name": "",
							"type": "uint256"
						}
					],
					"stateMutability": "view",
					"type": "function"
				},
				{
					"inputs": [],
					"name": "contributorCount",
					"outputs": [
						{
							"internalType": "uint256",
							"name": "",
							"type": "uint256"
						}
					],
					"stateMutability": "view",
					"type": "function"
				},
				{
					"inputs": [],
					"name": "deadline",
					"outputs": [
						{
							"internalType": "uint256",
							"name": "",
							"type": "uint256"
						}
					],
					"stateMutability": "view",
					"type": "function"
				},
				{
					"inputs": [],
					"name": "getDetails",
					"outputs": [
						{
							"internalType": "uint256",
							"name": "_goal",
							"type": "uint256"
						},
						{
							"internalType": "uint256",
							"name": "_deadline",
							"type": "uint256"
						},
						{
							"internalType": "uint256",
							"name": "_amountRaised",
							"type": "uint256"
						},
						{
							"internalType": "uint256",
							"name": "_contributorCount",
							"type": "uint256"
						},
						{
							"internalType": "address",
							"name": "_owner",
							"type": "address"
						},
						{
							"internalType": "bool",
							"name": "_goalReached",
							"type": "bool"
						}
					],
					"stateMutability": "view",
					"type": "function"
				},
				{
					"inputs": [],
					"name": "getTimeLeft",
					"outputs": [
						{
							"internalType": "uint256",
							"name": "",
							"type": "uint256"
						}
					],
					"stateMutability": "view",
					"type": "function"
				},
				{
					"inputs": [],
					"name": "goal",
					"outputs": [
						{
							"internalType": "uint256",
							"name": "",
							"type": "uint256"
						}
					],
					"stateMutability": "view",
					"type": "function"
				},
				{
					"inputs": [],
					"name": "goalReached",
					"outputs": [
						{
							"internalType": "bool",
							"name": "",
							"type": "bool"
						}
					],
					"stateMutability": "view",
					"type": "function"
				},
				{
					"inputs": [],
					"name": "owner",
					"outputs": [
						{
							"internalType": "address",
							"name": "",
							"type": "address"
						}
					],
					"stateMutability": "view",
					"type": "function"
				},
				{
					"inputs": [],
					"name": "refund",
					"outputs": [],
					"stateMutability": "nonpayable",
					"type": "function"
				},
				{
					"inputs": [],
					"name": "withdraw",
					"outputs": [],
					"stateMutability": "nonpayable",
					"type": "function"
				},
				{
					"inputs": [],
					"name": "withdrawn",
					"outputs": [
						{
							"internalType": "bool",
							"name": "",
							"type": "bool"
						}
					],
					"stateMutability": "view",
					"type": "function"
				}
			],
			"devdoc": {
				"kind": "dev",
				"methods": {},
				"version": 1
			},
			"evm": {
				"assembly": "    /* \"contracts/CrowdFund.sol\":57:3271  contract CrowdFund {... */\n  mstore(0x40, 0x80)\n    /* \"contracts/CrowdFund.sol\":939:1118  constructor(uint256 _goal, uint256 _durationMinutes) {... */\n  callvalue\n  dup1\n  iszero\n  tag_1\n  jumpi\n  0x00\n  dup1\n  revert\ntag_1:\n  pop\n  mload(0x40)\n  sub(codesize, bytecodeSize)\n  dup1\n  bytecodeSize\n  dup4\n  codecopy\n  dup2\n  dup2\n  add\n  0x40\n  mstore\n  dup2\n  add\n  swap1\n  tag_2\n  swap2\n  swap1\n  tag_3\n  jump\t// in\ntag_2:\n    /* \"contracts/CrowdFund.sol\":1010:1020  msg.sender */\n  caller\n    /* \"contracts/CrowdFund.sol\":1002:1007  owner */\n  0x00\n  dup1\n    /* \"contracts/CrowdFund.sol\":1002:1020  owner = msg.sender */\n  0x0100\n  exp\n  dup2\n  sload\n  dup2\n  0xffffffffffffffffffffffffffffffffffffffff\n  mul\n  not\n  and\n  swap1\n  dup4\n  0xffffffffffffffffffffffffffffffffffffffff\n  and\n  mul\n  or\n  swap1\n  sstore\n  pop\n    /* \"contracts/CrowdFund.sol\":1037:1042  _goal */\n  dup2\n    /* \"contracts/CrowdFund.sol\":1030:1034  goal */\n  0x01\n    /* \"contracts/CrowdFund.sol\":1030:1042  goal = _goal */\n  dup2\n  swap1\n  sstore\n  pop\n    /* \"contracts/CrowdFund.sol\":1101:1110  1 minutes */\n  0x3c\n    /* \"contracts/CrowdFund.sol\":1082:1098  _durationMinutes */\n  dup2\n    /* \"contracts/CrowdFund.sol\":1082:1110  _durationMinutes * 1 minutes */\n  tag_6\n  swap2\n  swap1\n  tag_7\n  jump\t// in\ntag_6:\n    /* \"contracts/CrowdFund.sol\":1063:1078  block.timestamp */\n  timestamp\n    /* \"contracts/CrowdFund.sol\":1063:1111  block.timestamp + (_durationMinutes * 1 minutes) */\n  tag_8\n  swap2\n  swap1\n  tag_9\n  jump\t// in\ntag_8:\n    /* \"contracts/CrowdFund.sol\":1052:1060  deadline */\n  0x02\n    /* \"contracts/CrowdFund.sol\":1052:1111  deadline = block.timestamp + (_durationMinutes * 1 minutes) */\n  dup2\n  swap1\n  sstore\n  pop\n    /* \"contracts/CrowdFund.sol\":939:1118  constructor(uint256 _goal, uint256 _durationMinutes) {... */\n  pop\n  pop\n    /* \"contracts/CrowdFund.sol\":57:3271  contract CrowdFund {... */\n  jump(tag_10)\n    /* \"#utility.yul\":88:205   */\ntag_12:\n    /* \"#utility.yul\":197:198   */\n  0x00\n    /* \"#utility.yul\":194:195   */\n  dup1\n    /* \"#utility.yul\":187:199   */\n  revert\n    /* \"#utility.yul\":334:411   */\ntag_14:\n    /* \"#utility.yul\":371:378   */\n  0x00\n    /* \"#utility.yul\":400:405   */\n  dup2\n    /* \"#utility.yul\":389:405   */\n  swap1\n  pop\n    /* \"#utility.yul\":334:411   */\n  swap2\n  swap1\n  pop\n  jump\t// out\n    /* \"#utility.yul\":417:539   */\ntag_15:\n    /* \"#utility.yul\":490:514   */\n  tag_24\n    /* \"#utility.yul\":508:513   */\n  dup2\n    /* \"#utility.yul\":490:514   */\n  tag_14\n  jump\t// in\ntag_24:\n    /* \"#utility.yul\":483:488   */\n  dup2\n    /* \"#utility.yul\":480:515   */\n  eq\n    /* \"#utility.yul\":470:533   */\n  tag_25\n  jumpi\n    /* \"#utility.yul\":529:530   */\n  0x00\n    /* \"#utility.yul\":526:527   */\n  dup1\n    /* \"#utility.yul\":519:531   */\n  revert\n    /* \"#utility.yul\":470:533   */\ntag_25:\n    /* \"#utility.yul\":417:539   */\n  pop\n  jump\t// out\n    /* \"#utility.yul\":545:688   */\ntag_16:\n    /* \"#utility.yul\":602:607   */\n  0x00\n    /* \"#utility.yul\":633:639   */\n  dup2\n    /* \"#utility.yul\":627:640   */\n  mload\n    /* \"#utility.yul\":618:640   */\n  swap1\n  pop\n    /* \"#utility.yul\":649:682   */\n  tag_27\n    /* \"#utility.yul\":676:681   */\n  dup2\n    /* \"#utility.yul\":649:682   */\n  tag_15\n  jump\t// in\ntag_27:\n    /* \"#utility.yul\":545:688   */\n  swap3\n  swap2\n  pop\n  pop\n  jump\t// out\n    /* \"#utility.yul\":694:1201   */\ntag_3:\n    /* \"#utility.yul\":773:779   */\n  0x00\n    /* \"#utility.yul\":781:787   */\n  dup1\n    /* \"#utility.yul\":830:832   */\n  0x40\n    /* \"#utility.yul\":818:827   */\n  dup4\n    /* \"#utility.yul\":809:816   */\n  dup6\n    /* \"#utility.yul\":805:828   */\n  sub\n    /* \"#utility.yul\":801:833   */\n  slt\n    /* \"#utility.yul\":798:917   */\n  iszero\n  tag_29\n  jumpi\n    /* \"#utility.yul\":836:915   */\n  tag_30\n  tag_12\n  jump\t// in\ntag_30:\n    /* \"#utility.yul\":798:917   */\ntag_29:\n    /* \"#utility.yul\":956:957   */\n  0x00\n    /* \"#utility.yul\":981:1045   */\n  tag_31\n    /* \"#utility.yul\":1037:1044   */\n  dup6\n    /* \"#utility.yul\":1028:1034   */\n  dup3\n    /* \"#utility.yul\":1017:1026   */\n  dup7\n    /* \"#utility.yul\":1013:1035   */\n  add\n    /* \"#utility.yul\":981:1045   */\n  tag_16\n  jump\t// in\ntag_31:\n    /* \"#utility.yul\":971:1045   */\n  swap3\n  pop\n    /* \"#utility.yul\":927:1055   */\n  pop\n    /* \"#utility.yul\":1094:1096   */\n  0x20\n    /* \"#utility.yul\":1120:1184   */\n  tag_32\n    /* \"#utility.yul\":1176:1183   */\n  dup6\n    /* \"#utility.yul\":1167:1173   */\n  dup3\n    /* \"#utility.yul\":1156:1165   */\n  dup7\n    /* \"#utility.yul\":1152:1174   */\n  add\n    /* \"#utility.yul\":1120:1184   */\n  tag_16\n  jump\t// in\ntag_32:\n    /* \"#utility.yul\":1110:1184   */\n  swap2\n  pop\n    /* \"#utility.yul\":1065:1194   */\n  pop\n    /* \"#utility.yul\":694:1201   */\n  swap3\n  pop\n  swap3\n  swap1\n  pop\n  jump\t// out\n    /* \"#utility.yul\":1207:1387   */\ntag_17:\n    /* \"#utility.yul\":1255:1332   */\n  0x4e487b7100000000000000000000000000000000000000000000000000000000\n    /* \"#utility.yul\":1252:1253   */\n  0x00\n    /* \"#utility.yul\":1245:1333   */\n  mstore\n    /* \"#utility.yul\":1352:1356   */\n  0x11\n    /* \"#utility.yul\":1349:1350   */\n  0x04\n    /* \"#utility.yul\":1342:1357   */\n  mstore\n    /* \"#utility.yul\":1376:1380   */\n  0x24\n    /* \"#utility.yul\":1373:1374   */\n  0x00\n    /* \"#utility.yul\":1366:1381   */\n  revert\n    /* \"#utility.yul\":1393:1803   */\ntag_7:\n    /* \"#utility.yul\":1433:1440   */\n  0x00\n    /* \"#utility.yul\":1456:1476   */\n  tag_35\n    /* \"#utility.yul\":1474:1475   */\n  dup3\n    /* \"#utility.yul\":1456:1476   */\n  tag_14\n  jump\t// in\ntag_35:\n    /* \"#utility.yul\":1451:1476   */\n  swap2\n  pop\n    /* \"#utility.yul\":1490:1510   */\n  tag_36\n    /* \"#utility.yul\":1508:1509   */\n  dup4\n    /* \"#utility.yul\":1490:1510   */\n  tag_14\n  jump\t// in\ntag_36:\n    /* \"#utility.yul\":1485:1510   */\n  swap3\n  pop\n    /* \"#utility.yul\":1545:1546   */\n  dup3\n    /* \"#utility.yul\":1542:1543   */\n  dup3\n    /* \"#utility.yul\":1538:1547   */\n  mul\n    /* \"#utility.yul\":1567:1597   */\n  tag_37\n    /* \"#utility.yul\":1585:1596   */\n  dup2\n    /* \"#utility.yul\":1567:1597   */\n  tag_14\n  jump\t// in\ntag_37:\n    /* \"#utility.yul\":1556:1597   */\n  swap2\n  pop\n    /* \"#utility.yul\":1746:1747   */\n  dup3\n    /* \"#utility.yul\":1737:1744   */\n  dup3\n    /* \"#utility.yul\":1733:1748   */\n  div\n    /* \"#utility.yul\":1730:1731   */\n  dup5\n    /* \"#utility.yul\":1727:1749   */\n  eq\n    /* \"#utility.yul\":1707:1708   */\n  dup4\n    /* \"#utility.yul\":1700:1709   */\n  iszero\n    /* \"#utility.yul\":1680:1763   */\n  or\n    /* \"#utility.yul\":1657:1796   */\n  tag_38\n  jumpi\n    /* \"#utility.yul\":1776:1794   */\n  tag_39\n  tag_17\n  jump\t// in\ntag_39:\n    /* \"#utility.yul\":1657:1796   */\ntag_38:\n    /* \"#utility.yul\":1441:1803   */\n  pop\n    /* \"#utility.yul\":1393:1803   */\n  swap3\n  swap2\n  pop\n  pop\n  jump\t// out\n    /* \"#utility.yul\":1809:2000   */\ntag_9:\n    /* \"#utility.yul\":1849:1852   */\n  0x00\n    /* \"#utility.yul\":1868:1888   */\n  tag_41\n    /* \"#utility.yul\":1886:1887   */\n  dup3\n    /* \"#utility.yul\":1868:1888   */\n  tag_14\n  jump\t// in\ntag_41:\n    /* \"#utility.yul\":1863:1888   */\n  swap2\n  pop\n    /* \"#utility.yul\":1902:1922   */\n  tag_42\n    /* \"#utility.yul\":1920:1921   */\n  dup4\n    /* \"#utility.yul\":1902:1922   */\n  tag_14\n  jump\t// in\ntag_42:\n    /* \"#utility.yul\":1897:1922   */\n  swap3\n  pop\n    /* \"#utility.yul\":1945:1946   */\n  dup3\n    /* \"#utility.yul\":1942:1943   */\n  dup3\n    /* \"#utility.yul\":1938:1947   */\n  add\n    /* \"#utility.yul\":1931:1947   */\n  swap1\n  pop\n    /* \"#utility.yul\":1966:1969   */\n  dup1\n    /* \"#utility.yul\":1963:1964   */\n  dup3\n    /* \"#utility.yul\":1960:1970   */\n  gt\n    /* \"#utility.yul\":1957:1993   */\n  iszero\n  tag_43\n  jumpi\n    /* \"#utility.yul\":1973:1991   */\n  tag_44\n  tag_17\n  jump\t// in\ntag_44:\n    /* \"#utility.yul\":1957:1993   */\ntag_43:\n    /* \"#utility.yul\":1809:2000   */\n  swap3\n  swap2\n  pop\n  pop\n  jump\t// out\n    /* \"contracts/CrowdFund.sol\":57:3271  contract CrowdFund {... */\ntag_10:\n  dataSize(sub_0)\n  dup1\n  dataOffset(sub_0)\n  0x00\n  codecopy\n  0x00\n  return\nstop\n\nsub_0: assembly {\n        /* \"contracts/CrowdFund.sol\":57:3271  contract CrowdFund {... */\n      mstore(0x40, 0x80)\n      jumpi(tag_1, lt(calldatasize, 0x04))\n      shr(0xe0, calldataload(0x00))\n      dup1\n      0x8da5cb5b\n      gt\n      tag_16\n      jumpi\n      dup1\n      0xc80ec522\n      gt\n      tag_17\n      jumpi\n      dup1\n      0xc80ec522\n      eq\n      tag_12\n      jumpi\n      dup1\n      0xd7bb99ba\n      eq\n      tag_13\n      jumpi\n      dup1\n      0xecfd8928\n      eq\n      tag_14\n      jumpi\n      dup1\n      0xfbbf93a0\n      eq\n      tag_15\n      jumpi\n      jump(tag_1)\n    tag_17:\n      dup1\n      0x8da5cb5b\n      eq\n      tag_9\n      jumpi\n      dup1\n      0xc71daccb\n      eq\n      tag_10\n      jumpi\n      dup1\n      0xc7e284b8\n      eq\n      tag_11\n      jumpi\n      jump(tag_1)\n    tag_16:\n      dup1\n      0x42e94c90\n      gt\n      tag_18\n      jumpi\n      dup1\n      0x42e94c90\n      eq\n      tag_5\n      jumpi\n      dup1\n      0x590e1ae3\n      eq\n      tag_6\n      jumpi\n      dup1\n      0x7b3e5e7b\n      eq\n      tag_7\n      jumpi\n      dup1\n      0x7d3d6522\n      eq\n      tag_8\n      jumpi\n      jump(tag_1)\n    tag_18:\n      dup1\n      0x29dcb0cf\n      eq\n      tag_2\n      jumpi\n      dup1\n      0x3ccfd60b\n      eq\n      tag_3\n      jumpi\n      dup1\n      0x40193883\n      eq\n      tag_4\n      jumpi\n    tag_1:\n      0x00\n      dup1\n      revert\n        /* \"contracts/CrowdFund.sol\":133:156  uint256 public deadline */\n    tag_2:\n      callvalue\n      dup1\n      iszero\n      tag_19\n      jumpi\n      0x00\n      dup1\n      revert\n    tag_19:\n      pop\n      tag_20\n      tag_21\n      jump\t// in\n    tag_20:\n      mload(0x40)\n      tag_22\n      swap2\n      swap1\n      tag_23\n      jump\t// in\n    tag_22:\n      mload(0x40)\n      dup1\n      swap2\n      sub\n      swap1\n      return\n        /* \"contracts/CrowdFund.sol\":1782:2082  function withdraw() external onlyOwner {... */\n    tag_3:\n      callvalue\n      dup1\n      iszero\n      tag_24\n      jumpi\n      0x00\n      dup1\n      revert\n    tag_24:\n      pop\n      tag_25\n      tag_26\n      jump\t// in\n    tag_25:\n      stop\n        /* \"contracts/CrowdFund.sol\":108:127  uint256 public goal */\n    tag_4:\n      callvalue\n      dup1\n      iszero\n      tag_27\n      jumpi\n      0x00\n      dup1\n      revert\n    tag_27:\n      pop\n      tag_28\n      tag_29\n      jump\t// in\n    tag_28:\n      mload(0x40)\n      tag_30\n      swap2\n      swap1\n      tag_23\n      jump\t// in\n    tag_30:\n      mload(0x40)\n      dup1\n      swap2\n      sub\n      swap1\n      return\n        /* \"contracts/CrowdFund.sol\":233:281  mapping(address => uint256) public contributions */\n    tag_5:\n      callvalue\n      dup1\n      iszero\n      tag_31\n      jumpi\n      0x00\n      dup1\n      revert\n    tag_31:\n      pop\n      tag_32\n      0x04\n      dup1\n      calldatasize\n      sub\n      dup2\n      add\n      swap1\n      tag_33\n      swap2\n      swap1\n      tag_34\n      jump\t// in\n    tag_33:\n      tag_35\n      jump\t// in\n    tag_32:\n      mload(0x40)\n      tag_36\n      swap2\n      swap1\n      tag_23\n      jump\t// in\n    tag_36:\n      mload(0x40)\n      dup1\n      swap2\n      sub\n      swap1\n      return\n        /* \"contracts/CrowdFund.sol\":2141:2512  function refund() external afterDeadline {... */\n    tag_6:\n      callvalue\n      dup1\n      iszero\n      tag_37\n      jumpi\n      0x00\n      dup1\n      revert\n    tag_37:\n      pop\n      tag_38\n      tag_39\n      jump\t// in\n    tag_38:\n      stop\n        /* \"contracts/CrowdFund.sol\":162:189  uint256 public amountRaised */\n    tag_7:\n      callvalue\n      dup1\n      iszero\n      tag_40\n      jumpi\n      0x00\n      dup1\n      revert\n    tag_40:\n      pop\n      tag_41\n      tag_42\n      jump\t// in\n    tag_41:\n      mload(0x40)\n      tag_43\n      swap2\n      swap1\n      tag_23\n      jump\t// in\n    tag_43:\n      mload(0x40)\n      dup1\n      swap2\n      sub\n      swap1\n      return\n        /* \"contracts/CrowdFund.sol\":287:310  bool public goalReached */\n    tag_8:\n      callvalue\n      dup1\n      iszero\n      tag_44\n      jumpi\n      0x00\n      dup1\n      revert\n    tag_44:\n      pop\n      tag_45\n      tag_46\n      jump\t// in\n    tag_45:\n      mload(0x40)\n      tag_47\n      swap2\n      swap1\n      tag_48\n      jump\t// in\n    tag_47:\n      mload(0x40)\n      dup1\n      swap2\n      sub\n      swap1\n      return\n        /* \"contracts/CrowdFund.sol\":82:102  address public owner */\n    tag_9:\n      callvalue\n      dup1\n      iszero\n      tag_49\n      jumpi\n      0x00\n      dup1\n      revert\n    tag_49:\n      pop\n      tag_50\n      tag_51\n      jump\t// in\n    tag_50:\n      mload(0x40)\n      tag_52\n      swap2\n      swap1\n      tag_53\n      jump\t// in\n    tag_52:\n      mload(0x40)\n      dup1\n      swap2\n      sub\n      swap1\n      return\n        /* \"contracts/CrowdFund.sol\":1624:1716  function checkBalance() external view returns (uint256) {... */\n    tag_10:\n      callvalue\n      dup1\n      iszero\n      tag_54\n      jumpi\n      0x00\n      dup1\n      revert\n    tag_54:\n      pop\n      tag_55\n      tag_56\n      jump\t// in\n    tag_55:\n      mload(0x40)\n      tag_57\n      swap2\n      swap1\n      tag_23\n      jump\t// in\n    tag_57:\n      mload(0x40)\n      dup1\n      swap2\n      sub\n      swap1\n      return\n        /* \"contracts/CrowdFund.sol\":3070:3269  function getTimeLeft() public view returns (uint256) {... */\n    tag_11:\n      callvalue\n      dup1\n      iszero\n      tag_58\n      jumpi\n      0x00\n      dup1\n      revert\n    tag_58:\n      pop\n      tag_59\n      tag_60\n      jump\t// in\n    tag_59:\n      mload(0x40)\n      tag_61\n      swap2\n      swap1\n      tag_23\n      jump\t// in\n    tag_61:\n      mload(0x40)\n      dup1\n      swap2\n      sub\n      swap1\n      return\n        /* \"contracts/CrowdFund.sol\":316:337  bool public withdrawn */\n    tag_12:\n      callvalue\n      dup1\n      iszero\n      tag_62\n      jumpi\n      0x00\n      dup1\n      revert\n    tag_62:\n      pop\n      tag_63\n      tag_64\n      jump\t// in\n    tag_63:\n      mload(0x40)\n      tag_65\n      swap2\n      swap1\n      tag_48\n      jump\t// in\n    tag_65:\n      mload(0x40)\n      dup1\n      swap2\n      sub\n      swap1\n      return\n        /* \"contracts/CrowdFund.sol\":1145:1595  function contribute() external payable beforeDeadline {... */\n    tag_13:\n      tag_66\n      tag_67\n      jump\t// in\n    tag_66:\n      stop\n        /* \"contracts/CrowdFund.sol\":195:226  uint256 public contributorCount */\n    tag_14:\n      callvalue\n      dup1\n      iszero\n      tag_68\n      jumpi\n      0x00\n      dup1\n      revert\n    tag_68:\n      pop\n      tag_69\n      tag_70\n      jump\t// in\n    tag_69:\n      mload(0x40)\n      tag_71\n      swap2\n      swap1\n      tag_23\n      jump\t// in\n    tag_71:\n      mload(0x40)\n      dup1\n      swap2\n      sub\n      swap1\n      return\n        /* \"contracts/CrowdFund.sol\":2549:2997  function getDetails()... */\n    tag_15:\n      callvalue\n      dup1\n      iszero\n      tag_72\n      jumpi\n      0x00\n      dup1\n      revert\n    tag_72:\n      pop\n      tag_73\n      tag_74\n      jump\t// in\n    tag_73:\n      mload(0x40)\n      tag_75\n      swap7\n      swap6\n      swap5\n      swap4\n      swap3\n      swap2\n      swap1\n      tag_76\n      jump\t// in\n    tag_75:\n      mload(0x40)\n      dup1\n      swap2\n      sub\n      swap1\n      return\n        /* \"contracts/CrowdFund.sol\":133:156  uint256 public deadline */\n    tag_21:\n      sload(0x02)\n      dup2\n      jump\t// out\n        /* \"contracts/CrowdFund.sol\":1782:2082  function withdraw() external onlyOwner {... */\n    tag_26:\n        /* \"contracts/CrowdFund.sol\":650:655  owner */\n      0x00\n      dup1\n      sload\n      swap1\n      0x0100\n      exp\n      swap1\n      div\n      0xffffffffffffffffffffffffffffffffffffffff\n      and\n        /* \"contracts/CrowdFund.sol\":636:655  msg.sender == owner */\n      0xffffffffffffffffffffffffffffffffffffffff\n      and\n        /* \"contracts/CrowdFund.sol\":636:646  msg.sender */\n      caller\n        /* \"contracts/CrowdFund.sol\":636:655  msg.sender == owner */\n      0xffffffffffffffffffffffffffffffffffffffff\n      and\n      eq\n        /* \"contracts/CrowdFund.sol\":628:678  require(msg.sender == owner, \"Not contract owner\") */\n      tag_78\n      jumpi\n      mload(0x40)\n      0x08c379a000000000000000000000000000000000000000000000000000000000\n      dup2\n      mstore\n      0x04\n      add\n      tag_79\n      swap1\n      tag_80\n      jump\t// in\n    tag_79:\n      mload(0x40)\n      dup1\n      swap2\n      sub\n      swap1\n      revert\n    tag_78:\n        /* \"contracts/CrowdFund.sol\":1839:1850  goalReached */\n      0x06\n      0x00\n      swap1\n      sload\n      swap1\n      0x0100\n      exp\n      swap1\n      div\n      0xff\n      and\n        /* \"contracts/CrowdFund.sol\":1831:1871  require(goalReached, \"Goal not reached\") */\n      tag_82\n      jumpi\n      mload(0x40)\n      0x08c379a000000000000000000000000000000000000000000000000000000000\n      dup2\n      mstore\n      0x04\n      add\n      tag_83\n      swap1\n      tag_84\n      jump\t// in\n    tag_83:\n      mload(0x40)\n      dup1\n      swap2\n      sub\n      swap1\n      revert\n    tag_82:\n        /* \"contracts/CrowdFund.sol\":1890:1899  withdrawn */\n      0x06\n      0x01\n      swap1\n      sload\n      swap1\n      0x0100\n      exp\n      swap1\n      div\n      0xff\n      and\n        /* \"contracts/CrowdFund.sol\":1889:1899  !withdrawn */\n      iszero\n        /* \"contracts/CrowdFund.sol\":1881:1921  require(!withdrawn, \"Already withdrawn\") */\n      tag_85\n      jumpi\n      mload(0x40)\n      0x08c379a000000000000000000000000000000000000000000000000000000000\n      dup2\n      mstore\n      0x04\n      add\n      tag_86\n      swap1\n      tag_87\n      jump\t// in\n    tag_86:\n      mload(0x40)\n      dup1\n      swap2\n      sub\n      swap1\n      revert\n    tag_85:\n        /* \"contracts/CrowdFund.sol\":1943:1947  true */\n      0x01\n        /* \"contracts/CrowdFund.sol\":1931:1940  withdrawn */\n      0x06\n      0x01\n        /* \"contracts/CrowdFund.sol\":1931:1947  withdrawn = true */\n      0x0100\n      exp\n      dup2\n      sload\n      dup2\n      0xff\n      mul\n      not\n      and\n      swap1\n      dup4\n      iszero\n      iszero\n      mul\n      or\n      swap1\n      sstore\n      pop\n        /* \"contracts/CrowdFund.sol\":1957:1971  uint256 amount */\n      0x00\n        /* \"contracts/CrowdFund.sol\":1974:1995  address(this).balance */\n      selfbalance\n        /* \"contracts/CrowdFund.sol\":1957:1995  uint256 amount = address(this).balance */\n      swap1\n      pop\n        /* \"contracts/CrowdFund.sol\":2013:2018  owner */\n      0x00\n      dup1\n      sload\n      swap1\n      0x0100\n      exp\n      swap1\n      div\n      0xffffffffffffffffffffffffffffffffffffffff\n      and\n        /* \"contracts/CrowdFund.sol\":2005:2028  payable(owner).transfer */\n      0xffffffffffffffffffffffffffffffffffffffff\n      and\n        /* \"contracts/CrowdFund.sol\":2005:2036  payable(owner).transfer(amount) */\n      0x08fc\n        /* \"contracts/CrowdFund.sol\":2029:2035  amount */\n      dup3\n        /* \"contracts/CrowdFund.sol\":2005:2036  payable(owner).transfer(amount) */\n      swap1\n      dup2\n      iszero\n      mul\n      swap1\n      mload(0x40)\n      0x00\n      mload(0x40)\n      dup1\n      dup4\n      sub\n      dup2\n      dup6\n      dup9\n      dup9\n      call\n      swap4\n      pop\n      pop\n      pop\n      pop\n      iszero\n      dup1\n      iszero\n      tag_89\n      jumpi\n      returndatasize\n      0x00\n      dup1\n      returndatacopy\n      revert(0x00, returndatasize)\n    tag_89:\n      pop\n        /* \"contracts/CrowdFund.sol\":2061:2066  owner */\n      0x00\n      dup1\n      sload\n      swap1\n      0x0100\n      exp\n      swap1\n      div\n      0xffffffffffffffffffffffffffffffffffffffff\n      and\n        /* \"contracts/CrowdFund.sol\":2051:2075  Withdrawn(owner, amount) */\n      0xffffffffffffffffffffffffffffffffffffffff\n      and\n      0x7084f5476618d8e60b11ef0d7d3f06914655adb8793e28ff7f018d4c76d505d5\n        /* \"contracts/CrowdFund.sol\":2068:2074  amount */\n      dup3\n        /* \"contracts/CrowdFund.sol\":2051:2075  Withdrawn(owner, amount) */\n      mload(0x40)\n      tag_90\n      swap2\n      swap1\n      tag_23\n      jump\t// in\n    tag_90:\n      mload(0x40)\n      dup1\n      swap2\n      sub\n      swap1\n      log2\n        /* \"contracts/CrowdFund.sol\":1821:2082  {... */\n      pop\n        /* \"contracts/CrowdFund.sol\":1782:2082  function withdraw() external onlyOwner {... */\n      jump\t// out\n        /* \"contracts/CrowdFund.sol\":108:127  uint256 public goal */\n    tag_29:\n      sload(0x01)\n      dup2\n      jump\t// out\n        /* \"contracts/CrowdFund.sol\":233:281  mapping(address => uint256) public contributions */\n    tag_35:\n      mstore(0x20, 0x05)\n      dup1\n      0x00\n      mstore\n      keccak256(0x00, 0x40)\n      0x00\n      swap2\n      pop\n      swap1\n      pop\n      sload\n      dup2\n      jump\t// out\n        /* \"contracts/CrowdFund.sol\":2141:2512  function refund() external afterDeadline {... */\n    tag_39:\n        /* \"contracts/CrowdFund.sol\":882:890  deadline */\n      sload(0x02)\n        /* \"contracts/CrowdFund.sol\":863:878  block.timestamp */\n      timestamp\n        /* \"contracts/CrowdFund.sol\":863:890  block.timestamp >= deadline */\n      lt\n      iszero\n        /* \"contracts/CrowdFund.sol\":855:915  require(block.timestamp >= deadline, \"Deadline not reached\") */\n      tag_92\n      jumpi\n      mload(0x40)\n      0x08c379a000000000000000000000000000000000000000000000000000000000\n      dup2\n      mstore\n      0x04\n      add\n      tag_93\n      swap1\n      tag_94\n      jump\t// in\n    tag_93:\n      mload(0x40)\n      dup1\n      swap2\n      sub\n      swap1\n      revert\n    tag_92:\n        /* \"contracts/CrowdFund.sol\":2215:2219  goal */\n      sload(0x01)\n        /* \"contracts/CrowdFund.sol\":2200:2212  amountRaised */\n      sload(0x03)\n        /* \"contracts/CrowdFund.sol\":2200:2219  amountRaised < goal */\n      lt\n        /* \"contracts/CrowdFund.sol\":2192:2255  require(amountRaised < goal, \"Goal was reached, cannot refund\") */\n      tag_96\n      jumpi\n      mload(0x40)\n      0x08c379a000000000000000000000000000000000000000000000000000000000\n      dup2\n      mstore\n      0x04\n      add\n      tag_97\n      swap1\n      tag_98\n      jump\t// in\n    tag_97:\n      mload(0x40)\n      dup1\n      swap2\n      sub\n      swap1\n      revert\n    tag_96:\n        /* \"contracts/CrowdFund.sol\":2265:2284  uint256 contributed */\n      0x00\n        /* \"contracts/CrowdFund.sol\":2287:2300  contributions */\n      0x05\n        /* \"contracts/CrowdFund.sol\":2287:2312  contributions[msg.sender] */\n      0x00\n        /* \"contracts/CrowdFund.sol\":2301:2311  msg.sender */\n      caller\n        /* \"contracts/CrowdFund.sol\":2287:2312  contributions[msg.sender] */\n      0xffffffffffffffffffffffffffffffffffffffff\n      and\n      0xffffffffffffffffffffffffffffffffffffffff\n      and\n      dup2\n      mstore\n      0x20\n      add\n      swap1\n      dup2\n      mstore\n      0x20\n      add\n      0x00\n      keccak256\n      sload\n        /* \"contracts/CrowdFund.sol\":2265:2312  uint256 contributed = contributions[msg.sender] */\n      swap1\n      pop\n        /* \"contracts/CrowdFund.sol\":2344:2345  0 */\n      0x00\n        /* \"contracts/CrowdFund.sol\":2330:2341  contributed */\n      dup2\n        /* \"contracts/CrowdFund.sol\":2330:2345  contributed > 0 */\n      gt\n        /* \"contracts/CrowdFund.sol\":2322:2367  require(contributed > 0, \"Nothing to refund\") */\n      tag_99\n      jumpi\n      mload(0x40)\n      0x08c379a000000000000000000000000000000000000000000000000000000000\n      dup2\n      mstore\n      0x04\n      add\n      tag_100\n      swap1\n      tag_101\n      jump\t// in\n    tag_100:\n      mload(0x40)\n      dup1\n      swap2\n      sub\n      swap1\n      revert\n    tag_99:\n        /* \"contracts/CrowdFund.sol\":2405:2406  0 */\n      0x00\n        /* \"contracts/CrowdFund.sol\":2377:2390  contributions */\n      0x05\n        /* \"contracts/CrowdFund.sol\":2377:2402  contributions[msg.sender] */\n      0x00\n        /* \"contracts/CrowdFund.sol\":2391:2401  msg.sender */\n      caller\n        /* \"contracts/CrowdFund.sol\":2377:2402  contributions[msg.sender] */\n      0xffffffffffffffffffffffffffffffffffffffff\n      and\n      0xffffffffffffffffffffffffffffffffffffffff\n      and\n      dup2\n      mstore\n      0x20\n      add\n      swap1\n      dup2\n      mstore\n      0x20\n      add\n      0x00\n      keccak256\n        /* \"contracts/CrowdFund.sol\":2377:2406  contributions[msg.sender] = 0 */\n      dup2\n      swap1\n      sstore\n      pop\n        /* \"contracts/CrowdFund.sol\":2424:2434  msg.sender */\n      caller\n        /* \"contracts/CrowdFund.sol\":2416:2444  payable(msg.sender).transfer */\n      0xffffffffffffffffffffffffffffffffffffffff\n      and\n        /* \"contracts/CrowdFund.sol\":2416:2457  payable(msg.sender).transfer(contributed) */\n      0x08fc\n        /* \"contracts/CrowdFund.sol\":2445:2456  contributed */\n      dup3\n        /* \"contracts/CrowdFund.sol\":2416:2457  payable(msg.sender).transfer(contributed) */\n      swap1\n      dup2\n      iszero\n      mul\n      swap1\n      mload(0x40)\n      0x00\n      mload(0x40)\n      dup1\n      dup4\n      sub\n      dup2\n      dup6\n      dup9\n      dup9\n      call\n      swap4\n      pop\n      pop\n      pop\n      pop\n      iszero\n      dup1\n      iszero\n      tag_103\n      jumpi\n      returndatasize\n      0x00\n      dup1\n      returndatacopy\n      revert(0x00, returndatasize)\n    tag_103:\n      pop\n        /* \"contracts/CrowdFund.sol\":2481:2491  msg.sender */\n      caller\n        /* \"contracts/CrowdFund.sol\":2472:2505  Refunded(msg.sender, contributed) */\n      0xffffffffffffffffffffffffffffffffffffffff\n      and\n      0xd7dee2702d63ad89917b6a4da9981c90c4d24f8c2bdfd64c604ecae57d8d0651\n        /* \"contracts/CrowdFund.sol\":2493:2504  contributed */\n      dup3\n        /* \"contracts/CrowdFund.sol\":2472:2505  Refunded(msg.sender, contributed) */\n      mload(0x40)\n      tag_104\n      swap2\n      swap1\n      tag_23\n      jump\t// in\n    tag_104:\n      mload(0x40)\n      dup1\n      swap2\n      sub\n      swap1\n      log2\n        /* \"contracts/CrowdFund.sol\":2182:2512  {... */\n      pop\n        /* \"contracts/CrowdFund.sol\":2141:2512  function refund() external afterDeadline {... */\n      jump\t// out\n        /* \"contracts/CrowdFund.sol\":162:189  uint256 public amountRaised */\n    tag_42:\n      sload(0x03)\n      dup2\n      jump\t// out\n        /* \"contracts/CrowdFund.sol\":287:310  bool public goalReached */\n    tag_46:\n      0x06\n      0x00\n      swap1\n      sload\n      swap1\n      0x0100\n      exp\n      swap1\n      div\n      0xff\n      and\n      dup2\n      jump\t// out\n        /* \"contracts/CrowdFund.sol\":82:102  address public owner */\n    tag_51:\n      0x00\n      dup1\n      sload\n      swap1\n      0x0100\n      exp\n      swap1\n      div\n      0xffffffffffffffffffffffffffffffffffffffff\n      and\n      dup2\n      jump\t// out\n        /* \"contracts/CrowdFund.sol\":1624:1716  function checkBalance() external view returns (uint256) {... */\n    tag_56:\n        /* \"contracts/CrowdFund.sol\":1671:1678  uint256 */\n      0x00\n        /* \"contracts/CrowdFund.sol\":1697:1709  amountRaised */\n      sload(0x03)\n        /* \"contracts/CrowdFund.sol\":1690:1709  return amountRaised */\n      swap1\n      pop\n        /* \"contracts/CrowdFund.sol\":1624:1716  function checkBalance() external view returns (uint256) {... */\n      swap1\n      jump\t// out\n        /* \"contracts/CrowdFund.sol\":3070:3269  function getTimeLeft() public view returns (uint256) {... */\n    tag_60:\n        /* \"contracts/CrowdFund.sol\":3114:3121  uint256 */\n      0x00\n        /* \"contracts/CrowdFund.sol\":3156:3164  deadline */\n      sload(0x02)\n        /* \"contracts/CrowdFund.sol\":3137:3152  block.timestamp */\n      timestamp\n        /* \"contracts/CrowdFund.sol\":3137:3164  block.timestamp >= deadline */\n      lt\n        /* \"contracts/CrowdFund.sol\":3133:3263  if (block.timestamp >= deadline) {... */\n      tag_107\n      jumpi\n        /* \"contracts/CrowdFund.sol\":3187:3188  0 */\n      0x00\n        /* \"contracts/CrowdFund.sol\":3180:3188  return 0 */\n      swap1\n      pop\n      jump(tag_106)\n        /* \"contracts/CrowdFund.sol\":3133:3263  if (block.timestamp >= deadline) {... */\n    tag_107:\n        /* \"contracts/CrowdFund.sol\":3237:3252  block.timestamp */\n      timestamp\n        /* \"contracts/CrowdFund.sol\":3226:3234  deadline */\n      sload(0x02)\n        /* \"contracts/CrowdFund.sol\":3226:3252  deadline - block.timestamp */\n      tag_109\n      swap2\n      swap1\n      tag_110\n      jump\t// in\n    tag_109:\n        /* \"contracts/CrowdFund.sol\":3219:3252  return deadline - block.timestamp */\n      swap1\n      pop\n        /* \"contracts/CrowdFund.sol\":3070:3269  function getTimeLeft() public view returns (uint256) {... */\n    tag_106:\n      swap1\n      jump\t// out\n        /* \"contracts/CrowdFund.sol\":316:337  bool public withdrawn */\n    tag_64:\n      0x06\n      0x01\n      swap1\n      sload\n      swap1\n      0x0100\n      exp\n      swap1\n      div\n      0xff\n      and\n      dup2\n      jump\t// out\n        /* \"contracts/CrowdFund.sol\":1145:1595  function contribute() external payable beforeDeadline {... */\n    tag_67:\n        /* \"contracts/CrowdFund.sol\":764:772  deadline */\n      sload(0x02)\n        /* \"contracts/CrowdFund.sol\":746:761  block.timestamp */\n      timestamp\n        /* \"contracts/CrowdFund.sol\":746:772  block.timestamp < deadline */\n      lt\n        /* \"contracts/CrowdFund.sol\":738:796  require(block.timestamp < deadline, \"Deadline has passed\") */\n      tag_112\n      jumpi\n      mload(0x40)\n      0x08c379a000000000000000000000000000000000000000000000000000000000\n      dup2\n      mstore\n      0x04\n      add\n      tag_113\n      swap1\n      tag_114\n      jump\t// in\n    tag_113:\n      mload(0x40)\n      dup1\n      swap2\n      sub\n      swap1\n      revert\n    tag_112:\n        /* \"contracts/CrowdFund.sol\":1229:1230  0 */\n      0x00\n        /* \"contracts/CrowdFund.sol\":1217:1226  msg.value */\n      callvalue\n        /* \"contracts/CrowdFund.sol\":1217:1230  msg.value > 0 */\n      gt\n        /* \"contracts/CrowdFund.sol\":1209:1250  require(msg.value > 0, \"Must send Ether\") */\n      tag_116\n      jumpi\n      mload(0x40)\n      0x08c379a000000000000000000000000000000000000000000000000000000000\n      dup2\n      mstore\n      0x04\n      add\n      tag_117\n      swap1\n      tag_118\n      jump\t// in\n    tag_117:\n      mload(0x40)\n      dup1\n      swap2\n      sub\n      swap1\n      revert\n    tag_116:\n        /* \"contracts/CrowdFund.sol\":1293:1294  0 */\n      0x00\n        /* \"contracts/CrowdFund.sol\":1264:1277  contributions */\n      0x05\n        /* \"contracts/CrowdFund.sol\":1264:1289  contributions[msg.sender] */\n      0x00\n        /* \"contracts/CrowdFund.sol\":1278:1288  msg.sender */\n      caller\n        /* \"contracts/CrowdFund.sol\":1264:1289  contributions[msg.sender] */\n      0xffffffffffffffffffffffffffffffffffffffff\n      and\n      0xffffffffffffffffffffffffffffffffffffffff\n      and\n      dup2\n      mstore\n      0x20\n      add\n      swap1\n      dup2\n      mstore\n      0x20\n      add\n      0x00\n      keccak256\n      sload\n        /* \"contracts/CrowdFund.sol\":1264:1294  contributions[msg.sender] == 0 */\n      sub\n        /* \"contracts/CrowdFund.sol\":1260:1317  if (contributions[msg.sender] == 0) contributorCount += 1 */\n      tag_119\n      jumpi\n        /* \"contracts/CrowdFund.sol\":1316:1317  1 */\n      0x01\n        /* \"contracts/CrowdFund.sol\":1296:1312  contributorCount */\n      0x04\n      0x00\n        /* \"contracts/CrowdFund.sol\":1296:1317  contributorCount += 1 */\n      dup3\n      dup3\n      sload\n      tag_120\n      swap2\n      swap1\n      tag_121\n      jump\t// in\n    tag_120:\n      swap3\n      pop\n      pop\n      dup2\n      swap1\n      sstore\n      pop\n        /* \"contracts/CrowdFund.sol\":1260:1317  if (contributions[msg.sender] == 0) contributorCount += 1 */\n    tag_119:\n        /* \"contracts/CrowdFund.sol\":1356:1365  msg.value */\n      callvalue\n        /* \"contracts/CrowdFund.sol\":1327:1340  contributions */\n      0x05\n        /* \"contracts/CrowdFund.sol\":1327:1352  contributions[msg.sender] */\n      0x00\n        /* \"contracts/CrowdFund.sol\":1341:1351  msg.sender */\n      caller\n        /* \"contracts/CrowdFund.sol\":1327:1352  contributions[msg.sender] */\n      0xffffffffffffffffffffffffffffffffffffffff\n      and\n      0xffffffffffffffffffffffffffffffffffffffff\n      and\n      dup2\n      mstore\n      0x20\n      add\n      swap1\n      dup2\n      mstore\n      0x20\n      add\n      0x00\n      keccak256\n      0x00\n        /* \"contracts/CrowdFund.sol\":1327:1365  contributions[msg.sender] += msg.value */\n      dup3\n      dup3\n      sload\n      tag_122\n      swap2\n      swap1\n      tag_121\n      jump\t// in\n    tag_122:\n      swap3\n      pop\n      pop\n      dup2\n      swap1\n      sstore\n      pop\n        /* \"contracts/CrowdFund.sol\":1391:1400  msg.value */\n      callvalue\n        /* \"contracts/CrowdFund.sol\":1375:1387  amountRaised */\n      0x03\n      0x00\n        /* \"contracts/CrowdFund.sol\":1375:1400  amountRaised += msg.value */\n      dup3\n      dup3\n      sload\n      tag_123\n      swap2\n      swap1\n      tag_121\n      jump\t// in\n    tag_123:\n      swap3\n      pop\n      pop\n      dup2\n      swap1\n      sstore\n      pop\n        /* \"contracts/CrowdFund.sol\":1428:1438  msg.sender */\n      caller\n        /* \"contracts/CrowdFund.sol\":1415:1450  FundReceived(msg.sender, msg.value) */\n      0xffffffffffffffffffffffffffffffffffffffff\n      and\n      0x54a5b8782470a0d2c022b3b9e5e729503ac5dbdfe053afeb4559f9297f7565a6\n        /* \"contracts/CrowdFund.sol\":1440:1449  msg.value */\n      callvalue\n        /* \"contracts/CrowdFund.sol\":1415:1450  FundReceived(msg.sender, msg.value) */\n      mload(0x40)\n      tag_124\n      swap2\n      swap1\n      tag_23\n      jump\t// in\n    tag_124:\n      mload(0x40)\n      dup1\n      swap2\n      sub\n      swap1\n      log2\n        /* \"contracts/CrowdFund.sol\":1480:1484  goal */\n      sload(0x01)\n        /* \"contracts/CrowdFund.sol\":1464:1476  amountRaised */\n      sload(0x03)\n        /* \"contracts/CrowdFund.sol\":1464:1484  amountRaised >= goal */\n      lt\n      iszero\n        /* \"contracts/CrowdFund.sol\":1464:1500  amountRaised >= goal && !goalReached */\n      dup1\n      iszero\n      tag_125\n      jumpi\n      pop\n        /* \"contracts/CrowdFund.sol\":1489:1500  goalReached */\n      0x06\n      0x00\n      swap1\n      sload\n      swap1\n      0x0100\n      exp\n      swap1\n      div\n      0xff\n      and\n        /* \"contracts/CrowdFund.sol\":1488:1500  !goalReached */\n      iszero\n        /* \"contracts/CrowdFund.sol\":1464:1500  amountRaised >= goal && !goalReached */\n    tag_125:\n        /* \"contracts/CrowdFund.sol\":1460:1589  if (amountRaised >= goal && !goalReached) {... */\n      iszero\n      tag_126\n      jumpi\n        /* \"contracts/CrowdFund.sol\":1530:1534  true */\n      0x01\n        /* \"contracts/CrowdFund.sol\":1516:1527  goalReached */\n      0x06\n      0x00\n        /* \"contracts/CrowdFund.sol\":1516:1534  goalReached = true */\n      0x0100\n      exp\n      dup2\n      sload\n      dup2\n      0xff\n      mul\n      not\n      and\n      swap1\n      dup4\n      iszero\n      iszero\n      mul\n      or\n      swap1\n      sstore\n      pop\n        /* \"contracts/CrowdFund.sol\":1553:1578  GoalReached(amountRaised) */\n      0xfbfd8ab7c24300fa9888cd721c8565a7da56759384781283684dcf7c7c4a846b\n        /* \"contracts/CrowdFund.sol\":1565:1577  amountRaised */\n      sload(0x03)\n        /* \"contracts/CrowdFund.sol\":1553:1578  GoalReached(amountRaised) */\n      mload(0x40)\n      tag_127\n      swap2\n      swap1\n      tag_23\n      jump\t// in\n    tag_127:\n      mload(0x40)\n      dup1\n      swap2\n      sub\n      swap1\n      log1\n        /* \"contracts/CrowdFund.sol\":1460:1589  if (amountRaised >= goal && !goalReached) {... */\n    tag_126:\n        /* \"contracts/CrowdFund.sol\":1145:1595  function contribute() external payable beforeDeadline {... */\n      jump\t// out\n        /* \"contracts/CrowdFund.sol\":195:226  uint256 public contributorCount */\n    tag_70:\n      sload(0x04)\n      dup2\n      jump\t// out\n        /* \"contracts/CrowdFund.sol\":2549:2997  function getDetails()... */\n    tag_74:\n        /* \"contracts/CrowdFund.sol\":2631:2644  uint256 _goal */\n      0x00\n        /* \"contracts/CrowdFund.sol\":2658:2675  uint256 _deadline */\n      dup1\n        /* \"contracts/CrowdFund.sol\":2689:2710  uint256 _amountRaised */\n      0x00\n        /* \"contracts/CrowdFund.sol\":2724:2749  uint256 _contributorCount */\n      dup1\n        /* \"contracts/CrowdFund.sol\":2763:2777  address _owner */\n      0x00\n        /* \"contracts/CrowdFund.sol\":2791:2808  bool _goalReached */\n      dup1\n        /* \"contracts/CrowdFund.sol\":2854:2858  goal */\n      sload(0x01)\n        /* \"contracts/CrowdFund.sol\":2872:2880  deadline */\n      sload(0x02)\n        /* \"contracts/CrowdFund.sol\":2894:2906  amountRaised */\n      sload(0x03)\n        /* \"contracts/CrowdFund.sol\":2920:2936  contributorCount */\n      sload(0x04)\n        /* \"contracts/CrowdFund.sol\":2950:2955  owner */\n      0x00\n      dup1\n      sload\n      swap1\n      0x0100\n      exp\n      swap1\n      div\n      0xffffffffffffffffffffffffffffffffffffffff\n      and\n        /* \"contracts/CrowdFund.sol\":2969:2980  goalReached */\n      0x06\n      0x00\n      swap1\n      sload\n      swap1\n      0x0100\n      exp\n      swap1\n      div\n      0xff\n      and\n        /* \"contracts/CrowdFund.sol\":2833:2990  return (... */\n      swap6\n      pop\n      swap6\n      pop\n      swap6\n      pop\n      swap6\n      pop\n      swap6\n      pop\n      swap6\n      pop\n        /* \"contracts/CrowdFund.sol\":2549:2997  function getDetails()... */\n      swap1\n      swap2\n      swap3\n      swap4\n      swap5\n      swap6\n      jump\t// out\n        /* \"#utility.yul\":7:84   */\n    tag_129:\n        /* \"#utility.yul\":44:51   */\n      0x00\n        /* \"#utility.yul\":73:78   */\n      dup2\n        /* \"#utility.yul\":62:78   */\n      swap1\n      pop\n        /* \"#utility.yul\":7:84   */\n      swap2\n      swap1\n      pop\n      jump\t// out\n        /* \"#utility.yul\":90:208   */\n    tag_130:\n        /* \"#utility.yul\":177:201   */\n      tag_162\n        /* \"#utility.yul\":195:200   */\n      dup2\n        /* \"#utility.yul\":177:201   */\n      tag_129\n      jump\t// in\n    tag_162:\n        /* \"#utility.yul\":172:175   */\n      dup3\n        /* \"#utility.yul\":165:202   */\n      mstore\n        /* \"#utility.yul\":90:208   */\n      pop\n      pop\n      jump\t// out\n        /* \"#utility.yul\":214:436   */\n    tag_23:\n        /* \"#utility.yul\":307:311   */\n      0x00\n        /* \"#utility.yul\":345:347   */\n      0x20\n        /* \"#utility.yul\":334:343   */\n      dup3\n        /* \"#utility.yul\":330:348   */\n      add\n        /* \"#utility.yul\":322:348   */\n      swap1\n      pop\n        /* \"#utility.yul\":358:429   */\n      tag_164\n        /* \"#utility.yul\":426:427   */\n      0x00\n        /* \"#utility.yul\":415:424   */\n      dup4\n        /* \"#utility.yul\":411:428   */\n      add\n        /* \"#utility.yul\":402:408   */\n      dup5\n        /* \"#utility.yul\":358:429   */\n      tag_130\n      jump\t// in\n    tag_164:\n        /* \"#utility.yul\":214:436   */\n      swap3\n      swap2\n      pop\n      pop\n      jump\t// out\n        /* \"#utility.yul\":523:640   */\n    tag_132:\n        /* \"#utility.yul\":632:633   */\n      0x00\n        /* \"#utility.yul\":629:630   */\n      dup1\n        /* \"#utility.yul\":622:634   */\n      revert\n        /* \"#utility.yul\":769:895   */\n    tag_134:\n        /* \"#utility.yul\":806:813   */\n      0x00\n        /* \"#utility.yul\":846:888   */\n      0xffffffffffffffffffffffffffffffffffffffff\n        /* \"#utility.yul\":839:844   */\n      dup3\n        /* \"#utility.yul\":835:889   */\n      and\n        /* \"#utility.yul\":824:889   */\n      swap1\n      pop\n        /* \"#utility.yul\":769:895   */\n      swap2\n      swap1\n      pop\n      jump\t// out\n        /* \"#utility.yul\":901:997   */\n    tag_135:\n        /* \"#utility.yul\":938:945   */\n      0x00\n        /* \"#utility.yul\":967:991   */\n      tag_170\n        /* \"#utility.yul\":985:990   */\n      dup3\n        /* \"#utility.yul\":967:991   */\n      tag_134\n      jump\t// in\n    tag_170:\n        /* \"#utility.yul\":956:991   */\n      swap1\n      pop\n        /* \"#utility.yul\":901:997   */\n      swap2\n      swap1\n      pop\n      jump\t// out\n        /* \"#utility.yul\":1003:1125   */\n    tag_136:\n        /* \"#utility.yul\":1076:1100   */\n      tag_172\n        /* \"#utility.yul\":1094:1099   */\n      dup2\n        /* \"#utility.yul\":1076:1100   */\n      tag_135\n      jump\t// in\n    tag_172:\n        /* \"#utility.yul\":1069:1074   */\n      dup2\n        /* \"#utility.yul\":1066:1101   */\n      eq\n        /* \"#utility.yul\":1056:1119   */\n      tag_173\n      jumpi\n        /* \"#utility.yul\":1115:1116   */\n      0x00\n        /* \"#utility.yul\":1112:1113   */\n      dup1\n        /* \"#utility.yul\":1105:1117   */\n      revert\n        /* \"#utility.yul\":1056:1119   */\n    tag_173:\n        /* \"#utility.yul\":1003:1125   */\n      pop\n      jump\t// out\n        /* \"#utility.yul\":1131:1270   */\n    tag_137:\n        /* \"#utility.yul\":1177:1182   */\n      0x00\n        /* \"#utility.yul\":1215:1221   */\n      dup2\n        /* \"#utility.yul\":1202:1222   */\n      calldataload\n        /* \"#utility.yul\":1193:1222   */\n      swap1\n      pop\n        /* \"#utility.yul\":1231:1264   */\n      tag_175\n        /* \"#utility.yul\":1258:1263   */\n      dup2\n        /* \"#utility.yul\":1231:1264   */\n      tag_136\n      jump\t// in\n    tag_175:\n        /* \"#utility.yul\":1131:1270   */\n      swap3\n      swap2\n      pop\n      pop\n      jump\t// out\n        /* \"#utility.yul\":1276:1605   */\n    tag_34:\n        /* \"#utility.yul\":1335:1341   */\n      0x00\n        /* \"#utility.yul\":1384:1386   */\n      0x20\n        /* \"#utility.yul\":1372:1381   */\n      dup3\n        /* \"#utility.yul\":1363:1370   */\n      dup5\n        /* \"#utility.yul\":1359:1382   */\n      sub\n        /* \"#utility.yul\":1355:1387   */\n      slt\n        /* \"#utility.yul\":1352:1471   */\n      iszero\n      tag_177\n      jumpi\n        /* \"#utility.yul\":1390:1469   */\n      tag_178\n      tag_132\n      jump\t// in\n    tag_178:\n        /* \"#utility.yul\":1352:1471   */\n    tag_177:\n        /* \"#utility.yul\":1510:1511   */\n      0x00\n        /* \"#utility.yul\":1535:1588   */\n      tag_179\n        /* \"#utility.yul\":1580:1587   */\n      dup5\n        /* \"#utility.yul\":1571:1577   */\n      dup3\n        /* \"#utility.yul\":1560:1569   */\n      dup6\n        /* \"#utility.yul\":1556:1578   */\n      add\n        /* \"#utility.yul\":1535:1588   */\n      tag_137\n      jump\t// in\n    tag_179:\n        /* \"#utility.yul\":1525:1588   */\n      swap2\n      pop\n        /* \"#utility.yul\":1481:1598   */\n      pop\n        /* \"#utility.yul\":1276:1605   */\n      swap3\n      swap2\n      pop\n      pop\n      jump\t// out\n        /* \"#utility.yul\":1611:1701   */\n    tag_138:\n        /* \"#utility.yul\":1645:1652   */\n      0x00\n        /* \"#utility.yul\":1688:1693   */\n      dup2\n        /* \"#utility.yul\":1681:1694   */\n      iszero\n        /* \"#utility.yul\":1674:1695   */\n      iszero\n        /* \"#utility.yul\":1663:1695   */\n      swap1\n      pop\n        /* \"#utility.yul\":1611:1701   */\n      swap2\n      swap1\n      pop\n      jump\t// out\n        /* \"#utility.yul\":1707:1816   */\n    tag_139:\n        /* \"#utility.yul\":1788:1809   */\n      tag_182\n        /* \"#utility.yul\":1803:1808   */\n      dup2\n        /* \"#utility.yul\":1788:1809   */\n      tag_138\n      jump\t// in\n    tag_182:\n        /* \"#utility.yul\":1783:1786   */\n      dup3\n        /* \"#utility.yul\":1776:1810   */\n      mstore\n        /* \"#utility.yul\":1707:1816   */\n      pop\n      pop\n      jump\t// out\n        /* \"#utility.yul\":1822:2032   */\n    tag_48:\n        /* \"#utility.yul\":1909:1913   */\n      0x00\n        /* \"#utility.yul\":1947:1949   */\n      0x20\n        /* \"#utility.yul\":1936:1945   */\n      dup3\n        /* \"#utility.yul\":1932:1950   */\n      add\n        /* \"#utility.yul\":1924:1950   */\n      swap1\n      pop\n        /* \"#utility.yul\":1960:2025   */\n      tag_184\n        /* \"#utility.yul\":2022:2023   */\n      0x00\n        /* \"#utility.yul\":2011:2020   */\n      dup4\n        /* \"#utility.yul\":2007:2024   */\n      add\n        /* \"#utility.yul\":1998:2004   */\n      dup5\n        /* \"#utility.yul\":1960:2025   */\n      tag_139\n      jump\t// in\n    tag_184:\n        /* \"#utility.yul\":1822:2032   */\n      swap3\n      swap2\n      pop\n      pop\n      jump\t// out\n        /* \"#utility.yul\":2038:2156   */\n    tag_140:\n        /* \"#utility.yul\":2125:2149   */\n      tag_186\n        /* \"#utility.yul\":2143:2148   */\n      dup2\n        /* \"#utility.yul\":2125:2149   */\n      tag_135\n      jump\t// in\n    tag_186:\n        /* \"#utility.yul\":2120:2123   */\n      dup3\n        /* \"#utility.yul\":2113:2150   */\n      mstore\n        /* \"#utility.yul\":2038:2156   */\n      pop\n      pop\n      jump\t// out\n        /* \"#utility.yul\":2162:2384   */\n    tag_53:\n        /* \"#utility.yul\":2255:2259   */\n      0x00\n        /* \"#utility.yul\":2293:2295   */\n      0x20\n        /* \"#utility.yul\":2282:2291   */\n      dup3\n        /* \"#utility.yul\":2278:2296   */\n      add\n        /* \"#utility.yul\":2270:2296   */\n      swap1\n      pop\n        /* \"#utility.yul\":2306:2377   */\n      tag_188\n        /* \"#utility.yul\":2374:2375   */\n      0x00\n        /* \"#utility.yul\":2363:2372   */\n      dup4\n        /* \"#utility.yul\":2359:2376   */\n      add\n        /* \"#utility.yul\":2350:2356   */\n      dup5\n        /* \"#utility.yul\":2306:2377   */\n      tag_140\n      jump\t// in\n    tag_188:\n        /* \"#utility.yul\":2162:2384   */\n      swap3\n      swap2\n      pop\n      pop\n      jump\t// out\n        /* \"#utility.yul\":2390:3153   */\n    tag_76:\n        /* \"#utility.yul\":2617:2621   */\n      0x00\n        /* \"#utility.yul\":2655:2658   */\n      0xc0\n        /* \"#utility.yul\":2644:2653   */\n      dup3\n        /* \"#utility.yul\":2640:2659   */\n      add\n        /* \"#utility.yul\":2632:2659   */\n      swap1\n      pop\n        /* \"#utility.yul\":2669:2740   */\n      tag_190\n        /* \"#utility.yul\":2737:2738   */\n      0x00\n        /* \"#utility.yul\":2726:2735   */\n      dup4\n        /* \"#utility.yul\":2722:2739   */\n      add\n        /* \"#utility.yul\":2713:2719   */\n      dup10\n        /* \"#utility.yul\":2669:2740   */\n      tag_130\n      jump\t// in\n    tag_190:\n        /* \"#utility.yul\":2750:2822   */\n      tag_191\n        /* \"#utility.yul\":2818:2820   */\n      0x20\n        /* \"#utility.yul\":2807:2816   */\n      dup4\n        /* \"#utility.yul\":2803:2821   */\n      add\n        /* \"#utility.yul\":2794:2800   */\n      dup9\n        /* \"#utility.yul\":2750:2822   */\n      tag_130\n      jump\t// in\n    tag_191:\n        /* \"#utility.yul\":2832:2904   */\n      tag_192\n        /* \"#utility.yul\":2900:2902   */\n      0x40\n        /* \"#utility.yul\":2889:2898   */\n      dup4\n        /* \"#utility.yul\":2885:2903   */\n      add\n        /* \"#utility.yul\":2876:2882   */\n      dup8\n        /* \"#utility.yul\":2832:2904   */\n      tag_130\n      jump\t// in\n    tag_192:\n        /* \"#utility.yul\":2914:2986   */\n      tag_193\n        /* \"#utility.yul\":2982:2984   */\n      0x60\n        /* \"#utility.yul\":2971:2980   */\n      dup4\n        /* \"#utility.yul\":2967:2985   */\n      add\n        /* \"#utility.yul\":2958:2964   */\n      dup7\n        /* \"#utility.yul\":2914:2986   */\n      tag_130\n      jump\t// in\n    tag_193:\n        /* \"#utility.yul\":2996:3069   */\n      tag_194\n        /* \"#utility.yul\":3064:3067   */\n      0x80\n        /* \"#utility.yul\":3053:3062   */\n      dup4\n        /* \"#utility.yul\":3049:3068   */\n      add\n        /* \"#utility.yul\":3040:3046   */\n      dup6\n        /* \"#utility.yul\":2996:3069   */\n      tag_140\n      jump\t// in\n    tag_194:\n        /* \"#utility.yul\":3079:3146   */\n      tag_195\n        /* \"#utility.yul\":3141:3144   */\n      0xa0\n        /* \"#utility.yul\":3130:3139   */\n      dup4\n        /* \"#utility.yul\":3126:3145   */\n      add\n        /* \"#utility.yul\":3117:3123   */\n      dup5\n        /* \"#utility.yul\":3079:3146   */\n      tag_139\n      jump\t// in\n    tag_195:\n        /* \"#utility.yul\":2390:3153   */\n      swap8\n      swap7\n      pop\n      pop\n      pop\n      pop\n      pop\n      pop\n      pop\n      jump\t// out\n        /* \"#utility.yul\":3159:3328   */\n    tag_141:\n        /* \"#utility.yul\":3243:3254   */\n      0x00\n        /* \"#utility.yul\":3277:3283   */\n      dup3\n        /* \"#utility.yul\":3272:3275   */\n      dup3\n        /* \"#utility.yul\":3265:3284   */\n      mstore\n        /* \"#utility.yul\":3317:3321   */\n      0x20\n        /* \"#utility.yul\":3312:3315   */\n      dup3\n        /* \"#utility.yul\":3308:3322   */\n      add\n        /* \"#utility.yul\":3293:3322   */\n      swap1\n      pop\n        /* \"#utility.yul\":3159:3328   */\n      swap3\n      swap2\n      pop\n      pop\n      jump\t// out\n        /* \"#utility.yul\":3334:3502   */\n    tag_142:\n        /* \"#utility.yul\":3474:3494   */\n      0x4e6f7420636f6e7472616374206f776e65720000000000000000000000000000\n        /* \"#utility.yul\":3470:3471   */\n      0x00\n        /* \"#utility.yul\":3462:3468   */\n      dup3\n        /* \"#utility.yul\":3458:3472   */\n      add\n        /* \"#utility.yul\":3451:3495   */\n      mstore\n        /* \"#utility.yul\":3334:3502   */\n      pop\n      jump\t// out\n        /* \"#utility.yul\":3508:3874   */\n    tag_143:\n        /* \"#utility.yul\":3650:3653   */\n      0x00\n        /* \"#utility.yul\":3671:3738   */\n      tag_199\n        /* \"#utility.yul\":3735:3737   */\n      0x12\n        /* \"#utility.yul\":3730:3733   */\n      dup4\n        /* \"#utility.yul\":3671:3738   */\n      tag_141\n      jump\t// in\n    tag_199:\n        /* \"#utility.yul\":3664:3738   */\n      swap2\n      pop\n        /* \"#utility.yul\":3747:3840   */\n      tag_200\n        /* \"#utility.yul\":3836:3839   */\n      dup3\n        /* \"#utility.yul\":3747:3840   */\n      tag_142\n      jump\t// in\n    tag_200:\n        /* \"#utility.yul\":3865:3867   */\n      0x20\n        /* \"#utility.yul\":3860:3863   */\n      dup3\n        /* \"#utility.yul\":3856:3868   */\n      add\n        /* \"#utility.yul\":3849:3868   */\n      swap1\n      pop\n        /* \"#utility.yul\":3508:3874   */\n      swap2\n      swap1\n      pop\n      jump\t// out\n        /* \"#utility.yul\":3880:4299   */\n    tag_80:\n        /* \"#utility.yul\":4046:4050   */\n      0x00\n        /* \"#utility.yul\":4084:4086   */\n      0x20\n        /* \"#utility.yul\":4073:4082   */\n      dup3\n        /* \"#utility.yul\":4069:4087   */\n      add\n        /* \"#utility.yul\":4061:4087   */\n      swap1\n      pop\n        /* \"#utility.yul\":4133:4142   */\n      dup2\n        /* \"#utility.yul\":4127:4131   */\n      dup2\n        /* \"#utility.yul\":4123:4143   */\n      sub\n        /* \"#utility.yul\":4119:4120   */\n      0x00\n        /* \"#utility.yul\":4108:4117   */\n      dup4\n        /* \"#utility.yul\":4104:4121   */\n      add\n        /* \"#utility.yul\":4097:4144   */\n      mstore\n        /* \"#utility.yul\":4161:4292   */\n      tag_202\n        /* \"#utility.yul\":4287:4291   */\n      dup2\n        /* \"#utility.yul\":4161:4292   */\n      tag_143\n      jump\t// in\n    tag_202:\n        /* \"#utility.yul\":4153:4292   */\n      swap1\n      pop\n        /* \"#utility.yul\":3880:4299   */\n      swap2\n      swap1\n      pop\n      jump\t// out\n        /* \"#utility.yul\":4305:4471   */\n    tag_144:\n        /* \"#utility.yul\":4445:4463   */\n      0x476f616c206e6f74207265616368656400000000000000000000000000000000\n        /* \"#utility.yul\":4441:4442   */\n      0x00\n        /* \"#utility.yul\":4433:4439   */\n      dup3\n        /* \"#utility.yul\":4429:4443   */\n      add\n        /* \"#utility.yul\":4422:4464   */\n      mstore\n        /* \"#utility.yul\":4305:4471   */\n      pop\n      jump\t// out\n        /* \"#utility.yul\":4477:4843   */\n    tag_145:\n        /* \"#utility.yul\":4619:4622   */\n      0x00\n        /* \"#utility.yul\":4640:4707   */\n      tag_205\n        /* \"#utility.yul\":4704:4706   */\n      0x10\n        /* \"#utility.yul\":4699:4702   */\n      dup4\n        /* \"#utility.yul\":4640:4707   */\n      tag_141\n      jump\t// in\n    tag_205:\n        /* \"#utility.yul\":4633:4707   */\n      swap2\n      pop\n        /* \"#utility.yul\":4716:4809   */\n      tag_206\n        /* \"#utility.yul\":4805:4808   */\n      dup3\n        /* \"#utility.yul\":4716:4809   */\n      tag_144\n      jump\t// in\n    tag_206:\n        /* \"#utility.yul\":4834:4836   */\n      0x20\n        /* \"#utility.yul\":4829:4832   */\n      dup3\n        /* \"#utility.yul\":4825:4837   */\n      add\n        /* \"#utility.yul\":4818:4837   */\n      swap1\n      pop\n        /* \"#utility.yul\":4477:4843   */\n      swap2\n      swap1\n      pop\n      jump\t// out\n        /* \"#utility.yul\":4849:5268   */\n    tag_84:\n        /* \"#utility.yul\":5015:5019   */\n      0x00\n        /* \"#utility.yul\":5053:5055   */\n      0x20\n        /* \"#utility.yul\":5042:5051   */\n      dup3\n        /* \"#utility.yul\":5038:5056   */\n      add\n        /* \"#utility.yul\":5030:5056   */\n      swap1\n      pop\n        /* \"#utility.yul\":5102:5111   */\n      dup2\n        /* \"#utility.yul\":5096:5100   */\n      dup2\n        /* \"#utility.yul\":5092:5112   */\n      sub\n        /* \"#utility.yul\":5088:5089   */\n      0x00\n        /* \"#utility.yul\":5077:5086   */\n      dup4\n        /* \"#utility.yul\":5073:5090   */\n      add\n        /* \"#utility.yul\":5066:5113   */\n      mstore\n        /* \"#utility.yul\":5130:5261   */\n      tag_208\n        /* \"#utility.yul\":5256:5260   */\n      dup2\n        /* \"#utility.yul\":5130:5261   */\n      tag_145\n      jump\t// in\n    tag_208:\n        /* \"#utility.yul\":5122:5261   */\n      swap1\n      pop\n        /* \"#utility.yul\":4849:5268   */\n      swap2\n      swap1\n      pop\n      jump\t// out\n        /* \"#utility.yul\":5274:5441   */\n    tag_146:\n        /* \"#utility.yul\":5414:5433   */\n      0x416c72656164792077697468647261776e000000000000000000000000000000\n        /* \"#utility.yul\":5410:5411   */\n      0x00\n        /* \"#utility.yul\":5402:5408   */\n      dup3\n        /* \"#utility.yul\":5398:5412   */\n      add\n        /* \"#utility.yul\":5391:5434   */\n      mstore\n        /* \"#utility.yul\":5274:5441   */\n      pop\n      jump\t// out\n        /* \"#utility.yul\":5447:5813   */\n    tag_147:\n        /* \"#utility.yul\":5589:5592   */\n      0x00\n        /* \"#utility.yul\":5610:5677   */\n      tag_211\n        /* \"#utility.yul\":5674:5676   */\n      0x11\n        /* \"#utility.yul\":5669:5672   */\n      dup4\n        /* \"#utility.yul\":5610:5677   */\n      tag_141\n      jump\t// in\n    tag_211:\n        /* \"#utility.yul\":5603:5677   */\n      swap2\n      pop\n        /* \"#utility.yul\":5686:5779   */\n      tag_212\n        /* \"#utility.yul\":5775:5778   */\n      dup3\n        /* \"#utility.yul\":5686:5779   */\n      tag_146\n      jump\t// in\n    tag_212:\n        /* \"#utility.yul\":5804:5806   */\n      0x20\n        /* \"#utility.yul\":5799:5802   */\n      dup3\n        /* \"#utility.yul\":5795:5807   */\n      add\n        /* \"#utility.yul\":5788:5807   */\n      swap1\n      pop\n        /* \"#utility.yul\":5447:5813   */\n      swap2\n      swap1\n      pop\n      jump\t// out\n        /* \"#utility.yul\":5819:6238   */\n    tag_87:\n        /* \"#utility.yul\":5985:5989   */\n      0x00\n        /* \"#utility.yul\":6023:6025   */\n      0x20\n        /* \"#utility.yul\":6012:6021   */\n      dup3\n        /* \"#utility.yul\":6008:6026   */\n      add\n        /* \"#utility.yul\":6000:6026   */\n      swap1\n      pop\n        /* \"#utility.yul\":6072:6081   */\n      dup2\n        /* \"#utility.yul\":6066:6070   */\n      dup2\n        /* \"#utility.yul\":6062:6082   */\n      sub\n        /* \"#utility.yul\":6058:6059   */\n      0x00\n        /* \"#utility.yul\":6047:6056   */\n      dup4\n        /* \"#utility.yul\":6043:6060   */\n      add\n        /* \"#utility.yul\":6036:6083   */\n      mstore\n        /* \"#utility.yul\":6100:6231   */\n      tag_214\n        /* \"#utility.yul\":6226:6230   */\n      dup2\n        /* \"#utility.yul\":6100:6231   */\n      tag_147\n      jump\t// in\n    tag_214:\n        /* \"#utility.yul\":6092:6231   */\n      swap1\n      pop\n        /* \"#utility.yul\":5819:6238   */\n      swap2\n      swap1\n      pop\n      jump\t// out\n        /* \"#utility.yul\":6244:6414   */\n    tag_148:\n        /* \"#utility.yul\":6384:6406   */\n      0x446561646c696e65206e6f742072656163686564000000000000000000000000\n        /* \"#utility.yul\":6380:6381   */\n      0x00\n        /* \"#utility.yul\":6372:6378   */\n      dup3\n        /* \"#utility.yul\":6368:6382   */\n      add\n        /* \"#utility.yul\":6361:6407   */\n      mstore\n        /* \"#utility.yul\":6244:6414   */\n      pop\n      jump\t// out\n        /* \"#utility.yul\":6420:6786   */\n    tag_149:\n        /* \"#utility.yul\":6562:6565   */\n      0x00\n        /* \"#utility.yul\":6583:6650   */\n      tag_217\n        /* \"#utility.yul\":6647:6649   */\n      0x14\n        /* \"#utility.yul\":6642:6645   */\n      dup4\n        /* \"#utility.yul\":6583:6650   */\n      tag_141\n      jump\t// in\n    tag_217:\n        /* \"#utility.yul\":6576:6650   */\n      swap2\n      pop\n        /* \"#utility.yul\":6659:6752   */\n      tag_218\n        /* \"#utility.yul\":6748:6751   */\n      dup3\n        /* \"#utility.yul\":6659:6752   */\n      tag_148\n      jump\t// in\n    tag_218:\n        /* \"#utility.yul\":6777:6779   */\n      0x20\n        /* \"#utility.yul\":6772:6775   */\n      dup3\n        /* \"#utility.yul\":6768:6780   */\n      add\n        /* \"#utility.yul\":6761:6780   */\n      swap1\n      pop\n        /* \"#utility.yul\":6420:6786   */\n      swap2\n      swap1\n      pop\n      jump\t// out\n        /* \"#utility.yul\":6792:7211   */\n    tag_94:\n        /* \"#utility.yul\":6958:6962   */\n      0x00\n        /* \"#utility.yul\":6996:6998   */\n      0x20\n        /* \"#utility.yul\":6985:6994   */\n      dup3\n        /* \"#utility.yul\":6981:6999   */\n      add\n        /* \"#utility.yul\":6973:6999   */\n      swap1\n      pop\n        /* \"#utility.yul\":7045:7054   */\n      dup2\n        /* \"#utility.yul\":7039:7043   */\n      dup2\n        /* \"#utility.yul\":7035:7055   */\n      sub\n        /* \"#utility.yul\":7031:7032   */\n      0x00\n        /* \"#utility.yul\":7020:7029   */\n      dup4\n        /* \"#utility.yul\":7016:7033   */\n      add\n        /* \"#utility.yul\":7009:7056   */\n      mstore\n        /* \"#utility.yul\":7073:7204   */\n      tag_220\n        /* \"#utility.yul\":7199:7203   */\n      dup2\n        /* \"#utility.yul\":7073:7204   */\n      tag_149\n      jump\t// in\n    tag_220:\n        /* \"#utility.yul\":7065:7204   */\n      swap1\n      pop\n        /* \"#utility.yul\":6792:7211   */\n      swap2\n      swap1\n      pop\n      jump\t// out\n        /* \"#utility.yul\":7217:7398   */\n    tag_150:\n        /* \"#utility.yul\":7357:7390   */\n      0x476f616c2077617320726561636865642c2063616e6e6f7420726566756e6400\n        /* \"#utility.yul\":7353:7354   */\n      0x00\n        /* \"#utility.yul\":7345:7351   */\n      dup3\n        /* \"#utility.yul\":7341:7355   */\n      add\n        /* \"#utility.yul\":7334:7391   */\n      mstore\n        /* \"#utility.yul\":7217:7398   */\n      pop\n      jump\t// out\n        /* \"#utility.yul\":7404:7770   */\n    tag_151:\n        /* \"#utility.yul\":7546:7549   */\n      0x00\n        /* \"#utility.yul\":7567:7634   */\n      tag_223\n        /* \"#utility.yul\":7631:7633   */\n      0x1f\n        /* \"#utility.yul\":7626:7629   */\n      dup4\n        /* \"#utility.yul\":7567:7634   */\n      tag_141\n      jump\t// in\n    tag_223:\n        /* \"#utility.yul\":7560:7634   */\n      swap2\n      pop\n        /* \"#utility.yul\":7643:7736   */\n      tag_224\n        /* \"#utility.yul\":7732:7735   */\n      dup3\n        /* \"#utility.yul\":7643:7736   */\n      tag_150\n      jump\t// in\n    tag_224:\n        /* \"#utility.yul\":7761:7763   */\n      0x20\n        /* \"#utility.yul\":7756:7759   */\n      dup3\n        /* \"#utility.yul\":7752:7764   */\n      add\n        /* \"#utility.yul\":7745:7764   */\n      swap1\n      pop\n        /* \"#utility.yul\":7404:7770   */\n      swap2\n      swap1\n      pop\n      jump\t// out\n        /* \"#utility.yul\":7776:8195   */\n    tag_98:\n        /* \"#utility.yul\":7942:7946   */\n      0x00\n        /* \"#utility.yul\":7980:7982   */\n      0x20\n        /* \"#utility.yul\":7969:7978   */\n      dup3\n        /* \"#utility.yul\":7965:7983   */\n      add\n        /* \"#utility.yul\":7957:7983   */\n      swap1\n      pop\n        /* \"#utility.yul\":8029:8038   */\n      dup2\n        /* \"#utility.yul\":8023:8027   */\n      dup2\n        /* \"#utility.yul\":8019:8039   */\n      sub\n        /* \"#utility.yul\":8015:8016   */\n      0x00\n        /* \"#utility.yul\":8004:8013   */\n      dup4\n        /* \"#utility.yul\":8000:8017   */\n      add\n        /* \"#utility.yul\":7993:8040   */\n      mstore\n        /* \"#utility.yul\":8057:8188   */\n      tag_226\n        /* \"#utility.yul\":8183:8187   */\n      dup2\n        /* \"#utility.yul\":8057:8188   */\n      tag_151\n      jump\t// in\n    tag_226:\n        /* \"#utility.yul\":8049:8188   */\n      swap1\n      pop\n        /* \"#utility.yul\":7776:8195   */\n      swap2\n      swap1\n      pop\n      jump\t// out\n        /* \"#utility.yul\":8201:8368   */\n    tag_152:\n        /* \"#utility.yul\":8341:8360   */\n      0x4e6f7468696e6720746f20726566756e64000000000000000000000000000000\n        /* \"#utility.yul\":8337:8338   */\n      0x00\n        /* \"#utility.yul\":8329:8335   */\n      dup3\n        /* \"#utility.yul\":8325:8339   */\n      add\n        /* \"#utility.yul\":8318:8361   */\n      mstore\n        /* \"#utility.yul\":8201:8368   */\n      pop\n      jump\t// out\n        /* \"#utility.yul\":8374:8740   */\n    tag_153:\n        /* \"#utility.yul\":8516:8519   */\n      0x00\n        /* \"#utility.yul\":8537:8604   */\n      tag_229\n        /* \"#utility.yul\":8601:8603   */\n      0x11\n        /* \"#utility.yul\":8596:8599   */\n      dup4\n        /* \"#utility.yul\":8537:8604   */\n      tag_141\n      jump\t// in\n    tag_229:\n        /* \"#utility.yul\":8530:8604   */\n      swap2\n      pop\n        /* \"#utility.yul\":8613:8706   */\n      tag_230\n        /* \"#utility.yul\":8702:8705   */\n      dup3\n        /* \"#utility.yul\":8613:8706   */\n      tag_152\n      jump\t// in\n    tag_230:\n        /* \"#utility.yul\":8731:8733   */\n      0x20\n        /* \"#utility.yul\":8726:8729   */\n      dup3\n        /* \"#utility.yul\":8722:8734   */\n      add\n        /* \"#utility.yul\":8715:8734   */\n      swap1\n      pop\n        /* \"#utility.yul\":8374:8740   */\n      swap2\n      swap1\n      pop\n      jump\t// out\n        /* \"#utility.yul\":8746:9165   */\n    tag_101:\n        /* \"#utility.yul\":8912:8916   */\n      0x00\n        /* \"#utility.yul\":8950:8952   */\n      0x20\n        /* \"#utility.yul\":8939:8948   */\n      dup3\n        /* \"#utility.yul\":8935:8953   */\n      add\n        /* \"#utility.yul\":8927:8953   */\n      swap1\n      pop\n        /* \"#utility.yul\":8999:9008   */\n      dup2\n        /* \"#utility.yul\":8993:8997   */\n      dup2\n        /* \"#utility.yul\":8989:9009   */\n      sub\n        /* \"#utility.yul\":8985:8986   */\n      0x00\n        /* \"#utility.yul\":8974:8983   */\n      dup4\n        /* \"#utility.yul\":8970:8987   */\n      add\n        /* \"#utility.yul\":8963:9010   */\n      mstore\n        /* \"#utility.yul\":9027:9158   */\n      tag_232\n        /* \"#utility.yul\":9153:9157   */\n      dup2\n        /* \"#utility.yul\":9027:9158   */\n      tag_153\n      jump\t// in\n    tag_232:\n        /* \"#utility.yul\":9019:9158   */\n      swap1\n      pop\n        /* \"#utility.yul\":8746:9165   */\n      swap2\n      swap1\n      pop\n      jump\t// out\n        /* \"#utility.yul\":9171:9351   */\n    tag_154:\n        /* \"#utility.yul\":9219:9296   */\n      0x4e487b7100000000000000000000000000000000000000000000000000000000\n        /* \"#utility.yul\":9216:9217   */\n      0x00\n        /* \"#utility.yul\":9209:9297   */\n      mstore\n        /* \"#utility.yul\":9316:9320   */\n      0x11\n        /* \"#utility.yul\":9313:9314   */\n      0x04\n        /* \"#utility.yul\":9306:9321   */\n      mstore\n        /* \"#utility.yul\":9340:9344   */\n      0x24\n        /* \"#utility.yul\":9337:9338   */\n      0x00\n        /* \"#utility.yul\":9330:9345   */\n      revert\n        /* \"#utility.yul\":9357:9551   */\n    tag_110:\n        /* \"#utility.yul\":9397:9401   */\n      0x00\n        /* \"#utility.yul\":9417:9437   */\n      tag_235\n        /* \"#utility.yul\":9435:9436   */\n      dup3\n        /* \"#utility.yul\":9417:9437   */\n      tag_129\n      jump\t// in\n    tag_235:\n        /* \"#utility.yul\":9412:9437   */\n      swap2\n      pop\n        /* \"#utility.yul\":9451:9471   */\n      tag_236\n        /* \"#utility.yul\":9469:9470   */\n      dup4\n        /* \"#utility.yul\":9451:9471   */\n      tag_129\n      jump\t// in\n    tag_236:\n        /* \"#utility.yul\":9446:9471   */\n      swap3\n      pop\n        /* \"#utility.yul\":9495:9496   */\n      dup3\n        /* \"#utility.yul\":9492:9493   */\n      dup3\n        /* \"#utility.yul\":9488:9497   */\n      sub\n        /* \"#utility.yul\":9480:9497   */\n      swap1\n      pop\n        /* \"#utility.yul\":9519:9520   */\n      dup2\n        /* \"#utility.yul\":9513:9517   */\n      dup2\n        /* \"#utility.yul\":9510:9521   */\n      gt\n        /* \"#utility.yul\":9507:9544   */\n      iszero\n      tag_237\n      jumpi\n        /* \"#utility.yul\":9524:9542   */\n      tag_238\n      tag_154\n      jump\t// in\n    tag_238:\n        /* \"#utility.yul\":9507:9544   */\n    tag_237:\n        /* \"#utility.yul\":9357:9551   */\n      swap3\n      swap2\n      pop\n      pop\n      jump\t// out\n        /* \"#utility.yul\":9557:9726   */\n    tag_155:\n        /* \"#utility.yul\":9697:9718   */\n      0x446561646c696e65206861732070617373656400000000000000000000000000\n        /* \"#utility.yul\":9693:9694   */\n      0x00\n        /* \"#utility.yul\":9685:9691   */\n      dup3\n        /* \"#utility.yul\":9681:9695   */\n      add\n        /* \"#utility.yul\":9674:9719   */\n      mstore\n        /* \"#utility.yul\":9557:9726   */\n      pop\n      jump\t// out\n        /* \"#utility.yul\":9732:10098   */\n    tag_156:\n        /* \"#utility.yul\":9874:9877   */\n      0x00\n        /* \"#utility.yul\":9895:9962   */\n      tag_241\n        /* \"#utility.yul\":9959:9961   */\n      0x13\n        /* \"#utility.yul\":9954:9957   */\n      dup4\n        /* \"#utility.yul\":9895:9962   */\n      tag_141\n      jump\t// in\n    tag_241:\n        /* \"#utility.yul\":9888:9962   */\n      swap2\n      pop\n        /* \"#utility.yul\":9971:10064   */\n      tag_242\n        /* \"#utility.yul\":10060:10063   */\n      dup3\n        /* \"#utility.yul\":9971:10064   */\n      tag_155\n      jump\t// in\n    tag_242:\n        /* \"#utility.yul\":10089:10091   */\n      0x20\n        /* \"#utility.yul\":10084:10087   */\n      dup3\n        /* \"#utility.yul\":10080:10092   */\n      add\n        /* \"#utility.yul\":10073:10092   */\n      swap1\n      pop\n        /* \"#utility.yul\":9732:10098   */\n      swap2\n      swap1\n      pop\n      jump\t// out\n        /* \"#utility.yul\":10104:10523   */\n    tag_114:\n        /* \"#utility.yul\":10270:10274   */\n      0x00\n        /* \"#utility.yul\":10308:10310   */\n      0x20\n        /* \"#utility.yul\":10297:10306   */\n      dup3\n        /* \"#utility.yul\":10293:10311   */\n      add\n        /* \"#utility.yul\":10285:10311   */\n      swap1\n      pop\n        /* \"#utility.yul\":10357:10366   */\n      dup2\n        /* \"#utility.yul\":10351:10355   */\n      dup2\n        /* \"#utility.yul\":10347:10367   */\n      sub\n        /* \"#utility.yul\":10343:10344   */\n      0x00\n        /* \"#utility.yul\":10332:10341   */\n      dup4\n        /* \"#utility.yul\":10328:10345   */\n      add\n        /* \"#utility.yul\":10321:10368   */\n      mstore\n        /* \"#utility.yul\":10385:10516   */\n      tag_244\n        /* \"#utility.yul\":10511:10515   */\n      dup2\n        /* \"#utility.yul\":10385:10516   */\n      tag_156\n      jump\t// in\n    tag_244:\n        /* \"#utility.yul\":10377:10516   */\n      swap1\n      pop\n        /* \"#utility.yul\":10104:10523   */\n      swap2\n      swap1\n      pop\n      jump\t// out\n        /* \"#utility.yul\":10529:10694   */\n    tag_157:\n        /* \"#utility.yul\":10669:10686   */\n      0x4d7573742073656e642045746865720000000000000000000000000000000000\n        /* \"#utility.yul\":10665:10666   */\n      0x00\n        /* \"#utility.yul\":10657:10663   */\n      dup3\n        /* \"#utility.yul\":10653:10667   */\n      add\n        /* \"#utility.yul\":10646:10687   */\n      mstore\n        /* \"#utility.yul\":10529:10694   */\n      pop\n      jump\t// out\n        /* \"#utility.yul\":10700:11066   */\n    tag_158:\n        /* \"#utility.yul\":10842:10845   */\n      0x00\n        /* \"#utility.yul\":10863:10930   */\n      tag_247\n        /* \"#utility.yul\":10927:10929   */\n      0x0f\n        /* \"#utility.yul\":10922:10925   */\n      dup4\n        /* \"#utility.yul\":10863:10930   */\n      tag_141\n      jump\t// in\n    tag_247:\n        /* \"#utility.yul\":10856:10930   */\n      swap2\n      pop\n        /* \"#utility.yul\":10939:11032   */\n      tag_248\n        /* \"#utility.yul\":11028:11031   */\n      dup3\n        /* \"#utility.yul\":10939:11032   */\n      tag_157\n      jump\t// in\n    tag_248:\n        /* \"#utility.yul\":11057:11059   */\n      0x20\n        /* \"#utility.yul\":11052:11055   */\n      dup3\n        /* \"#utility.yul\":11048:11060   */\n      add\n        /* \"#utility.yul\":11041:11060   */\n      swap1\n      pop\n        /* \"#utility.yul\":10700:11066   */\n      swap2\n      swap1\n      pop\n      jump\t// out\n        /* \"#utility.yul\":11072:11491   */\n    tag_118:\n        /* \"#utility.yul\":11238:11242   */\n      0x00\n        /* \"#utility.yul\":11276:11278   */\n      0x20\n        /* \"#utility.yul\":11265:11274   */\n      dup3\n        /* \"#utility.yul\":11261:11279   */\n      add\n        /* \"#utility.yul\":11253:11279   */\n      swap1\n      pop\n        /* \"#utility.yul\":11325:11334   */\n      dup2\n        /* \"#utility.yul\":11319:11323   */\n      dup2\n        /* \"#utility.yul\":11315:11335   */\n      sub\n        /* \"#utility.yul\":11311:11312   */\n      0x00\n        /* \"#utility.yul\":11300:11309   */\n      dup4\n        /* \"#utility.yul\":11296:11313   */\n      add\n        /* \"#utility.yul\":11289:11336   */\n      mstore\n        /* \"#utility.yul\":11353:11484   */\n      tag_250\n        /* \"#utility.yul\":11479:11483   */\n      dup2\n        /* \"#utility.yul\":11353:11484   */\n      tag_158\n      jump\t// in\n    tag_250:\n        /* \"#utility.yul\":11345:11484   */\n      swap1\n      pop\n        /* \"#utility.yul\":11072:11491   */\n      swap2\n      swap1\n      pop\n      jump\t// out\n        /* \"#utility.yul\":11497:11688   */\n    tag_121:\n        /* \"#utility.yul\":11537:11540   */\n      0x00\n        /* \"#utility.yul\":11556:11576   */\n      tag_252\n        /* \"#utility.yul\":11574:11575   */\n      dup3\n        /* \"#utility.yul\":11556:11576   */\n      tag_129\n      jump\t// in\n    tag_252:\n        /* \"#utility.yul\":11551:11576   */\n      swap2\n      pop\n        /* \"#utility.yul\":11590:11610   */\n      tag_253\n        /* \"#utility.yul\":11608:11609   */\n      dup4\n        /* \"#utility.yul\":11590:11610   */\n      tag_129\n      jump\t// in\n    tag_253:\n        /* \"#utility.yul\":11585:11610   */\n      swap3\n      pop\n        /* \"#utility.yul\":11633:11634   */\n      dup3\n        /* \"#utility.yul\":11630:11631   */\n      dup3\n        /* \"#utility.yul\":11626:11635   */\n      add\n        /* \"#utility.yul\":11619:11635   */\n      swap1\n      pop\n        /* \"#utility.yul\":11654:11657   */\n      dup1\n        /* \"#utility.yul\":11651:11652   */\n      dup3\n        /* \"#utility.yul\":11648:11658   */\n      gt\n        /* \"#utility.yul\":11645:11681   */\n      iszero\n      tag_254\n      jumpi\n        /* \"#utility.yul\":11661:11679   */\n      tag_255\n      tag_154\n      jump\t// in\n    tag_255:\n        /* \"#utility.yul\":11645:11681   */\n    tag_254:\n        /* \"#utility.yul\":11497:11688   */\n      swap3\n      swap2\n      pop\n      pop\n      jump\t// out\n\n    auxdata: 0xa2646970667358221220e1dd3a7a8377579377bc7c1c25ec39b75c3dd359b44fdaeccd65e367e7348f9664736f6c634300081e0033\n}\n",
				"bytecode": {
					"linkReferences": {},
					"object": "608060405234801561001057600080fd5b506040516111d73803806111d7833981810160405281019061003291906100d9565b336000806101000a81548173ffffffffffffffffffffffffffffffffffffffff021916908373ffffffffffffffffffffffffffffffffffffffff16021790555081600181905550603c816100869190610148565b42610091919061018a565b60028190555050506101be565b600080fd5b6000819050919050565b6100b6816100a3565b81146100c157600080fd5b50565b6000815190506100d3816100ad565b92915050565b600080604083850312156100f0576100ef61009e565b5b60006100fe858286016100c4565b925050602061010f858286016100c4565b9150509250929050565b7f4e487b7100000000000000000000000000000000000000000000000000000000600052601160045260246000fd5b6000610153826100a3565b915061015e836100a3565b925082820261016c816100a3565b9150828204841483151761018357610182610119565b5b5092915050565b6000610195826100a3565b91506101a0836100a3565b92508282019050808211156101b8576101b7610119565b5b92915050565b61100a806101cd6000396000f3fe6080604052600436106100dd5760003560e01c80638da5cb5b1161007f578063c80ec52211610059578063c80ec5221461027a578063d7bb99ba146102a5578063ecfd8928146102af578063fbbf93a0146102da576100dd565b80638da5cb5b146101f9578063c71daccb14610224578063c7e284b81461024f576100dd565b806342e94c90116100bb57806342e94c901461014f578063590e1ae31461018c5780637b3e5e7b146101a35780637d3d6522146101ce576100dd565b806329dcb0cf146100e25780633ccfd60b1461010d5780634019388314610124575b600080fd5b3480156100ee57600080fd5b506100f761030a565b6040516101049190610a60565b60405180910390f35b34801561011957600080fd5b50610122610310565b005b34801561013057600080fd5b50610139610535565b6040516101469190610a60565b60405180910390f35b34801561015b57600080fd5b5061017660048036038101906101719190610ade565b61053b565b6040516101839190610a60565b60405180910390f35b34801561019857600080fd5b506101a1610553565b005b3480156101af57600080fd5b506101b8610742565b6040516101c59190610a60565b60405180910390f35b3480156101da57600080fd5b506101e3610748565b6040516101f09190610b26565b60405180910390f35b34801561020557600080fd5b5061020e61075b565b60405161021b9190610b50565b60405180910390f35b34801561023057600080fd5b5061023961077f565b6040516102469190610a60565b60405180910390f35b34801561025b57600080fd5b50610264610789565b6040516102719190610a60565b60405180910390f35b34801561028657600080fd5b5061028f6107b1565b60405161029c9190610b26565b60405180910390f35b6102ad6107c4565b005b3480156102bb57600080fd5b506102c46109e7565b6040516102d19190610a60565b60405180910390f35b3480156102e657600080fd5b506102ef6109ed565b60405161030196959493929190610b6b565b60405180910390f35b60025481565b60008054906101000a900473ffffffffffffffffffffffffffffffffffffffff1673ffffffffffffffffffffffffffffffffffffffff163373ffffffffffffffffffffffffffffffffffffffff161461039e576040517f08c379a000000000000000000000000000000000000000000000000000000000815260040161039590610c29565b60405180910390fd5b600660009054906101000a900460ff166103ed576040517f08c379a00000000000000000000000000000000000000000000000000000000081526004016103e490610c95565b60405180910390fd5b600660019054906101000a900460ff161561043d576040517f08c379a000000000000000000000000000000000000000000000000000000000815260040161043490610d01565b60405180910390fd5b6001600660016101000a81548160ff021916908315150217905550600047905060008054906101000a900473ffffffffffffffffffffffffffffffffffffffff1673ffffffffffffffffffffffffffffffffffffffff166108fc829081150290604051600060405180830381858888f193505050501580156104c3573d6000803e3d6000fd5b5060008054906101000a900473ffffffffffffffffffffffffffffffffffffffff1673ffffffffffffffffffffffffffffffffffffffff167f7084f5476618d8e60b11ef0d7d3f06914655adb8793e28ff7f018d4c76d505d58260405161052a9190610a60565b60405180910390a250565b60015481565b60056020528060005260406000206000915090505481565b600254421015610598576040517f08c379a000000000000000000000000000000000000000000000000000000000815260040161058f90610d6d565b60405180910390fd5b600154600354106105de576040517f08c379a00000000000000000000000000000000000000000000000000000000081526004016105d590610dd9565b60405180910390fd5b6000600560003373ffffffffffffffffffffffffffffffffffffffff1673ffffffffffffffffffffffffffffffffffffffff16815260200190815260200160002054905060008111610665576040517f08c379a000000000000000000000000000000000000000000000000000000000815260040161065c90610e45565b60405180910390fd5b6000600560003373ffffffffffffffffffffffffffffffffffffffff1673ffffffffffffffffffffffffffffffffffffffff168152602001908152602001600020819055503373ffffffffffffffffffffffffffffffffffffffff166108fc829081150290604051600060405180830381858888f193505050501580156106f0573d6000803e3d6000fd5b503373ffffffffffffffffffffffffffffffffffffffff167fd7dee2702d63ad89917b6a4da9981c90c4d24f8c2bdfd64c604ecae57d8d0651826040516107379190610a60565b60405180910390a250565b60035481565b600660009054906101000a900460ff1681565b60008054906101000a900473ffffffffffffffffffffffffffffffffffffffff1681565b6000600354905090565b6000600254421061079d57600090506107ae565b426002546107ab9190610e94565b90505b90565b600660019054906101000a900460ff1681565b6002544210610808576040517f08c379a00000000000000000000000000000000000000000000000000000000081526004016107ff90610f14565b60405180910390fd5b6000341161084b576040517f08c379a000000000000000000000000000000000000000000000000000000000815260040161084290610f80565b60405180910390fd5b6000600560003373ffffffffffffffffffffffffffffffffffffffff1673ffffffffffffffffffffffffffffffffffffffff16815260200190815260200160002054036108ad576001600460008282546108a59190610fa0565b925050819055505b34600560003373ffffffffffffffffffffffffffffffffffffffff1673ffffffffffffffffffffffffffffffffffffffff16815260200190815260200160002060008282546108fc9190610fa0565b9250508190555034600360008282546109159190610fa0565b925050819055503373ffffffffffffffffffffffffffffffffffffffff167f54a5b8782470a0d2c022b3b9e5e729503ac5dbdfe053afeb4559f9297f7565a6346040516109629190610a60565b60405180910390a26001546003541015801561098b5750600660009054906101000a900460ff16155b156109e5576001600660006101000a81548160ff0219169083151502179055507ffbfd8ab7c24300fa9888cd721c8565a7da56759384781283684dcf7c7c4a846b6003546040516109dc9190610a60565b60405180910390a15b565b60045481565b60008060008060008060015460025460035460045460008054906101000a900473ffffffffffffffffffffffffffffffffffffffff16600660009054906101000a900460ff16955095509550955095509550909192939495565b6000819050919050565b610a5a81610a47565b82525050565b6000602082019050610a756000830184610a51565b92915050565b600080fd5b600073ffffffffffffffffffffffffffffffffffffffff82169050919050565b6000610aab82610a80565b9050919050565b610abb81610aa0565b8114610ac657600080fd5b50565b600081359050610ad881610ab2565b92915050565b600060208284031215610af457610af3610a7b565b5b6000610b0284828501610ac9565b91505092915050565b60008115159050919050565b610b2081610b0b565b82525050565b6000602082019050610b3b6000830184610b17565b92915050565b610b4a81610aa0565b82525050565b6000602082019050610b656000830184610b41565b92915050565b600060c082019050610b806000830189610a51565b610b8d6020830188610a51565b610b9a6040830187610a51565b610ba76060830186610a51565b610bb46080830185610b41565b610bc160a0830184610b17565b979650505050505050565b600082825260208201905092915050565b7f4e6f7420636f6e7472616374206f776e65720000000000000000000000000000600082015250565b6000610c13601283610bcc565b9150610c1e82610bdd565b602082019050919050565b60006020820190508181036000830152610c4281610c06565b9050919050565b7f476f616c206e6f74207265616368656400000000000000000000000000000000600082015250565b6000610c7f601083610bcc565b9150610c8a82610c49565b602082019050919050565b60006020820190508181036000830152610cae81610c72565b9050919050565b7f416c72656164792077697468647261776e000000000000000000000000000000600082015250565b6000610ceb601183610bcc565b9150610cf682610cb5565b602082019050919050565b60006020820190508181036000830152610d1a81610cde565b9050919050565b7f446561646c696e65206e6f742072656163686564000000000000000000000000600082015250565b6000610d57601483610bcc565b9150610d6282610d21565b602082019050919050565b60006020820190508181036000830152610d8681610d4a565b9050919050565b7f476f616c2077617320726561636865642c2063616e6e6f7420726566756e6400600082015250565b6000610dc3601f83610bcc565b9150610dce82610d8d565b602082019050919050565b60006020820190508181036000830152610df281610db6565b9050919050565b7f4e6f7468696e6720746f20726566756e64000000000000000000000000000000600082015250565b6000610e2f601183610bcc565b9150610e3a82610df9565b602082019050919050565b60006020820190508181036000830152610e5e81610e22565b9050919050565b7f4e487b7100000000000000000000000000000000000000000000000000000000600052601160045260246000fd5b6000610e9f82610a47565b9150610eaa83610a47565b9250828203905081811115610ec257610ec1610e65565b5b92915050565b7f446561646c696e65206861732070617373656400000000000000000000000000600082015250565b6000610efe601383610bcc565b9150610f0982610ec8565b602082019050919050565b60006020820190508181036000830152610f2d81610ef1565b9050919050565b7f4d7573742073656e642045746865720000000000000000000000000000000000600082015250565b6000610f6a600f83610bcc565b9150610f7582610f34565b602082019050919050565b60006020820190508181036000830152610f9981610f5d565b9050919050565b6000610fab82610a47565b9150610fb683610a47565b9250828201905080821115610fce57610fcd610e65565b5b9291505056fea2646970667358221220e1dd3a7a8377579377bc7c1c25ec39b75c3dd359b44fdaeccd65e367e7348f9664736f6c634300081e0033",
					"opcodes": "PUSH1 0x80 PUSH1 0x40 MSTORE CALLVALUE DUP1 ISZERO PUSH2 0x10 JUMPI PUSH1 0x0 DUP1 REVERT JUMPDEST POP PUSH1 0x40 MLOAD PUSH2 0x11D7 CODESIZE SUB DUP1 PUSH2 0x11D7 DUP4 CODECOPY DUP2 DUP2 ADD PUSH1 0x40 MSTORE DUP2 ADD SWAP1 PUSH2 0x32 SWAP2 SWAP1 PUSH2 0xD9 JUMP JUMPDEST CALLER PUSH1 0x0 DUP1 PUSH2 0x100 EXP DUP2 SLOAD DUP2 PUSH20 0xFFFFFFFFFFFFFFFFFFFFFFFFFFFFFFFFFFFFFFFF MUL NOT AND SWAP1 DUP4 PUSH20 0xFFFFFFFFFFFFFFFFFFFFFFFFFFFFFFFFFFFFFFFF AND MUL OR SWAP1 SSTORE POP DUP2 PUSH1 0x1 DUP2 SWAP1 SSTORE POP PUSH1 0x3C DUP2 PUSH2 0x86 SWAP2 SWAP1 PUSH2 0x148 JUMP JUMPDEST TIMESTAMP PUSH2 0x91 SWAP2 SWAP1 PUSH2 0x18A JUMP JUMPDEST PUSH1 0x2 DUP2 SWAP1 SSTORE POP POP POP PUSH2 0x1BE JUMP JUMPDEST PUSH1 0x0 DUP1 REVERT JUMPDEST PUSH1 0x0 DUP2 SWAP1 POP SWAP2 SWAP1 POP JUMP JUMPDEST PUSH2 0xB6 DUP2 PUSH2 0xA3 JUMP JUMPDEST DUP2 EQ PUSH2 0xC1 JUMPI PUSH1 0x0 DUP1 REVERT JUMPDEST POP JUMP JUMPDEST PUSH1 0x0 DUP2 MLOAD SWAP1 POP PUSH2 0xD3 DUP2 PUSH2 0xAD JUMP JUMPDEST SWAP3 SWAP2 POP POP JUMP JUMPDEST PUSH1 0x0 DUP1 PUSH1 0x40 DUP4 DUP6 SUB SLT ISZERO PUSH2 0xF0 JUMPI PUSH2 0xEF PUSH2 0x9E JUMP JUMPDEST JUMPDEST PUSH1 0x0 PUSH2 0xFE DUP6 DUP3 DUP7 ADD PUSH2 0xC4 JUMP JUMPDEST SWAP3 POP POP PUSH1 0x20 PUSH2 0x10F DUP6 DUP3 DUP7 ADD PUSH2 0xC4 JUMP JUMPDEST SWAP2 POP POP SWAP3 POP SWAP3 SWAP1 POP JUMP JUMPDEST PUSH32 0x4E487B7100000000000000000000000000000000000000000000000000000000 PUSH1 0x0 MSTORE PUSH1 0x11 PUSH1 0x4 MSTORE PUSH1 0x24 PUSH1 0x0 REVERT JUMPDEST PUSH1 0x0 PUSH2 0x153 DUP3 PUSH2 0xA3 JUMP JUMPDEST SWAP2 POP PUSH2 0x15E DUP4 PUSH2 0xA3 JUMP JUMPDEST SWAP3 POP DUP3 DUP3 MUL PUSH2 0x16C DUP2 PUSH2 0xA3 JUMP JUMPDEST SWAP2 POP DUP3 DUP3 DIV DUP5 EQ DUP4 ISZERO OR PUSH2 0x183 JUMPI PUSH2 0x182 PUSH2 0x119 JUMP JUMPDEST JUMPDEST POP SWAP3 SWAP2 POP POP JUMP JUMPDEST PUSH1 0x0 PUSH2 0x195 DUP3 PUSH2 0xA3 JUMP JUMPDEST SWAP2 POP PUSH2 0x1A0 DUP4 PUSH2 0xA3 JUMP JUMPDEST SWAP3 POP DUP3 DUP3 ADD SWAP1 POP DUP1 DUP3 GT ISZERO PUSH2 0x1B8 JUMPI PUSH2 0x1B7 PUSH2 0x119 JUMP JUMPDEST JUMPDEST SWAP3 SWAP2 POP POP JUMP JUMPDEST PUSH2 0x100A DUP1 PUSH2 0x1CD PUSH1 0x0 CODECOPY PUSH1 0x0 RETURN INVALID PUSH1 0x80 PUSH1 0x40 MSTORE PUSH1 0x4 CALLDATASIZE LT PUSH2 0xDD JUMPI PUSH1 0x0 CALLDATALOAD PUSH1 0xE0 SHR DUP1 PUSH4 0x8DA5CB5B GT PUSH2 0x7F JUMPI DUP1 PUSH4 0xC80EC522 GT PUSH2 0x59 JUMPI DUP1 PUSH4 0xC80EC522 EQ PUSH2 0x27A JUMPI DUP1 PUSH4 0xD7BB99BA EQ PUSH2 0x2A5 JUMPI DUP1 PUSH4 0xECFD8928 EQ PUSH2 0x2AF JUMPI DUP1 PUSH4 0xFBBF93A0 EQ PUSH2 0x2DA JUMPI PUSH2 0xDD JUMP JUMPDEST DUP1 PUSH4 0x8DA5CB5B EQ PUSH2 0x1F9 JUMPI DUP1 PUSH4 0xC71DACCB EQ PUSH2 0x224 JUMPI DUP1 PUSH4 0xC7E284B8 EQ PUSH2 0x24F JUMPI PUSH2 0xDD JUMP JUMPDEST DUP1 PUSH4 0x42E94C90 GT PUSH2 0xBB JUMPI DUP1 PUSH4 0x42E94C90 EQ PUSH2 0x14F JUMPI DUP1 PUSH4 0x590E1AE3 EQ PUSH2 0x18C JUMPI DUP1 PUSH4 0x7B3E5E7B EQ PUSH2 0x1A3 JUMPI DUP1 PUSH4 0x7D3D6522 EQ PUSH2 0x1CE JUMPI PUSH2 0xDD JUMP JUMPDEST DUP1 PUSH4 0x29DCB0CF EQ PUSH2 0xE2 JUMPI DUP1 PUSH4 0x3CCFD60B EQ PUSH2 0x10D JUMPI DUP1 PUSH4 0x40193883 EQ PUSH2 0x124 JUMPI JUMPDEST PUSH1 0x0 DUP1 REVERT JUMPDEST CALLVALUE DUP1 ISZERO PUSH2 0xEE JUMPI PUSH1 0x0 DUP1 REVERT JUMPDEST POP PUSH2 0xF7 PUSH2 0x30A JUMP JUMPDEST PUSH1 0x40 MLOAD PUSH2 0x104 SWAP2 SWAP1 PUSH2 0xA60 JUMP JUMPDEST PUSH1 0x40 MLOAD DUP1 SWAP2 SUB SWAP1 RETURN JUMPDEST CALLVALUE DUP1 ISZERO PUSH2 0x119 JUMPI PUSH1 0x0 DUP1 REVERT JUMPDEST POP PUSH2 0x122 PUSH2 0x310 JUMP JUMPDEST STOP JUMPDEST CALLVALUE DUP1 ISZERO PUSH2 0x130 JUMPI PUSH1 0x0 DUP1 REVERT JUMPDEST POP PUSH2 0x139 PUSH2 0x535 JUMP JUMPDEST PUSH1 0x40 MLOAD PUSH2 0x146 SWAP2 SWAP1 PUSH2 0xA60 JUMP JUMPDEST PUSH1 0x40 MLOAD DUP1 SWAP2 SUB SWAP1 RETURN JUMPDEST CALLVALUE DUP1 ISZERO PUSH2 0x15B JUMPI PUSH1 0x0 DUP1 REVERT JUMPDEST POP PUSH2 0x176 PUSH1 0x4 DUP1 CALLDATASIZE SUB DUP2 ADD SWAP1 PUSH2 0x171 SWAP2 SWAP1 PUSH2 0xADE JUMP JUMPDEST PUSH2 0x53B JUMP JUMPDEST PUSH1 0x40 MLOAD PUSH2 0x183 SWAP2 SWAP1 PUSH2 0xA60 JUMP JUMPDEST PUSH1 0x40 MLOAD DUP1 SWAP2 SUB SWAP1 RETURN JUMPDEST CALLVALUE DUP1 ISZERO PUSH2 0x198 JUMPI PUSH1 0x0 DUP1 REVERT JUMPDEST POP PUSH2 0x1A1 PUSH2 0x553 JUMP JUMPDEST STOP JUMPDEST CALLVALUE DUP1 ISZERO PUSH2 0x1AF JUMPI PUSH1 0x0 DUP1 REVERT JUMPDEST POP PUSH2 0x1B8 PUSH2 0x742 JUMP JUMPDEST PUSH1 0x40 MLOAD PUSH2 0x1C5 SWAP2 SWAP1 PUSH2 0xA60 JUMP JUMPDEST PUSH1 0x40 MLOAD DUP1 SWAP2 SUB SWAP1 RETURN JUMPDEST CALLVALUE DUP1 ISZERO PUSH2 0x1DA JUMPI PUSH1 0x0 DUP1 REVERT JUMPDEST POP PUSH2 0x1E3 PUSH2 0x748 JUMP JUMPDEST PUSH1 0x40 MLOAD PUSH2 0x1F0 SWAP2 SWAP1 PUSH2 0xB26 JUMP JUMPDEST PUSH1 0x40 MLOAD DUP1 SWAP2 SUB SWAP1 RETURN JUMPDEST CALLVALUE DUP1 ISZERO PUSH2 0x205 JUMPI PUSH1 0x0 DUP1 REVERT JUMPDEST POP PUSH2 0x20E PUSH2 0x75B JUMP JUMPDEST PUSH1 0x40 MLOAD PUSH2 0x21B SWAP2 SWAP1 PUSH2 0xB50 JUMP JUMPDEST PUSH1 0x40 MLOAD DUP1 SWAP2 SUB SWAP1 RETURN JUMPDEST CALLVALUE DUP1 ISZERO PUSH2 0x230 JUMPI PUSH1 0x0 DUP1 REVERT JUMPDEST POP PUSH2 0x239 PUSH2 0x77F JUMP JUMPDEST PUSH1 0x40 MLOAD PUSH2 0x246 SWAP2 SWAP1 PUSH2 0xA60 JUMP JUMPDEST PUSH1 0x40 MLOAD DUP1 SWAP2 SUB SWAP1 RETURN JUMPDEST CALLVALUE DUP1 ISZERO PUSH2 0x25B JUMPI PUSH1 0x0 DUP1 REVERT JUMPDEST POP PUSH2 0x264 PUSH2 0x789 JUMP JUMPDEST PUSH1 0x40 MLOAD PUSH2 0x271 SWAP2 SWAP1 PUSH2 0xA60 JUMP JUMPDEST PUSH1 0x40 MLOAD DUP1 SWAP2 SUB SWAP1 RETURN JUMPDEST CALLVALUE DUP1 ISZERO PUSH2 0x286 JUMPI PUSH1 0x0 DUP1 REVERT JUMPDEST POP PUSH2 0x28F PUSH2 0x7B1 JUMP JUMPDEST PUSH1 0x40 MLOAD PUSH2 0x29C SWAP2 SWAP1 PUSH2 0xB26 JUMP JUMPDEST PUSH1 0x40 MLOAD DUP1 SWAP2 SUB SWAP1 RETURN JUMPDEST PUSH2 0x2AD PUSH2 0x7C4 JUMP JUMPDEST STOP JUMPDEST CALLVALUE DUP1 ISZERO PUSH2 0x2BB JUMPI PUSH1 0x0 DUP1 REVERT JUMPDEST POP PUSH2 0x2C4 PUSH2 0x9E7 JUMP JUMPDEST PUSH1 0x40 MLOAD PUSH2 0x2D1 SWAP2 SWAP1 PUSH2 0xA60 JUMP JUMPDEST PUSH1 0x40 MLOAD DUP1 SWAP2 SUB SWAP1 RETURN JUMPDEST CALLVALUE DUP1 ISZERO PUSH2 0x2E6 JUMPI PUSH1 0x0 DUP1 REVERT JUMPDEST POP PUSH2 0x2EF PUSH2 0x9ED JUMP JUMPDEST PUSH1 0x40 MLOAD PUSH2 0x301 SWAP7 SWAP6 SWAP5 SWAP4 SWAP3 SWAP2 SWAP1 PUSH2 0xB6B JUMP JUMPDEST PUSH1 0x40 MLOAD DUP1 SWAP2 SUB SWAP1 RETURN JUMPDEST PUSH1 0x2 SLOAD DUP2 JUMP JUMPDEST PUSH1 0x0 DUP1 SLOAD SWAP1 PUSH2 0x100 EXP SWAP1 DIV PUSH20 0xFFFFFFFFFFFFFFFFFFFFFFFFFFFFFFFFFFFFFFFF AND PUSH20 0xFFFFFFFFFFFFFFFFFFFFFFFFFFFFFFFFFFFFFFFF AND CALLER PUSH20 0xFFFFFFFFFFFFFFFFFFFFFFFFFFFFFFFFFFFFFFFF AND EQ PUSH2 0x39E JUMPI PUSH1 0x40 MLOAD PUSH32 0x8C379A000000000000000000000000000000000000000000000000000000000 DUP2 MSTORE PUSH1 0x4 ADD PUSH2 0x395 SWAP1 PUSH2 0xC29 JUMP JUMPDEST PUSH1 0x40 MLOAD DUP1 SWAP2 SUB SWAP1 REVERT JUMPDEST PUSH1 0x6 PUSH1 0x0 SWAP1 SLOAD SWAP1 PUSH2 0x100 EXP SWAP1 DIV PUSH1 0xFF AND PUSH2 0x3ED JUMPI PUSH1 0x40 MLOAD PUSH32 0x8C379A000000000000000000000000000000000000000000000000000000000 DUP2 MSTORE PUSH1 0x4 ADD PUSH2 0x3E4 SWAP1 PUSH2 0xC95 JUMP JUMPDEST PUSH1 0x40 MLOAD DUP1 SWAP2 SUB SWAP1 REVERT JUMPDEST PUSH1 0x6 PUSH1 0x1 SWAP1 SLOAD SWAP1 PUSH2 0x100 EXP SWAP1 DIV PUSH1 0xFF AND ISZERO PUSH2 0x43D JUMPI PUSH1 0x40 MLOAD PUSH32 0x8C379A000000000000000000000000000000000000000000000000000000000 DUP2 MSTORE PUSH1 0x4 ADD PUSH2 0x434 SWAP1 PUSH2 0xD01 JUMP JUMPDEST PUSH1 0x40 MLOAD DUP1 SWAP2 SUB SWAP1 REVERT JUMPDEST PUSH1 0x1 PUSH1 0x6 PUSH1 0x1 PUSH2 0x100 EXP DUP2 SLOAD DUP2 PUSH1 0xFF MUL NOT AND SWAP1 DUP4 ISZERO ISZERO MUL OR SWAP1 SSTORE POP PUSH1 0x0 SELFBALANCE SWAP1 POP PUSH1 0x0 DUP1 SLOAD SWAP1 PUSH2 0x100 EXP SWAP1 DIV PUSH20 0xFFFFFFFFFFFFFFFFFFFFFFFFFFFFFFFFFFFFFFFF AND PUSH20 0xFFFFFFFFFFFFFFFFFFFFFFFFFFFFFFFFFFFFFFFF AND PUSH2 0x8FC DUP3 SWAP1 DUP2 ISZERO MUL SWAP1 PUSH1 0x40 MLOAD PUSH1 0x0 PUSH1 0x40 MLOAD DUP1 DUP4 SUB DUP2 DUP6 DUP9 DUP9 CALL SWAP4 POP POP POP POP ISZERO DUP1 ISZERO PUSH2 0x4C3 JUMPI RETURNDATASIZE PUSH1 0x0 DUP1 RETURNDATACOPY RETURNDATASIZE PUSH1 0x0 REVERT JUMPDEST POP PUSH1 0x0 DUP1 SLOAD SWAP1 PUSH2 0x100 EXP SWAP1 DIV PUSH20 0xFFFFFFFFFFFFFFFFFFFFFFFFFFFFFFFFFFFFFFFF AND PUSH20 0xFFFFFFFFFFFFFFFFFFFFFFFFFFFFFFFFFFFFFFFF AND PUSH32 0x7084F5476618D8E60B11EF0D7D3F06914655ADB8793E28FF7F018D4C76D505D5 DUP3 PUSH1 0x40 MLOAD PUSH2 0x52A SWAP2 SWAP1 PUSH2 0xA60 JUMP JUMPDEST PUSH1 0x40 MLOAD DUP1 SWAP2 SUB SWAP1 LOG2 POP JUMP JUMPDEST PUSH1 0x1 SLOAD DUP2 JUMP JUMPDEST PUSH1 0x5 PUSH1 0x20 MSTORE DUP1 PUSH1 0x0 MSTORE PUSH1 0x40 PUSH1 0x0 KECCAK256 PUSH1 0x0 SWAP2 POP SWAP1 POP SLOAD DUP2 JUMP JUMPDEST PUSH1 0x2 SLOAD TIMESTAMP LT ISZERO PUSH2 0x598 JUMPI PUSH1 0x40 MLOAD PUSH32 0x8C379A000000000000000000000000000000000000000000000000000000000 DUP2 MSTORE PUSH1 0x4 ADD PUSH2 0x58F SWAP1 PUSH2 0xD6D JUMP JUMPDEST PUSH1 0x40 MLOAD DUP1 SWAP2 SUB SWAP1 REVERT JUMPDEST PUSH1 0x1 SLOAD PUSH1 0x3 SLOAD LT PUSH2 0x5DE JUMPI PUSH1 0x40 MLOAD PUSH32 0x8C379A000000000000000000000000000000000000000000000000000000000 DUP2 MSTORE PUSH1 0x4 ADD PUSH2 0x5D5 SWAP1 PUSH2 0xDD9 JUMP JUMPDEST PUSH1 0x40 MLOAD DUP1 SWAP2 SUB SWAP1 REVERT JUMPDEST PUSH1 0x0 PUSH1 0x5 PUSH1 0x0 CALLER PUSH20 0xFFFFFFFFFFFFFFFFFFFFFFFFFFFFFFFFFFFFFFFF AND PUSH20 0xFFFFFFFFFFFFFFFFFFFFFFFFFFFFFFFFFFFFFFFF AND DUP2 MSTORE PUSH1 0x20 ADD SWAP1 DUP2 MSTORE PUSH1 0x20 ADD PUSH1 0x0 KECCAK256 SLOAD SWAP1 POP PUSH1 0x0 DUP2 GT PUSH2 0x665 JUMPI PUSH1 0x40 MLOAD PUSH32 0x8C379A000000000000000000000000000000000000000000000000000000000 DUP2 MSTORE PUSH1 0x4 ADD PUSH2 0x65C SWAP1 PUSH2 0xE45 JUMP JUMPDEST PUSH1 0x40 MLOAD DUP1 SWAP2 SUB SWAP1 REVERT JUMPDEST PUSH1 0x0 PUSH1 0x5 PUSH1 0x0 CALLER PUSH20 0xFFFFFFFFFFFFFFFFFFFFFFFFFFFFFFFFFFFFFFFF AND PUSH20 0xFFFFFFFFFFFFFFFFFFFFFFFFFFFFFFFFFFFFFFFF AND DUP2 MSTORE PUSH1 0x20 ADD SWAP1 DUP2 MSTORE PUSH1 0x20 ADD PUSH1 0x0 KECCAK256 DUP2 SWAP1 SSTORE POP CALLER PUSH20 0xFFFFFFFFFFFFFFFFFFFFFFFFFFFFFFFFFFFFFFFF AND PUSH2 0x8FC DUP3 SWAP1 DUP2 ISZERO MUL SWAP1 PUSH1 0x40 MLOAD PUSH1 0x0 PUSH1 0x40 MLOAD DUP1 DUP4 SUB DUP2 DUP6 DUP9 DUP9 CALL SWAP4 POP POP POP POP ISZERO DUP1 ISZERO PUSH2 0x6F0 JUMPI RETURNDATASIZE PUSH1 0x0 DUP1 RETURNDATACOPY RETURNDATASIZE PUSH1 0x0 REVERT JUMPDEST POP CALLER PUSH20 0xFFFFFFFFFFFFFFFFFFFFFFFFFFFFFFFFFFFFFFFF AND PUSH32 0xD7DEE2702D63AD89917B6A4DA9981C90C4D24F8C2BDFD64C604ECAE57D8D0651 DUP3 PUSH1 0x40 MLOAD PUSH2 0x737 SWAP2 SWAP1 PUSH2 0xA60 JUMP JUMPDEST PUSH1 0x40 MLOAD DUP1 SWAP2 SUB SWAP1 LOG2 POP JUMP JUMPDEST PUSH1 0x3 SLOAD DUP2 JUMP JUMPDEST PUSH1 0x6 PUSH1 0x0 SWAP1 SLOAD SWAP1 PUSH2 0x100 EXP SWAP1 DIV PUSH1 0xFF AND DUP2 JUMP JUMPDEST PUSH1 0x0 DUP1 SLOAD SWAP1 PUSH2 0x100 EXP SWAP1 DIV PUSH20 0xFFFFFFFFFFFFFFFFFFFFFFFFFFFFFFFFFFFFFFFF AND DUP2 JUMP JUMPDEST PUSH1 0x0 PUSH1 0x3 SLOAD SWAP1 POP SWAP1 JUMP JUMPDEST PUSH1 0x0 PUSH1 0x2 SLOAD TIMESTAMP LT PUSH2 0x79D JUMPI PUSH1 0x0 SWAP1 POP PUSH2 0x7AE JUMP JUMPDEST TIMESTAMP PUSH1 0x2 SLOAD PUSH2 0x7AB SWAP2 SWAP1 PUSH2 0xE94 JUMP JUMPDEST SWAP1 POP JUMPDEST SWAP1 JUMP JUMPDEST PUSH1 0x6 PUSH1 0x1 SWAP1 SLOAD SWAP1 PUSH2 0x100 EXP SWAP1 DIV PUSH1 0xFF AND DUP2 JUMP JUMPDEST PUSH1 0x2 SLOAD TIMESTAMP LT PUSH2 0x808 JUMPI PUSH1 0x40 MLOAD PUSH32 0x8C379A000000000000000000000000000000000000000000000000000000000 DUP2 MSTORE PUSH1 0x4 ADD PUSH2 0x7FF SWAP1 PUSH2 0xF14 JUMP JUMPDEST PUSH1 0x40 MLOAD DUP1 SWAP2 SUB SWAP1 REVERT JUMPDEST PUSH1 0x0 CALLVALUE GT PUSH2 0x84B JUMPI PUSH1 0x40 MLOAD PUSH32 0x8C379A000000000000000000000000000000000000000000000000000000000 DUP2 MSTORE PUSH1 0x4 ADD PUSH2 0x842 SWAP1 PUSH2 0xF80 JUMP JUMPDEST PUSH1 0x40 MLOAD DUP1 SWAP2 SUB SWAP1 REVERT JUMPDEST PUSH1 0x0 PUSH1 0x5 PUSH1 0x0 CALLER PUSH20 0xFFFFFFFFFFFFFFFFFFFFFFFFFFFFFFFFFFFFFFFF AND PUSH20 0xFFFFFFFFFFFFFFFFFFFFFFFFFFFFFFFFFFFFFFFF AND DUP2 MSTORE PUSH1 0x20 ADD SWAP1 DUP2 MSTORE PUSH1 0x20 ADD PUSH1 0x0 KECCAK256 SLOAD SUB PUSH2 0x8AD JUMPI PUSH1 0x1 PUSH1 0x4 PUSH1 0x0 DUP3 DUP3 SLOAD PUSH2 0x8A5 SWAP2 SWAP1 PUSH2 0xFA0 JUMP JUMPDEST SWAP3 POP POP DUP2 SWAP1 SSTORE POP JUMPDEST CALLVALUE PUSH1 0x5 PUSH1 0x0 CALLER PUSH20 0xFFFFFFFFFFFFFFFFFFFFFFFFFFFFFFFFFFFFFFFF AND PUSH20 0xFFFFFFFFFFFFFFFFFFFFFFFFFFFFFFFFFFFFFFFF AND DUP2 MSTORE PUSH1 0x20 ADD SWAP1 DUP2 MSTORE PUSH1 0x20 ADD PUSH1 0x0 KECCAK256 PUSH1 0x0 DUP3 DUP3 SLOAD PUSH2 0x8FC SWAP2 SWAP1 PUSH2 0xFA0 JUMP JUMPDEST SWAP3 POP POP DUP2 SWAP1 SSTORE POP CALLVALUE PUSH1 0x3 PUSH1 0x0 DUP3 DUP3 SLOAD PUSH2 0x915 SWAP2 SWAP1 PUSH2 0xFA0 JUMP JUMPDEST SWAP3 POP POP DUP2 SWAP1 SSTORE POP CALLER PUSH20 0xFFFFFFFFFFFFFFFFFFFFFFFFFFFFFFFFFFFFFFFF AND PUSH32 0x54A5B8782470A0D2C022B3B9E5E729503AC5DBDFE053AFEB4559F9297F7565A6 CALLVALUE PUSH1 0x40 MLOAD PUSH2 0x962 SWAP2 SWAP1 PUSH2 0xA60 JUMP JUMPDEST PUSH1 0x40 MLOAD DUP1 SWAP2 SUB SWAP1 LOG2 PUSH1 0x1 SLOAD PUSH1 0x3 SLOAD LT ISZERO DUP1 ISZERO PUSH2 0x98B JUMPI POP PUSH1 0x6 PUSH1 0x0 SWAP1 SLOAD SWAP1 PUSH2 0x100 EXP SWAP1 DIV PUSH1 0xFF AND ISZERO JUMPDEST ISZERO PUSH2 0x9E5 JUMPI PUSH1 0x1 PUSH1 0x6 PUSH1 0x0 PUSH2 0x100 EXP DUP2 SLOAD DUP2 PUSH1 0xFF MUL NOT AND SWAP1 DUP4 ISZERO ISZERO MUL OR SWAP1 SSTORE POP PUSH32 0xFBFD8AB7C24300FA9888CD721C8565A7DA56759384781283684DCF7C7C4A846B PUSH1 0x3 SLOAD PUSH1 0x40 MLOAD PUSH2 0x9DC SWAP2 SWAP1 PUSH2 0xA60 JUMP JUMPDEST PUSH1 0x40 MLOAD DUP1 SWAP2 SUB SWAP1 LOG1 JUMPDEST JUMP JUMPDEST PUSH1 0x4 SLOAD DUP2 JUMP JUMPDEST PUSH1 0x0 DUP1 PUSH1 0x0 DUP1 PUSH1 0x0 DUP1 PUSH1 0x1 SLOAD PUSH1 0x2 SLOAD PUSH1 0x3 SLOAD PUSH1 0x4 SLOAD PUSH1 0x0 DUP1 SLOAD SWAP1 PUSH2 0x100 EXP SWAP1 DIV PUSH20 0xFFFFFFFFFFFFFFFFFFFFFFFFFFFFFFFFFFFFFFFF AND PUSH1 0x6 PUSH1 0x0 SWAP1 SLOAD SWAP1 PUSH2 0x100 EXP SWAP1 DIV PUSH1 0xFF AND SWAP6 POP SWAP6 POP SWAP6 POP SWAP6 POP SWAP6 POP SWAP6 POP SWAP1 SWAP2 SWAP3 SWAP4 SWAP5 SWAP6 JUMP JUMPDEST PUSH1 0x0 DUP2 SWAP1 POP SWAP2 SWAP1 POP JUMP JUMPDEST PUSH2 0xA5A DUP2 PUSH2 0xA47 JUMP JUMPDEST DUP3 MSTORE POP POP JUMP JUMPDEST PUSH1 0x0 PUSH1 0x20 DUP3 ADD SWAP1 POP PUSH2 0xA75 PUSH1 0x0 DUP4 ADD DUP5 PUSH2 0xA51 JUMP JUMPDEST SWAP3 SWAP2 POP POP JUMP JUMPDEST PUSH1 0x0 DUP1 REVERT JUMPDEST PUSH1 0x0 PUSH20 0xFFFFFFFFFFFFFFFFFFFFFFFFFFFFFFFFFFFFFFFF DUP3 AND SWAP1 POP SWAP2 SWAP1 POP JUMP JUMPDEST PUSH1 0x0 PUSH2 0xAAB DUP3 PUSH2 0xA80 JUMP JUMPDEST SWAP1 POP SWAP2 SWAP1 POP JUMP JUMPDEST PUSH2 0xABB DUP2 PUSH2 0xAA0 JUMP JUMPDEST DUP2 EQ PUSH2 0xAC6 JUMPI PUSH1 0x0 DUP1 REVERT JUMPDEST POP JUMP JUMPDEST PUSH1 0x0 DUP2 CALLDATALOAD SWAP1 POP PUSH2 0xAD8 DUP2 PUSH2 0xAB2 JUMP JUMPDEST SWAP3 SWAP2 POP POP JUMP JUMPDEST PUSH1 0x0 PUSH1 0x20 DUP3 DUP5 SUB SLT ISZERO PUSH2 0xAF4 JUMPI PUSH2 0xAF3 PUSH2 0xA7B JUMP JUMPDEST JUMPDEST PUSH1 0x0 PUSH2 0xB02 DUP5 DUP3 DUP6 ADD PUSH2 0xAC9 JUMP JUMPDEST SWAP2 POP POP SWAP3 SWAP2 POP POP JUMP JUMPDEST PUSH1 0x0 DUP2 ISZERO ISZERO SWAP1 POP SWAP2 SWAP1 POP JUMP JUMPDEST PUSH2 0xB20 DUP2 PUSH2 0xB0B JUMP JUMPDEST DUP3 MSTORE POP POP JUMP JUMPDEST PUSH1 0x0 PUSH1 0x20 DUP3 ADD SWAP1 POP PUSH2 0xB3B PUSH1 0x0 DUP4 ADD DUP5 PUSH2 0xB17 JUMP JUMPDEST SWAP3 SWAP2 POP POP JUMP JUMPDEST PUSH2 0xB4A DUP2 PUSH2 0xAA0 JUMP JUMPDEST DUP3 MSTORE POP POP JUMP JUMPDEST PUSH1 0x0 PUSH1 0x20 DUP3 ADD SWAP1 POP PUSH2 0xB65 PUSH1 0x0 DUP4 ADD DUP5 PUSH2 0xB41 JUMP JUMPDEST SWAP3 SWAP2 POP POP JUMP JUMPDEST PUSH1 0x0 PUSH1 0xC0 DUP3 ADD SWAP1 POP PUSH2 0xB80 PUSH1 0x0 DUP4 ADD DUP10 PUSH2 0xA51 JUMP JUMPDEST PUSH2 0xB8D PUSH1 0x20 DUP4 ADD DUP9 PUSH2 0xA51 JUMP JUMPDEST PUSH2 0xB9A PUSH1 0x40 DUP4 ADD DUP8 PUSH2 0xA51 JUMP JUMPDEST PUSH2 0xBA7 PUSH1 0x60 DUP4 ADD DUP7 PUSH2 0xA51 JUMP JUMPDEST PUSH2 0xBB4 PUSH1 0x80 DUP4 ADD DUP6 PUSH2 0xB41 JUMP JUMPDEST PUSH2 0xBC1 PUSH1 0xA0 DUP4 ADD DUP5 PUSH2 0xB17 JUMP JUMPDEST SWAP8 SWAP7 POP POP POP POP POP POP POP JUMP JUMPDEST PUSH1 0x0 DUP3 DUP3 MSTORE PUSH1 0x20 DUP3 ADD SWAP1 POP SWAP3 SWAP2 POP POP JUMP JUMPDEST PUSH32 0x4E6F7420636F6E7472616374206F776E65720000000000000000000000000000 PUSH1 0x0 DUP3 ADD MSTORE POP JUMP JUMPDEST PUSH1 0x0 PUSH2 0xC13 PUSH1 0x12 DUP4 PUSH2 0xBCC JUMP JUMPDEST SWAP2 POP PUSH2 0xC1E DUP3 PUSH2 0xBDD JUMP JUMPDEST PUSH1 0x20 DUP3 ADD SWAP1 POP SWAP2 SWAP1 POP JUMP JUMPDEST PUSH1 0x0 PUSH1 0x20 DUP3 ADD SWAP1 POP DUP2 DUP2 SUB PUSH1 0x0 DUP4 ADD MSTORE PUSH2 0xC42 DUP2 PUSH2 0xC06 JUMP JUMPDEST SWAP1 POP SWAP2 SWAP1 POP JUMP JUMPDEST PUSH32 0x476F616C206E6F74207265616368656400000000000000000000000000000000 PUSH1 0x0 DUP3 ADD MSTORE POP JUMP JUMPDEST PUSH1 0x0 PUSH2 0xC7F PUSH1 0x10 DUP4 PUSH2 0xBCC JUMP JUMPDEST SWAP2 POP PUSH2 0xC8A DUP3 PUSH2 0xC49 JUMP JUMPDEST PUSH1 0x20 DUP3 ADD SWAP1 POP SWAP2 SWAP1 POP JUMP JUMPDEST PUSH1 0x0 PUSH1 0x20 DUP3 ADD SWAP1 POP DUP2 DUP2 SUB PUSH1 0x0 DUP4 ADD MSTORE PUSH2 0xCAE DUP2 PUSH2 0xC72 JUMP JUMPDEST SWAP1 POP SWAP2 SWAP1 POP JUMP JUMPDEST PUSH32 0x416C72656164792077697468647261776E000000000000000000000000000000 PUSH1 0x0 DUP3 ADD MSTORE POP JUMP JUMPDEST PUSH1 0x0 PUSH2 0xCEB PUSH1 0x11 DUP4 PUSH2 0xBCC JUMP JUMPDEST SWAP2 POP PUSH2 0xCF6 DUP3 PUSH2 0xCB5 JUMP JUMPDEST PUSH1 0x20 DUP3 ADD SWAP1 POP SWAP2 SWAP1 POP JUMP JUMPDEST PUSH1 0x0 PUSH1 0x20 DUP3 ADD SWAP1 POP DUP2 DUP2 SUB PUSH1 0x0 DUP4 ADD MSTORE PUSH2 0xD1A DUP2 PUSH2 0xCDE JUMP JUMPDEST SWAP1 POP SWAP2 SWAP1 POP JUMP JUMPDEST PUSH32 0x446561646C696E65206E6F742072656163686564000000000000000000000000 PUSH1 0x0 DUP3 ADD MSTORE POP JUMP JUMPDEST PUSH1 0x0 PUSH2 0xD57 PUSH1 0x14 DUP4 PUSH2 0xBCC JUMP JUMPDEST SWAP2 POP PUSH2 0xD62 DUP3 PUSH2 0xD21 JUMP JUMPDEST PUSH1 0x20 DUP3 ADD SWAP1 POP SWAP2 SWAP1 POP JUMP JUMPDEST PUSH1 0x0 PUSH1 0x20 DUP3 ADD SWAP1 POP DUP2 DUP2 SUB PUSH1 0x0 DUP4 ADD MSTORE PUSH2 0xD86 DUP2 PUSH2 0xD4A JUMP JUMPDEST SWAP1 POP SWAP2 SWAP1 POP JUMP JUMPDEST PUSH32 0x476F616C2077617320726561636865642C2063616E6E6F7420726566756E6400 PUSH1 0x0 DUP3 ADD MSTORE POP JUMP JUMPDEST PUSH1 0x0 PUSH2 0xDC3 PUSH1 0x1F DUP4 PUSH2 0xBCC JUMP JUMPDEST SWAP2 POP PUSH2 0xDCE DUP3 PUSH2 0xD8D JUMP JUMPDEST PUSH1 0x20 DUP3 ADD SWAP1 POP SWAP2 SWAP1 POP JUMP JUMPDEST PUSH1 0x0 PUSH1 0x20 DUP3 ADD SWAP1 POP DUP2 DUP2 SUB PUSH1 0x0 DUP4 ADD MSTORE PUSH2 0xDF2 DUP2 PUSH2 0xDB6 JUMP JUMPDEST SWAP1 POP SWAP2 SWAP1 POP JUMP JUMPDEST PUSH32 0x4E6F7468696E6720746F20726566756E64000000000000000000000000000000 PUSH1 0x0 DUP3 ADD MSTORE POP JUMP JUMPDEST PUSH1 0x0 PUSH2 0xE2F PUSH1 0x11 DUP4 PUSH2 0xBCC JUMP JUMPDEST SWAP2 POP PUSH2 0xE3A DUP3 PUSH2 0xDF9 JUMP JUMPDEST PUSH1 0x20 DUP3 ADD SWAP1 POP SWAP2 SWAP1 POP JUMP JUMPDEST PUSH1 0x0 PUSH1 0x20 DUP3 ADD SWAP1 POP DUP2 DUP2 SUB PUSH1 0x0 DUP4 ADD MSTORE PUSH2 0xE5E DUP2 PUSH2 0xE22 JUMP JUMPDEST SWAP1 POP SWAP2 SWAP1 POP JUMP JUMPDEST PUSH32 0x4E487B7100000000000000000000000000000000000000000000000000000000 PUSH1 0x0 MSTORE PUSH1 0x11 PUSH1 0x4 MSTORE PUSH1 0x24 PUSH1 0x0 REVERT JUMPDEST PUSH1 0x0 PUSH2 0xE9F DUP3 PUSH2 0xA47 JUMP JUMPDEST SWAP2 POP PUSH2 0xEAA DUP4 PUSH2 0xA47 JUMP JUMPDEST SWAP3 POP DUP3 DUP3 SUB SWAP1 POP DUP2 DUP2 GT ISZERO PUSH2 0xEC2 JUMPI PUSH2 0xEC1 PUSH2 0xE65 JUMP JUMPDEST JUMPDEST SWAP3 SWAP2 POP POP JUMP JUMPDEST PUSH32 0x446561646C696E65206861732070617373656400000000000000000000000000 PUSH1 0x0 DUP3 ADD MSTORE POP JUMP JUMPDEST PUSH1 0x0 PUSH2 0xEFE PUSH1 0x13 DUP4 PUSH2 0xBCC JUMP JUMPDEST SWAP2 POP PUSH2 0xF09 DUP3 PUSH2 0xEC8 JUMP JUMPDEST PUSH1 0x20 DUP3 ADD SWAP1 POP SWAP2 SWAP1 POP JUMP JUMPDEST PUSH1 0x0 PUSH1 0x20 DUP3 ADD SWAP1 POP DUP2 DUP2 SUB PUSH1 0x0 DUP4 ADD MSTORE PUSH2 0xF2D DUP2 PUSH2 0xEF1 JUMP JUMPDEST SWAP1 POP SWAP2 SWAP1 POP JUMP JUMPDEST PUSH32 0x4D7573742073656E642045746865720000000000000000000000000000000000 PUSH1 0x0 DUP3 ADD MSTORE POP JUMP JUMPDEST PUSH1 0x0 PUSH2 0xF6A PUSH1 0xF DUP4 PUSH2 0xBCC JUMP JUMPDEST SWAP2 POP PUSH2 0xF75 DUP3 PUSH2 0xF34 JUMP JUMPDEST PUSH1 0x20 DUP3 ADD SWAP1 POP SWAP2 SWAP1 POP JUMP JUMPDEST PUSH1 0x0 PUSH1 0x20 DUP3 ADD SWAP1 POP DUP2 DUP2 SUB PUSH1 0x0 DUP4 ADD MSTORE PUSH2 0xF99 DUP2 PUSH2 0xF5D JUMP JUMPDEST SWAP1 POP SWAP2 SWAP1 POP JUMP JUMPDEST PUSH1 0x0 PUSH2 0xFAB DUP3 PUSH2 0xA47 JUMP JUMPDEST SWAP2 POP PUSH2 0xFB6 DUP4 PUSH2 0xA47 JUMP JUMPDEST SWAP3 POP DUP3 DUP3 ADD SWAP1 POP DUP1 DUP3 GT ISZERO PUSH2 0xFCE JUMPI PUSH2 0xFCD PUSH2 0xE65 JUMP JUMPDEST JUMPDEST SWAP3 SWAP2 POP POP JUMP INVALID LOG2 PUSH5 0x6970667358 0x22 SLT KECCAK256 RJUMPI 0xDD3A PUSH27 0x8377579377BC7C1C25EC39B75C3DD359B44FDAECCD65E367E7348F SWAP7 PUSH5 0x736F6C6343 STOP ADDMOD 0x1E STOP CALLER "
				},
				"gasEstimates": {
					"creation": {
						"codeDepositCost": "821200",
						"executionCost": "infinite",
						"totalCost": "infinite"
					},
					"external": {
						"amountRaised()": "1196",
						"checkBalance()": "1182",
						"contribute()": "infinite",
						"contributions(address)": "1537",
						"contributorCount()": "1195",
						"deadline()": "1153",
						"getDetails()": "infinite",
						"getTimeLeft()": "infinite",
						"goal()": "1197",
						"goalReached()": "1260",
						"owner()": "1234",
						"refund()": "infinite",
						"withdraw()": "infinite",
						"withdrawn()": "1243"
					}
				},
				"methodIdentifiers": {
					"amountRaised()": "7b3e5e7b",
					"checkBalance()": "c71daccb",
					"contribute()": "d7bb99ba",
					"contributions(address)": "42e94c90",
					"contributorCount()": "ecfd8928",
					"deadline()": "29dcb0cf",
					"getDetails()": "fbbf93a0",
					"getTimeLeft()": "c7e284b8",
					"goal()": "40193883",
					"goalReached()": "7d3d6522",
					"owner()": "8da5cb5b",
					"refund()": "590e1ae3",
					"withdraw()": "3ccfd60b",
					"withdrawn()": "c80ec522"
				}
			},
			"storageLayout": {
				"storage": [
					{
						"astId": 3,
						"contract": "contracts/CrowdFund.sol:CrowdFund",
						"label": "owner",
						"offset": 0,
						"slot": "0",
						"type": "t_address"
					},
					{
						"astId": 5,
						"contract": "contracts/CrowdFund.sol:CrowdFund",
						"label": "goal",
						"offset": 0,
						"slot": "1",
						"type": "t_uint256"
					},
					{
						"astId": 7,
						"contract": "contracts/CrowdFund.sol:CrowdFund",
						"label": "deadline",
						"offset": 0,
						"slot": "2",
						"type": "t_uint256"
					},
					{
						"astId": 9,
						"contract": "contracts/CrowdFund.sol:CrowdFund",
						"label": "amountRaised",
						"offset": 0,
						"slot": "3",
						"type": "t_uint256"
					},
					{
						"astId": 11,
						"contract": "contracts/CrowdFund.sol:CrowdFund",
						"label": "contributorCount",
						"offset": 0,
						"slot": "4",
						"type": "t_uint256"
					},
					{
						"astId": 15,
						"contract": "contracts/CrowdFund.sol:CrowdFund",
						"label": "contributions",
						"offset": 0,
						"slot": "5",
						"type": "t_mapping(t_address,t_uint256)"
					},
					{
						"astId": 17,
						"contract": "contracts/CrowdFund.sol:CrowdFund",
						"label": "goalReached",
						"offset": 0,
						"slot": "6",
						"type": "t_bool"
					},
					{
						"astId": 19,
						"contract": "contracts/CrowdFund.sol:CrowdFund",
						"label": "withdrawn",
						"offset": 1,
						"slot": "6",
						"type": "t_bool"
					}
				],
				"types": {
					"t_address": {
						"encoding": "inplace",
						"label": "address",
						"numberOfBytes": "20"
					},
					"t_bool": {
						"encoding": "inplace",
						"label": "bool",
						"numberOfBytes": "1"
					},
					"t_mapping(t_address,t_uint256)": {
						"encoding": "mapping",
						"key": "t_address",
						"label": "mapping(address => uint256)",
						"numberOfBytes": "32",
						"value": "t_uint256"
					},
					"t_uint256": {
						"encoding": "inplace",
						"label": "uint256",
						"numberOfBytes": "32"
					}
				}
			},
			"userdoc": {
				"kind": "user",
				"methods": {},
				"version": 1
			}
		}
	}
}