{
	"data": {
		"bytecode": {
			"linkReferences": {},
			"object": "6080604052348015600e575f80fd5b50605f80601a5f395ff3fe608060405260043610601b575f3560e01c8063c40e4c9314601f575b5f80fd5b60256027565b005b56fea2646970667358221220930f42e5c6ff0ce2aa9a87ea8e91d2986a504ddcd6d25c827a848bcc25e5e58864736f6c634300081a0033",
			"opcodes": "PUSH1 0x80 PUSH1 0x40 MSTORE CALLVALUE DUP1 ISZERO PUSH1 0xE JUMPI PUSH0 DUP1 REVERT JUMPDEST POP PUSH1 0x5F DUP1 PUSH1 0x1A PUSH0 CODECOPY PUSH0 RETURN INVALID PUSH1 0x80 PUSH1 0x40 MSTORE PUSH1 0x4 CALLDATASIZE LT PUSH1 0x1B JUMPI PUSH0 CALLDATALOAD PUSH1 0xE0 SHR DUP1 PUSH4 0xC40E4C93 EQ PUSH1 0x1F JUMPI JUMPDEST PUSH0 DUP1 REVERT JUMPDEST PUSH1 0x25 PUSH1 0x27 JUMP JUMPDEST STOP JUMPDEST JUMP INVALID LOG2 PUSH5 0x6970667358 0x22 SLT KECCAK256 SWAP4 0xF TIMESTAMP 0xE5 0xC6 SELFDESTRUCT 0xC 0xE2 0xAA SWAP11 DUP8 0xEA DUP15 SWAP2 0xD2 SWAP9 PUSH11 0x504DDCD6D25C827A848BCC 0x25 0xE5 0xE5 DUP9 PUSH5 0x736F6C6343 STOP ADDMOD BYTE STOP CALLER "
		},
		"deployedBytecode": {
			"immutableReferences": {},
			"linkReferences": {},
			"object": "608060405260043610601b575f3560e01c8063c40e4c9314601f575b5f80fd5b60256027565b005b56fea2646970667358221220930f42e5c6ff0ce2aa9a87ea8e91d2986a504ddcd6d25c827a848bcc25e5e58864736f6c634300081a0033",
			"opcodes": "PUSH1 0x80 PUSH1 0x40 MSTORE PUSH1 0x4 CALLDATASIZE LT PUSH1 0x1B JUMPI PUSH0 CALLDATALOAD PUSH1 0xE0 SHR DUP1 PUSH4 0xC40E4C93 EQ PUSH1 0x1F JUMPI JUMPDEST PUSH0 DUP1 REVERT JUMPDEST PUSH1 0x25 PUSH1 0x27 JUMP JUMPDEST STOP JUMPDEST JUMP INVALID LOG2 PUSH5 0x6970667358 0x22 SLT KECCAK256 SWAP4 0xF TIMESTAMP 0xE5 0xC6 SELFDESTRUCT 0xC 0xE2 0xAA SWAP11 DUP8 0xEA DUP15 SWAP2 0xD2 SWAP9 PUSH11 0x504DDCD6D25C827A848BCC 0x25 0xE5 0xE5 DUP9 PUSH5 0x736F6C6343 STOP ADDMOD BYTE STOP CALLER "
		},
		"gasEstimates": {
			"creation": {
				"codeDepositCost": "19000",
				"executionCost": "67",
				"totalCost": "19067"
			},
			"external": {
				"receivemoney()": "97"
			}
		},
		"methodIdentifiers": {
			"receivemoney()": "c40e4c93"
		}
	},
	"abi": [
		{
			"inputs": [],
			"name": "receivemoney",
			"outputs": [],
			"stateMutability": "payable",
			"type": "function"
		}
	]
}