{
	"data": {
		"bytecode": {
			"linkReferences": {},
			"object": "6080604052348015600e575f5ffd5b50605f80601a5f395ff3fe608060405260043610601b575f3560e01c8063c40e4c9314601f575b5f5ffd5b60256027565b005b56fea264697066735822122042c63353f0cdd8d42334702c22b92dca0626e6556cb4179ddd6ed8ca7a34aa0d64736f6c634300081e0033",
			"opcodes": "PUSH1 0x80 PUSH1 0x40 MSTORE CALLVALUE DUP1 ISZERO PUSH1 0xE JUMPI PUSH0 PUSH0 REVERT JUMPDEST POP PUSH1 0x5F DUP1 PUSH1 0x1A PUSH0 CODECOPY PUSH0 RETURN INVALID PUSH1 0x80 PUSH1 0x40 MSTORE PUSH1 0x4 CALLDATASIZE LT PUSH1 0x1B JUMPI PUSH0 CALLDATALOAD PUSH1 0xE0 SHR DUP1 PUSH4 0xC40E4C93 EQ PUSH1 0x1F JUMPI JUMPDEST PUSH0 PUSH0 REVERT JUMPDEST PUSH1 0x25 PUSH1 0x27 JUMP JUMPDEST STOP JUMPDEST JUMP INVALID LOG2 PUSH5 0x6970667358 0x22 SLT KECCAK256 TIMESTAMP 0xC6 CALLER MSTORE8 CREATE 0xCD 0xD8 0xD4 0x23 CALLVALUE PUSH17 0x2C22B92DCA0626E6556CB4179DDD6ED8CA PUSH27 0x34AA0D64736F6C634300081E003300000000000000000000000000 "
		},
		"deployedBytecode": {
			"immutableReferences": {},
			"linkReferences": {},
			"object": "608060405260043610601b575f3560e01c8063c40e4c9314601f575b5f5ffd5b60256027565b005b56fea264697066735822122042c63353f0cdd8d42334702c22b92dca0626e6556cb4179ddd6ed8ca7a34aa0d64736f6c634300081e0033",
			"opcodes": "PUSH1 0x80 PUSH1 0x40 MSTORE PUSH1 0x4 CALLDATASIZE LT PUSH1 0x1B JUMPI PUSH0 CALLDATALOAD PUSH1 0xE0 SHR DUP1 PUSH4 0xC40E4C93 EQ PUSH1 0x1F JUMPI JUMPDEST PUSH0 PUSH0 REVERT JUMPDEST PUSH1 0x25 PUSH1 0x27 JUMP JUMPDEST STOP JUMPDEST JUMP INVALID LOG2 PUSH5 0x6970667358 0x22 SLT KECCAK256 TIMESTAMP 0xC6 CALLER MSTORE8 CREATE 0xCD 0xD8 0xD4 0x23 CALLVALUE PUSH17 0x2C22B92DCA0626E6556CB4179DDD6ED8CA PUSH27 0x34AA0D64736F6C634300081E003300000000000000000000000000 "
		},
		"gasEstimates": {
			"creation": {
				"codeDepositCost": "19000",
				"executionCost": "67",
				"totalCost": "19067"
			},
			"external": {
				"receivemoney()": "97"
			}
		},
		"methodIdentifiers": {
			"receivemoney()": "c40e4c93"
		}
	},
	"abi": [
		{
			"inputs": [],
			"name": "receivemoney",
			"outputs": [],
			"stateMutability": "payable",
			"type": "function"
		}
	]
}