{
	"data": {
		"bytecode": {
			"linkReferences": {},
			"object": "608060405234801561000f575f5ffd5b506040516106c53803806106c583398181016040528101906100319190610115565b815f5f6101000a81548173ffffffffffffffffffffffffffffffffffffffff021916908373ffffffffffffffffffffffffffffffffffffffff1602179055508060015f6101000a81548173ffffffffffffffffffffffffffffffffffffffff021916908373ffffffffffffffffffffffffffffffffffffffff1602179055505050610153565b5f5ffd5b5f73ffffffffffffffffffffffffffffffffffffffff82169050919050565b5f6100e4826100bb565b9050919050565b6100f4816100da565b81146100fe575f5ffd5b50565b5f8151905061010f816100eb565b92915050565b5f5f6040838503121561012b5761012a6100b7565b5b5f61013885828601610101565b925050602061014985828601610101565b9150509250929050565b610565806101605f395ff3fe608060405234801561000f575f5ffd5b506004361061003f575f3560e01c806325be124e14610043578063d21220a714610061578063df791e501461007f575b5f5ffd5b61004b61009b565b60405161005891906102e1565b60405180910390f35b6100696100c0565b60405161007691906102e1565b60405180910390f35b6100996004803603810190610094919061035b565b6100e4565b005b60015f9054906101000a900473ffffffffffffffffffffffffffffffffffffffff1681565b5f5f9054906101000a900473ffffffffffffffffffffffffffffffffffffffff1681565b5f5f9054906101000a900473ffffffffffffffffffffffffffffffffffffffff1673ffffffffffffffffffffffffffffffffffffffff166323b872dd8484846040518463ffffffff1660e01b8152600401610141939291906103ba565b6020604051808303815f875af115801561015d573d5f5f3e3d5ffd5b505050506040513d601f19601f820116820180604052508101906101819190610424565b6101c0576040517f08c379a00000000000000000000000000000000000000000000000000000000081526004016101b7906104a9565b60405180910390fd5b60015f9054906101000a900473ffffffffffffffffffffffffffffffffffffffff1673ffffffffffffffffffffffffffffffffffffffff166323b872dd8385846040518463ffffffff1660e01b815260040161021e939291906103ba565b6020604051808303815f875af115801561023a573d5f5f3e3d5ffd5b505050506040513d601f19601f8201168201806040525081019061025e9190610424565b61029d576040517f08c379a000000000000000000000000000000000000000000000000000000000815260040161029490610511565b60405180910390fd5b505050565b5f73ffffffffffffffffffffffffffffffffffffffff82169050919050565b5f6102cb826102a2565b9050919050565b6102db816102c1565b82525050565b5f6020820190506102f45f8301846102d2565b92915050565b5f5ffd5b610307816102c1565b8114610311575f5ffd5b50565b5f81359050610322816102fe565b92915050565b5f819050919050565b61033a81610328565b8114610344575f5ffd5b50565b5f8135905061035581610331565b92915050565b5f5f5f60608486031215610372576103716102fa565b5b5f61037f86828701610314565b935050602061039086828701610314565b92505060406103a186828701610347565b9150509250925092565b6103b481610328565b82525050565b5f6060820190506103cd5f8301866102d2565b6103da60208301856102d2565b6103e760408301846103ab565b949350505050565b5f8115159050919050565b610403816103ef565b811461040d575f5ffd5b50565b5f8151905061041e816103fa565b92915050565b5f60208284031215610439576104386102fa565b5b5f61044684828501610410565b91505092915050565b5f82825260208201905092915050565b7f546f6b656e31207472616e73666572206661696c6564000000000000000000005f82015250565b5f61049360168361044f565b915061049e8261045f565b602082019050919050565b5f6020820190508181035f8301526104c081610487565b9050919050565b7f546f6b656e32207472616e73666572206661696c6564000000000000000000005f82015250565b5f6104fb60168361044f565b9150610506826104c7565b602082019050919050565b5f6020820190508181035f830152610528816104ef565b905091905056fea2646970667358221220194a5bace73fe1b8146dcea2b33bb1d307da777eeddca352d136dba4ce5c58a664736f6c634300081e0033",
			"opcodes": "PUSH1 0x80 PUSH1 0x40 MSTORE CALLVALUE DUP1 ISZERO PUSH2 0xF JUMPI PUSH0 PUSH0 REVERT JUMPDEST POP PUSH1 0x40 MLOAD PUSH2 0x6C5 CODESIZE SUB DUP1 PUSH2 0x6C5 DUP4 CODECOPY DUP2 DUP2 ADD PUSH1 0x40 MSTORE DUP2 ADD SWAP1 PUSH2 0x31 SWAP2 SWAP1 PUSH2 0x115 JUMP JUMPDEST DUP2 PUSH0 PUSH0 PUSH2 0x100 EXP DUP2 SLOAD DUP2 PUSH20 0xFFFFFFFFFFFFFFFFFFFFFFFFFFFFFFFFFFFFFFFF MUL NOT AND SWAP1 DUP4 PUSH20 0xFFFFFFFFFFFFFFFFFFFFFFFFFFFFFFFFFFFFFFFF AND MUL OR SWAP1 SSTORE POP DUP1 PUSH1 0x1 PUSH0 PUSH2 0x100 EXP DUP2 SLOAD DUP2 PUSH20 0xFFFFFFFFFFFFFFFFFFFFFFFFFFFFFFFFFFFFFFFF MUL NOT AND SWAP1 DUP4 PUSH20 0xFFFFFFFFFFFFFFFFFFFFFFFFFFFFFFFFFFFFFFFF AND MUL OR SWAP1 SSTORE POP POP POP PUSH2 0x153 JUMP JUMPDEST PUSH0 PUSH0 REVERT JUMPDEST PUSH0 PUSH20 0xFFFFFFFFFFFFFFFFFFFFFFFFFFFFFFFFFFFFFFFF DUP3 AND SWAP1 POP SWAP2 SWAP1 POP JUMP JUMPDEST PUSH0 PUSH2 0xE4 DUP3 PUSH2 0xBB JUMP JUMPDEST SWAP1 POP SWAP2 SWAP1 POP JUMP JUMPDEST PUSH2 0xF4 DUP2 PUSH2 0xDA JUMP JUMPDEST DUP2 EQ PUSH2 0xFE JUMPI PUSH0 PUSH0 REVERT JUMPDEST POP JUMP JUMPDEST PUSH0 DUP2 MLOAD SWAP1 POP PUSH2 0x10F DUP2 PUSH2 0xEB JUMP JUMPDEST SWAP3 SWAP2 POP POP JUMP JUMPDEST PUSH0 PUSH0 PUSH1 0x40 DUP4 DUP6 SUB SLT ISZERO PUSH2 0x12B JUMPI PUSH2 0x12A PUSH2 0xB7 JUMP JUMPDEST JUMPDEST PUSH0 PUSH2 0x138 DUP6 DUP3 DUP7 ADD PUSH2 0x101 JUMP JUMPDEST SWAP3 POP POP PUSH1 0x20 PUSH2 0x149 DUP6 DUP3 DUP7 ADD PUSH2 0x101 JUMP JUMPDEST SWAP2 POP POP SWAP3 POP SWAP3 SWAP1 POP JUMP JUMPDEST PUSH2 0x565 DUP1 PUSH2 0x160 PUSH0 CODECOPY PUSH0 RETURN INVALID PUSH1 0x80 PUSH1 0x40 MSTORE CALLVALUE DUP1 ISZERO PUSH2 0xF JUMPI PUSH0 PUSH0 REVERT JUMPDEST POP PUSH1 0x4 CALLDATASIZE LT PUSH2 0x3F JUMPI PUSH0 CALLDATALOAD PUSH1 0xE0 SHR DUP1 PUSH4 0x25BE124E EQ PUSH2 0x43 JUMPI DUP1 PUSH4 0xD21220A7 EQ PUSH2 0x61 JUMPI DUP1 PUSH4 0xDF791E50 EQ PUSH2 0x7F JUMPI JUMPDEST PUSH0 PUSH0 REVERT JUMPDEST PUSH2 0x4B PUSH2 0x9B JUMP JUMPDEST PUSH1 0x40 MLOAD PUSH2 0x58 SWAP2 SWAP1 PUSH2 0x2E1 JUMP JUMPDEST PUSH1 0x40 MLOAD DUP1 SWAP2 SUB SWAP1 RETURN JUMPDEST PUSH2 0x69 PUSH2 0xC0 JUMP JUMPDEST PUSH1 0x40 MLOAD PUSH2 0x76 SWAP2 SWAP1 PUSH2 0x2E1 JUMP JUMPDEST PUSH1 0x40 MLOAD DUP1 SWAP2 SUB SWAP1 RETURN JUMPDEST PUSH2 0x99 PUSH1 0x4 DUP1 CALLDATASIZE SUB DUP2 ADD SWAP1 PUSH2 0x94 SWAP2 SWAP1 PUSH2 0x35B JUMP JUMPDEST PUSH2 0xE4 JUMP JUMPDEST STOP JUMPDEST PUSH1 0x1 PUSH0 SWAP1 SLOAD SWAP1 PUSH2 0x100 EXP SWAP1 DIV PUSH20 0xFFFFFFFFFFFFFFFFFFFFFFFFFFFFFFFFFFFFFFFF AND DUP2 JUMP JUMPDEST PUSH0 PUSH0 SWAP1 SLOAD SWAP1 PUSH2 0x100 EXP SWAP1 DIV PUSH20 0xFFFFFFFFFFFFFFFFFFFFFFFFFFFFFFFFFFFFFFFF AND DUP2 JUMP JUMPDEST PUSH0 PUSH0 SWAP1 SLOAD SWAP1 PUSH2 0x100 EXP SWAP1 DIV PUSH20 0xFFFFFFFFFFFFFFFFFFFFFFFFFFFFFFFFFFFFFFFF AND PUSH20 0xFFFFFFFFFFFFFFFFFFFFFFFFFFFFFFFFFFFFFFFF AND PUSH4 0x23B872DD DUP5 DUP5 DUP5 PUSH1 0x40 MLOAD DUP5 PUSH4 0xFFFFFFFF AND PUSH1 0xE0 SHL DUP2 MSTORE PUSH1 0x4 ADD PUSH2 0x141 SWAP4 SWAP3 SWAP2 SWAP1 PUSH2 0x3BA JUMP JUMPDEST PUSH1 0x20 PUSH1 0x40 MLOAD DUP1 DUP4 SUB DUP2 PUSH0 DUP8 GAS CALL ISZERO DUP1 ISZERO PUSH2 0x15D JUMPI RETURNDATASIZE PUSH0 PUSH0 RETURNDATACOPY RETURNDATASIZE PUSH0 REVERT JUMPDEST POP POP POP POP PUSH1 0x40 MLOAD RETURNDATASIZE PUSH1 0x1F NOT PUSH1 0x1F DUP3 ADD AND DUP3 ADD DUP1 PUSH1 0x40 MSTORE POP DUP2 ADD SWAP1 PUSH2 0x181 SWAP2 SWAP1 PUSH2 0x424 JUMP JUMPDEST PUSH2 0x1C0 JUMPI PUSH1 0x40 MLOAD PUSH32 0x8C379A000000000000000000000000000000000000000000000000000000000 DUP2 MSTORE PUSH1 0x4 ADD PUSH2 0x1B7 SWAP1 PUSH2 0x4A9 JUMP JUMPDEST PUSH1 0x40 MLOAD DUP1 SWAP2 SUB SWAP1 REVERT JUMPDEST PUSH1 0x1 PUSH0 SWAP1 SLOAD SWAP1 PUSH2 0x100 EXP SWAP1 DIV PUSH20 0xFFFFFFFFFFFFFFFFFFFFFFFFFFFFFFFFFFFFFFFF AND PUSH20 0xFFFFFFFFFFFFFFFFFFFFFFFFFFFFFFFFFFFFFFFF AND PUSH4 0x23B872DD DUP4 DUP6 DUP5 PUSH1 0x40 MLOAD DUP5 PUSH4 0xFFFFFFFF AND PUSH1 0xE0 SHL DUP2 MSTORE PUSH1 0x4 ADD PUSH2 0x21E SWAP4 SWAP3 SWAP2 SWAP1 PUSH2 0x3BA JUMP JUMPDEST PUSH1 0x20 PUSH1 0x40 MLOAD DUP1 DUP4 SUB DUP2 PUSH0 DUP8 GAS CALL ISZERO DUP1 ISZERO PUSH2 0x23A JUMPI RETURNDATASIZE PUSH0 PUSH0 RETURNDATACOPY RETURNDATASIZE PUSH0 REVERT JUMPDEST POP POP POP POP PUSH1 0x40 MLOAD RETURNDATASIZE PUSH1 0x1F NOT PUSH1 0x1F DUP3 ADD AND DUP3 ADD DUP1 PUSH1 0x40 MSTORE POP DUP2 ADD SWAP1 PUSH2 0x25E SWAP2 SWAP1 PUSH2 0x424 JUMP JUMPDEST PUSH2 0x29D JUMPI PUSH1 0x40 MLOAD PUSH32 0x8C379A000000000000000000000000000000000000000000000000000000000 DUP2 MSTORE PUSH1 0x4 ADD PUSH2 0x294 SWAP1 PUSH2 0x511 JUMP JUMPDEST PUSH1 0x40 MLOAD DUP1 SWAP2 SUB SWAP1 REVERT JUMPDEST POP POP POP JUMP JUMPDEST PUSH0 PUSH20 0xFFFFFFFFFFFFFFFFFFFFFFFFFFFFFFFFFFFFFFFF DUP3 AND SWAP1 POP SWAP2 SWAP1 POP JUMP JUMPDEST PUSH0 PUSH2 0x2CB DUP3 PUSH2 0x2A2 JUMP JUMPDEST SWAP1 POP SWAP2 SWAP1 POP JUMP JUMPDEST PUSH2 0x2DB DUP2 PUSH2 0x2C1 JUMP JUMPDEST DUP3 MSTORE POP POP JUMP JUMPDEST PUSH0 PUSH1 0x20 DUP3 ADD SWAP1 POP PUSH2 0x2F4 PUSH0 DUP4 ADD DUP5 PUSH2 0x2D2 JUMP JUMPDEST SWAP3 SWAP2 POP POP JUMP JUMPDEST PUSH0 PUSH0 REVERT JUMPDEST PUSH2 0x307 DUP2 PUSH2 0x2C1 JUMP JUMPDEST DUP2 EQ PUSH2 0x311 JUMPI PUSH0 PUSH0 REVERT JUMPDEST POP JUMP JUMPDEST PUSH0 DUP2 CALLDATALOAD SWAP1 POP PUSH2 0x322 DUP2 PUSH2 0x2FE JUMP JUMPDEST SWAP3 SWAP2 POP POP JUMP JUMPDEST PUSH0 DUP2 SWAP1 POP SWAP2 SWAP1 POP JUMP JUMPDEST PUSH2 0x33A DUP2 PUSH2 0x328 JUMP JUMPDEST DUP2 EQ PUSH2 0x344 JUMPI PUSH0 PUSH0 REVERT JUMPDEST POP JUMP JUMPDEST PUSH0 DUP2 CALLDATALOAD SWAP1 POP PUSH2 0x355 DUP2 PUSH2 0x331 JUMP JUMPDEST SWAP3 SWAP2 POP POP JUMP JUMPDEST PUSH0 PUSH0 PUSH0 PUSH1 0x60 DUP5 DUP7 SUB SLT ISZERO PUSH2 0x372 JUMPI PUSH2 0x371 PUSH2 0x2FA JUMP JUMPDEST JUMPDEST PUSH0 PUSH2 0x37F DUP7 DUP3 DUP8 ADD PUSH2 0x314 JUMP JUMPDEST SWAP4 POP POP PUSH1 0x20 PUSH2 0x390 DUP7 DUP3 DUP8 ADD PUSH2 0x314 JUMP JUMPDEST SWAP3 POP POP PUSH1 0x40 PUSH2 0x3A1 DUP7 DUP3 DUP8 ADD PUSH2 0x347 JUMP JUMPDEST SWAP2 POP POP SWAP3 POP SWAP3 POP SWAP3 JUMP JUMPDEST PUSH2 0x3B4 DUP2 PUSH2 0x328 JUMP JUMPDEST DUP3 MSTORE POP POP JUMP JUMPDEST PUSH0 PUSH1 0x60 DUP3 ADD SWAP1 POP PUSH2 0x3CD PUSH0 DUP4 ADD DUP7 PUSH2 0x2D2 JUMP JUMPDEST PUSH2 0x3DA PUSH1 0x20 DUP4 ADD DUP6 PUSH2 0x2D2 JUMP JUMPDEST PUSH2 0x3E7 PUSH1 0x40 DUP4 ADD DUP5 PUSH2 0x3AB JUMP JUMPDEST SWAP5 SWAP4 POP POP POP POP JUMP JUMPDEST PUSH0 DUP2 ISZERO ISZERO SWAP1 POP SWAP2 SWAP1 POP JUMP JUMPDEST PUSH2 0x403 DUP2 PUSH2 0x3EF JUMP JUMPDEST DUP2 EQ PUSH2 0x40D JUMPI PUSH0 PUSH0 REVERT JUMPDEST POP JUMP JUMPDEST PUSH0 DUP2 MLOAD SWAP1 POP PUSH2 0x41E DUP2 PUSH2 0x3FA JUMP JUMPDEST SWAP3 SWAP2 POP POP JUMP JUMPDEST PUSH0 PUSH1 0x20 DUP3 DUP5 SUB SLT ISZERO PUSH2 0x439 JUMPI PUSH2 0x438 PUSH2 0x2FA JUMP JUMPDEST JUMPDEST PUSH0 PUSH2 0x446 DUP5 DUP3 DUP6 ADD PUSH2 0x410 JUMP JUMPDEST SWAP2 POP POP SWAP3 SWAP2 POP POP JUMP JUMPDEST PUSH0 DUP3 DUP3 MSTORE PUSH1 0x20 DUP3 ADD SWAP1 POP SWAP3 SWAP2 POP POP JUMP JUMPDEST PUSH32 0x546F6B656E31207472616E73666572206661696C656400000000000000000000 PUSH0 DUP3 ADD MSTORE POP JUMP JUMPDEST PUSH0 PUSH2 0x493 PUSH1 0x16 DUP4 PUSH2 0x44F JUMP JUMPDEST SWAP2 POP PUSH2 0x49E DUP3 PUSH2 0x45F JUMP JUMPDEST PUSH1 0x20 DUP3 ADD SWAP1 POP SWAP2 SWAP1 POP JUMP JUMPDEST PUSH0 PUSH1 0x20 DUP3 ADD SWAP1 POP DUP2 DUP2 SUB PUSH0 DUP4 ADD MSTORE PUSH2 0x4C0 DUP2 PUSH2 0x487 JUMP JUMPDEST SWAP1 POP SWAP2 SWAP1 POP JUMP JUMPDEST PUSH32 0x546F6B656E32207472616E73666572206661696C656400000000000000000000 PUSH0 DUP3 ADD MSTORE POP JUMP JUMPDEST PUSH0 PUSH2 0x4FB PUSH1 0x16 DUP4 PUSH2 0x44F JUMP JUMPDEST SWAP2 POP PUSH2 0x506 DUP3 PUSH2 0x4C7 JUMP JUMPDEST PUSH1 0x20 DUP3 ADD SWAP1 POP SWAP2 SWAP1 POP JUMP JUMPDEST PUSH0 PUSH1 0x20 DUP3 ADD SWAP1 POP DUP2 DUP2 SUB PUSH0 DUP4 ADD MSTORE PUSH2 0x528 DUP2 PUSH2 0x4EF JUMP JUMPDEST SWAP1 POP SWAP2 SWAP1 POP JUMP INVALID LOG2 PUSH5 0x6970667358 0x22 SLT KECCAK256 NOT BLOBBASEFEE JUMPDEST 0xAC SWAPN 0x3F RJUMPI 0xB814 PUSH14 0xCEA2B33BB1D307DA777EEDDCA352 DATALOADN 0x36DB LOG4 0xCE TLOAD PC 0xA6 PUSH5 0x736F6C6343 STOP ADDMOD 0x1E STOP CALLER "
		},
		"gasEstimates": {
			"creation": {
				"codeDepositCost": "276200",
				"executionCost": "infinite",
				"totalCost": "infinite"
			},
			"external": {
				"swap(address,address,uint256)": "infinite",
				"token1()": "2507",
				"token2()": "2486"
			}
		},
		"methodIdentifiers": {
			"swap(address,address,uint256)": "df791e50",
			"token1()": "d21220a7",
			"token2()": "25be124e"
		}
	},
	"abi": [
		{
			"inputs": [
				{
					"internalType": "address",
					"name": "_token1",
					"type": "address"
				},
				{
					"internalType": "address",
					"name": "_token2",
					"type": "address"
				}
			],
			"stateMutability": "nonpayable",
			"type": "constructor"
		},
		{
			"inputs": [
				{
					"internalType": "address",
					"name": "from",
					"type": "address"
				},
				{
					"internalType": "address",
					"name": "to",
					"type": "address"
				},
				{
					"internalType": "uint256",
					"name": "amount",
					"type": "uint256"
				}
			],
			"name": "swap",
			"outputs": [],
			"stateMutability": "nonpayable",
			"type": "function"
		},
		{
			"inputs": [],
			"name": "token1",
			"outputs": [
				{
					"internalType": "address",
					"name": "",
					"type": "address"
				}
			],
			"stateMutability": "view",
			"type": "function"
		},
		{
			"inputs": [],
			"name": "token2",
			"outputs": [
				{
					"internalType": "address",
					"name": "",
					"type": "address"
				}
			],
			"stateMutability": "view",
			"type": "function"
		}
	]
}